{
	"MyStuff/Projet 1/Voting.sol": {
		"Voting": {
			"abi": [
				{
					"inputs": [],
					"stateMutability": "nonpayable",
					"type": "constructor"
				},
				{
					"inputs": [
						{
							"internalType": "address",
							"name": "owner",
							"type": "address"
						}
					],
					"name": "OwnableInvalidOwner",
					"type": "error"
				},
				{
					"inputs": [
						{
							"internalType": "address",
							"name": "account",
							"type": "address"
						}
					],
					"name": "OwnableUnauthorizedAccount",
					"type": "error"
				},
				{
					"anonymous": false,
					"inputs": [
						{
							"indexed": true,
							"internalType": "address",
							"name": "previousOwner",
							"type": "address"
						},
						{
							"indexed": true,
							"internalType": "address",
							"name": "newOwner",
							"type": "address"
						}
					],
					"name": "OwnershipTransferred",
					"type": "event"
				},
				{
					"anonymous": false,
					"inputs": [
						{
							"indexed": false,
							"internalType": "uint256",
							"name": "proposalId",
							"type": "uint256"
						}
					],
					"name": "ProposalRegistered",
					"type": "event"
				},
				{
					"anonymous": false,
					"inputs": [
						{
							"indexed": false,
							"internalType": "address",
							"name": "voter",
							"type": "address"
						},
						{
							"indexed": false,
							"internalType": "uint256",
							"name": "proposalId",
							"type": "uint256"
						}
					],
					"name": "Voted",
					"type": "event"
				},
				{
					"anonymous": false,
					"inputs": [
						{
							"indexed": false,
							"internalType": "address",
							"name": "voterAddress",
							"type": "address"
						}
					],
					"name": "VoterRegistered",
					"type": "event"
				},
				{
					"anonymous": false,
					"inputs": [
						{
							"indexed": false,
							"internalType": "enum Voting.WorkflowStatus",
							"name": "previousStatus",
							"type": "uint8"
						},
						{
							"indexed": false,
							"internalType": "enum Voting.WorkflowStatus",
							"name": "newStatus",
							"type": "uint8"
						}
					],
					"name": "WorkflowStatusChange",
					"type": "event"
				},
				{
					"inputs": [
						{
							"internalType": "uint256",
							"name": "_proposalId",
							"type": "uint256"
						}
					],
					"name": "Vote",
					"outputs": [],
					"stateMutability": "nonpayable",
					"type": "function"
				},
				{
					"inputs": [],
					"name": "getWinner",
					"outputs": [
						{
							"components": [
								{
									"internalType": "string",
									"name": "description",
									"type": "string"
								},
								{
									"internalType": "uint256",
									"name": "voteCount",
									"type": "uint256"
								}
							],
							"internalType": "struct Voting.Proposal[]",
							"name": "",
							"type": "tuple[]"
						}
					],
					"stateMutability": "view",
					"type": "function"
				},
				{
					"inputs": [],
					"name": "owner",
					"outputs": [
						{
							"internalType": "address",
							"name": "",
							"type": "address"
						}
					],
					"stateMutability": "view",
					"type": "function"
				},
				{
					"inputs": [
						{
							"internalType": "string",
							"name": "_description",
							"type": "string"
						}
					],
					"name": "registerProposal",
					"outputs": [],
					"stateMutability": "nonpayable",
					"type": "function"
				},
				{
					"inputs": [
						{
							"internalType": "address",
							"name": "_voterAddress",
							"type": "address"
						}
					],
					"name": "registerVoter",
					"outputs": [],
					"stateMutability": "nonpayable",
					"type": "function"
				},
				{
					"inputs": [],
					"name": "renounceOwnership",
					"outputs": [],
					"stateMutability": "nonpayable",
					"type": "function"
				},
				{
					"inputs": [],
					"name": "startProposalRegistration",
					"outputs": [],
					"stateMutability": "nonpayable",
					"type": "function"
				},
				{
					"inputs": [],
					"name": "startVotingSession",
					"outputs": [],
					"stateMutability": "nonpayable",
					"type": "function"
				},
				{
					"inputs": [],
					"name": "stopProposalRegistration",
					"outputs": [],
					"stateMutability": "nonpayable",
					"type": "function"
				},
				{
					"inputs": [],
					"name": "stopVotingSession",
					"outputs": [],
					"stateMutability": "nonpayable",
					"type": "function"
				},
				{
					"inputs": [
						{
							"internalType": "address",
							"name": "newOwner",
							"type": "address"
						}
					],
					"name": "transferOwnership",
					"outputs": [],
					"stateMutability": "nonpayable",
					"type": "function"
				},
				{
					"inputs": [],
					"name": "votesTallied",
					"outputs": [],
					"stateMutability": "nonpayable",
					"type": "function"
				}
			],
			"devdoc": {
				"errors": {
					"OwnableInvalidOwner(address)": [
						{
							"details": "The owner is not a valid owner account. (eg. `address(0)`)"
						}
					],
					"OwnableUnauthorizedAccount(address)": [
						{
							"details": "The caller account is not authorized to perform an operation."
						}
					]
				},
				"kind": "dev",
				"methods": {
					"owner()": {
						"details": "Returns the address of the current owner."
					},
					"renounceOwnership()": {
						"details": "Leaves the contract without owner. It will not be possible to call `onlyOwner` functions. Can only be called by the current owner. NOTE: Renouncing ownership will leave the contract without an owner, thereby disabling any functionality that is only available to the owner."
					},
					"transferOwnership(address)": {
						"details": "Transfers ownership of the contract to a new account (`newOwner`). Can only be called by the current owner."
					}
				},
				"version": 1
			},
			"evm": {
				"assembly": "    /* \"MyStuff/Projet 1/Voting.sol\":173:5941  contract Voting is Ownable {... */\n  mstore(0x40, 0x80)\n    /* \"MyStuff/Projet 1/Voting.sol\":1212:1244  WorkflowStatus.RegisteringVoters */\n  0x00\n    /* \"MyStuff/Projet 1/Voting.sol\":1182:1244  WorkflowStatus currentState = WorkflowStatus.RegisteringVoters */\n  0x02\n  exp(0x0100, 0x00)\n  dup2\n  sload\n  dup2\n  0xff\n  mul\n  not\n  and\n  swap1\n  dup4\n  0x05\n  dup2\n  gt\n  iszero\n  tag_1\n  jumpi\n  tag_2\n  tag_3\n  jump\t// in\ntag_2:\ntag_1:\n  mul\n  or\n  swap1\n  sstore\n  pop\n    /* \"MyStuff/Projet 1/Voting.sol\":1310:1353  constructor() Ownable(msg.sender){... */\n  callvalue\n  dup1\n  iszero\n  tag_4\n  jumpi\n  revert(0x00, 0x00)\ntag_4:\n  pop\n    /* \"MyStuff/Projet 1/Voting.sol\":1332:1342  msg.sender */\n  caller\n    /* \"https://github.com/OpenZeppelin/openzeppelin-contracts/blob/master/contracts/access/Ownable.sol\":1297:1298  0 */\n  0x00\n    /* \"https://github.com/OpenZeppelin/openzeppelin-contracts/blob/master/contracts/access/Ownable.sol\":1273:1299  initialOwner == address(0) */\n  0xffffffffffffffffffffffffffffffffffffffff\n  and\n    /* \"https://github.com/OpenZeppelin/openzeppelin-contracts/blob/master/contracts/access/Ownable.sol\":1273:1285  initialOwner */\n  dup2\n    /* \"https://github.com/OpenZeppelin/openzeppelin-contracts/blob/master/contracts/access/Ownable.sol\":1273:1299  initialOwner == address(0) */\n  0xffffffffffffffffffffffffffffffffffffffff\n  and\n  sub\n    /* \"https://github.com/OpenZeppelin/openzeppelin-contracts/blob/master/contracts/access/Ownable.sol\":1269:1364  if (initialOwner == address(0)) {... */\n  tag_8\n  jumpi\n    /* \"https://github.com/OpenZeppelin/openzeppelin-contracts/blob/master/contracts/access/Ownable.sol\":1350:1351  0 */\n  0x00\n    /* \"https://github.com/OpenZeppelin/openzeppelin-contracts/blob/master/contracts/access/Ownable.sol\":1322:1353  OwnableInvalidOwner(address(0)) */\n  mload(0x40)\n  0x1e4fbdf700000000000000000000000000000000000000000000000000000000\n  dup2\n  mstore\n  0x04\n  add\n  tag_9\n  swap2\n  swap1\n  tag_10\n  jump\t// in\ntag_9:\n  mload(0x40)\n  dup1\n  swap2\n  sub\n  swap1\n  revert\n    /* \"https://github.com/OpenZeppelin/openzeppelin-contracts/blob/master/contracts/access/Ownable.sol\":1269:1364  if (initialOwner == address(0)) {... */\ntag_8:\n    /* \"https://github.com/OpenZeppelin/openzeppelin-contracts/blob/master/contracts/access/Ownable.sol\":1373:1405  _transferOwnership(initialOwner) */\n  tag_11\n    /* \"https://github.com/OpenZeppelin/openzeppelin-contracts/blob/master/contracts/access/Ownable.sol\":1392:1404  initialOwner */\n  dup2\n    /* \"https://github.com/OpenZeppelin/openzeppelin-contracts/blob/master/contracts/access/Ownable.sol\":1373:1391  _transferOwnership */\n  shl(0x20, tag_12)\n    /* \"https://github.com/OpenZeppelin/openzeppelin-contracts/blob/master/contracts/access/Ownable.sol\":1373:1405  _transferOwnership(initialOwner) */\n  0x20\n  shr\n  jump\t// in\ntag_11:\n    /* \"https://github.com/OpenZeppelin/openzeppelin-contracts/blob/master/contracts/access/Ownable.sol\":1225:1412  constructor(address initialOwner) {... */\n  pop\n    /* \"MyStuff/Projet 1/Voting.sol\":173:5941  contract Voting is Ownable {... */\n  jump(tag_14)\n    /* \"https://github.com/OpenZeppelin/openzeppelin-contracts/blob/master/contracts/access/Ownable.sol\":2912:3099  function _transferOwnership(address newOwner) internal virtual {... */\ntag_12:\n    /* \"https://github.com/OpenZeppelin/openzeppelin-contracts/blob/master/contracts/access/Ownable.sol\":2985:3001  address oldOwner */\n  0x00\n    /* \"https://github.com/OpenZeppelin/openzeppelin-contracts/blob/master/contracts/access/Ownable.sol\":3004:3010  _owner */\n  0x00\n  0x00\n  swap1\n  sload\n  swap1\n  0x0100\n  exp\n  swap1\n  div\n  0xffffffffffffffffffffffffffffffffffffffff\n  and\n    /* \"https://github.com/OpenZeppelin/openzeppelin-contracts/blob/master/contracts/access/Ownable.sol\":2985:3010  address oldOwner = _owner */\n  swap1\n  pop\n    /* \"https://github.com/OpenZeppelin/openzeppelin-contracts/blob/master/contracts/access/Ownable.sol\":3029:3037  newOwner */\n  dup2\n    /* \"https://github.com/OpenZeppelin/openzeppelin-contracts/blob/master/contracts/access/Ownable.sol\":3020:3026  _owner */\n  0x00\n  0x00\n    /* \"https://github.com/OpenZeppelin/openzeppelin-contracts/blob/master/contracts/access/Ownable.sol\":3020:3037  _owner = newOwner */\n  0x0100\n  exp\n  dup2\n  sload\n  dup2\n  0xffffffffffffffffffffffffffffffffffffffff\n  mul\n  not\n  and\n  swap1\n  dup4\n  0xffffffffffffffffffffffffffffffffffffffff\n  and\n  mul\n  or\n  swap1\n  sstore\n  pop\n    /* \"https://github.com/OpenZeppelin/openzeppelin-contracts/blob/master/contracts/access/Ownable.sol\":3083:3091  newOwner */\n  dup2\n    /* \"https://github.com/OpenZeppelin/openzeppelin-contracts/blob/master/contracts/access/Ownable.sol\":3052:3092  OwnershipTransferred(oldOwner, newOwner) */\n  0xffffffffffffffffffffffffffffffffffffffff\n  and\n    /* \"https://github.com/OpenZeppelin/openzeppelin-contracts/blob/master/contracts/access/Ownable.sol\":3073:3081  oldOwner */\n  dup2\n    /* \"https://github.com/OpenZeppelin/openzeppelin-contracts/blob/master/contracts/access/Ownable.sol\":3052:3092  OwnershipTransferred(oldOwner, newOwner) */\n  0xffffffffffffffffffffffffffffffffffffffff\n  and\n  0x8be0079c531659141344cd1fd0a4f28419497f9722a3daafe3b4186f6b6457e0\n  mload(0x40)\n  mload(0x40)\n  dup1\n  swap2\n  sub\n  swap1\n  log3\n    /* \"https://github.com/OpenZeppelin/openzeppelin-contracts/blob/master/contracts/access/Ownable.sol\":2975:3099  {... */\n  pop\n    /* \"https://github.com/OpenZeppelin/openzeppelin-contracts/blob/master/contracts/access/Ownable.sol\":2912:3099  function _transferOwnership(address newOwner) internal virtual {... */\n  pop\n  jump\t// out\n    /* \"#utility.yul\":7:187   */\ntag_3:\n    /* \"#utility.yul\":55:132   */\n  0x4e487b7100000000000000000000000000000000000000000000000000000000\n    /* \"#utility.yul\":52:53   */\n  0x00\n    /* \"#utility.yul\":45:133   */\n  mstore\n    /* \"#utility.yul\":152:156   */\n  0x21\n    /* \"#utility.yul\":149:150   */\n  0x04\n    /* \"#utility.yul\":142:157   */\n  mstore\n    /* \"#utility.yul\":176:180   */\n  0x24\n    /* \"#utility.yul\":173:174   */\n  0x00\n    /* \"#utility.yul\":166:181   */\n  revert\n    /* \"#utility.yul\":193:319   */\ntag_16:\n    /* \"#utility.yul\":230:237   */\n  0x00\n    /* \"#utility.yul\":270:312   */\n  0xffffffffffffffffffffffffffffffffffffffff\n    /* \"#utility.yul\":263:268   */\n  dup3\n    /* \"#utility.yul\":259:313   */\n  and\n    /* \"#utility.yul\":248:313   */\n  swap1\n  pop\n    /* \"#utility.yul\":193:319   */\n  swap2\n  swap1\n  pop\n  jump\t// out\n    /* \"#utility.yul\":325:421   */\ntag_17:\n    /* \"#utility.yul\":362:369   */\n  0x00\n    /* \"#utility.yul\":391:415   */\n  tag_23\n    /* \"#utility.yul\":409:414   */\n  dup3\n    /* \"#utility.yul\":391:415   */\n  tag_16\n  jump\t// in\ntag_23:\n    /* \"#utility.yul\":380:415   */\n  swap1\n  pop\n    /* \"#utility.yul\":325:421   */\n  swap2\n  swap1\n  pop\n  jump\t// out\n    /* \"#utility.yul\":427:545   */\ntag_18:\n    /* \"#utility.yul\":514:538   */\n  tag_25\n    /* \"#utility.yul\":532:537   */\n  dup2\n    /* \"#utility.yul\":514:538   */\n  tag_17\n  jump\t// in\ntag_25:\n    /* \"#utility.yul\":509:512   */\n  dup3\n    /* \"#utility.yul\":502:539   */\n  mstore\n    /* \"#utility.yul\":427:545   */\n  pop\n  pop\n  jump\t// out\n    /* \"#utility.yul\":551:773   */\ntag_10:\n    /* \"#utility.yul\":644:648   */\n  0x00\n    /* \"#utility.yul\":682:684   */\n  0x20\n    /* \"#utility.yul\":671:680   */\n  dup3\n    /* \"#utility.yul\":667:685   */\n  add\n    /* \"#utility.yul\":659:685   */\n  swap1\n  pop\n    /* \"#utility.yul\":695:766   */\n  tag_27\n    /* \"#utility.yul\":763:764   */\n  0x00\n    /* \"#utility.yul\":752:761   */\n  dup4\n    /* \"#utility.yul\":748:765   */\n  add\n    /* \"#utility.yul\":739:745   */\n  dup5\n    /* \"#utility.yul\":695:766   */\n  tag_18\n  jump\t// in\ntag_27:\n    /* \"#utility.yul\":551:773   */\n  swap3\n  swap2\n  pop\n  pop\n  jump\t// out\n    /* \"MyStuff/Projet 1/Voting.sol\":173:5941  contract Voting is Ownable {... */\ntag_14:\n  dataSize(sub_0)\n  dup1\n  dataOffset(sub_0)\n  0x00\n  codecopy\n  0x00\n  return\nstop\n\nsub_0: assembly {\n        /* \"MyStuff/Projet 1/Voting.sol\":173:5941  contract Voting is Ownable {... */\n      mstore(0x40, 0x80)\n      callvalue\n      dup1\n      iszero\n      tag_1\n      jumpi\n      revert(0x00, 0x00)\n    tag_1:\n      pop\n      jumpi(tag_2, lt(calldatasize, 0x04))\n      shr(0xe0, calldataload(0x00))\n      dup1\n      0x8da5cb5b\n      gt\n      tag_15\n      jumpi\n      dup1\n      0x8da5cb5b\n      eq\n      tag_9\n      jumpi\n      dup1\n      0x8e7ea5b2\n      eq\n      tag_10\n      jumpi\n      dup1\n      0xada7415f\n      eq\n      tag_11\n      jumpi\n      dup1\n      0xdcd6a5cd\n      eq\n      tag_12\n      jumpi\n      dup1\n      0xee74c678\n      eq\n      tag_13\n      jumpi\n      dup1\n      0xf2fde38b\n      eq\n      tag_14\n      jumpi\n      jump(tag_2)\n    tag_15:\n      dup1\n      0x0f7e2838\n      eq\n      tag_3\n      jumpi\n      dup1\n      0x17a0ad8e\n      eq\n      tag_4\n      jumpi\n      dup1\n      0x2f95355b\n      eq\n      tag_5\n      jumpi\n      dup1\n      0x38db6dd3\n      eq\n      tag_6\n      jumpi\n      dup1\n      0x4abfba2b\n      eq\n      tag_7\n      jumpi\n      dup1\n      0x715018a6\n      eq\n      tag_8\n      jumpi\n    tag_2:\n      revert(0x00, 0x00)\n        /* \"MyStuff/Projet 1/Voting.sol\":2363:2629  function startProposalRegistration() external onlyOwner authorizeAction(WorkflowStatus.RegisteringVoters){... */\n    tag_3:\n      tag_16\n      tag_17\n      jump\t// in\n    tag_16:\n      stop\n        /* \"MyStuff/Projet 1/Voting.sol\":3201:3455  function stopVotingSession() external onlyOwner authorizeAction(WorkflowStatus.VotingSessionStarted){... */\n    tag_4:\n      tag_18\n      tag_19\n      jump\t// in\n    tag_18:\n      stop\n        /* \"MyStuff/Projet 1/Voting.sol\":3760:4203  function registerProposal(string calldata _description) external authorizeAction(WorkflowStatus.ProposalsRegistrationStarted) isRegistered {... */\n    tag_5:\n      tag_20\n      0x04\n      dup1\n      calldatasize\n      sub\n      dup2\n      add\n      swap1\n      tag_21\n      swap2\n      swap1\n      tag_22\n      jump\t// in\n    tag_21:\n      tag_23\n      jump\t// in\n    tag_20:\n      stop\n        /* \"MyStuff/Projet 1/Voting.sol\":1966:2306  function registerVoter(address _voterAddress) external onlyOwner authorizeAction(WorkflowStatus.RegisteringVoters){... */\n    tag_6:\n      tag_24\n      0x04\n      dup1\n      calldatasize\n      sub\n      dup2\n      add\n      swap1\n      tag_25\n      swap2\n      swap1\n      tag_26\n      jump\t// in\n    tag_25:\n      tag_27\n      jump\t// in\n    tag_24:\n      stop\n        /* \"MyStuff/Projet 1/Voting.sol\":2635:2920  function stopProposalRegistration() external onlyOwner authorizeAction(WorkflowStatus.ProposalsRegistrationStarted){... */\n    tag_7:\n      tag_28\n      tag_29\n      jump\t// in\n    tag_28:\n      stop\n        /* \"https://github.com/OpenZeppelin/openzeppelin-contracts/blob/master/contracts/access/Ownable.sol\":2293:2394  function renounceOwnership() public virtual onlyOwner {... */\n    tag_8:\n      tag_30\n      tag_31\n      jump\t// in\n    tag_30:\n      stop\n        /* \"https://github.com/OpenZeppelin/openzeppelin-contracts/blob/master/contracts/access/Ownable.sol\":1638:1723  function owner() public view virtual returns (address) {... */\n    tag_9:\n      tag_32\n      tag_33\n      jump\t// in\n    tag_32:\n      mload(0x40)\n      tag_34\n      swap2\n      swap1\n      tag_35\n      jump\t// in\n    tag_34:\n      mload(0x40)\n      dup1\n      swap2\n      sub\n      swap1\n      return\n        /* \"MyStuff/Projet 1/Voting.sol\":4795:5936  function getWinner() external view authorizeAction(WorkflowStatus.VotesTallied) returns(Proposal[] memory){... */\n    tag_10:\n      tag_36\n      tag_37\n      jump\t// in\n    tag_36:\n      mload(0x40)\n      tag_38\n      swap2\n      swap1\n      tag_39\n      jump\t// in\n    tag_38:\n      mload(0x40)\n      dup1\n      swap2\n      sub\n      swap1\n      return\n        /* \"MyStuff/Projet 1/Voting.sol\":3461:3700  function votesTallied() external onlyOwner authorizeAction(WorkflowStatus.VotingSessionEnded){... */\n    tag_11:\n      tag_40\n      tag_41\n      jump\t// in\n    tag_40:\n      stop\n        /* \"MyStuff/Projet 1/Voting.sol\":4235:4678  function Vote(uint _proposalId) external authorizeAction(WorkflowStatus.VotingSessionStarted) isRegistered {... */\n    tag_12:\n      tag_42\n      0x04\n      dup1\n      calldatasize\n      sub\n      dup2\n      add\n      swap1\n      tag_43\n      swap2\n      swap1\n      tag_44\n      jump\t// in\n    tag_43:\n      tag_45\n      jump\t// in\n    tag_42:\n      stop\n        /* \"MyStuff/Projet 1/Voting.sol\":2926:3195  function startVotingSession() external onlyOwner authorizeAction(WorkflowStatus.ProposalsRegistrationEnded){... */\n    tag_13:\n      tag_46\n      tag_47\n      jump\t// in\n    tag_46:\n      stop\n        /* \"https://github.com/OpenZeppelin/openzeppelin-contracts/blob/master/contracts/access/Ownable.sol\":2543:2758  function transferOwnership(address newOwner) public virtual onlyOwner {... */\n    tag_14:\n      tag_48\n      0x04\n      dup1\n      calldatasize\n      sub\n      dup2\n      add\n      swap1\n      tag_49\n      swap2\n      swap1\n      tag_26\n      jump\t// in\n    tag_49:\n      tag_50\n      jump\t// in\n    tag_48:\n      stop\n        /* \"MyStuff/Projet 1/Voting.sol\":2363:2629  function startProposalRegistration() external onlyOwner authorizeAction(WorkflowStatus.RegisteringVoters){... */\n    tag_17:\n        /* \"https://github.com/OpenZeppelin/openzeppelin-contracts/blob/master/contracts/access/Ownable.sol\":1531:1544  _checkOwner() */\n      tag_52\n        /* \"https://github.com/OpenZeppelin/openzeppelin-contracts/blob/master/contracts/access/Ownable.sol\":1531:1542  _checkOwner */\n      tag_53\n        /* \"https://github.com/OpenZeppelin/openzeppelin-contracts/blob/master/contracts/access/Ownable.sol\":1531:1544  _checkOwner() */\n      jump\t// in\n    tag_52:\n        /* \"MyStuff/Projet 1/Voting.sol\":2435:2467  WorkflowStatus.RegisteringVoters */\n      0x00\n        /* \"MyStuff/Projet 1/Voting.sol\":1586:1598  currentState */\n      0x02\n      0x00\n      swap1\n      sload\n      swap1\n      0x0100\n      exp\n      swap1\n      div\n      0xff\n      and\n        /* \"MyStuff/Projet 1/Voting.sol\":1568:1598  _expectedState == currentState */\n      0x05\n      dup2\n      gt\n      iszero\n      tag_55\n      jumpi\n      tag_56\n      tag_57\n      jump\t// in\n    tag_56:\n    tag_55:\n        /* \"MyStuff/Projet 1/Voting.sol\":1568:1582  _expectedState */\n      dup2\n        /* \"MyStuff/Projet 1/Voting.sol\":1568:1598  _expectedState == currentState */\n      0x05\n      dup2\n      gt\n      iszero\n      tag_58\n      jumpi\n      tag_59\n      tag_57\n      jump\t// in\n    tag_59:\n    tag_58:\n      eq\n        /* \"MyStuff/Projet 1/Voting.sol\":1560:1625  require(_expectedState == currentState, \"Not the time for this!\") */\n      tag_60\n      jumpi\n      mload(0x40)\n      0x08c379a000000000000000000000000000000000000000000000000000000000\n      dup2\n      mstore\n      0x04\n      add\n      tag_61\n      swap1\n      tag_62\n      jump\t// in\n    tag_61:\n      mload(0x40)\n      dup1\n      swap2\n      sub\n      swap1\n      revert\n    tag_60:\n        /* \"MyStuff/Projet 1/Voting.sol\":2494:2537  WorkflowStatus.ProposalsRegistrationStarted */\n      0x01\n        /* \"MyStuff/Projet 1/Voting.sol\":2479:2491  currentState */\n      0x02\n      0x00\n        /* \"MyStuff/Projet 1/Voting.sol\":2479:2537  currentState = WorkflowStatus.ProposalsRegistrationStarted */\n      0x0100\n      exp\n      dup2\n      sload\n      dup2\n      0xff\n      mul\n      not\n      and\n      swap1\n      dup4\n      0x05\n      dup2\n      gt\n      iszero\n      tag_64\n      jumpi\n      tag_65\n      tag_57\n      jump\t// in\n    tag_65:\n    tag_64:\n      mul\n      or\n      swap1\n      sstore\n      pop\n        /* \"MyStuff/Projet 1/Voting.sol\":2553:2621  WorkflowStatusChange(WorkflowStatus.RegisteringVoters, currentState) */\n      0x0a97a4ee45751e2abf3e4fc8946939630b11b371ea8ae39ccdc3056e98f5cc3f\n        /* \"MyStuff/Projet 1/Voting.sol\":2574:2606  WorkflowStatus.RegisteringVoters */\n      0x00\n        /* \"MyStuff/Projet 1/Voting.sol\":2608:2620  currentState */\n      0x02\n      0x00\n      swap1\n      sload\n      swap1\n      0x0100\n      exp\n      swap1\n      div\n      0xff\n      and\n        /* \"MyStuff/Projet 1/Voting.sol\":2553:2621  WorkflowStatusChange(WorkflowStatus.RegisteringVoters, currentState) */\n      mload(0x40)\n      tag_66\n      swap3\n      swap2\n      swap1\n      tag_67\n      jump\t// in\n    tag_66:\n      mload(0x40)\n      dup1\n      swap2\n      sub\n      swap1\n      log1\n        /* \"https://github.com/OpenZeppelin/openzeppelin-contracts/blob/master/contracts/access/Ownable.sol\":1554:1555  _ */\n      pop\n        /* \"MyStuff/Projet 1/Voting.sol\":2363:2629  function startProposalRegistration() external onlyOwner authorizeAction(WorkflowStatus.RegisteringVoters){... */\n      jump\t// out\n        /* \"MyStuff/Projet 1/Voting.sol\":3201:3455  function stopVotingSession() external onlyOwner authorizeAction(WorkflowStatus.VotingSessionStarted){... */\n    tag_19:\n        /* \"https://github.com/OpenZeppelin/openzeppelin-contracts/blob/master/contracts/access/Ownable.sol\":1531:1544  _checkOwner() */\n      tag_69\n        /* \"https://github.com/OpenZeppelin/openzeppelin-contracts/blob/master/contracts/access/Ownable.sol\":1531:1542  _checkOwner */\n      tag_53\n        /* \"https://github.com/OpenZeppelin/openzeppelin-contracts/blob/master/contracts/access/Ownable.sol\":1531:1544  _checkOwner() */\n      jump\t// in\n    tag_69:\n        /* \"MyStuff/Projet 1/Voting.sol\":3265:3300  WorkflowStatus.VotingSessionStarted */\n      0x03\n        /* \"MyStuff/Projet 1/Voting.sol\":1586:1598  currentState */\n      0x02\n      0x00\n      swap1\n      sload\n      swap1\n      0x0100\n      exp\n      swap1\n      div\n      0xff\n      and\n        /* \"MyStuff/Projet 1/Voting.sol\":1568:1598  _expectedState == currentState */\n      0x05\n      dup2\n      gt\n      iszero\n      tag_71\n      jumpi\n      tag_72\n      tag_57\n      jump\t// in\n    tag_72:\n    tag_71:\n        /* \"MyStuff/Projet 1/Voting.sol\":1568:1582  _expectedState */\n      dup2\n        /* \"MyStuff/Projet 1/Voting.sol\":1568:1598  _expectedState == currentState */\n      0x05\n      dup2\n      gt\n      iszero\n      tag_73\n      jumpi\n      tag_74\n      tag_57\n      jump\t// in\n    tag_74:\n    tag_73:\n      eq\n        /* \"MyStuff/Projet 1/Voting.sol\":1560:1625  require(_expectedState == currentState, \"Not the time for this!\") */\n      tag_75\n      jumpi\n      mload(0x40)\n      0x08c379a000000000000000000000000000000000000000000000000000000000\n      dup2\n      mstore\n      0x04\n      add\n      tag_76\n      swap1\n      tag_62\n      jump\t// in\n    tag_76:\n      mload(0x40)\n      dup1\n      swap2\n      sub\n      swap1\n      revert\n    tag_75:\n        /* \"MyStuff/Projet 1/Voting.sol\":3327:3360  WorkflowStatus.VotingSessionEnded */\n      0x04\n        /* \"MyStuff/Projet 1/Voting.sol\":3312:3324  currentState */\n      0x02\n      0x00\n        /* \"MyStuff/Projet 1/Voting.sol\":3312:3360  currentState = WorkflowStatus.VotingSessionEnded */\n      0x0100\n      exp\n      dup2\n      sload\n      dup2\n      0xff\n      mul\n      not\n      and\n      swap1\n      dup4\n      0x05\n      dup2\n      gt\n      iszero\n      tag_78\n      jumpi\n      tag_79\n      tag_57\n      jump\t// in\n    tag_79:\n    tag_78:\n      mul\n      or\n      swap1\n      sstore\n      pop\n        /* \"MyStuff/Projet 1/Voting.sol\":3376:3447  WorkflowStatusChange(WorkflowStatus.VotingSessionStarted, currentState) */\n      0x0a97a4ee45751e2abf3e4fc8946939630b11b371ea8ae39ccdc3056e98f5cc3f\n        /* \"MyStuff/Projet 1/Voting.sol\":3397:3432  WorkflowStatus.VotingSessionStarted */\n      0x03\n        /* \"MyStuff/Projet 1/Voting.sol\":3434:3446  currentState */\n      0x02\n      0x00\n      swap1\n      sload\n      swap1\n      0x0100\n      exp\n      swap1\n      div\n      0xff\n      and\n        /* \"MyStuff/Projet 1/Voting.sol\":3376:3447  WorkflowStatusChange(WorkflowStatus.VotingSessionStarted, currentState) */\n      mload(0x40)\n      tag_80\n      swap3\n      swap2\n      swap1\n      tag_67\n      jump\t// in\n    tag_80:\n      mload(0x40)\n      dup1\n      swap2\n      sub\n      swap1\n      log1\n        /* \"https://github.com/OpenZeppelin/openzeppelin-contracts/blob/master/contracts/access/Ownable.sol\":1554:1555  _ */\n      pop\n        /* \"MyStuff/Projet 1/Voting.sol\":3201:3455  function stopVotingSession() external onlyOwner authorizeAction(WorkflowStatus.VotingSessionStarted){... */\n      jump\t// out\n        /* \"MyStuff/Projet 1/Voting.sol\":3760:4203  function registerProposal(string calldata _description) external authorizeAction(WorkflowStatus.ProposalsRegistrationStarted) isRegistered {... */\n    tag_23:\n        /* \"MyStuff/Projet 1/Voting.sol\":3841:3884  WorkflowStatus.ProposalsRegistrationStarted */\n      0x01\n        /* \"MyStuff/Projet 1/Voting.sol\":1586:1598  currentState */\n      0x02\n      0x00\n      swap1\n      sload\n      swap1\n      0x0100\n      exp\n      swap1\n      div\n      0xff\n      and\n        /* \"MyStuff/Projet 1/Voting.sol\":1568:1598  _expectedState == currentState */\n      0x05\n      dup2\n      gt\n      iszero\n      tag_82\n      jumpi\n      tag_83\n      tag_57\n      jump\t// in\n    tag_83:\n    tag_82:\n        /* \"MyStuff/Projet 1/Voting.sol\":1568:1582  _expectedState */\n      dup2\n        /* \"MyStuff/Projet 1/Voting.sol\":1568:1598  _expectedState == currentState */\n      0x05\n      dup2\n      gt\n      iszero\n      tag_84\n      jumpi\n      tag_85\n      tag_57\n      jump\t// in\n    tag_85:\n    tag_84:\n      eq\n        /* \"MyStuff/Projet 1/Voting.sol\":1560:1625  require(_expectedState == currentState, \"Not the time for this!\") */\n      tag_86\n      jumpi\n      mload(0x40)\n      0x08c379a000000000000000000000000000000000000000000000000000000000\n      dup2\n      mstore\n      0x04\n      add\n      tag_87\n      swap1\n      tag_62\n      jump\t// in\n    tag_87:\n      mload(0x40)\n      dup1\n      swap2\n      sub\n      swap1\n      revert\n    tag_86:\n        /* \"MyStuff/Projet 1/Voting.sol\":1771:1786  votersWhitelist */\n      0x01\n        /* \"MyStuff/Projet 1/Voting.sol\":1771:1798  votersWhitelist[msg.sender] */\n      0x00\n        /* \"MyStuff/Projet 1/Voting.sol\":1787:1797  msg.sender */\n      caller\n        /* \"MyStuff/Projet 1/Voting.sol\":1771:1798  votersWhitelist[msg.sender] */\n      0xffffffffffffffffffffffffffffffffffffffff\n      and\n      0xffffffffffffffffffffffffffffffffffffffff\n      and\n      dup2\n      mstore\n      0x20\n      add\n      swap1\n      dup2\n      mstore\n      0x20\n      add\n      0x00\n      keccak256\n        /* \"MyStuff/Projet 1/Voting.sol\":1771:1811  votersWhitelist[msg.sender].isRegistered */\n      0x00\n      add\n      0x00\n      swap1\n      sload\n      swap1\n      0x0100\n      exp\n      swap1\n      div\n      0xff\n      and\n        /* \"MyStuff/Projet 1/Voting.sol\":1763:1866  require(votersWhitelist[msg.sender].isRegistered, \"The voter is not registered in the votersWhitelist\") */\n      tag_89\n      jumpi\n      mload(0x40)\n      0x08c379a000000000000000000000000000000000000000000000000000000000\n      dup2\n      mstore\n      0x04\n      add\n      tag_90\n      swap1\n      tag_91\n      jump\t// in\n    tag_90:\n      mload(0x40)\n      dup1\n      swap2\n      sub\n      swap1\n      revert\n    tag_89:\n        /* \"MyStuff/Projet 1/Voting.sol\":3910:3937  Proposal memory newProposal */\n      0x00\n        /* \"MyStuff/Projet 1/Voting.sol\":3940:3965  Proposal(_description, 0) */\n      mload(0x40)\n      dup1\n      0x40\n      add\n      0x40\n      mstore\n      dup1\n        /* \"MyStuff/Projet 1/Voting.sol\":3949:3961  _description */\n      dup6\n      dup6\n        /* \"MyStuff/Projet 1/Voting.sol\":3940:3965  Proposal(_description, 0) */\n      dup1\n      dup1\n      0x1f\n      add\n      0x20\n      dup1\n      swap2\n      div\n      mul\n      0x20\n      add\n      mload(0x40)\n      swap1\n      dup2\n      add\n      0x40\n      mstore\n      dup1\n      swap4\n      swap3\n      swap2\n      swap1\n      dup2\n      dup2\n      mstore\n      0x20\n      add\n      dup4\n      dup4\n      dup1\n      dup3\n      dup5\n      calldatacopy\n      0x00\n      dup2\n      dup5\n      add\n      mstore\n      not(0x1f)\n      0x1f\n      dup3\n      add\n      and\n      swap1\n      pop\n      dup1\n      dup4\n      add\n      swap3\n      pop\n      pop\n      pop\n      pop\n      pop\n      pop\n      pop\n      dup2\n      mstore\n      0x20\n      add\n        /* \"MyStuff/Projet 1/Voting.sol\":3963:3964  0 */\n      0x00\n        /* \"MyStuff/Projet 1/Voting.sol\":3940:3965  Proposal(_description, 0) */\n      dup2\n      mstore\n      pop\n        /* \"MyStuff/Projet 1/Voting.sol\":3910:3965  Proposal memory newProposal = Proposal(_description, 0) */\n      swap1\n      pop\n        /* \"MyStuff/Projet 1/Voting.sol\":3976:3985  proposals */\n      0x03\n        /* \"MyStuff/Projet 1/Voting.sol\":3991:4002  newProposal */\n      dup2\n        /* \"MyStuff/Projet 1/Voting.sol\":3976:4003  proposals.push(newProposal) */\n      swap1\n      dup1\n      0x01\n      dup2\n      sload\n      add\n      dup1\n      dup3\n      sstore\n      dup1\n      swap2\n      pop\n      pop\n      0x01\n      swap1\n      sub\n      swap1\n      0x00\n      mstore\n      keccak256(0x00, 0x20)\n      swap1\n      0x02\n      mul\n      add\n      0x00\n      swap1\n      swap2\n      swap1\n      swap2\n      swap1\n      swap2\n      pop\n      0x00\n      dup3\n      add\n      mload\n      dup2\n      0x00\n      add\n      swap1\n      dup2\n      tag_94\n      swap2\n      swap1\n      tag_95\n      jump\t// in\n    tag_94:\n      pop\n      0x20\n      dup3\n      add\n      mload\n      dup2\n      0x01\n      add\n      sstore\n      pop\n      pop\n        /* \"MyStuff/Projet 1/Voting.sol\":4019:4064  ProposalRegistered(uint(proposals.length -1)) */\n      0x92e393e9b54e2f801d3ea4beb0c5e71a21cc34a5d34b77d0fb8a3aa1650dc18f\n        /* \"MyStuff/Projet 1/Voting.sol\":4061:4062  1 */\n      0x01\n        /* \"MyStuff/Projet 1/Voting.sol\":4043:4052  proposals */\n      0x03\n        /* \"MyStuff/Projet 1/Voting.sol\":4043:4059  proposals.length */\n      dup1\n      sload\n      swap1\n      pop\n        /* \"MyStuff/Projet 1/Voting.sol\":4043:4062  proposals.length -1 */\n      tag_96\n      swap2\n      swap1\n      tag_97\n      jump\t// in\n    tag_96:\n        /* \"MyStuff/Projet 1/Voting.sol\":4019:4064  ProposalRegistered(uint(proposals.length -1)) */\n      mload(0x40)\n      tag_98\n      swap2\n      swap1\n      tag_99\n      jump\t// in\n    tag_98:\n      mload(0x40)\n      dup1\n      swap2\n      sub\n      swap1\n      log1\n        /* \"MyStuff/Projet 1/Voting.sol\":3899:4203  {... */\n      pop\n        /* \"MyStuff/Projet 1/Voting.sol\":3760:4203  function registerProposal(string calldata _description) external authorizeAction(WorkflowStatus.ProposalsRegistrationStarted) isRegistered {... */\n      pop\n      pop\n      pop\n      jump\t// out\n        /* \"MyStuff/Projet 1/Voting.sol\":1966:2306  function registerVoter(address _voterAddress) external onlyOwner authorizeAction(WorkflowStatus.RegisteringVoters){... */\n    tag_27:\n        /* \"https://github.com/OpenZeppelin/openzeppelin-contracts/blob/master/contracts/access/Ownable.sol\":1531:1544  _checkOwner() */\n      tag_101\n        /* \"https://github.com/OpenZeppelin/openzeppelin-contracts/blob/master/contracts/access/Ownable.sol\":1531:1542  _checkOwner */\n      tag_53\n        /* \"https://github.com/OpenZeppelin/openzeppelin-contracts/blob/master/contracts/access/Ownable.sol\":1531:1544  _checkOwner() */\n      jump\t// in\n    tag_101:\n        /* \"MyStuff/Projet 1/Voting.sol\":2047:2079  WorkflowStatus.RegisteringVoters */\n      0x00\n        /* \"MyStuff/Projet 1/Voting.sol\":1586:1598  currentState */\n      0x02\n      0x00\n      swap1\n      sload\n      swap1\n      0x0100\n      exp\n      swap1\n      div\n      0xff\n      and\n        /* \"MyStuff/Projet 1/Voting.sol\":1568:1598  _expectedState == currentState */\n      0x05\n      dup2\n      gt\n      iszero\n      tag_103\n      jumpi\n      tag_104\n      tag_57\n      jump\t// in\n    tag_104:\n    tag_103:\n        /* \"MyStuff/Projet 1/Voting.sol\":1568:1582  _expectedState */\n      dup2\n        /* \"MyStuff/Projet 1/Voting.sol\":1568:1598  _expectedState == currentState */\n      0x05\n      dup2\n      gt\n      iszero\n      tag_105\n      jumpi\n      tag_106\n      tag_57\n      jump\t// in\n    tag_106:\n    tag_105:\n      eq\n        /* \"MyStuff/Projet 1/Voting.sol\":1560:1625  require(_expectedState == currentState, \"Not the time for this!\") */\n      tag_107\n      jumpi\n      mload(0x40)\n      0x08c379a000000000000000000000000000000000000000000000000000000000\n      dup2\n      mstore\n      0x04\n      add\n      tag_108\n      swap1\n      tag_62\n      jump\t// in\n    tag_108:\n      mload(0x40)\n      dup1\n      swap2\n      sub\n      swap1\n      revert\n    tag_107:\n        /* \"MyStuff/Projet 1/Voting.sol\":2100:2115  votersWhitelist */\n      0x01\n        /* \"MyStuff/Projet 1/Voting.sol\":2100:2130  votersWhitelist[_voterAddress] */\n      0x00\n        /* \"MyStuff/Projet 1/Voting.sol\":2116:2129  _voterAddress */\n      dup4\n        /* \"MyStuff/Projet 1/Voting.sol\":2100:2130  votersWhitelist[_voterAddress] */\n      0xffffffffffffffffffffffffffffffffffffffff\n      and\n      0xffffffffffffffffffffffffffffffffffffffff\n      and\n      dup2\n      mstore\n      0x20\n      add\n      swap1\n      dup2\n      mstore\n      0x20\n      add\n      0x00\n      keccak256\n        /* \"MyStuff/Projet 1/Voting.sol\":2100:2143  votersWhitelist[_voterAddress].isRegistered */\n      0x00\n      add\n      0x00\n      swap1\n      sload\n      swap1\n      0x0100\n      exp\n      swap1\n      div\n      0xff\n      and\n        /* \"MyStuff/Projet 1/Voting.sol\":2099:2143  !votersWhitelist[_voterAddress].isRegistered */\n      iszero\n        /* \"MyStuff/Projet 1/Voting.sol\":2091:2191  require(!votersWhitelist[_voterAddress].isRegistered, \"The voter is already on the votersWhitelist\") */\n      tag_110\n      jumpi\n      mload(0x40)\n      0x08c379a000000000000000000000000000000000000000000000000000000000\n      dup2\n      mstore\n      0x04\n      add\n      tag_111\n      swap1\n      tag_112\n      jump\t// in\n    tag_111:\n      mload(0x40)\n      dup1\n      swap2\n      sub\n      swap1\n      revert\n    tag_110:\n        /* \"MyStuff/Projet 1/Voting.sol\":2248:2252  true */\n      0x01\n        /* \"MyStuff/Projet 1/Voting.sol\":2202:2217  votersWhitelist */\n      dup1\n        /* \"MyStuff/Projet 1/Voting.sol\":2202:2232  votersWhitelist[_voterAddress] */\n      0x00\n        /* \"MyStuff/Projet 1/Voting.sol\":2218:2231  _voterAddress */\n      dup5\n        /* \"MyStuff/Projet 1/Voting.sol\":2202:2232  votersWhitelist[_voterAddress] */\n      0xffffffffffffffffffffffffffffffffffffffff\n      and\n      0xffffffffffffffffffffffffffffffffffffffff\n      and\n      dup2\n      mstore\n      0x20\n      add\n      swap1\n      dup2\n      mstore\n      0x20\n      add\n      0x00\n      keccak256\n        /* \"MyStuff/Projet 1/Voting.sol\":2202:2245  votersWhitelist[_voterAddress].isRegistered */\n      0x00\n      add\n      0x00\n        /* \"MyStuff/Projet 1/Voting.sol\":2202:2252  votersWhitelist[_voterAddress].isRegistered = true */\n      0x0100\n      exp\n      dup2\n      sload\n      dup2\n      0xff\n      mul\n      not\n      and\n      swap1\n      dup4\n      iszero\n      iszero\n      mul\n      or\n      swap1\n      sstore\n      pop\n        /* \"MyStuff/Projet 1/Voting.sol\":2268:2298  VoterRegistered(_voterAddress) */\n      0xb6be2187d059cc2a55fe29e0e503b566e1e0f8c8780096e185429350acffd3dd\n        /* \"MyStuff/Projet 1/Voting.sol\":2284:2297  _voterAddress */\n      dup3\n        /* \"MyStuff/Projet 1/Voting.sol\":2268:2298  VoterRegistered(_voterAddress) */\n      mload(0x40)\n      tag_113\n      swap2\n      swap1\n      tag_35\n      jump\t// in\n    tag_113:\n      mload(0x40)\n      dup1\n      swap2\n      sub\n      swap1\n      log1\n        /* \"https://github.com/OpenZeppelin/openzeppelin-contracts/blob/master/contracts/access/Ownable.sol\":1554:1555  _ */\n      pop\n        /* \"MyStuff/Projet 1/Voting.sol\":1966:2306  function registerVoter(address _voterAddress) external onlyOwner authorizeAction(WorkflowStatus.RegisteringVoters){... */\n      pop\n      jump\t// out\n        /* \"MyStuff/Projet 1/Voting.sol\":2635:2920  function stopProposalRegistration() external onlyOwner authorizeAction(WorkflowStatus.ProposalsRegistrationStarted){... */\n    tag_29:\n        /* \"https://github.com/OpenZeppelin/openzeppelin-contracts/blob/master/contracts/access/Ownable.sol\":1531:1544  _checkOwner() */\n      tag_115\n        /* \"https://github.com/OpenZeppelin/openzeppelin-contracts/blob/master/contracts/access/Ownable.sol\":1531:1542  _checkOwner */\n      tag_53\n        /* \"https://github.com/OpenZeppelin/openzeppelin-contracts/blob/master/contracts/access/Ownable.sol\":1531:1544  _checkOwner() */\n      jump\t// in\n    tag_115:\n        /* \"MyStuff/Projet 1/Voting.sol\":2706:2749  WorkflowStatus.ProposalsRegistrationStarted */\n      0x01\n        /* \"MyStuff/Projet 1/Voting.sol\":1586:1598  currentState */\n      0x02\n      0x00\n      swap1\n      sload\n      swap1\n      0x0100\n      exp\n      swap1\n      div\n      0xff\n      and\n        /* \"MyStuff/Projet 1/Voting.sol\":1568:1598  _expectedState == currentState */\n      0x05\n      dup2\n      gt\n      iszero\n      tag_117\n      jumpi\n      tag_118\n      tag_57\n      jump\t// in\n    tag_118:\n    tag_117:\n        /* \"MyStuff/Projet 1/Voting.sol\":1568:1582  _expectedState */\n      dup2\n        /* \"MyStuff/Projet 1/Voting.sol\":1568:1598  _expectedState == currentState */\n      0x05\n      dup2\n      gt\n      iszero\n      tag_119\n      jumpi\n      tag_120\n      tag_57\n      jump\t// in\n    tag_120:\n    tag_119:\n      eq\n        /* \"MyStuff/Projet 1/Voting.sol\":1560:1625  require(_expectedState == currentState, \"Not the time for this!\") */\n      tag_121\n      jumpi\n      mload(0x40)\n      0x08c379a000000000000000000000000000000000000000000000000000000000\n      dup2\n      mstore\n      0x04\n      add\n      tag_122\n      swap1\n      tag_62\n      jump\t// in\n    tag_122:\n      mload(0x40)\n      dup1\n      swap2\n      sub\n      swap1\n      revert\n    tag_121:\n        /* \"MyStuff/Projet 1/Voting.sol\":2776:2817  WorkflowStatus.ProposalsRegistrationEnded */\n      0x02\n        /* \"MyStuff/Projet 1/Voting.sol\":2761:2773  currentState */\n      dup1\n      0x00\n        /* \"MyStuff/Projet 1/Voting.sol\":2761:2817  currentState = WorkflowStatus.ProposalsRegistrationEnded */\n      0x0100\n      exp\n      dup2\n      sload\n      dup2\n      0xff\n      mul\n      not\n      and\n      swap1\n      dup4\n      0x05\n      dup2\n      gt\n      iszero\n      tag_124\n      jumpi\n      tag_125\n      tag_57\n      jump\t// in\n    tag_125:\n    tag_124:\n      mul\n      or\n      swap1\n      sstore\n      pop\n        /* \"MyStuff/Projet 1/Voting.sol\":2833:2912  WorkflowStatusChange(WorkflowStatus.ProposalsRegistrationStarted, currentState) */\n      0x0a97a4ee45751e2abf3e4fc8946939630b11b371ea8ae39ccdc3056e98f5cc3f\n        /* \"MyStuff/Projet 1/Voting.sol\":2854:2897  WorkflowStatus.ProposalsRegistrationStarted */\n      0x01\n        /* \"MyStuff/Projet 1/Voting.sol\":2899:2911  currentState */\n      0x02\n      0x00\n      swap1\n      sload\n      swap1\n      0x0100\n      exp\n      swap1\n      div\n      0xff\n      and\n        /* \"MyStuff/Projet 1/Voting.sol\":2833:2912  WorkflowStatusChange(WorkflowStatus.ProposalsRegistrationStarted, currentState) */\n      mload(0x40)\n      tag_126\n      swap3\n      swap2\n      swap1\n      tag_67\n      jump\t// in\n    tag_126:\n      mload(0x40)\n      dup1\n      swap2\n      sub\n      swap1\n      log1\n        /* \"https://github.com/OpenZeppelin/openzeppelin-contracts/blob/master/contracts/access/Ownable.sol\":1554:1555  _ */\n      pop\n        /* \"MyStuff/Projet 1/Voting.sol\":2635:2920  function stopProposalRegistration() external onlyOwner authorizeAction(WorkflowStatus.ProposalsRegistrationStarted){... */\n      jump\t// out\n        /* \"https://github.com/OpenZeppelin/openzeppelin-contracts/blob/master/contracts/access/Ownable.sol\":2293:2394  function renounceOwnership() public virtual onlyOwner {... */\n    tag_31:\n        /* \"https://github.com/OpenZeppelin/openzeppelin-contracts/blob/master/contracts/access/Ownable.sol\":1531:1544  _checkOwner() */\n      tag_128\n        /* \"https://github.com/OpenZeppelin/openzeppelin-contracts/blob/master/contracts/access/Ownable.sol\":1531:1542  _checkOwner */\n      tag_53\n        /* \"https://github.com/OpenZeppelin/openzeppelin-contracts/blob/master/contracts/access/Ownable.sol\":1531:1544  _checkOwner() */\n      jump\t// in\n    tag_128:\n        /* \"https://github.com/OpenZeppelin/openzeppelin-contracts/blob/master/contracts/access/Ownable.sol\":2357:2387  _transferOwnership(address(0)) */\n      tag_130\n        /* \"https://github.com/OpenZeppelin/openzeppelin-contracts/blob/master/contracts/access/Ownable.sol\":2384:2385  0 */\n      0x00\n        /* \"https://github.com/OpenZeppelin/openzeppelin-contracts/blob/master/contracts/access/Ownable.sol\":2357:2375  _transferOwnership */\n      tag_131\n        /* \"https://github.com/OpenZeppelin/openzeppelin-contracts/blob/master/contracts/access/Ownable.sol\":2357:2387  _transferOwnership(address(0)) */\n      jump\t// in\n    tag_130:\n        /* \"https://github.com/OpenZeppelin/openzeppelin-contracts/blob/master/contracts/access/Ownable.sol\":2293:2394  function renounceOwnership() public virtual onlyOwner {... */\n      jump\t// out\n        /* \"https://github.com/OpenZeppelin/openzeppelin-contracts/blob/master/contracts/access/Ownable.sol\":1638:1723  function owner() public view virtual returns (address) {... */\n    tag_33:\n        /* \"https://github.com/OpenZeppelin/openzeppelin-contracts/blob/master/contracts/access/Ownable.sol\":1684:1691  address */\n      0x00\n        /* \"https://github.com/OpenZeppelin/openzeppelin-contracts/blob/master/contracts/access/Ownable.sol\":1710:1716  _owner */\n      0x00\n      0x00\n      swap1\n      sload\n      swap1\n      0x0100\n      exp\n      swap1\n      div\n      0xffffffffffffffffffffffffffffffffffffffff\n      and\n        /* \"https://github.com/OpenZeppelin/openzeppelin-contracts/blob/master/contracts/access/Ownable.sol\":1703:1716  return _owner */\n      swap1\n      pop\n        /* \"https://github.com/OpenZeppelin/openzeppelin-contracts/blob/master/contracts/access/Ownable.sol\":1638:1723  function owner() public view virtual returns (address) {... */\n      swap1\n      jump\t// out\n        /* \"MyStuff/Projet 1/Voting.sol\":4795:5936  function getWinner() external view authorizeAction(WorkflowStatus.VotesTallied) returns(Proposal[] memory){... */\n    tag_37:\n        /* \"MyStuff/Projet 1/Voting.sol\":4883:4900  Proposal[] memory */\n      0x60\n        /* \"MyStuff/Projet 1/Voting.sol\":4846:4873  WorkflowStatus.VotesTallied */\n      0x05\n        /* \"MyStuff/Projet 1/Voting.sol\":1586:1598  currentState */\n      0x02\n      0x00\n      swap1\n      sload\n      swap1\n      0x0100\n      exp\n      swap1\n      div\n      0xff\n      and\n        /* \"MyStuff/Projet 1/Voting.sol\":1568:1598  _expectedState == currentState */\n      0x05\n      dup2\n      gt\n      iszero\n      tag_134\n      jumpi\n      tag_135\n      tag_57\n      jump\t// in\n    tag_135:\n    tag_134:\n        /* \"MyStuff/Projet 1/Voting.sol\":1568:1582  _expectedState */\n      dup2\n        /* \"MyStuff/Projet 1/Voting.sol\":1568:1598  _expectedState == currentState */\n      0x05\n      dup2\n      gt\n      iszero\n      tag_136\n      jumpi\n      tag_137\n      tag_57\n      jump\t// in\n    tag_137:\n    tag_136:\n      eq\n        /* \"MyStuff/Projet 1/Voting.sol\":1560:1625  require(_expectedState == currentState, \"Not the time for this!\") */\n      tag_138\n      jumpi\n      mload(0x40)\n      0x08c379a000000000000000000000000000000000000000000000000000000000\n      dup2\n      mstore\n      0x04\n      add\n      tag_139\n      swap1\n      tag_62\n      jump\t// in\n    tag_139:\n      mload(0x40)\n      dup1\n      swap2\n      sub\n      swap1\n      revert\n    tag_138:\n        /* \"MyStuff/Projet 1/Voting.sol\":4989:5006  uint maxVoteCount */\n      0x00\n        /* \"MyStuff/Projet 1/Voting.sol\":5009:5018  proposals */\n      0x03\n        /* \"MyStuff/Projet 1/Voting.sol\":5019:5020  0 */\n      0x00\n        /* \"MyStuff/Projet 1/Voting.sol\":5009:5021  proposals[0] */\n      dup2\n      sload\n      dup2\n      lt\n      tag_141\n      jumpi\n      tag_142\n      tag_143\n      jump\t// in\n    tag_142:\n    tag_141:\n      swap1\n      0x00\n      mstore\n      keccak256(0x00, 0x20)\n      swap1\n      0x02\n      mul\n      add\n        /* \"MyStuff/Projet 1/Voting.sol\":5009:5031  proposals[0].voteCount */\n      0x01\n      add\n      sload\n        /* \"MyStuff/Projet 1/Voting.sol\":4989:5031  uint maxVoteCount = proposals[0].voteCount */\n      swap1\n      pop\n        /* \"MyStuff/Projet 1/Voting.sol\":5042:5055  uint topCount */\n      0x00\n        /* \"MyStuff/Projet 1/Voting.sol\":5058:5059  1 */\n      0x01\n        /* \"MyStuff/Projet 1/Voting.sol\":5042:5059  uint topCount = 1 */\n      swap1\n      pop\n        /* \"MyStuff/Projet 1/Voting.sol\":5181:5187  uint i */\n      0x00\n        /* \"MyStuff/Projet 1/Voting.sol\":5190:5191  1 */\n      0x01\n        /* \"MyStuff/Projet 1/Voting.sol\":5181:5191  uint i = 1 */\n      swap1\n      pop\n        /* \"MyStuff/Projet 1/Voting.sol\":5176:5487  for (uint i = 1; i < proposals.length; i++) {... */\n    tag_145:\n        /* \"MyStuff/Projet 1/Voting.sol\":5197:5206  proposals */\n      0x03\n        /* \"MyStuff/Projet 1/Voting.sol\":5197:5213  proposals.length */\n      dup1\n      sload\n      swap1\n      pop\n        /* \"MyStuff/Projet 1/Voting.sol\":5193:5194  i */\n      dup2\n        /* \"MyStuff/Projet 1/Voting.sol\":5193:5213  i < proposals.length */\n      lt\n        /* \"MyStuff/Projet 1/Voting.sol\":5176:5487  for (uint i = 1; i < proposals.length; i++) {... */\n      iszero\n      tag_146\n      jumpi\n        /* \"MyStuff/Projet 1/Voting.sol\":5264:5276  maxVoteCount */\n      dup3\n        /* \"MyStuff/Projet 1/Voting.sol\":5239:5248  proposals */\n      0x03\n        /* \"MyStuff/Projet 1/Voting.sol\":5249:5250  i */\n      dup3\n        /* \"MyStuff/Projet 1/Voting.sol\":5239:5251  proposals[i] */\n      dup2\n      sload\n      dup2\n      lt\n      tag_148\n      jumpi\n      tag_149\n      tag_143\n      jump\t// in\n    tag_149:\n    tag_148:\n      swap1\n      0x00\n      mstore\n      keccak256(0x00, 0x20)\n      swap1\n      0x02\n      mul\n      add\n        /* \"MyStuff/Projet 1/Voting.sol\":5239:5261  proposals[i].voteCount */\n      0x01\n      add\n      sload\n        /* \"MyStuff/Projet 1/Voting.sol\":5239:5276  proposals[i].voteCount > maxVoteCount */\n      gt\n        /* \"MyStuff/Projet 1/Voting.sol\":5235:5476  if (proposals[i].voteCount > maxVoteCount) {... */\n      iszero\n      tag_151\n      jumpi\n        /* \"MyStuff/Projet 1/Voting.sol\":5312:5321  proposals */\n      0x03\n        /* \"MyStuff/Projet 1/Voting.sol\":5322:5323  i */\n      dup2\n        /* \"MyStuff/Projet 1/Voting.sol\":5312:5324  proposals[i] */\n      dup2\n      sload\n      dup2\n      lt\n      tag_152\n      jumpi\n      tag_153\n      tag_143\n      jump\t// in\n    tag_153:\n    tag_152:\n      swap1\n      0x00\n      mstore\n      keccak256(0x00, 0x20)\n      swap1\n      0x02\n      mul\n      add\n        /* \"MyStuff/Projet 1/Voting.sol\":5312:5334  proposals[i].voteCount */\n      0x01\n      add\n      sload\n        /* \"MyStuff/Projet 1/Voting.sol\":5297:5334  maxVoteCount = proposals[i].voteCount */\n      swap3\n      pop\n        /* \"MyStuff/Projet 1/Voting.sol\":5364:5365  1 */\n      0x01\n        /* \"MyStuff/Projet 1/Voting.sol\":5353:5365  topCount = 1 */\n      swap2\n      pop\n        /* \"MyStuff/Projet 1/Voting.sol\":5235:5476  if (proposals[i].voteCount > maxVoteCount) {... */\n      jump(tag_155)\n    tag_151:\n        /* \"MyStuff/Projet 1/Voting.sol\":5417:5429  maxVoteCount */\n      dup3\n        /* \"MyStuff/Projet 1/Voting.sol\":5391:5400  proposals */\n      0x03\n        /* \"MyStuff/Projet 1/Voting.sol\":5401:5402  i */\n      dup3\n        /* \"MyStuff/Projet 1/Voting.sol\":5391:5403  proposals[i] */\n      dup2\n      sload\n      dup2\n      lt\n      tag_156\n      jumpi\n      tag_157\n      tag_143\n      jump\t// in\n    tag_157:\n    tag_156:\n      swap1\n      0x00\n      mstore\n      keccak256(0x00, 0x20)\n      swap1\n      0x02\n      mul\n      add\n        /* \"MyStuff/Projet 1/Voting.sol\":5391:5413  proposals[i].voteCount */\n      0x01\n      add\n      sload\n        /* \"MyStuff/Projet 1/Voting.sol\":5391:5429  proposals[i].voteCount == maxVoteCount */\n      sub\n        /* \"MyStuff/Projet 1/Voting.sol\":5387:5476  if (proposals[i].voteCount == maxVoteCount) {... */\n      tag_159\n      jumpi\n        /* \"MyStuff/Projet 1/Voting.sol\":5450:5460  topCount++ */\n      dup2\n      dup1\n      tag_160\n      swap1\n      tag_161\n      jump\t// in\n    tag_160:\n      swap3\n      pop\n      pop\n        /* \"MyStuff/Projet 1/Voting.sol\":5387:5476  if (proposals[i].voteCount == maxVoteCount) {... */\n    tag_159:\n        /* \"MyStuff/Projet 1/Voting.sol\":5235:5476  if (proposals[i].voteCount > maxVoteCount) {... */\n    tag_155:\n        /* \"MyStuff/Projet 1/Voting.sol\":5215:5218  i++ */\n      dup1\n      dup1\n      0x01\n      add\n      swap2\n      pop\n      pop\n        /* \"MyStuff/Projet 1/Voting.sol\":5176:5487  for (uint i = 1; i < proposals.length; i++) {... */\n      jump(tag_145)\n    tag_146:\n      pop\n        /* \"MyStuff/Projet 1/Voting.sol\":5607:5637  Proposal[] memory topProposals */\n      0x00\n        /* \"MyStuff/Projet 1/Voting.sol\":5655:5663  topCount */\n      dup2\n        /* \"MyStuff/Projet 1/Voting.sol\":5640:5664  new Proposal[](topCount) */\n      0xffffffffffffffff\n      dup2\n      gt\n      iszero\n      tag_162\n      jumpi\n      tag_163\n      tag_164\n      jump\t// in\n    tag_163:\n    tag_162:\n      mload(0x40)\n      swap1\n      dup1\n      dup3\n      mstore\n      dup1\n      0x20\n      mul\n      0x20\n      add\n      dup3\n      add\n      0x40\n      mstore\n      dup1\n      iszero\n      tag_165\n      jumpi\n      dup2\n      0x20\n      add\n    tag_166:\n      tag_167\n      tag_168\n      jump\t// in\n    tag_167:\n      dup2\n      mstore\n      0x20\n      add\n      swap1\n      0x01\n      swap1\n      sub\n      swap1\n      dup2\n      tag_166\n      jumpi\n      swap1\n      pop\n    tag_165:\n      pop\n        /* \"MyStuff/Projet 1/Voting.sol\":5607:5664  Proposal[] memory topProposals = new Proposal[](topCount) */\n      swap1\n      pop\n        /* \"MyStuff/Projet 1/Voting.sol\":5675:5681  uint j */\n      0x00\n        /* \"MyStuff/Projet 1/Voting.sol\":5684:5685  0 */\n      0x00\n        /* \"MyStuff/Projet 1/Voting.sol\":5675:5685  uint j = 0 */\n      swap1\n      pop\n        /* \"MyStuff/Projet 1/Voting.sol\":5701:5707  uint i */\n      0x00\n        /* \"MyStuff/Projet 1/Voting.sol\":5710:5711  0 */\n      0x00\n        /* \"MyStuff/Projet 1/Voting.sol\":5701:5711  uint i = 0 */\n      swap1\n      pop\n        /* \"MyStuff/Projet 1/Voting.sol\":5696:5897  for (uint i = 0; i < proposals.length; i++) {... */\n    tag_169:\n        /* \"MyStuff/Projet 1/Voting.sol\":5717:5726  proposals */\n      0x03\n        /* \"MyStuff/Projet 1/Voting.sol\":5717:5733  proposals.length */\n      dup1\n      sload\n      swap1\n      pop\n        /* \"MyStuff/Projet 1/Voting.sol\":5713:5714  i */\n      dup2\n        /* \"MyStuff/Projet 1/Voting.sol\":5713:5733  i < proposals.length */\n      lt\n        /* \"MyStuff/Projet 1/Voting.sol\":5696:5897  for (uint i = 0; i < proposals.length; i++) {... */\n      iszero\n      tag_170\n      jumpi\n        /* \"MyStuff/Projet 1/Voting.sol\":5785:5797  maxVoteCount */\n      dup5\n        /* \"MyStuff/Projet 1/Voting.sol\":5759:5768  proposals */\n      0x03\n        /* \"MyStuff/Projet 1/Voting.sol\":5769:5770  i */\n      dup3\n        /* \"MyStuff/Projet 1/Voting.sol\":5759:5771  proposals[i] */\n      dup2\n      sload\n      dup2\n      lt\n      tag_172\n      jumpi\n      tag_173\n      tag_143\n      jump\t// in\n    tag_173:\n    tag_172:\n      swap1\n      0x00\n      mstore\n      keccak256(0x00, 0x20)\n      swap1\n      0x02\n      mul\n      add\n        /* \"MyStuff/Projet 1/Voting.sol\":5759:5781  proposals[i].voteCount */\n      0x01\n      add\n      sload\n        /* \"MyStuff/Projet 1/Voting.sol\":5759:5797  proposals[i].voteCount == maxVoteCount */\n      sub\n        /* \"MyStuff/Projet 1/Voting.sol\":5755:5886  if (proposals[i].voteCount == maxVoteCount) {... */\n      tag_175\n      jumpi\n        /* \"MyStuff/Projet 1/Voting.sol\":5836:5845  proposals */\n      0x03\n        /* \"MyStuff/Projet 1/Voting.sol\":5846:5847  i */\n      dup2\n        /* \"MyStuff/Projet 1/Voting.sol\":5836:5848  proposals[i] */\n      dup2\n      sload\n      dup2\n      lt\n      tag_176\n      jumpi\n      tag_177\n      tag_143\n      jump\t// in\n    tag_177:\n    tag_176:\n      swap1\n      0x00\n      mstore\n      keccak256(0x00, 0x20)\n      swap1\n      0x02\n      mul\n      add\n        /* \"MyStuff/Projet 1/Voting.sol\":5818:5848  topProposals[j] = proposals[i] */\n      mload(0x40)\n      dup1\n      0x40\n      add\n      0x40\n      mstore\n      swap1\n      dup2\n      0x00\n      dup3\n      add\n      dup1\n      sload\n      tag_179\n      swap1\n      tag_180\n      jump\t// in\n    tag_179:\n      dup1\n      0x1f\n      add\n      0x20\n      dup1\n      swap2\n      div\n      mul\n      0x20\n      add\n      mload(0x40)\n      swap1\n      dup2\n      add\n      0x40\n      mstore\n      dup1\n      swap3\n      swap2\n      swap1\n      dup2\n      dup2\n      mstore\n      0x20\n      add\n      dup3\n      dup1\n      sload\n      tag_181\n      swap1\n      tag_180\n      jump\t// in\n    tag_181:\n      dup1\n      iszero\n      tag_182\n      jumpi\n      dup1\n      0x1f\n      lt\n      tag_183\n      jumpi\n      0x0100\n      dup1\n      dup4\n      sload\n      div\n      mul\n      dup4\n      mstore\n      swap2\n      0x20\n      add\n      swap2\n      jump(tag_182)\n    tag_183:\n      dup3\n      add\n      swap2\n      swap1\n      0x00\n      mstore\n      keccak256(0x00, 0x20)\n      swap1\n    tag_184:\n      dup2\n      sload\n      dup2\n      mstore\n      swap1\n      0x01\n      add\n      swap1\n      0x20\n      add\n      dup1\n      dup4\n      gt\n      tag_184\n      jumpi\n      dup3\n      swap1\n      sub\n      0x1f\n      and\n      dup3\n      add\n      swap2\n    tag_182:\n      pop\n      pop\n      pop\n      pop\n      pop\n      dup2\n      mstore\n      0x20\n      add\n      0x01\n      dup3\n      add\n      sload\n      dup2\n      mstore\n      pop\n      pop\n        /* \"MyStuff/Projet 1/Voting.sol\":5818:5830  topProposals */\n      dup4\n        /* \"MyStuff/Projet 1/Voting.sol\":5831:5832  j */\n      dup4\n        /* \"MyStuff/Projet 1/Voting.sol\":5818:5833  topProposals[j] */\n      dup2\n      mload\n      dup2\n      lt\n      tag_185\n      jumpi\n      tag_186\n      tag_143\n      jump\t// in\n    tag_186:\n    tag_185:\n      0x20\n      mul\n      0x20\n      add\n      add\n        /* \"MyStuff/Projet 1/Voting.sol\":5818:5848  topProposals[j] = proposals[i] */\n      dup2\n      swap1\n      mstore\n      pop\n        /* \"MyStuff/Projet 1/Voting.sol\":5867:5870  j++ */\n      dup2\n      dup1\n      tag_187\n      swap1\n      tag_161\n      jump\t// in\n    tag_187:\n      swap3\n      pop\n      pop\n        /* \"MyStuff/Projet 1/Voting.sol\":5755:5886  if (proposals[i].voteCount == maxVoteCount) {... */\n    tag_175:\n        /* \"MyStuff/Projet 1/Voting.sol\":5735:5738  i++ */\n      dup1\n      dup1\n      0x01\n      add\n      swap2\n      pop\n      pop\n        /* \"MyStuff/Projet 1/Voting.sol\":5696:5897  for (uint i = 0; i < proposals.length; i++) {... */\n      jump(tag_169)\n    tag_170:\n      pop\n        /* \"MyStuff/Projet 1/Voting.sol\":5916:5928  topProposals */\n      dup2\n        /* \"MyStuff/Projet 1/Voting.sol\":5909:5928  return topProposals */\n      swap6\n      pop\n      pop\n      pop\n      pop\n      pop\n        /* \"MyStuff/Projet 1/Voting.sol\":4795:5936  function getWinner() external view authorizeAction(WorkflowStatus.VotesTallied) returns(Proposal[] memory){... */\n      pop\n      swap1\n      jump\t// out\n        /* \"MyStuff/Projet 1/Voting.sol\":3461:3700  function votesTallied() external onlyOwner authorizeAction(WorkflowStatus.VotingSessionEnded){... */\n    tag_41:\n        /* \"https://github.com/OpenZeppelin/openzeppelin-contracts/blob/master/contracts/access/Ownable.sol\":1531:1544  _checkOwner() */\n      tag_189\n        /* \"https://github.com/OpenZeppelin/openzeppelin-contracts/blob/master/contracts/access/Ownable.sol\":1531:1542  _checkOwner */\n      tag_53\n        /* \"https://github.com/OpenZeppelin/openzeppelin-contracts/blob/master/contracts/access/Ownable.sol\":1531:1544  _checkOwner() */\n      jump\t// in\n    tag_189:\n        /* \"MyStuff/Projet 1/Voting.sol\":3520:3553  WorkflowStatus.VotingSessionEnded */\n      0x04\n        /* \"MyStuff/Projet 1/Voting.sol\":1586:1598  currentState */\n      0x02\n      0x00\n      swap1\n      sload\n      swap1\n      0x0100\n      exp\n      swap1\n      div\n      0xff\n      and\n        /* \"MyStuff/Projet 1/Voting.sol\":1568:1598  _expectedState == currentState */\n      0x05\n      dup2\n      gt\n      iszero\n      tag_191\n      jumpi\n      tag_192\n      tag_57\n      jump\t// in\n    tag_192:\n    tag_191:\n        /* \"MyStuff/Projet 1/Voting.sol\":1568:1582  _expectedState */\n      dup2\n        /* \"MyStuff/Projet 1/Voting.sol\":1568:1598  _expectedState == currentState */\n      0x05\n      dup2\n      gt\n      iszero\n      tag_193\n      jumpi\n      tag_194\n      tag_57\n      jump\t// in\n    tag_194:\n    tag_193:\n      eq\n        /* \"MyStuff/Projet 1/Voting.sol\":1560:1625  require(_expectedState == currentState, \"Not the time for this!\") */\n      tag_195\n      jumpi\n      mload(0x40)\n      0x08c379a000000000000000000000000000000000000000000000000000000000\n      dup2\n      mstore\n      0x04\n      add\n      tag_196\n      swap1\n      tag_62\n      jump\t// in\n    tag_196:\n      mload(0x40)\n      dup1\n      swap2\n      sub\n      swap1\n      revert\n    tag_195:\n        /* \"MyStuff/Projet 1/Voting.sol\":3580:3607  WorkflowStatus.VotesTallied */\n      0x05\n        /* \"MyStuff/Projet 1/Voting.sol\":3565:3577  currentState */\n      0x02\n      0x00\n        /* \"MyStuff/Projet 1/Voting.sol\":3565:3607  currentState = WorkflowStatus.VotesTallied */\n      0x0100\n      exp\n      dup2\n      sload\n      dup2\n      0xff\n      mul\n      not\n      and\n      swap1\n      dup4\n      0x05\n      dup2\n      gt\n      iszero\n      tag_198\n      jumpi\n      tag_199\n      tag_57\n      jump\t// in\n    tag_199:\n    tag_198:\n      mul\n      or\n      swap1\n      sstore\n      pop\n        /* \"MyStuff/Projet 1/Voting.sol\":3623:3692  WorkflowStatusChange(WorkflowStatus.VotingSessionEnded, currentState) */\n      0x0a97a4ee45751e2abf3e4fc8946939630b11b371ea8ae39ccdc3056e98f5cc3f\n        /* \"MyStuff/Projet 1/Voting.sol\":3644:3677  WorkflowStatus.VotingSessionEnded */\n      0x04\n        /* \"MyStuff/Projet 1/Voting.sol\":3679:3691  currentState */\n      0x02\n      0x00\n      swap1\n      sload\n      swap1\n      0x0100\n      exp\n      swap1\n      div\n      0xff\n      and\n        /* \"MyStuff/Projet 1/Voting.sol\":3623:3692  WorkflowStatusChange(WorkflowStatus.VotingSessionEnded, currentState) */\n      mload(0x40)\n      tag_200\n      swap3\n      swap2\n      swap1\n      tag_67\n      jump\t// in\n    tag_200:\n      mload(0x40)\n      dup1\n      swap2\n      sub\n      swap1\n      log1\n        /* \"https://github.com/OpenZeppelin/openzeppelin-contracts/blob/master/contracts/access/Ownable.sol\":1554:1555  _ */\n      pop\n        /* \"MyStuff/Projet 1/Voting.sol\":3461:3700  function votesTallied() external onlyOwner authorizeAction(WorkflowStatus.VotingSessionEnded){... */\n      jump\t// out\n        /* \"MyStuff/Projet 1/Voting.sol\":4235:4678  function Vote(uint _proposalId) external authorizeAction(WorkflowStatus.VotingSessionStarted) isRegistered {... */\n    tag_45:\n        /* \"MyStuff/Projet 1/Voting.sol\":4292:4327  WorkflowStatus.VotingSessionStarted */\n      0x03\n        /* \"MyStuff/Projet 1/Voting.sol\":1586:1598  currentState */\n      0x02\n      0x00\n      swap1\n      sload\n      swap1\n      0x0100\n      exp\n      swap1\n      div\n      0xff\n      and\n        /* \"MyStuff/Projet 1/Voting.sol\":1568:1598  _expectedState == currentState */\n      0x05\n      dup2\n      gt\n      iszero\n      tag_202\n      jumpi\n      tag_203\n      tag_57\n      jump\t// in\n    tag_203:\n    tag_202:\n        /* \"MyStuff/Projet 1/Voting.sol\":1568:1582  _expectedState */\n      dup2\n        /* \"MyStuff/Projet 1/Voting.sol\":1568:1598  _expectedState == currentState */\n      0x05\n      dup2\n      gt\n      iszero\n      tag_204\n      jumpi\n      tag_205\n      tag_57\n      jump\t// in\n    tag_205:\n    tag_204:\n      eq\n        /* \"MyStuff/Projet 1/Voting.sol\":1560:1625  require(_expectedState == currentState, \"Not the time for this!\") */\n      tag_206\n      jumpi\n      mload(0x40)\n      0x08c379a000000000000000000000000000000000000000000000000000000000\n      dup2\n      mstore\n      0x04\n      add\n      tag_207\n      swap1\n      tag_62\n      jump\t// in\n    tag_207:\n      mload(0x40)\n      dup1\n      swap2\n      sub\n      swap1\n      revert\n    tag_206:\n        /* \"MyStuff/Projet 1/Voting.sol\":1771:1786  votersWhitelist */\n      0x01\n        /* \"MyStuff/Projet 1/Voting.sol\":1771:1798  votersWhitelist[msg.sender] */\n      0x00\n        /* \"MyStuff/Projet 1/Voting.sol\":1787:1797  msg.sender */\n      caller\n        /* \"MyStuff/Projet 1/Voting.sol\":1771:1798  votersWhitelist[msg.sender] */\n      0xffffffffffffffffffffffffffffffffffffffff\n      and\n      0xffffffffffffffffffffffffffffffffffffffff\n      and\n      dup2\n      mstore\n      0x20\n      add\n      swap1\n      dup2\n      mstore\n      0x20\n      add\n      0x00\n      keccak256\n        /* \"MyStuff/Projet 1/Voting.sol\":1771:1811  votersWhitelist[msg.sender].isRegistered */\n      0x00\n      add\n      0x00\n      swap1\n      sload\n      swap1\n      0x0100\n      exp\n      swap1\n      div\n      0xff\n      and\n        /* \"MyStuff/Projet 1/Voting.sol\":1763:1866  require(votersWhitelist[msg.sender].isRegistered, \"The voter is not registered in the votersWhitelist\") */\n      tag_209\n      jumpi\n      mload(0x40)\n      0x08c379a000000000000000000000000000000000000000000000000000000000\n      dup2\n      mstore\n      0x04\n      add\n      tag_210\n      swap1\n      tag_91\n      jump\t// in\n    tag_210:\n      mload(0x40)\n      dup1\n      swap2\n      sub\n      swap1\n      revert\n    tag_209:\n        /* \"MyStuff/Projet 1/Voting.sol\":4362:4377  votersWhitelist */\n      0x01\n        /* \"MyStuff/Projet 1/Voting.sol\":4362:4389  votersWhitelist[msg.sender] */\n      0x00\n        /* \"MyStuff/Projet 1/Voting.sol\":4378:4388  msg.sender */\n      caller\n        /* \"MyStuff/Projet 1/Voting.sol\":4362:4389  votersWhitelist[msg.sender] */\n      0xffffffffffffffffffffffffffffffffffffffff\n      and\n      0xffffffffffffffffffffffffffffffffffffffff\n      and\n      dup2\n      mstore\n      0x20\n      add\n      swap1\n      dup2\n      mstore\n      0x20\n      add\n      0x00\n      keccak256\n        /* \"MyStuff/Projet 1/Voting.sol\":4362:4398  votersWhitelist[msg.sender].hasVoted */\n      0x00\n      add\n      0x01\n      swap1\n      sload\n      swap1\n      0x0100\n      exp\n      swap1\n      div\n      0xff\n      and\n        /* \"MyStuff/Projet 1/Voting.sol\":4361:4398  !votersWhitelist[msg.sender].hasVoted */\n      iszero\n        /* \"MyStuff/Projet 1/Voting.sol\":4353:4430  require(!votersWhitelist[msg.sender].hasVoted, \"The voter has already voted\") */\n      tag_212\n      jumpi\n      mload(0x40)\n      0x08c379a000000000000000000000000000000000000000000000000000000000\n      dup2\n      mstore\n      0x04\n      add\n      tag_213\n      swap1\n      tag_214\n      jump\t// in\n    tag_213:\n      mload(0x40)\n      dup1\n      swap2\n      sub\n      swap1\n      revert\n    tag_212:\n        /* \"MyStuff/Projet 1/Voting.sol\":4463:4472  proposals */\n      0x03\n        /* \"MyStuff/Projet 1/Voting.sol\":4463:4479  proposals.length */\n      dup1\n      sload\n      swap1\n      pop\n        /* \"MyStuff/Projet 1/Voting.sol\":4449:4460  _proposalId */\n      dup3\n        /* \"MyStuff/Projet 1/Voting.sol\":4449:4479  _proposalId < proposals.length */\n      lt\n        /* \"MyStuff/Projet 1/Voting.sol\":4449:4499  _proposalId < proposals.length && _proposalId >= 0 */\n      dup1\n      iszero\n      tag_215\n      jumpi\n      pop\n        /* \"MyStuff/Projet 1/Voting.sol\":4498:4499  0 */\n      0x00\n        /* \"MyStuff/Projet 1/Voting.sol\":4483:4494  _proposalId */\n      dup3\n        /* \"MyStuff/Projet 1/Voting.sol\":4483:4499  _proposalId >= 0 */\n      lt\n      iszero\n        /* \"MyStuff/Projet 1/Voting.sol\":4449:4499  _proposalId < proposals.length && _proposalId >= 0 */\n    tag_215:\n        /* \"MyStuff/Projet 1/Voting.sol\":4441:4524  require(_proposalId < proposals.length && _proposalId >= 0 , \"Invalid proposal id\") */\n      tag_216\n      jumpi\n      mload(0x40)\n      0x08c379a000000000000000000000000000000000000000000000000000000000\n      dup2\n      mstore\n      0x04\n      add\n      tag_217\n      swap1\n      tag_218\n      jump\t// in\n    tag_217:\n      mload(0x40)\n      dup1\n      swap2\n      sub\n      swap1\n      revert\n    tag_216:\n        /* \"MyStuff/Projet 1/Voting.sol\":4535:4544  proposals */\n      0x03\n        /* \"MyStuff/Projet 1/Voting.sol\":4545:4556  _proposalId */\n      dup3\n        /* \"MyStuff/Projet 1/Voting.sol\":4535:4557  proposals[_proposalId] */\n      dup2\n      sload\n      dup2\n      lt\n      tag_219\n      jumpi\n      tag_220\n      tag_143\n      jump\t// in\n    tag_220:\n    tag_219:\n      swap1\n      0x00\n      mstore\n      keccak256(0x00, 0x20)\n      swap1\n      0x02\n      mul\n      add\n        /* \"MyStuff/Projet 1/Voting.sol\":4535:4567  proposals[_proposalId].voteCount */\n      0x01\n      add\n      0x00\n        /* \"MyStuff/Projet 1/Voting.sol\":4535:4569  proposals[_proposalId].voteCount++ */\n      dup2\n      sload\n      dup1\n      swap3\n      swap2\n      swap1\n      tag_222\n      swap1\n      tag_161\n      jump\t// in\n    tag_222:\n      swap2\n      swap1\n      pop\n      sstore\n      pop\n        /* \"MyStuff/Projet 1/Voting.sol\":4619:4623  true */\n      0x01\n        /* \"MyStuff/Projet 1/Voting.sol\":4580:4595  votersWhitelist */\n      dup1\n        /* \"MyStuff/Projet 1/Voting.sol\":4580:4607  votersWhitelist[msg.sender] */\n      0x00\n        /* \"MyStuff/Projet 1/Voting.sol\":4596:4606  msg.sender */\n      caller\n        /* \"MyStuff/Projet 1/Voting.sol\":4580:4607  votersWhitelist[msg.sender] */\n      0xffffffffffffffffffffffffffffffffffffffff\n      and\n      0xffffffffffffffffffffffffffffffffffffffff\n      and\n      dup2\n      mstore\n      0x20\n      add\n      swap1\n      dup2\n      mstore\n      0x20\n      add\n      0x00\n      keccak256\n        /* \"MyStuff/Projet 1/Voting.sol\":4580:4616  votersWhitelist[msg.sender].hasVoted */\n      0x00\n      add\n      0x01\n        /* \"MyStuff/Projet 1/Voting.sol\":4580:4623  votersWhitelist[msg.sender].hasVoted = true */\n      0x0100\n      exp\n      dup2\n      sload\n      dup2\n      0xff\n      mul\n      not\n      and\n      swap1\n      dup4\n      iszero\n      iszero\n      mul\n      or\n      swap1\n      sstore\n      pop\n        /* \"MyStuff/Projet 1/Voting.sol\":4639:4670  Voted (msg.sender, _proposalId) */\n      0x4d99b957a2bc29a30ebd96a7be8e68fe50a3c701db28a91436490b7d53870ca4\n        /* \"MyStuff/Projet 1/Voting.sol\":4646:4656  msg.sender */\n      caller\n        /* \"MyStuff/Projet 1/Voting.sol\":4658:4669  _proposalId */\n      dup4\n        /* \"MyStuff/Projet 1/Voting.sol\":4639:4670  Voted (msg.sender, _proposalId) */\n      mload(0x40)\n      tag_223\n      swap3\n      swap2\n      swap1\n      tag_224\n      jump\t// in\n    tag_223:\n      mload(0x40)\n      dup1\n      swap2\n      sub\n      swap1\n      log1\n        /* \"MyStuff/Projet 1/Voting.sol\":4235:4678  function Vote(uint _proposalId) external authorizeAction(WorkflowStatus.VotingSessionStarted) isRegistered {... */\n      pop\n      pop\n      jump\t// out\n        /* \"MyStuff/Projet 1/Voting.sol\":2926:3195  function startVotingSession() external onlyOwner authorizeAction(WorkflowStatus.ProposalsRegistrationEnded){... */\n    tag_47:\n        /* \"https://github.com/OpenZeppelin/openzeppelin-contracts/blob/master/contracts/access/Ownable.sol\":1531:1544  _checkOwner() */\n      tag_226\n        /* \"https://github.com/OpenZeppelin/openzeppelin-contracts/blob/master/contracts/access/Ownable.sol\":1531:1542  _checkOwner */\n      tag_53\n        /* \"https://github.com/OpenZeppelin/openzeppelin-contracts/blob/master/contracts/access/Ownable.sol\":1531:1544  _checkOwner() */\n      jump\t// in\n    tag_226:\n        /* \"MyStuff/Projet 1/Voting.sol\":2991:3032  WorkflowStatus.ProposalsRegistrationEnded */\n      0x02\n        /* \"MyStuff/Projet 1/Voting.sol\":1586:1598  currentState */\n      dup1\n      0x00\n      swap1\n      sload\n      swap1\n      0x0100\n      exp\n      swap1\n      div\n      0xff\n      and\n        /* \"MyStuff/Projet 1/Voting.sol\":1568:1598  _expectedState == currentState */\n      0x05\n      dup2\n      gt\n      iszero\n      tag_228\n      jumpi\n      tag_229\n      tag_57\n      jump\t// in\n    tag_229:\n    tag_228:\n        /* \"MyStuff/Projet 1/Voting.sol\":1568:1582  _expectedState */\n      dup2\n        /* \"MyStuff/Projet 1/Voting.sol\":1568:1598  _expectedState == currentState */\n      0x05\n      dup2\n      gt\n      iszero\n      tag_230\n      jumpi\n      tag_231\n      tag_57\n      jump\t// in\n    tag_231:\n    tag_230:\n      eq\n        /* \"MyStuff/Projet 1/Voting.sol\":1560:1625  require(_expectedState == currentState, \"Not the time for this!\") */\n      tag_232\n      jumpi\n      mload(0x40)\n      0x08c379a000000000000000000000000000000000000000000000000000000000\n      dup2\n      mstore\n      0x04\n      add\n      tag_233\n      swap1\n      tag_62\n      jump\t// in\n    tag_233:\n      mload(0x40)\n      dup1\n      swap2\n      sub\n      swap1\n      revert\n    tag_232:\n        /* \"MyStuff/Projet 1/Voting.sol\":3059:3094  WorkflowStatus.VotingSessionStarted */\n      0x03\n        /* \"MyStuff/Projet 1/Voting.sol\":3044:3056  currentState */\n      0x02\n      0x00\n        /* \"MyStuff/Projet 1/Voting.sol\":3044:3094  currentState = WorkflowStatus.VotingSessionStarted */\n      0x0100\n      exp\n      dup2\n      sload\n      dup2\n      0xff\n      mul\n      not\n      and\n      swap1\n      dup4\n      0x05\n      dup2\n      gt\n      iszero\n      tag_235\n      jumpi\n      tag_236\n      tag_57\n      jump\t// in\n    tag_236:\n    tag_235:\n      mul\n      or\n      swap1\n      sstore\n      pop\n        /* \"MyStuff/Projet 1/Voting.sol\":3110:3187  WorkflowStatusChange(WorkflowStatus.ProposalsRegistrationEnded, currentState) */\n      0x0a97a4ee45751e2abf3e4fc8946939630b11b371ea8ae39ccdc3056e98f5cc3f\n        /* \"MyStuff/Projet 1/Voting.sol\":3131:3172  WorkflowStatus.ProposalsRegistrationEnded */\n      0x02\n        /* \"MyStuff/Projet 1/Voting.sol\":3174:3186  currentState */\n      dup1\n      0x00\n      swap1\n      sload\n      swap1\n      0x0100\n      exp\n      swap1\n      div\n      0xff\n      and\n        /* \"MyStuff/Projet 1/Voting.sol\":3110:3187  WorkflowStatusChange(WorkflowStatus.ProposalsRegistrationEnded, currentState) */\n      mload(0x40)\n      tag_237\n      swap3\n      swap2\n      swap1\n      tag_67\n      jump\t// in\n    tag_237:\n      mload(0x40)\n      dup1\n      swap2\n      sub\n      swap1\n      log1\n        /* \"https://github.com/OpenZeppelin/openzeppelin-contracts/blob/master/contracts/access/Ownable.sol\":1554:1555  _ */\n      pop\n        /* \"MyStuff/Projet 1/Voting.sol\":2926:3195  function startVotingSession() external onlyOwner authorizeAction(WorkflowStatus.ProposalsRegistrationEnded){... */\n      jump\t// out\n        /* \"https://github.com/OpenZeppelin/openzeppelin-contracts/blob/master/contracts/access/Ownable.sol\":2543:2758  function transferOwnership(address newOwner) public virtual onlyOwner {... */\n    tag_50:\n        /* \"https://github.com/OpenZeppelin/openzeppelin-contracts/blob/master/contracts/access/Ownable.sol\":1531:1544  _checkOwner() */\n      tag_239\n        /* \"https://github.com/OpenZeppelin/openzeppelin-contracts/blob/master/contracts/access/Ownable.sol\":1531:1542  _checkOwner */\n      tag_53\n        /* \"https://github.com/OpenZeppelin/openzeppelin-contracts/blob/master/contracts/access/Ownable.sol\":1531:1544  _checkOwner() */\n      jump\t// in\n    tag_239:\n        /* \"https://github.com/OpenZeppelin/openzeppelin-contracts/blob/master/contracts/access/Ownable.sol\":2647:2648  0 */\n      0x00\n        /* \"https://github.com/OpenZeppelin/openzeppelin-contracts/blob/master/contracts/access/Ownable.sol\":2627:2649  newOwner == address(0) */\n      0xffffffffffffffffffffffffffffffffffffffff\n      and\n        /* \"https://github.com/OpenZeppelin/openzeppelin-contracts/blob/master/contracts/access/Ownable.sol\":2627:2635  newOwner */\n      dup2\n        /* \"https://github.com/OpenZeppelin/openzeppelin-contracts/blob/master/contracts/access/Ownable.sol\":2627:2649  newOwner == address(0) */\n      0xffffffffffffffffffffffffffffffffffffffff\n      and\n      sub\n        /* \"https://github.com/OpenZeppelin/openzeppelin-contracts/blob/master/contracts/access/Ownable.sol\":2623:2714  if (newOwner == address(0)) {... */\n      tag_241\n      jumpi\n        /* \"https://github.com/OpenZeppelin/openzeppelin-contracts/blob/master/contracts/access/Ownable.sol\":2700:2701  0 */\n      0x00\n        /* \"https://github.com/OpenZeppelin/openzeppelin-contracts/blob/master/contracts/access/Ownable.sol\":2672:2703  OwnableInvalidOwner(address(0)) */\n      mload(0x40)\n      0x1e4fbdf700000000000000000000000000000000000000000000000000000000\n      dup2\n      mstore\n      0x04\n      add\n      tag_242\n      swap2\n      swap1\n      tag_35\n      jump\t// in\n    tag_242:\n      mload(0x40)\n      dup1\n      swap2\n      sub\n      swap1\n      revert\n        /* \"https://github.com/OpenZeppelin/openzeppelin-contracts/blob/master/contracts/access/Ownable.sol\":2623:2714  if (newOwner == address(0)) {... */\n    tag_241:\n        /* \"https://github.com/OpenZeppelin/openzeppelin-contracts/blob/master/contracts/access/Ownable.sol\":2723:2751  _transferOwnership(newOwner) */\n      tag_243\n        /* \"https://github.com/OpenZeppelin/openzeppelin-contracts/blob/master/contracts/access/Ownable.sol\":2742:2750  newOwner */\n      dup2\n        /* \"https://github.com/OpenZeppelin/openzeppelin-contracts/blob/master/contracts/access/Ownable.sol\":2723:2741  _transferOwnership */\n      tag_131\n        /* \"https://github.com/OpenZeppelin/openzeppelin-contracts/blob/master/contracts/access/Ownable.sol\":2723:2751  _transferOwnership(newOwner) */\n      jump\t// in\n    tag_243:\n        /* \"https://github.com/OpenZeppelin/openzeppelin-contracts/blob/master/contracts/access/Ownable.sol\":2543:2758  function transferOwnership(address newOwner) public virtual onlyOwner {... */\n      pop\n      jump\t// out\n        /* \"https://github.com/OpenZeppelin/openzeppelin-contracts/blob/master/contracts/access/Ownable.sol\":1796:1958  function _checkOwner() internal view virtual {... */\n    tag_53:\n        /* \"https://github.com/OpenZeppelin/openzeppelin-contracts/blob/master/contracts/access/Ownable.sol\":1866:1878  _msgSender() */\n      tag_245\n        /* \"https://github.com/OpenZeppelin/openzeppelin-contracts/blob/master/contracts/access/Ownable.sol\":1866:1876  _msgSender */\n      tag_246\n        /* \"https://github.com/OpenZeppelin/openzeppelin-contracts/blob/master/contracts/access/Ownable.sol\":1866:1878  _msgSender() */\n      jump\t// in\n    tag_245:\n        /* \"https://github.com/OpenZeppelin/openzeppelin-contracts/blob/master/contracts/access/Ownable.sol\":1855:1878  owner() != _msgSender() */\n      0xffffffffffffffffffffffffffffffffffffffff\n      and\n        /* \"https://github.com/OpenZeppelin/openzeppelin-contracts/blob/master/contracts/access/Ownable.sol\":1855:1862  owner() */\n      tag_247\n        /* \"https://github.com/OpenZeppelin/openzeppelin-contracts/blob/master/contracts/access/Ownable.sol\":1855:1860  owner */\n      tag_33\n        /* \"https://github.com/OpenZeppelin/openzeppelin-contracts/blob/master/contracts/access/Ownable.sol\":1855:1862  owner() */\n      jump\t// in\n    tag_247:\n        /* \"https://github.com/OpenZeppelin/openzeppelin-contracts/blob/master/contracts/access/Ownable.sol\":1855:1878  owner() != _msgSender() */\n      0xffffffffffffffffffffffffffffffffffffffff\n      and\n      eq\n        /* \"https://github.com/OpenZeppelin/openzeppelin-contracts/blob/master/contracts/access/Ownable.sol\":1851:1952  if (owner() != _msgSender()) {... */\n      tag_248\n      jumpi\n        /* \"https://github.com/OpenZeppelin/openzeppelin-contracts/blob/master/contracts/access/Ownable.sol\":1928:1940  _msgSender() */\n      tag_249\n        /* \"https://github.com/OpenZeppelin/openzeppelin-contracts/blob/master/contracts/access/Ownable.sol\":1928:1938  _msgSender */\n      tag_246\n        /* \"https://github.com/OpenZeppelin/openzeppelin-contracts/blob/master/contracts/access/Ownable.sol\":1928:1940  _msgSender() */\n      jump\t// in\n    tag_249:\n        /* \"https://github.com/OpenZeppelin/openzeppelin-contracts/blob/master/contracts/access/Ownable.sol\":1901:1941  OwnableUnauthorizedAccount(_msgSender()) */\n      mload(0x40)\n      0x118cdaa700000000000000000000000000000000000000000000000000000000\n      dup2\n      mstore\n      0x04\n      add\n      tag_250\n      swap2\n      swap1\n      tag_35\n      jump\t// in\n    tag_250:\n      mload(0x40)\n      dup1\n      swap2\n      sub\n      swap1\n      revert\n        /* \"https://github.com/OpenZeppelin/openzeppelin-contracts/blob/master/contracts/access/Ownable.sol\":1851:1952  if (owner() != _msgSender()) {... */\n    tag_248:\n        /* \"https://github.com/OpenZeppelin/openzeppelin-contracts/blob/master/contracts/access/Ownable.sol\":1796:1958  function _checkOwner() internal view virtual {... */\n      jump\t// out\n        /* \"https://github.com/OpenZeppelin/openzeppelin-contracts/blob/master/contracts/access/Ownable.sol\":2912:3099  function _transferOwnership(address newOwner) internal virtual {... */\n    tag_131:\n        /* \"https://github.com/OpenZeppelin/openzeppelin-contracts/blob/master/contracts/access/Ownable.sol\":2985:3001  address oldOwner */\n      0x00\n        /* \"https://github.com/OpenZeppelin/openzeppelin-contracts/blob/master/contracts/access/Ownable.sol\":3004:3010  _owner */\n      0x00\n      0x00\n      swap1\n      sload\n      swap1\n      0x0100\n      exp\n      swap1\n      div\n      0xffffffffffffffffffffffffffffffffffffffff\n      and\n        /* \"https://github.com/OpenZeppelin/openzeppelin-contracts/blob/master/contracts/access/Ownable.sol\":2985:3010  address oldOwner = _owner */\n      swap1\n      pop\n        /* \"https://github.com/OpenZeppelin/openzeppelin-contracts/blob/master/contracts/access/Ownable.sol\":3029:3037  newOwner */\n      dup2\n        /* \"https://github.com/OpenZeppelin/openzeppelin-contracts/blob/master/contracts/access/Ownable.sol\":3020:3026  _owner */\n      0x00\n      0x00\n        /* \"https://github.com/OpenZeppelin/openzeppelin-contracts/blob/master/contracts/access/Ownable.sol\":3020:3037  _owner = newOwner */\n      0x0100\n      exp\n      dup2\n      sload\n      dup2\n      0xffffffffffffffffffffffffffffffffffffffff\n      mul\n      not\n      and\n      swap1\n      dup4\n      0xffffffffffffffffffffffffffffffffffffffff\n      and\n      mul\n      or\n      swap1\n      sstore\n      pop\n        /* \"https://github.com/OpenZeppelin/openzeppelin-contracts/blob/master/contracts/access/Ownable.sol\":3083:3091  newOwner */\n      dup2\n        /* \"https://github.com/OpenZeppelin/openzeppelin-contracts/blob/master/contracts/access/Ownable.sol\":3052:3092  OwnershipTransferred(oldOwner, newOwner) */\n      0xffffffffffffffffffffffffffffffffffffffff\n      and\n        /* \"https://github.com/OpenZeppelin/openzeppelin-contracts/blob/master/contracts/access/Ownable.sol\":3073:3081  oldOwner */\n      dup2\n        /* \"https://github.com/OpenZeppelin/openzeppelin-contracts/blob/master/contracts/access/Ownable.sol\":3052:3092  OwnershipTransferred(oldOwner, newOwner) */\n      0xffffffffffffffffffffffffffffffffffffffff\n      and\n      0x8be0079c531659141344cd1fd0a4f28419497f9722a3daafe3b4186f6b6457e0\n      mload(0x40)\n      mload(0x40)\n      dup1\n      swap2\n      sub\n      swap1\n      log3\n        /* \"https://github.com/OpenZeppelin/openzeppelin-contracts/blob/master/contracts/access/Ownable.sol\":2975:3099  {... */\n      pop\n        /* \"https://github.com/OpenZeppelin/openzeppelin-contracts/blob/master/contracts/access/Ownable.sol\":2912:3099  function _transferOwnership(address newOwner) internal virtual {... */\n      pop\n      jump\t// out\n        /* \"https://github.com/OpenZeppelin/openzeppelin-contracts/blob/master/contracts/utils/Context.sol\":656:752  function _msgSender() internal view virtual returns (address) {... */\n    tag_246:\n        /* \"https://github.com/OpenZeppelin/openzeppelin-contracts/blob/master/contracts/utils/Context.sol\":709:716  address */\n      0x00\n        /* \"https://github.com/OpenZeppelin/openzeppelin-contracts/blob/master/contracts/utils/Context.sol\":735:745  msg.sender */\n      caller\n        /* \"https://github.com/OpenZeppelin/openzeppelin-contracts/blob/master/contracts/utils/Context.sol\":728:745  return msg.sender */\n      swap1\n      pop\n        /* \"https://github.com/OpenZeppelin/openzeppelin-contracts/blob/master/contracts/utils/Context.sol\":656:752  function _msgSender() internal view virtual returns (address) {... */\n      swap1\n      jump\t// out\n    tag_168:\n      mload(0x40)\n      dup1\n      0x40\n      add\n      0x40\n      mstore\n      dup1\n      0x60\n      dup2\n      mstore\n      0x20\n      add\n      0x00\n      dup2\n      mstore\n      pop\n      swap1\n      jump\t// out\n        /* \"#utility.yul\":88:205   */\n    tag_254:\n        /* \"#utility.yul\":197:198   */\n      0x00\n        /* \"#utility.yul\":194:195   */\n      0x00\n        /* \"#utility.yul\":187:199   */\n      revert\n        /* \"#utility.yul\":211:328   */\n    tag_255:\n        /* \"#utility.yul\":320:321   */\n      0x00\n        /* \"#utility.yul\":317:318   */\n      0x00\n        /* \"#utility.yul\":310:322   */\n      revert\n        /* \"#utility.yul\":334:451   */\n    tag_256:\n        /* \"#utility.yul\":443:444   */\n      0x00\n        /* \"#utility.yul\":440:441   */\n      0x00\n        /* \"#utility.yul\":433:445   */\n      revert\n        /* \"#utility.yul\":457:574   */\n    tag_257:\n        /* \"#utility.yul\":566:567   */\n      0x00\n        /* \"#utility.yul\":563:564   */\n      0x00\n        /* \"#utility.yul\":556:568   */\n      revert\n        /* \"#utility.yul\":580:697   */\n    tag_258:\n        /* \"#utility.yul\":689:690   */\n      0x00\n        /* \"#utility.yul\":686:687   */\n      0x00\n        /* \"#utility.yul\":679:691   */\n      revert\n        /* \"#utility.yul\":717:1270   */\n    tag_259:\n        /* \"#utility.yul\":775:783   */\n      0x00\n        /* \"#utility.yul\":785:791   */\n      0x00\n        /* \"#utility.yul\":835:838   */\n      dup4\n        /* \"#utility.yul\":828:832   */\n      0x1f\n        /* \"#utility.yul\":820:826   */\n      dup5\n        /* \"#utility.yul\":816:833   */\n      add\n        /* \"#utility.yul\":812:839   */\n      slt\n        /* \"#utility.yul\":802:924   */\n      tag_322\n      jumpi\n        /* \"#utility.yul\":843:922   */\n      tag_323\n      tag_256\n      jump\t// in\n    tag_323:\n        /* \"#utility.yul\":802:924   */\n    tag_322:\n        /* \"#utility.yul\":956:962   */\n      dup3\n        /* \"#utility.yul\":943:963   */\n      calldataload\n        /* \"#utility.yul\":933:963   */\n      swap1\n      pop\n        /* \"#utility.yul\":986:1004   */\n      0xffffffffffffffff\n        /* \"#utility.yul\":978:984   */\n      dup2\n        /* \"#utility.yul\":975:1005   */\n      gt\n        /* \"#utility.yul\":972:1089   */\n      iszero\n      tag_324\n      jumpi\n        /* \"#utility.yul\":1008:1087   */\n      tag_325\n      tag_257\n      jump\t// in\n    tag_325:\n        /* \"#utility.yul\":972:1089   */\n    tag_324:\n        /* \"#utility.yul\":1122:1126   */\n      0x20\n        /* \"#utility.yul\":1114:1120   */\n      dup4\n        /* \"#utility.yul\":1110:1127   */\n      add\n        /* \"#utility.yul\":1098:1127   */\n      swap2\n      pop\n        /* \"#utility.yul\":1176:1179   */\n      dup4\n        /* \"#utility.yul\":1168:1172   */\n      0x01\n        /* \"#utility.yul\":1160:1166   */\n      dup3\n        /* \"#utility.yul\":1156:1173   */\n      mul\n        /* \"#utility.yul\":1146:1154   */\n      dup4\n        /* \"#utility.yul\":1142:1174   */\n      add\n        /* \"#utility.yul\":1139:1180   */\n      gt\n        /* \"#utility.yul\":1136:1264   */\n      iszero\n      tag_326\n      jumpi\n        /* \"#utility.yul\":1183:1262   */\n      tag_327\n      tag_258\n      jump\t// in\n    tag_327:\n        /* \"#utility.yul\":1136:1264   */\n    tag_326:\n        /* \"#utility.yul\":717:1270   */\n      swap3\n      pop\n      swap3\n      swap1\n      pop\n      jump\t// out\n        /* \"#utility.yul\":1276:1805   */\n    tag_22:\n        /* \"#utility.yul\":1347:1353   */\n      0x00\n        /* \"#utility.yul\":1355:1361   */\n      0x00\n        /* \"#utility.yul\":1404:1406   */\n      0x20\n        /* \"#utility.yul\":1392:1401   */\n      dup4\n        /* \"#utility.yul\":1383:1390   */\n      dup6\n        /* \"#utility.yul\":1379:1402   */\n      sub\n        /* \"#utility.yul\":1375:1407   */\n      slt\n        /* \"#utility.yul\":1372:1491   */\n      iszero\n      tag_329\n      jumpi\n        /* \"#utility.yul\":1410:1489   */\n      tag_330\n      tag_254\n      jump\t// in\n    tag_330:\n        /* \"#utility.yul\":1372:1491   */\n    tag_329:\n        /* \"#utility.yul\":1558:1559   */\n      0x00\n        /* \"#utility.yul\":1547:1556   */\n      dup4\n        /* \"#utility.yul\":1543:1560   */\n      add\n        /* \"#utility.yul\":1530:1561   */\n      calldataload\n        /* \"#utility.yul\":1588:1606   */\n      0xffffffffffffffff\n        /* \"#utility.yul\":1580:1586   */\n      dup2\n        /* \"#utility.yul\":1577:1607   */\n      gt\n        /* \"#utility.yul\":1574:1691   */\n      iszero\n      tag_331\n      jumpi\n        /* \"#utility.yul\":1610:1689   */\n      tag_332\n      tag_255\n      jump\t// in\n    tag_332:\n        /* \"#utility.yul\":1574:1691   */\n    tag_331:\n        /* \"#utility.yul\":1723:1788   */\n      tag_333\n        /* \"#utility.yul\":1780:1787   */\n      dup6\n        /* \"#utility.yul\":1771:1777   */\n      dup3\n        /* \"#utility.yul\":1760:1769   */\n      dup7\n        /* \"#utility.yul\":1756:1778   */\n      add\n        /* \"#utility.yul\":1723:1788   */\n      tag_259\n      jump\t// in\n    tag_333:\n        /* \"#utility.yul\":1705:1788   */\n      swap3\n      pop\n      swap3\n      pop\n        /* \"#utility.yul\":1501:1798   */\n      pop\n        /* \"#utility.yul\":1276:1805   */\n      swap3\n      pop\n      swap3\n      swap1\n      pop\n      jump\t// out\n        /* \"#utility.yul\":1811:1937   */\n    tag_260:\n        /* \"#utility.yul\":1848:1855   */\n      0x00\n        /* \"#utility.yul\":1888:1930   */\n      0xffffffffffffffffffffffffffffffffffffffff\n        /* \"#utility.yul\":1881:1886   */\n      dup3\n        /* \"#utility.yul\":1877:1931   */\n      and\n        /* \"#utility.yul\":1866:1931   */\n      swap1\n      pop\n        /* \"#utility.yul\":1811:1937   */\n      swap2\n      swap1\n      pop\n      jump\t// out\n        /* \"#utility.yul\":1943:2039   */\n    tag_261:\n        /* \"#utility.yul\":1980:1987   */\n      0x00\n        /* \"#utility.yul\":2009:2033   */\n      tag_336\n        /* \"#utility.yul\":2027:2032   */\n      dup3\n        /* \"#utility.yul\":2009:2033   */\n      tag_260\n      jump\t// in\n    tag_336:\n        /* \"#utility.yul\":1998:2033   */\n      swap1\n      pop\n        /* \"#utility.yul\":1943:2039   */\n      swap2\n      swap1\n      pop\n      jump\t// out\n        /* \"#utility.yul\":2045:2167   */\n    tag_262:\n        /* \"#utility.yul\":2118:2142   */\n      tag_338\n        /* \"#utility.yul\":2136:2141   */\n      dup2\n        /* \"#utility.yul\":2118:2142   */\n      tag_261\n      jump\t// in\n    tag_338:\n        /* \"#utility.yul\":2111:2116   */\n      dup2\n        /* \"#utility.yul\":2108:2143   */\n      eq\n        /* \"#utility.yul\":2098:2161   */\n      tag_339\n      jumpi\n        /* \"#utility.yul\":2157:2158   */\n      0x00\n        /* \"#utility.yul\":2154:2155   */\n      0x00\n        /* \"#utility.yul\":2147:2159   */\n      revert\n        /* \"#utility.yul\":2098:2161   */\n    tag_339:\n        /* \"#utility.yul\":2045:2167   */\n      pop\n      jump\t// out\n        /* \"#utility.yul\":2173:2312   */\n    tag_263:\n        /* \"#utility.yul\":2219:2224   */\n      0x00\n        /* \"#utility.yul\":2257:2263   */\n      dup2\n        /* \"#utility.yul\":2244:2264   */\n      calldataload\n        /* \"#utility.yul\":2235:2264   */\n      swap1\n      pop\n        /* \"#utility.yul\":2273:2306   */\n      tag_341\n        /* \"#utility.yul\":2300:2305   */\n      dup2\n        /* \"#utility.yul\":2273:2306   */\n      tag_262\n      jump\t// in\n    tag_341:\n        /* \"#utility.yul\":2173:2312   */\n      swap3\n      swap2\n      pop\n      pop\n      jump\t// out\n        /* \"#utility.yul\":2318:2647   */\n    tag_26:\n        /* \"#utility.yul\":2377:2383   */\n      0x00\n        /* \"#utility.yul\":2426:2428   */\n      0x20\n        /* \"#utility.yul\":2414:2423   */\n      dup3\n        /* \"#utility.yul\":2405:2412   */\n      dup5\n        /* \"#utility.yul\":2401:2424   */\n      sub\n        /* \"#utility.yul\":2397:2429   */\n      slt\n        /* \"#utility.yul\":2394:2513   */\n      iszero\n      tag_343\n      jumpi\n        /* \"#utility.yul\":2432:2511   */\n      tag_344\n      tag_254\n      jump\t// in\n    tag_344:\n        /* \"#utility.yul\":2394:2513   */\n    tag_343:\n        /* \"#utility.yul\":2552:2553   */\n      0x00\n        /* \"#utility.yul\":2577:2630   */\n      tag_345\n        /* \"#utility.yul\":2622:2629   */\n      dup5\n        /* \"#utility.yul\":2613:2619   */\n      dup3\n        /* \"#utility.yul\":2602:2611   */\n      dup6\n        /* \"#utility.yul\":2598:2620   */\n      add\n        /* \"#utility.yul\":2577:2630   */\n      tag_263\n      jump\t// in\n    tag_345:\n        /* \"#utility.yul\":2567:2630   */\n      swap2\n      pop\n        /* \"#utility.yul\":2523:2640   */\n      pop\n        /* \"#utility.yul\":2318:2647   */\n      swap3\n      swap2\n      pop\n      pop\n      jump\t// out\n        /* \"#utility.yul\":2653:2771   */\n    tag_264:\n        /* \"#utility.yul\":2740:2764   */\n      tag_347\n        /* \"#utility.yul\":2758:2763   */\n      dup2\n        /* \"#utility.yul\":2740:2764   */\n      tag_261\n      jump\t// in\n    tag_347:\n        /* \"#utility.yul\":2735:2738   */\n      dup3\n        /* \"#utility.yul\":2728:2765   */\n      mstore\n        /* \"#utility.yul\":2653:2771   */\n      pop\n      pop\n      jump\t// out\n        /* \"#utility.yul\":2777:2999   */\n    tag_35:\n        /* \"#utility.yul\":2870:2874   */\n      0x00\n        /* \"#utility.yul\":2908:2910   */\n      0x20\n        /* \"#utility.yul\":2897:2906   */\n      dup3\n        /* \"#utility.yul\":2893:2911   */\n      add\n        /* \"#utility.yul\":2885:2911   */\n      swap1\n      pop\n        /* \"#utility.yul\":2921:2992   */\n      tag_349\n        /* \"#utility.yul\":2989:2990   */\n      0x00\n        /* \"#utility.yul\":2978:2987   */\n      dup4\n        /* \"#utility.yul\":2974:2991   */\n      add\n        /* \"#utility.yul\":2965:2971   */\n      dup5\n        /* \"#utility.yul\":2921:2992   */\n      tag_264\n      jump\t// in\n    tag_349:\n        /* \"#utility.yul\":2777:2999   */\n      swap3\n      swap2\n      pop\n      pop\n      jump\t// out\n        /* \"#utility.yul\":3005:3143   */\n    tag_265:\n        /* \"#utility.yul\":3096:3102   */\n      0x00\n        /* \"#utility.yul\":3130:3135   */\n      dup2\n        /* \"#utility.yul\":3124:3136   */\n      mload\n        /* \"#utility.yul\":3114:3136   */\n      swap1\n      pop\n        /* \"#utility.yul\":3005:3143   */\n      swap2\n      swap1\n      pop\n      jump\t// out\n        /* \"#utility.yul\":3149:3357   */\n    tag_266:\n        /* \"#utility.yul\":3272:3283   */\n      0x00\n        /* \"#utility.yul\":3306:3312   */\n      dup3\n        /* \"#utility.yul\":3301:3304   */\n      dup3\n        /* \"#utility.yul\":3294:3313   */\n      mstore\n        /* \"#utility.yul\":3346:3350   */\n      0x20\n        /* \"#utility.yul\":3341:3344   */\n      dup3\n        /* \"#utility.yul\":3337:3351   */\n      add\n        /* \"#utility.yul\":3322:3351   */\n      swap1\n      pop\n        /* \"#utility.yul\":3149:3357   */\n      swap3\n      swap2\n      pop\n      pop\n      jump\t// out\n        /* \"#utility.yul\":3363:3519   */\n    tag_267:\n        /* \"#utility.yul\":3454:3458   */\n      0x00\n        /* \"#utility.yul\":3477:3480   */\n      dup2\n        /* \"#utility.yul\":3469:3480   */\n      swap1\n      pop\n        /* \"#utility.yul\":3507:3511   */\n      0x20\n        /* \"#utility.yul\":3502:3505   */\n      dup3\n        /* \"#utility.yul\":3498:3512   */\n      add\n        /* \"#utility.yul\":3490:3512   */\n      swap1\n      pop\n        /* \"#utility.yul\":3363:3519   */\n      swap2\n      swap1\n      pop\n      jump\t// out\n        /* \"#utility.yul\":3525:3624   */\n    tag_268:\n        /* \"#utility.yul\":3577:3583   */\n      0x00\n        /* \"#utility.yul\":3611:3616   */\n      dup2\n        /* \"#utility.yul\":3605:3617   */\n      mload\n        /* \"#utility.yul\":3595:3617   */\n      swap1\n      pop\n        /* \"#utility.yul\":3525:3624   */\n      swap2\n      swap1\n      pop\n      jump\t// out\n        /* \"#utility.yul\":3630:3789   */\n    tag_269:\n        /* \"#utility.yul\":3704:3715   */\n      0x00\n        /* \"#utility.yul\":3738:3744   */\n      dup3\n        /* \"#utility.yul\":3733:3736   */\n      dup3\n        /* \"#utility.yul\":3726:3745   */\n      mstore\n        /* \"#utility.yul\":3778:3782   */\n      0x20\n        /* \"#utility.yul\":3773:3776   */\n      dup3\n        /* \"#utility.yul\":3769:3783   */\n      add\n        /* \"#utility.yul\":3754:3783   */\n      swap1\n      pop\n        /* \"#utility.yul\":3630:3789   */\n      swap3\n      swap2\n      pop\n      pop\n      jump\t// out\n        /* \"#utility.yul\":3795:3934   */\n    tag_270:\n        /* \"#utility.yul\":3884:3890   */\n      dup3\n        /* \"#utility.yul\":3879:3882   */\n      dup2\n        /* \"#utility.yul\":3874:3877   */\n      dup4\n        /* \"#utility.yul\":3868:3891   */\n      mcopy\n        /* \"#utility.yul\":3925:3926   */\n      0x00\n        /* \"#utility.yul\":3916:3922   */\n      dup4\n        /* \"#utility.yul\":3911:3914   */\n      dup4\n        /* \"#utility.yul\":3907:3923   */\n      add\n        /* \"#utility.yul\":3900:3927   */\n      mstore\n        /* \"#utility.yul\":3795:3934   */\n      pop\n      pop\n      pop\n      jump\t// out\n        /* \"#utility.yul\":3940:4042   */\n    tag_271:\n        /* \"#utility.yul\":3981:3987   */\n      0x00\n        /* \"#utility.yul\":4032:4034   */\n      0x1f\n        /* \"#utility.yul\":4028:4035   */\n      not\n        /* \"#utility.yul\":4023:4025   */\n      0x1f\n        /* \"#utility.yul\":4016:4021   */\n      dup4\n        /* \"#utility.yul\":4012:4026   */\n      add\n        /* \"#utility.yul\":4008:4036   */\n      and\n        /* \"#utility.yul\":3998:4036   */\n      swap1\n      pop\n        /* \"#utility.yul\":3940:4042   */\n      swap2\n      swap1\n      pop\n      jump\t// out\n        /* \"#utility.yul\":4048:4405   */\n    tag_272:\n        /* \"#utility.yul\":4126:4129   */\n      0x00\n        /* \"#utility.yul\":4154:4193   */\n      tag_358\n        /* \"#utility.yul\":4187:4192   */\n      dup3\n        /* \"#utility.yul\":4154:4193   */\n      tag_268\n      jump\t// in\n    tag_358:\n        /* \"#utility.yul\":4209:4270   */\n      tag_359\n        /* \"#utility.yul\":4263:4269   */\n      dup2\n        /* \"#utility.yul\":4258:4261   */\n      dup6\n        /* \"#utility.yul\":4209:4270   */\n      tag_269\n      jump\t// in\n    tag_359:\n        /* \"#utility.yul\":4202:4270   */\n      swap4\n      pop\n        /* \"#utility.yul\":4279:4344   */\n      tag_360\n        /* \"#utility.yul\":4337:4343   */\n      dup2\n        /* \"#utility.yul\":4332:4335   */\n      dup6\n        /* \"#utility.yul\":4325:4329   */\n      0x20\n        /* \"#utility.yul\":4318:4323   */\n      dup7\n        /* \"#utility.yul\":4314:4330   */\n      add\n        /* \"#utility.yul\":4279:4344   */\n      tag_270\n      jump\t// in\n    tag_360:\n        /* \"#utility.yul\":4369:4398   */\n      tag_361\n        /* \"#utility.yul\":4391:4397   */\n      dup2\n        /* \"#utility.yul\":4369:4398   */\n      tag_271\n      jump\t// in\n    tag_361:\n        /* \"#utility.yul\":4364:4367   */\n      dup5\n        /* \"#utility.yul\":4360:4399   */\n      add\n        /* \"#utility.yul\":4353:4399   */\n      swap2\n      pop\n        /* \"#utility.yul\":4130:4405   */\n      pop\n        /* \"#utility.yul\":4048:4405   */\n      swap3\n      swap2\n      pop\n      pop\n      jump\t// out\n        /* \"#utility.yul\":4411:4488   */\n    tag_273:\n        /* \"#utility.yul\":4448:4455   */\n      0x00\n        /* \"#utility.yul\":4477:4482   */\n      dup2\n        /* \"#utility.yul\":4466:4482   */\n      swap1\n      pop\n        /* \"#utility.yul\":4411:4488   */\n      swap2\n      swap1\n      pop\n      jump\t// out\n        /* \"#utility.yul\":4494:4602   */\n    tag_274:\n        /* \"#utility.yul\":4571:4595   */\n      tag_364\n        /* \"#utility.yul\":4589:4594   */\n      dup2\n        /* \"#utility.yul\":4571:4595   */\n      tag_273\n      jump\t// in\n    tag_364:\n        /* \"#utility.yul\":4566:4569   */\n      dup3\n        /* \"#utility.yul\":4559:4596   */\n      mstore\n        /* \"#utility.yul\":4494:4602   */\n      pop\n      pop\n      jump\t// out\n        /* \"#utility.yul\":4664:5270   */\n    tag_275:\n        /* \"#utility.yul\":4771:4774   */\n      0x00\n        /* \"#utility.yul\":4807:4811   */\n      0x40\n        /* \"#utility.yul\":4802:4805   */\n      dup4\n        /* \"#utility.yul\":4798:4812   */\n      add\n        /* \"#utility.yul\":4901:4905   */\n      0x00\n        /* \"#utility.yul\":4894:4899   */\n      dup4\n        /* \"#utility.yul\":4890:4906   */\n      add\n        /* \"#utility.yul\":4884:4907   */\n      mload\n        /* \"#utility.yul\":4954:4957   */\n      dup5\n        /* \"#utility.yul\":4948:4952   */\n      dup3\n        /* \"#utility.yul\":4944:4958   */\n      sub\n        /* \"#utility.yul\":4937:4941   */\n      0x00\n        /* \"#utility.yul\":4932:4935   */\n      dup7\n        /* \"#utility.yul\":4928:4942   */\n      add\n        /* \"#utility.yul\":4921:4959   */\n      mstore\n        /* \"#utility.yul\":4980:5053   */\n      tag_366\n        /* \"#utility.yul\":5048:5052   */\n      dup3\n        /* \"#utility.yul\":5034:5046   */\n      dup3\n        /* \"#utility.yul\":4980:5053   */\n      tag_272\n      jump\t// in\n    tag_366:\n        /* \"#utility.yul\":4972:5053   */\n      swap2\n      pop\n        /* \"#utility.yul\":4822:5064   */\n      pop\n        /* \"#utility.yul\":5151:5155   */\n      0x20\n        /* \"#utility.yul\":5144:5149   */\n      dup4\n        /* \"#utility.yul\":5140:5156   */\n      add\n        /* \"#utility.yul\":5134:5157   */\n      mload\n        /* \"#utility.yul\":5170:5233   */\n      tag_367\n        /* \"#utility.yul\":5227:5231   */\n      0x20\n        /* \"#utility.yul\":5222:5225   */\n      dup7\n        /* \"#utility.yul\":5218:5232   */\n      add\n        /* \"#utility.yul\":5204:5216   */\n      dup3\n        /* \"#utility.yul\":5170:5233   */\n      tag_274\n      jump\t// in\n    tag_367:\n        /* \"#utility.yul\":5074:5243   */\n      pop\n        /* \"#utility.yul\":5260:5264   */\n      dup1\n        /* \"#utility.yul\":5253:5264   */\n      swap2\n      pop\n        /* \"#utility.yul\":4776:5270   */\n      pop\n        /* \"#utility.yul\":4664:5270   */\n      swap3\n      swap2\n      pop\n      pop\n      jump\t// out\n        /* \"#utility.yul\":5276:5528   */\n    tag_276:\n        /* \"#utility.yul\":5393:5403   */\n      0x00\n        /* \"#utility.yul\":5428:5522   */\n      tag_369\n        /* \"#utility.yul\":5518:5521   */\n      dup4\n        /* \"#utility.yul\":5510:5516   */\n      dup4\n        /* \"#utility.yul\":5428:5522   */\n      tag_275\n      jump\t// in\n    tag_369:\n        /* \"#utility.yul\":5414:5522   */\n      swap1\n      pop\n        /* \"#utility.yul\":5276:5528   */\n      swap3\n      swap2\n      pop\n      pop\n      jump\t// out\n        /* \"#utility.yul\":5534:5671   */\n    tag_277:\n        /* \"#utility.yul\":5628:5632   */\n      0x00\n        /* \"#utility.yul\":5660:5664   */\n      0x20\n        /* \"#utility.yul\":5655:5658   */\n      dup3\n        /* \"#utility.yul\":5651:5665   */\n      add\n        /* \"#utility.yul\":5643:5665   */\n      swap1\n      pop\n        /* \"#utility.yul\":5534:5671   */\n      swap2\n      swap1\n      pop\n      jump\t// out\n        /* \"#utility.yul\":5737:6840   */\n    tag_278:\n        /* \"#utility.yul\":5904:5907   */\n      0x00\n        /* \"#utility.yul\":5933:6011   */\n      tag_372\n        /* \"#utility.yul\":6005:6010   */\n      dup3\n        /* \"#utility.yul\":5933:6011   */\n      tag_265\n      jump\t// in\n    tag_372:\n        /* \"#utility.yul\":6027:6137   */\n      tag_373\n        /* \"#utility.yul\":6130:6136   */\n      dup2\n        /* \"#utility.yul\":6125:6128   */\n      dup6\n        /* \"#utility.yul\":6027:6137   */\n      tag_266\n      jump\t// in\n    tag_373:\n        /* \"#utility.yul\":6020:6137   */\n      swap4\n      pop\n        /* \"#utility.yul\":6163:6166   */\n      dup4\n        /* \"#utility.yul\":6208:6212   */\n      0x20\n        /* \"#utility.yul\":6200:6206   */\n      dup3\n        /* \"#utility.yul\":6196:6213   */\n      mul\n        /* \"#utility.yul\":6191:6194   */\n      dup6\n        /* \"#utility.yul\":6187:6214   */\n      add\n        /* \"#utility.yul\":6238:6318   */\n      tag_374\n        /* \"#utility.yul\":6312:6317   */\n      dup6\n        /* \"#utility.yul\":6238:6318   */\n      tag_267\n      jump\t// in\n    tag_374:\n        /* \"#utility.yul\":6341:6348   */\n      dup1\n        /* \"#utility.yul\":6372:6373   */\n      0x00\n        /* \"#utility.yul\":6357:6795   */\n    tag_375:\n        /* \"#utility.yul\":6382:6388   */\n      dup6\n        /* \"#utility.yul\":6379:6380   */\n      dup2\n        /* \"#utility.yul\":6376:6389   */\n      lt\n        /* \"#utility.yul\":6357:6795   */\n      iszero\n      tag_377\n      jumpi\n        /* \"#utility.yul\":6453:6462   */\n      dup5\n        /* \"#utility.yul\":6447:6451   */\n      dup5\n        /* \"#utility.yul\":6443:6463   */\n      sub\n        /* \"#utility.yul\":6438:6441   */\n      dup10\n        /* \"#utility.yul\":6431:6464   */\n      mstore\n        /* \"#utility.yul\":6504:6510   */\n      dup2\n        /* \"#utility.yul\":6498:6511   */\n      mload\n        /* \"#utility.yul\":6532:6644   */\n      tag_378\n        /* \"#utility.yul\":6639:6643   */\n      dup6\n        /* \"#utility.yul\":6624:6637   */\n      dup3\n        /* \"#utility.yul\":6532:6644   */\n      tag_276\n      jump\t// in\n    tag_378:\n        /* \"#utility.yul\":6524:6644   */\n      swap5\n      pop\n        /* \"#utility.yul\":6667:6751   */\n      tag_379\n        /* \"#utility.yul\":6744:6750   */\n      dup4\n        /* \"#utility.yul\":6667:6751   */\n      tag_277\n      jump\t// in\n    tag_379:\n        /* \"#utility.yul\":6657:6751   */\n      swap3\n      pop\n        /* \"#utility.yul\":6780:6784   */\n      0x20\n        /* \"#utility.yul\":6775:6778   */\n      dup11\n        /* \"#utility.yul\":6771:6785   */\n      add\n        /* \"#utility.yul\":6764:6785   */\n      swap10\n      pop\n        /* \"#utility.yul\":6417:6795   */\n      pop\n        /* \"#utility.yul\":6404:6405   */\n      0x01\n        /* \"#utility.yul\":6401:6402   */\n      dup2\n        /* \"#utility.yul\":6397:6406   */\n      add\n        /* \"#utility.yul\":6392:6406   */\n      swap1\n      pop\n        /* \"#utility.yul\":6357:6795   */\n      jump(tag_375)\n    tag_377:\n        /* \"#utility.yul\":6361:6375   */\n      pop\n        /* \"#utility.yul\":6811:6815   */\n      dup3\n        /* \"#utility.yul\":6804:6815   */\n      swap8\n      pop\n        /* \"#utility.yul\":6831:6834   */\n      dup8\n        /* \"#utility.yul\":6824:6834   */\n      swap6\n      pop\n        /* \"#utility.yul\":5909:6840   */\n      pop\n      pop\n      pop\n      pop\n      pop\n        /* \"#utility.yul\":5737:6840   */\n      swap3\n      swap2\n      pop\n      pop\n      jump\t// out\n        /* \"#utility.yul\":6846:7315   */\n    tag_39:\n        /* \"#utility.yul\":7037:7041   */\n      0x00\n        /* \"#utility.yul\":7075:7077   */\n      0x20\n        /* \"#utility.yul\":7064:7073   */\n      dup3\n        /* \"#utility.yul\":7060:7078   */\n      add\n        /* \"#utility.yul\":7052:7078   */\n      swap1\n      pop\n        /* \"#utility.yul\":7124:7133   */\n      dup2\n        /* \"#utility.yul\":7118:7122   */\n      dup2\n        /* \"#utility.yul\":7114:7134   */\n      sub\n        /* \"#utility.yul\":7110:7111   */\n      0x00\n        /* \"#utility.yul\":7099:7108   */\n      dup4\n        /* \"#utility.yul\":7095:7112   */\n      add\n        /* \"#utility.yul\":7088:7135   */\n      mstore\n        /* \"#utility.yul\":7152:7308   */\n      tag_381\n        /* \"#utility.yul\":7303:7307   */\n      dup2\n        /* \"#utility.yul\":7294:7300   */\n      dup5\n        /* \"#utility.yul\":7152:7308   */\n      tag_278\n      jump\t// in\n    tag_381:\n        /* \"#utility.yul\":7144:7308   */\n      swap1\n      pop\n        /* \"#utility.yul\":6846:7315   */\n      swap3\n      swap2\n      pop\n      pop\n      jump\t// out\n        /* \"#utility.yul\":7321:7443   */\n    tag_279:\n        /* \"#utility.yul\":7394:7418   */\n      tag_383\n        /* \"#utility.yul\":7412:7417   */\n      dup2\n        /* \"#utility.yul\":7394:7418   */\n      tag_273\n      jump\t// in\n    tag_383:\n        /* \"#utility.yul\":7387:7392   */\n      dup2\n        /* \"#utility.yul\":7384:7419   */\n      eq\n        /* \"#utility.yul\":7374:7437   */\n      tag_384\n      jumpi\n        /* \"#utility.yul\":7433:7434   */\n      0x00\n        /* \"#utility.yul\":7430:7431   */\n      0x00\n        /* \"#utility.yul\":7423:7435   */\n      revert\n        /* \"#utility.yul\":7374:7437   */\n    tag_384:\n        /* \"#utility.yul\":7321:7443   */\n      pop\n      jump\t// out\n        /* \"#utility.yul\":7449:7588   */\n    tag_280:\n        /* \"#utility.yul\":7495:7500   */\n      0x00\n        /* \"#utility.yul\":7533:7539   */\n      dup2\n        /* \"#utility.yul\":7520:7540   */\n      calldataload\n        /* \"#utility.yul\":7511:7540   */\n      swap1\n      pop\n        /* \"#utility.yul\":7549:7582   */\n      tag_386\n        /* \"#utility.yul\":7576:7581   */\n      dup2\n        /* \"#utility.yul\":7549:7582   */\n      tag_279\n      jump\t// in\n    tag_386:\n        /* \"#utility.yul\":7449:7588   */\n      swap3\n      swap2\n      pop\n      pop\n      jump\t// out\n        /* \"#utility.yul\":7594:7923   */\n    tag_44:\n        /* \"#utility.yul\":7653:7659   */\n      0x00\n        /* \"#utility.yul\":7702:7704   */\n      0x20\n        /* \"#utility.yul\":7690:7699   */\n      dup3\n        /* \"#utility.yul\":7681:7688   */\n      dup5\n        /* \"#utility.yul\":7677:7700   */\n      sub\n        /* \"#utility.yul\":7673:7705   */\n      slt\n        /* \"#utility.yul\":7670:7789   */\n      iszero\n      tag_388\n      jumpi\n        /* \"#utility.yul\":7708:7787   */\n      tag_389\n      tag_254\n      jump\t// in\n    tag_389:\n        /* \"#utility.yul\":7670:7789   */\n    tag_388:\n        /* \"#utility.yul\":7828:7829   */\n      0x00\n        /* \"#utility.yul\":7853:7906   */\n      tag_390\n        /* \"#utility.yul\":7898:7905   */\n      dup5\n        /* \"#utility.yul\":7889:7895   */\n      dup3\n        /* \"#utility.yul\":7878:7887   */\n      dup6\n        /* \"#utility.yul\":7874:7896   */\n      add\n        /* \"#utility.yul\":7853:7906   */\n      tag_280\n      jump\t// in\n    tag_390:\n        /* \"#utility.yul\":7843:7906   */\n      swap2\n      pop\n        /* \"#utility.yul\":7799:7916   */\n      pop\n        /* \"#utility.yul\":7594:7923   */\n      swap3\n      swap2\n      pop\n      pop\n      jump\t// out\n        /* \"#utility.yul\":7929:8109   */\n    tag_57:\n        /* \"#utility.yul\":7977:8054   */\n      0x4e487b7100000000000000000000000000000000000000000000000000000000\n        /* \"#utility.yul\":7974:7975   */\n      0x00\n        /* \"#utility.yul\":7967:8055   */\n      mstore\n        /* \"#utility.yul\":8074:8078   */\n      0x21\n        /* \"#utility.yul\":8071:8072   */\n      0x04\n        /* \"#utility.yul\":8064:8079   */\n      mstore\n        /* \"#utility.yul\":8098:8102   */\n      0x24\n        /* \"#utility.yul\":8095:8096   */\n      0x00\n        /* \"#utility.yul\":8088:8103   */\n      revert\n        /* \"#utility.yul\":8115:8284   */\n    tag_281:\n        /* \"#utility.yul\":8199:8210   */\n      0x00\n        /* \"#utility.yul\":8233:8239   */\n      dup3\n        /* \"#utility.yul\":8228:8231   */\n      dup3\n        /* \"#utility.yul\":8221:8240   */\n      mstore\n        /* \"#utility.yul\":8273:8277   */\n      0x20\n        /* \"#utility.yul\":8268:8271   */\n      dup3\n        /* \"#utility.yul\":8264:8278   */\n      add\n        /* \"#utility.yul\":8249:8278   */\n      swap1\n      pop\n        /* \"#utility.yul\":8115:8284   */\n      swap3\n      swap2\n      pop\n      pop\n      jump\t// out\n        /* \"#utility.yul\":8290:8462   */\n    tag_282:\n        /* \"#utility.yul\":8430:8454   */\n      0x4e6f74207468652074696d6520666f7220746869732100000000000000000000\n        /* \"#utility.yul\":8426:8427   */\n      0x00\n        /* \"#utility.yul\":8418:8424   */\n      dup3\n        /* \"#utility.yul\":8414:8428   */\n      add\n        /* \"#utility.yul\":8407:8455   */\n      mstore\n        /* \"#utility.yul\":8290:8462   */\n      pop\n      jump\t// out\n        /* \"#utility.yul\":8468:8834   */\n    tag_283:\n        /* \"#utility.yul\":8610:8613   */\n      0x00\n        /* \"#utility.yul\":8631:8698   */\n      tag_395\n        /* \"#utility.yul\":8695:8697   */\n      0x16\n        /* \"#utility.yul\":8690:8693   */\n      dup4\n        /* \"#utility.yul\":8631:8698   */\n      tag_281\n      jump\t// in\n    tag_395:\n        /* \"#utility.yul\":8624:8698   */\n      swap2\n      pop\n        /* \"#utility.yul\":8707:8800   */\n      tag_396\n        /* \"#utility.yul\":8796:8799   */\n      dup3\n        /* \"#utility.yul\":8707:8800   */\n      tag_282\n      jump\t// in\n    tag_396:\n        /* \"#utility.yul\":8825:8827   */\n      0x20\n        /* \"#utility.yul\":8820:8823   */\n      dup3\n        /* \"#utility.yul\":8816:8828   */\n      add\n        /* \"#utility.yul\":8809:8828   */\n      swap1\n      pop\n        /* \"#utility.yul\":8468:8834   */\n      swap2\n      swap1\n      pop\n      jump\t// out\n        /* \"#utility.yul\":8840:9259   */\n    tag_62:\n        /* \"#utility.yul\":9006:9010   */\n      0x00\n        /* \"#utility.yul\":9044:9046   */\n      0x20\n        /* \"#utility.yul\":9033:9042   */\n      dup3\n        /* \"#utility.yul\":9029:9047   */\n      add\n        /* \"#utility.yul\":9021:9047   */\n      swap1\n      pop\n        /* \"#utility.yul\":9093:9102   */\n      dup2\n        /* \"#utility.yul\":9087:9091   */\n      dup2\n        /* \"#utility.yul\":9083:9103   */\n      sub\n        /* \"#utility.yul\":9079:9080   */\n      0x00\n        /* \"#utility.yul\":9068:9077   */\n      dup4\n        /* \"#utility.yul\":9064:9081   */\n      add\n        /* \"#utility.yul\":9057:9104   */\n      mstore\n        /* \"#utility.yul\":9121:9252   */\n      tag_398\n        /* \"#utility.yul\":9247:9251   */\n      dup2\n        /* \"#utility.yul\":9121:9252   */\n      tag_283\n      jump\t// in\n    tag_398:\n        /* \"#utility.yul\":9113:9252   */\n      swap1\n      pop\n        /* \"#utility.yul\":8840:9259   */\n      swap2\n      swap1\n      pop\n      jump\t// out\n        /* \"#utility.yul\":9265:9387   */\n    tag_284:\n        /* \"#utility.yul\":9355:9356   */\n      0x06\n        /* \"#utility.yul\":9348:9353   */\n      dup2\n        /* \"#utility.yul\":9345:9357   */\n      lt\n        /* \"#utility.yul\":9335:9381   */\n      tag_400\n      jumpi\n        /* \"#utility.yul\":9361:9379   */\n      tag_401\n      tag_57\n      jump\t// in\n    tag_401:\n        /* \"#utility.yul\":9335:9381   */\n    tag_400:\n        /* \"#utility.yul\":9265:9387   */\n      pop\n      jump\t// out\n        /* \"#utility.yul\":9393:9538   */\n    tag_285:\n        /* \"#utility.yul\":9447:9454   */\n      0x00\n        /* \"#utility.yul\":9476:9481   */\n      dup2\n        /* \"#utility.yul\":9465:9481   */\n      swap1\n      pop\n        /* \"#utility.yul\":9482:9532   */\n      tag_403\n        /* \"#utility.yul\":9526:9531   */\n      dup3\n        /* \"#utility.yul\":9482:9532   */\n      tag_284\n      jump\t// in\n    tag_403:\n        /* \"#utility.yul\":9393:9538   */\n      swap2\n      swap1\n      pop\n      jump\t// out\n        /* \"#utility.yul\":9544:9689   */\n    tag_286:\n        /* \"#utility.yul\":9609:9618   */\n      0x00\n        /* \"#utility.yul\":9642:9683   */\n      tag_405\n        /* \"#utility.yul\":9677:9682   */\n      dup3\n        /* \"#utility.yul\":9642:9683   */\n      tag_285\n      jump\t// in\n    tag_405:\n        /* \"#utility.yul\":9629:9683   */\n      swap1\n      pop\n        /* \"#utility.yul\":9544:9689   */\n      swap2\n      swap1\n      pop\n      jump\t// out\n        /* \"#utility.yul\":9695:9856   */\n    tag_287:\n        /* \"#utility.yul\":9797:9849   */\n      tag_407\n        /* \"#utility.yul\":9843:9848   */\n      dup2\n        /* \"#utility.yul\":9797:9849   */\n      tag_286\n      jump\t// in\n    tag_407:\n        /* \"#utility.yul\":9792:9795   */\n      dup3\n        /* \"#utility.yul\":9785:9850   */\n      mstore\n        /* \"#utility.yul\":9695:9856   */\n      pop\n      pop\n      jump\t// out\n        /* \"#utility.yul\":9862:10254   */\n    tag_67:\n        /* \"#utility.yul\":10013:10017   */\n      0x00\n        /* \"#utility.yul\":10051:10053   */\n      0x40\n        /* \"#utility.yul\":10040:10049   */\n      dup3\n        /* \"#utility.yul\":10036:10054   */\n      add\n        /* \"#utility.yul\":10028:10054   */\n      swap1\n      pop\n        /* \"#utility.yul\":10064:10150   */\n      tag_409\n        /* \"#utility.yul\":10147:10148   */\n      0x00\n        /* \"#utility.yul\":10136:10145   */\n      dup4\n        /* \"#utility.yul\":10132:10149   */\n      add\n        /* \"#utility.yul\":10123:10129   */\n      dup6\n        /* \"#utility.yul\":10064:10150   */\n      tag_287\n      jump\t// in\n    tag_409:\n        /* \"#utility.yul\":10160:10247   */\n      tag_410\n        /* \"#utility.yul\":10243:10245   */\n      0x20\n        /* \"#utility.yul\":10232:10241   */\n      dup4\n        /* \"#utility.yul\":10228:10246   */\n      add\n        /* \"#utility.yul\":10219:10225   */\n      dup5\n        /* \"#utility.yul\":10160:10247   */\n      tag_287\n      jump\t// in\n    tag_410:\n        /* \"#utility.yul\":9862:10254   */\n      swap4\n      swap3\n      pop\n      pop\n      pop\n      jump\t// out\n        /* \"#utility.yul\":10260:10497   */\n    tag_288:\n        /* \"#utility.yul\":10400:10434   */\n      0x54686520766f746572206973206e6f74207265676973746572656420696e2074\n        /* \"#utility.yul\":10396:10397   */\n      0x00\n        /* \"#utility.yul\":10388:10394   */\n      dup3\n        /* \"#utility.yul\":10384:10398   */\n      add\n        /* \"#utility.yul\":10377:10435   */\n      mstore\n        /* \"#utility.yul\":10469:10489   */\n      0x686520766f7465727357686974656c6973740000000000000000000000000000\n        /* \"#utility.yul\":10464:10466   */\n      0x20\n        /* \"#utility.yul\":10456:10462   */\n      dup3\n        /* \"#utility.yul\":10452:10467   */\n      add\n        /* \"#utility.yul\":10445:10490   */\n      mstore\n        /* \"#utility.yul\":10260:10497   */\n      pop\n      jump\t// out\n        /* \"#utility.yul\":10503:10869   */\n    tag_289:\n        /* \"#utility.yul\":10645:10648   */\n      0x00\n        /* \"#utility.yul\":10666:10733   */\n      tag_413\n        /* \"#utility.yul\":10730:10732   */\n      0x32\n        /* \"#utility.yul\":10725:10728   */\n      dup4\n        /* \"#utility.yul\":10666:10733   */\n      tag_281\n      jump\t// in\n    tag_413:\n        /* \"#utility.yul\":10659:10733   */\n      swap2\n      pop\n        /* \"#utility.yul\":10742:10835   */\n      tag_414\n        /* \"#utility.yul\":10831:10834   */\n      dup3\n        /* \"#utility.yul\":10742:10835   */\n      tag_288\n      jump\t// in\n    tag_414:\n        /* \"#utility.yul\":10860:10862   */\n      0x40\n        /* \"#utility.yul\":10855:10858   */\n      dup3\n        /* \"#utility.yul\":10851:10863   */\n      add\n        /* \"#utility.yul\":10844:10863   */\n      swap1\n      pop\n        /* \"#utility.yul\":10503:10869   */\n      swap2\n      swap1\n      pop\n      jump\t// out\n        /* \"#utility.yul\":10875:11294   */\n    tag_91:\n        /* \"#utility.yul\":11041:11045   */\n      0x00\n        /* \"#utility.yul\":11079:11081   */\n      0x20\n        /* \"#utility.yul\":11068:11077   */\n      dup3\n        /* \"#utility.yul\":11064:11082   */\n      add\n        /* \"#utility.yul\":11056:11082   */\n      swap1\n      pop\n        /* \"#utility.yul\":11128:11137   */\n      dup2\n        /* \"#utility.yul\":11122:11126   */\n      dup2\n        /* \"#utility.yul\":11118:11138   */\n      sub\n        /* \"#utility.yul\":11114:11115   */\n      0x00\n        /* \"#utility.yul\":11103:11112   */\n      dup4\n        /* \"#utility.yul\":11099:11116   */\n      add\n        /* \"#utility.yul\":11092:11139   */\n      mstore\n        /* \"#utility.yul\":11156:11287   */\n      tag_416\n        /* \"#utility.yul\":11282:11286   */\n      dup2\n        /* \"#utility.yul\":11156:11287   */\n      tag_289\n      jump\t// in\n    tag_416:\n        /* \"#utility.yul\":11148:11287   */\n      swap1\n      pop\n        /* \"#utility.yul\":10875:11294   */\n      swap2\n      swap1\n      pop\n      jump\t// out\n        /* \"#utility.yul\":11300:11480   */\n    tag_164:\n        /* \"#utility.yul\":11348:11425   */\n      0x4e487b7100000000000000000000000000000000000000000000000000000000\n        /* \"#utility.yul\":11345:11346   */\n      0x00\n        /* \"#utility.yul\":11338:11426   */\n      mstore\n        /* \"#utility.yul\":11445:11449   */\n      0x41\n        /* \"#utility.yul\":11442:11443   */\n      0x04\n        /* \"#utility.yul\":11435:11450   */\n      mstore\n        /* \"#utility.yul\":11469:11473   */\n      0x24\n        /* \"#utility.yul\":11466:11467   */\n      0x00\n        /* \"#utility.yul\":11459:11474   */\n      revert\n        /* \"#utility.yul\":11486:11666   */\n    tag_290:\n        /* \"#utility.yul\":11534:11611   */\n      0x4e487b7100000000000000000000000000000000000000000000000000000000\n        /* \"#utility.yul\":11531:11532   */\n      0x00\n        /* \"#utility.yul\":11524:11612   */\n      mstore\n        /* \"#utility.yul\":11631:11635   */\n      0x22\n        /* \"#utility.yul\":11628:11629   */\n      0x04\n        /* \"#utility.yul\":11621:11636   */\n      mstore\n        /* \"#utility.yul\":11655:11659   */\n      0x24\n        /* \"#utility.yul\":11652:11653   */\n      0x00\n        /* \"#utility.yul\":11645:11660   */\n      revert\n        /* \"#utility.yul\":11672:11992   */\n    tag_180:\n        /* \"#utility.yul\":11716:11722   */\n      0x00\n        /* \"#utility.yul\":11753:11754   */\n      0x02\n        /* \"#utility.yul\":11747:11751   */\n      dup3\n        /* \"#utility.yul\":11743:11755   */\n      div\n        /* \"#utility.yul\":11733:11755   */\n      swap1\n      pop\n        /* \"#utility.yul\":11800:11801   */\n      0x01\n        /* \"#utility.yul\":11794:11798   */\n      dup3\n        /* \"#utility.yul\":11790:11802   */\n      and\n        /* \"#utility.yul\":11821:11839   */\n      dup1\n        /* \"#utility.yul\":11811:11892   */\n      tag_420\n      jumpi\n        /* \"#utility.yul\":11877:11881   */\n      0x7f\n        /* \"#utility.yul\":11869:11875   */\n      dup3\n        /* \"#utility.yul\":11865:11882   */\n      and\n        /* \"#utility.yul\":11855:11882   */\n      swap2\n      pop\n        /* \"#utility.yul\":11811:11892   */\n    tag_420:\n        /* \"#utility.yul\":11939:11941   */\n      0x20\n        /* \"#utility.yul\":11931:11937   */\n      dup3\n        /* \"#utility.yul\":11928:11942   */\n      lt\n        /* \"#utility.yul\":11908:11926   */\n      dup2\n        /* \"#utility.yul\":11905:11943   */\n      sub\n        /* \"#utility.yul\":11902:11986   */\n      tag_421\n      jumpi\n        /* \"#utility.yul\":11958:11976   */\n      tag_422\n      tag_290\n      jump\t// in\n    tag_422:\n        /* \"#utility.yul\":11902:11986   */\n    tag_421:\n        /* \"#utility.yul\":11723:11992   */\n      pop\n        /* \"#utility.yul\":11672:11992   */\n      swap2\n      swap1\n      pop\n      jump\t// out\n        /* \"#utility.yul\":11998:12139   */\n    tag_291:\n        /* \"#utility.yul\":12047:12051   */\n      0x00\n        /* \"#utility.yul\":12070:12073   */\n      dup2\n        /* \"#utility.yul\":12062:12073   */\n      swap1\n      pop\n        /* \"#utility.yul\":12093:12096   */\n      dup2\n        /* \"#utility.yul\":12090:12091   */\n      0x00\n        /* \"#utility.yul\":12083:12097   */\n      mstore\n        /* \"#utility.yul\":12127:12131   */\n      0x20\n        /* \"#utility.yul\":12124:12125   */\n      0x00\n        /* \"#utility.yul\":12114:12132   */\n      keccak256\n        /* \"#utility.yul\":12106:12132   */\n      swap1\n      pop\n        /* \"#utility.yul\":11998:12139   */\n      swap2\n      swap1\n      pop\n      jump\t// out\n        /* \"#utility.yul\":12145:12238   */\n    tag_292:\n        /* \"#utility.yul\":12182:12188   */\n      0x00\n        /* \"#utility.yul\":12229:12231   */\n      0x20\n        /* \"#utility.yul\":12224:12226   */\n      0x1f\n        /* \"#utility.yul\":12217:12222   */\n      dup4\n        /* \"#utility.yul\":12213:12227   */\n      add\n        /* \"#utility.yul\":12209:12232   */\n      div\n        /* \"#utility.yul\":12199:12232   */\n      swap1\n      pop\n        /* \"#utility.yul\":12145:12238   */\n      swap2\n      swap1\n      pop\n      jump\t// out\n        /* \"#utility.yul\":12244:12351   */\n    tag_293:\n        /* \"#utility.yul\":12288:12296   */\n      0x00\n        /* \"#utility.yul\":12338:12343   */\n      dup3\n        /* \"#utility.yul\":12332:12336   */\n      dup3\n        /* \"#utility.yul\":12328:12344   */\n      shl\n        /* \"#utility.yul\":12307:12344   */\n      swap1\n      pop\n        /* \"#utility.yul\":12244:12351   */\n      swap3\n      swap2\n      pop\n      pop\n      jump\t// out\n        /* \"#utility.yul\":12357:12750   */\n    tag_294:\n        /* \"#utility.yul\":12426:12432   */\n      0x00\n        /* \"#utility.yul\":12476:12477   */\n      0x08\n        /* \"#utility.yul\":12464:12474   */\n      dup4\n        /* \"#utility.yul\":12460:12478   */\n      mul\n        /* \"#utility.yul\":12499:12596   */\n      tag_427\n        /* \"#utility.yul\":12529:12595   */\n      0xffffffffffffffffffffffffffffffffffffffffffffffffffffffffffffffff\n        /* \"#utility.yul\":12518:12527   */\n      dup3\n        /* \"#utility.yul\":12499:12596   */\n      tag_293\n      jump\t// in\n    tag_427:\n        /* \"#utility.yul\":12617:12656   */\n      tag_428\n        /* \"#utility.yul\":12647:12655   */\n      dup7\n        /* \"#utility.yul\":12636:12645   */\n      dup4\n        /* \"#utility.yul\":12617:12656   */\n      tag_293\n      jump\t// in\n    tag_428:\n        /* \"#utility.yul\":12605:12656   */\n      swap6\n      pop\n        /* \"#utility.yul\":12689:12693   */\n      dup1\n        /* \"#utility.yul\":12685:12694   */\n      not\n        /* \"#utility.yul\":12678:12683   */\n      dup5\n        /* \"#utility.yul\":12674:12695   */\n      and\n        /* \"#utility.yul\":12665:12695   */\n      swap4\n      pop\n        /* \"#utility.yul\":12738:12742   */\n      dup1\n        /* \"#utility.yul\":12728:12736   */\n      dup7\n        /* \"#utility.yul\":12724:12743   */\n      and\n        /* \"#utility.yul\":12717:12722   */\n      dup5\n        /* \"#utility.yul\":12714:12744   */\n      or\n        /* \"#utility.yul\":12704:12744   */\n      swap3\n      pop\n        /* \"#utility.yul\":12433:12750   */\n      pop\n      pop\n        /* \"#utility.yul\":12357:12750   */\n      swap4\n      swap3\n      pop\n      pop\n      pop\n      jump\t// out\n        /* \"#utility.yul\":12756:12816   */\n    tag_295:\n        /* \"#utility.yul\":12784:12787   */\n      0x00\n        /* \"#utility.yul\":12805:12810   */\n      dup2\n        /* \"#utility.yul\":12798:12810   */\n      swap1\n      pop\n        /* \"#utility.yul\":12756:12816   */\n      swap2\n      swap1\n      pop\n      jump\t// out\n        /* \"#utility.yul\":12822:12964   */\n    tag_296:\n        /* \"#utility.yul\":12872:12881   */\n      0x00\n        /* \"#utility.yul\":12905:12958   */\n      tag_431\n        /* \"#utility.yul\":12923:12957   */\n      tag_432\n        /* \"#utility.yul\":12932:12956   */\n      tag_433\n        /* \"#utility.yul\":12950:12955   */\n      dup5\n        /* \"#utility.yul\":12932:12956   */\n      tag_273\n      jump\t// in\n    tag_433:\n        /* \"#utility.yul\":12923:12957   */\n      tag_295\n      jump\t// in\n    tag_432:\n        /* \"#utility.yul\":12905:12958   */\n      tag_273\n      jump\t// in\n    tag_431:\n        /* \"#utility.yul\":12892:12958   */\n      swap1\n      pop\n        /* \"#utility.yul\":12822:12964   */\n      swap2\n      swap1\n      pop\n      jump\t// out\n        /* \"#utility.yul\":12970:13045   */\n    tag_297:\n        /* \"#utility.yul\":13013:13016   */\n      0x00\n        /* \"#utility.yul\":13034:13039   */\n      dup2\n        /* \"#utility.yul\":13027:13039   */\n      swap1\n      pop\n        /* \"#utility.yul\":12970:13045   */\n      swap2\n      swap1\n      pop\n      jump\t// out\n        /* \"#utility.yul\":13051:13320   */\n    tag_298:\n        /* \"#utility.yul\":13161:13200   */\n      tag_436\n        /* \"#utility.yul\":13192:13199   */\n      dup4\n        /* \"#utility.yul\":13161:13200   */\n      tag_296\n      jump\t// in\n    tag_436:\n        /* \"#utility.yul\":13222:13313   */\n      tag_437\n        /* \"#utility.yul\":13271:13312   */\n      tag_438\n        /* \"#utility.yul\":13295:13311   */\n      dup3\n        /* \"#utility.yul\":13271:13312   */\n      tag_297\n      jump\t// in\n    tag_438:\n        /* \"#utility.yul\":13263:13269   */\n      dup5\n        /* \"#utility.yul\":13256:13260   */\n      dup5\n        /* \"#utility.yul\":13250:13261   */\n      sload\n        /* \"#utility.yul\":13222:13313   */\n      tag_294\n      jump\t// in\n    tag_437:\n        /* \"#utility.yul\":13216:13220   */\n      dup3\n        /* \"#utility.yul\":13209:13314   */\n      sstore\n        /* \"#utility.yul\":13127:13320   */\n      pop\n        /* \"#utility.yul\":13051:13320   */\n      pop\n      pop\n      pop\n      jump\t// out\n        /* \"#utility.yul\":13326:13399   */\n    tag_299:\n        /* \"#utility.yul\":13371:13374   */\n      0x00\n        /* \"#utility.yul\":13392:13393   */\n      0x00\n        /* \"#utility.yul\":13385:13393   */\n      swap1\n      pop\n        /* \"#utility.yul\":13326:13399   */\n      swap1\n      jump\t// out\n        /* \"#utility.yul\":13405:13594   */\n    tag_300:\n        /* \"#utility.yul\":13482:13514   */\n      tag_441\n      tag_299\n      jump\t// in\n    tag_441:\n        /* \"#utility.yul\":13523:13588   */\n      tag_442\n        /* \"#utility.yul\":13581:13587   */\n      dup2\n        /* \"#utility.yul\":13573:13579   */\n      dup5\n        /* \"#utility.yul\":13567:13571   */\n      dup5\n        /* \"#utility.yul\":13523:13588   */\n      tag_298\n      jump\t// in\n    tag_442:\n        /* \"#utility.yul\":13458:13594   */\n      pop\n        /* \"#utility.yul\":13405:13594   */\n      pop\n      pop\n      jump\t// out\n        /* \"#utility.yul\":13600:13786   */\n    tag_301:\n        /* \"#utility.yul\":13660:13780   */\n    tag_444:\n        /* \"#utility.yul\":13677:13680   */\n      dup2\n        /* \"#utility.yul\":13670:13675   */\n      dup2\n        /* \"#utility.yul\":13667:13681   */\n      lt\n        /* \"#utility.yul\":13660:13780   */\n      iszero\n      tag_446\n      jumpi\n        /* \"#utility.yul\":13731:13770   */\n      tag_447\n        /* \"#utility.yul\":13768:13769   */\n      0x00\n        /* \"#utility.yul\":13761:13766   */\n      dup3\n        /* \"#utility.yul\":13731:13770   */\n      tag_300\n      jump\t// in\n    tag_447:\n        /* \"#utility.yul\":13704:13705   */\n      0x01\n        /* \"#utility.yul\":13697:13702   */\n      dup2\n        /* \"#utility.yul\":13693:13706   */\n      add\n        /* \"#utility.yul\":13684:13706   */\n      swap1\n      pop\n        /* \"#utility.yul\":13660:13780   */\n      jump(tag_444)\n    tag_446:\n        /* \"#utility.yul\":13600:13786   */\n      pop\n      pop\n      jump\t// out\n        /* \"#utility.yul\":13792:14335   */\n    tag_302:\n        /* \"#utility.yul\":13893:13895   */\n      0x1f\n        /* \"#utility.yul\":13888:13891   */\n      dup3\n        /* \"#utility.yul\":13885:13896   */\n      gt\n        /* \"#utility.yul\":13882:14328   */\n      iszero\n      tag_449\n      jumpi\n        /* \"#utility.yul\":13927:13965   */\n      tag_450\n        /* \"#utility.yul\":13959:13964   */\n      dup2\n        /* \"#utility.yul\":13927:13965   */\n      tag_291\n      jump\t// in\n    tag_450:\n        /* \"#utility.yul\":14011:14040   */\n      tag_451\n        /* \"#utility.yul\":14029:14039   */\n      dup5\n        /* \"#utility.yul\":14011:14040   */\n      tag_292\n      jump\t// in\n    tag_451:\n        /* \"#utility.yul\":14001:14009   */\n      dup2\n        /* \"#utility.yul\":13997:14041   */\n      add\n        /* \"#utility.yul\":14194:14196   */\n      0x20\n        /* \"#utility.yul\":14182:14192   */\n      dup6\n        /* \"#utility.yul\":14179:14197   */\n      lt\n        /* \"#utility.yul\":14176:14225   */\n      iszero\n      tag_452\n      jumpi\n        /* \"#utility.yul\":14215:14223   */\n      dup2\n        /* \"#utility.yul\":14200:14223   */\n      swap1\n      pop\n        /* \"#utility.yul\":14176:14225   */\n    tag_452:\n        /* \"#utility.yul\":14238:14318   */\n      tag_453\n        /* \"#utility.yul\":14294:14316   */\n      tag_454\n        /* \"#utility.yul\":14312:14315   */\n      dup6\n        /* \"#utility.yul\":14294:14316   */\n      tag_292\n      jump\t// in\n    tag_454:\n        /* \"#utility.yul\":14284:14292   */\n      dup4\n        /* \"#utility.yul\":14280:14317   */\n      add\n        /* \"#utility.yul\":14267:14278   */\n      dup3\n        /* \"#utility.yul\":14238:14318   */\n      tag_301\n      jump\t// in\n    tag_453:\n        /* \"#utility.yul\":13897:14328   */\n      pop\n      pop\n        /* \"#utility.yul\":13882:14328   */\n    tag_449:\n        /* \"#utility.yul\":13792:14335   */\n      pop\n      pop\n      pop\n      jump\t// out\n        /* \"#utility.yul\":14341:14458   */\n    tag_303:\n        /* \"#utility.yul\":14395:14403   */\n      0x00\n        /* \"#utility.yul\":14445:14450   */\n      dup3\n        /* \"#utility.yul\":14439:14443   */\n      dup3\n        /* \"#utility.yul\":14435:14451   */\n      shr\n        /* \"#utility.yul\":14414:14451   */\n      swap1\n      pop\n        /* \"#utility.yul\":14341:14458   */\n      swap3\n      swap2\n      pop\n      pop\n      jump\t// out\n        /* \"#utility.yul\":14464:14633   */\n    tag_304:\n        /* \"#utility.yul\":14508:14514   */\n      0x00\n        /* \"#utility.yul\":14541:14592   */\n      tag_457\n        /* \"#utility.yul\":14589:14590   */\n      0x00\n        /* \"#utility.yul\":14585:14591   */\n      not\n        /* \"#utility.yul\":14577:14582   */\n      dup5\n        /* \"#utility.yul\":14574:14575   */\n      0x08\n        /* \"#utility.yul\":14570:14583   */\n      mul\n        /* \"#utility.yul\":14541:14592   */\n      tag_303\n      jump\t// in\n    tag_457:\n        /* \"#utility.yul\":14537:14593   */\n      not\n        /* \"#utility.yul\":14622:14626   */\n      dup1\n        /* \"#utility.yul\":14616:14620   */\n      dup4\n        /* \"#utility.yul\":14612:14627   */\n      and\n        /* \"#utility.yul\":14602:14627   */\n      swap2\n      pop\n        /* \"#utility.yul\":14515:14633   */\n      pop\n        /* \"#utility.yul\":14464:14633   */\n      swap3\n      swap2\n      pop\n      pop\n      jump\t// out\n        /* \"#utility.yul\":14638:14933   */\n    tag_305:\n        /* \"#utility.yul\":14714:14718   */\n      0x00\n        /* \"#utility.yul\":14860:14889   */\n      tag_459\n        /* \"#utility.yul\":14885:14888   */\n      dup4\n        /* \"#utility.yul\":14879:14883   */\n      dup4\n        /* \"#utility.yul\":14860:14889   */\n      tag_304\n      jump\t// in\n    tag_459:\n        /* \"#utility.yul\":14852:14889   */\n      swap2\n      pop\n        /* \"#utility.yul\":14922:14925   */\n      dup3\n        /* \"#utility.yul\":14919:14920   */\n      0x02\n        /* \"#utility.yul\":14915:14926   */\n      mul\n        /* \"#utility.yul\":14909:14913   */\n      dup3\n        /* \"#utility.yul\":14906:14927   */\n      or\n        /* \"#utility.yul\":14898:14927   */\n      swap1\n      pop\n        /* \"#utility.yul\":14638:14933   */\n      swap3\n      swap2\n      pop\n      pop\n      jump\t// out\n        /* \"#utility.yul\":14938:16333   */\n    tag_95:\n        /* \"#utility.yul\":15055:15092   */\n      tag_461\n        /* \"#utility.yul\":15088:15091   */\n      dup3\n        /* \"#utility.yul\":15055:15092   */\n      tag_268\n      jump\t// in\n    tag_461:\n        /* \"#utility.yul\":15157:15175   */\n      0xffffffffffffffff\n        /* \"#utility.yul\":15149:15155   */\n      dup2\n        /* \"#utility.yul\":15146:15176   */\n      gt\n        /* \"#utility.yul\":15143:15199   */\n      iszero\n      tag_462\n      jumpi\n        /* \"#utility.yul\":15179:15197   */\n      tag_463\n      tag_164\n      jump\t// in\n    tag_463:\n        /* \"#utility.yul\":15143:15199   */\n    tag_462:\n        /* \"#utility.yul\":15223:15261   */\n      tag_464\n        /* \"#utility.yul\":15255:15259   */\n      dup3\n        /* \"#utility.yul\":15249:15260   */\n      sload\n        /* \"#utility.yul\":15223:15261   */\n      tag_180\n      jump\t// in\n    tag_464:\n        /* \"#utility.yul\":15308:15375   */\n      tag_465\n        /* \"#utility.yul\":15368:15374   */\n      dup3\n        /* \"#utility.yul\":15360:15366   */\n      dup3\n        /* \"#utility.yul\":15354:15358   */\n      dup6\n        /* \"#utility.yul\":15308:15375   */\n      tag_302\n      jump\t// in\n    tag_465:\n        /* \"#utility.yul\":15402:15403   */\n      0x00\n        /* \"#utility.yul\":15426:15430   */\n      0x20\n        /* \"#utility.yul\":15413:15430   */\n      swap1\n      pop\n        /* \"#utility.yul\":15458:15460   */\n      0x1f\n        /* \"#utility.yul\":15450:15456   */\n      dup4\n        /* \"#utility.yul\":15447:15461   */\n      gt\n        /* \"#utility.yul\":15475:15476   */\n      0x01\n        /* \"#utility.yul\":15470:16088   */\n      dup2\n      eq\n      tag_467\n      jumpi\n        /* \"#utility.yul\":16132:16133   */\n      0x00\n        /* \"#utility.yul\":16149:16155   */\n      dup5\n        /* \"#utility.yul\":16146:16223   */\n      iszero\n      tag_468\n      jumpi\n        /* \"#utility.yul\":16198:16207   */\n      dup3\n        /* \"#utility.yul\":16193:16196   */\n      dup8\n        /* \"#utility.yul\":16189:16208   */\n      add\n        /* \"#utility.yul\":16183:16209   */\n      mload\n        /* \"#utility.yul\":16174:16209   */\n      swap1\n      pop\n        /* \"#utility.yul\":16146:16223   */\n    tag_468:\n        /* \"#utility.yul\":16249:16316   */\n      tag_469\n        /* \"#utility.yul\":16309:16315   */\n      dup6\n        /* \"#utility.yul\":16302:16307   */\n      dup3\n        /* \"#utility.yul\":16249:16316   */\n      tag_305\n      jump\t// in\n    tag_469:\n        /* \"#utility.yul\":16243:16247   */\n      dup7\n        /* \"#utility.yul\":16236:16317   */\n      sstore\n        /* \"#utility.yul\":16105:16327   */\n      pop\n        /* \"#utility.yul\":15440:16327   */\n      jump(tag_466)\n        /* \"#utility.yul\":15470:16088   */\n    tag_467:\n        /* \"#utility.yul\":15522:15526   */\n      0x1f\n        /* \"#utility.yul\":15518:15527   */\n      not\n        /* \"#utility.yul\":15510:15516   */\n      dup5\n        /* \"#utility.yul\":15506:15528   */\n      and\n        /* \"#utility.yul\":15556:15593   */\n      tag_470\n        /* \"#utility.yul\":15588:15592   */\n      dup7\n        /* \"#utility.yul\":15556:15593   */\n      tag_291\n      jump\t// in\n    tag_470:\n        /* \"#utility.yul\":15615:15616   */\n      0x00\n        /* \"#utility.yul\":15629:15837   */\n    tag_471:\n        /* \"#utility.yul\":15643:15650   */\n      dup3\n        /* \"#utility.yul\":15640:15641   */\n      dup2\n        /* \"#utility.yul\":15637:15651   */\n      lt\n        /* \"#utility.yul\":15629:15837   */\n      iszero\n      tag_473\n      jumpi\n        /* \"#utility.yul\":15722:15731   */\n      dup5\n        /* \"#utility.yul\":15717:15720   */\n      dup10\n        /* \"#utility.yul\":15713:15732   */\n      add\n        /* \"#utility.yul\":15707:15733   */\n      mload\n        /* \"#utility.yul\":15699:15705   */\n      dup3\n        /* \"#utility.yul\":15692:15734   */\n      sstore\n        /* \"#utility.yul\":15773:15774   */\n      0x01\n        /* \"#utility.yul\":15765:15771   */\n      dup3\n        /* \"#utility.yul\":15761:15775   */\n      add\n        /* \"#utility.yul\":15751:15775   */\n      swap2\n      pop\n        /* \"#utility.yul\":15820:15822   */\n      0x20\n        /* \"#utility.yul\":15809:15818   */\n      dup6\n        /* \"#utility.yul\":15805:15823   */\n      add\n        /* \"#utility.yul\":15792:15823   */\n      swap5\n      pop\n        /* \"#utility.yul\":15666:15670   */\n      0x20\n        /* \"#utility.yul\":15663:15664   */\n      dup2\n        /* \"#utility.yul\":15659:15671   */\n      add\n        /* \"#utility.yul\":15654:15671   */\n      swap1\n      pop\n        /* \"#utility.yul\":15629:15837   */\n      jump(tag_471)\n    tag_473:\n        /* \"#utility.yul\":15865:15871   */\n      dup7\n        /* \"#utility.yul\":15856:15863   */\n      dup4\n        /* \"#utility.yul\":15853:15872   */\n      lt\n        /* \"#utility.yul\":15850:16029   */\n      iszero\n      tag_474\n      jumpi\n        /* \"#utility.yul\":15923:15932   */\n      dup5\n        /* \"#utility.yul\":15918:15921   */\n      dup10\n        /* \"#utility.yul\":15914:15933   */\n      add\n        /* \"#utility.yul\":15908:15934   */\n      mload\n        /* \"#utility.yul\":15966:16014   */\n      tag_475\n        /* \"#utility.yul\":16008:16012   */\n      0x1f\n        /* \"#utility.yul\":16000:16006   */\n      dup10\n        /* \"#utility.yul\":15996:16013   */\n      and\n        /* \"#utility.yul\":15985:15994   */\n      dup3\n        /* \"#utility.yul\":15966:16014   */\n      tag_304\n      jump\t// in\n    tag_475:\n        /* \"#utility.yul\":15958:15964   */\n      dup4\n        /* \"#utility.yul\":15951:16015   */\n      sstore\n        /* \"#utility.yul\":15873:16029   */\n      pop\n        /* \"#utility.yul\":15850:16029   */\n    tag_474:\n        /* \"#utility.yul\":16075:16076   */\n      0x01\n        /* \"#utility.yul\":16071:16072   */\n      0x02\n        /* \"#utility.yul\":16063:16069   */\n      dup9\n        /* \"#utility.yul\":16059:16073   */\n      mul\n        /* \"#utility.yul\":16055:16077   */\n      add\n        /* \"#utility.yul\":16049:16053   */\n      dup9\n        /* \"#utility.yul\":16042:16078   */\n      sstore\n        /* \"#utility.yul\":15477:16088   */\n      pop\n      pop\n      pop\n        /* \"#utility.yul\":15440:16327   */\n    tag_466:\n      pop\n        /* \"#utility.yul\":15030:16333   */\n      pop\n      pop\n      pop\n        /* \"#utility.yul\":14938:16333   */\n      pop\n      pop\n      jump\t// out\n        /* \"#utility.yul\":16339:16519   */\n    tag_306:\n        /* \"#utility.yul\":16387:16464   */\n      0x4e487b7100000000000000000000000000000000000000000000000000000000\n        /* \"#utility.yul\":16384:16385   */\n      0x00\n        /* \"#utility.yul\":16377:16465   */\n      mstore\n        /* \"#utility.yul\":16484:16488   */\n      0x11\n        /* \"#utility.yul\":16481:16482   */\n      0x04\n        /* \"#utility.yul\":16474:16489   */\n      mstore\n        /* \"#utility.yul\":16508:16512   */\n      0x24\n        /* \"#utility.yul\":16505:16506   */\n      0x00\n        /* \"#utility.yul\":16498:16513   */\n      revert\n        /* \"#utility.yul\":16525:16719   */\n    tag_97:\n        /* \"#utility.yul\":16565:16569   */\n      0x00\n        /* \"#utility.yul\":16585:16605   */\n      tag_478\n        /* \"#utility.yul\":16603:16604   */\n      dup3\n        /* \"#utility.yul\":16585:16605   */\n      tag_273\n      jump\t// in\n    tag_478:\n        /* \"#utility.yul\":16580:16605   */\n      swap2\n      pop\n        /* \"#utility.yul\":16619:16639   */\n      tag_479\n        /* \"#utility.yul\":16637:16638   */\n      dup4\n        /* \"#utility.yul\":16619:16639   */\n      tag_273\n      jump\t// in\n    tag_479:\n        /* \"#utility.yul\":16614:16639   */\n      swap3\n      pop\n        /* \"#utility.yul\":16663:16664   */\n      dup3\n        /* \"#utility.yul\":16660:16661   */\n      dup3\n        /* \"#utility.yul\":16656:16665   */\n      sub\n        /* \"#utility.yul\":16648:16665   */\n      swap1\n      pop\n        /* \"#utility.yul\":16687:16688   */\n      dup2\n        /* \"#utility.yul\":16681:16685   */\n      dup2\n        /* \"#utility.yul\":16678:16689   */\n      gt\n        /* \"#utility.yul\":16675:16712   */\n      iszero\n      tag_480\n      jumpi\n        /* \"#utility.yul\":16692:16710   */\n      tag_481\n      tag_306\n      jump\t// in\n    tag_481:\n        /* \"#utility.yul\":16675:16712   */\n    tag_480:\n        /* \"#utility.yul\":16525:16719   */\n      swap3\n      swap2\n      pop\n      pop\n      jump\t// out\n        /* \"#utility.yul\":16725:16843   */\n    tag_307:\n        /* \"#utility.yul\":16812:16836   */\n      tag_483\n        /* \"#utility.yul\":16830:16835   */\n      dup2\n        /* \"#utility.yul\":16812:16836   */\n      tag_273\n      jump\t// in\n    tag_483:\n        /* \"#utility.yul\":16807:16810   */\n      dup3\n        /* \"#utility.yul\":16800:16837   */\n      mstore\n        /* \"#utility.yul\":16725:16843   */\n      pop\n      pop\n      jump\t// out\n        /* \"#utility.yul\":16849:17071   */\n    tag_99:\n        /* \"#utility.yul\":16942:16946   */\n      0x00\n        /* \"#utility.yul\":16980:16982   */\n      0x20\n        /* \"#utility.yul\":16969:16978   */\n      dup3\n        /* \"#utility.yul\":16965:16983   */\n      add\n        /* \"#utility.yul\":16957:16983   */\n      swap1\n      pop\n        /* \"#utility.yul\":16993:17064   */\n      tag_485\n        /* \"#utility.yul\":17061:17062   */\n      0x00\n        /* \"#utility.yul\":17050:17059   */\n      dup4\n        /* \"#utility.yul\":17046:17063   */\n      add\n        /* \"#utility.yul\":17037:17043   */\n      dup5\n        /* \"#utility.yul\":16993:17064   */\n      tag_307\n      jump\t// in\n    tag_485:\n        /* \"#utility.yul\":16849:17071   */\n      swap3\n      swap2\n      pop\n      pop\n      jump\t// out\n        /* \"#utility.yul\":17077:17307   */\n    tag_308:\n        /* \"#utility.yul\":17217:17251   */\n      0x54686520766f74657220697320616c7265616479206f6e2074686520766f7465\n        /* \"#utility.yul\":17213:17214   */\n      0x00\n        /* \"#utility.yul\":17205:17211   */\n      dup3\n        /* \"#utility.yul\":17201:17215   */\n      add\n        /* \"#utility.yul\":17194:17252   */\n      mstore\n        /* \"#utility.yul\":17286:17299   */\n      0x727357686974656c697374000000000000000000000000000000000000000000\n        /* \"#utility.yul\":17281:17283   */\n      0x20\n        /* \"#utility.yul\":17273:17279   */\n      dup3\n        /* \"#utility.yul\":17269:17284   */\n      add\n        /* \"#utility.yul\":17262:17300   */\n      mstore\n        /* \"#utility.yul\":17077:17307   */\n      pop\n      jump\t// out\n        /* \"#utility.yul\":17313:17679   */\n    tag_309:\n        /* \"#utility.yul\":17455:17458   */\n      0x00\n        /* \"#utility.yul\":17476:17543   */\n      tag_488\n        /* \"#utility.yul\":17540:17542   */\n      0x2b\n        /* \"#utility.yul\":17535:17538   */\n      dup4\n        /* \"#utility.yul\":17476:17543   */\n      tag_281\n      jump\t// in\n    tag_488:\n        /* \"#utility.yul\":17469:17543   */\n      swap2\n      pop\n        /* \"#utility.yul\":17552:17645   */\n      tag_489\n        /* \"#utility.yul\":17641:17644   */\n      dup3\n        /* \"#utility.yul\":17552:17645   */\n      tag_308\n      jump\t// in\n    tag_489:\n        /* \"#utility.yul\":17670:17672   */\n      0x40\n        /* \"#utility.yul\":17665:17668   */\n      dup3\n        /* \"#utility.yul\":17661:17673   */\n      add\n        /* \"#utility.yul\":17654:17673   */\n      swap1\n      pop\n        /* \"#utility.yul\":17313:17679   */\n      swap2\n      swap1\n      pop\n      jump\t// out\n        /* \"#utility.yul\":17685:18104   */\n    tag_112:\n        /* \"#utility.yul\":17851:17855   */\n      0x00\n        /* \"#utility.yul\":17889:17891   */\n      0x20\n        /* \"#utility.yul\":17878:17887   */\n      dup3\n        /* \"#utility.yul\":17874:17892   */\n      add\n        /* \"#utility.yul\":17866:17892   */\n      swap1\n      pop\n        /* \"#utility.yul\":17938:17947   */\n      dup2\n        /* \"#utility.yul\":17932:17936   */\n      dup2\n        /* \"#utility.yul\":17928:17948   */\n      sub\n        /* \"#utility.yul\":17924:17925   */\n      0x00\n        /* \"#utility.yul\":17913:17922   */\n      dup4\n        /* \"#utility.yul\":17909:17926   */\n      add\n        /* \"#utility.yul\":17902:17949   */\n      mstore\n        /* \"#utility.yul\":17966:18097   */\n      tag_491\n        /* \"#utility.yul\":18092:18096   */\n      dup2\n        /* \"#utility.yul\":17966:18097   */\n      tag_309\n      jump\t// in\n    tag_491:\n        /* \"#utility.yul\":17958:18097   */\n      swap1\n      pop\n        /* \"#utility.yul\":17685:18104   */\n      swap2\n      swap1\n      pop\n      jump\t// out\n        /* \"#utility.yul\":18110:18290   */\n    tag_143:\n        /* \"#utility.yul\":18158:18235   */\n      0x4e487b7100000000000000000000000000000000000000000000000000000000\n        /* \"#utility.yul\":18155:18156   */\n      0x00\n        /* \"#utility.yul\":18148:18236   */\n      mstore\n        /* \"#utility.yul\":18255:18259   */\n      0x32\n        /* \"#utility.yul\":18252:18253   */\n      0x04\n        /* \"#utility.yul\":18245:18260   */\n      mstore\n        /* \"#utility.yul\":18279:18283   */\n      0x24\n        /* \"#utility.yul\":18276:18277   */\n      0x00\n        /* \"#utility.yul\":18269:18284   */\n      revert\n        /* \"#utility.yul\":18296:18529   */\n    tag_161:\n        /* \"#utility.yul\":18335:18338   */\n      0x00\n        /* \"#utility.yul\":18358:18382   */\n      tag_494\n        /* \"#utility.yul\":18376:18381   */\n      dup3\n        /* \"#utility.yul\":18358:18382   */\n      tag_273\n      jump\t// in\n    tag_494:\n        /* \"#utility.yul\":18349:18382   */\n      swap2\n      pop\n        /* \"#utility.yul\":18404:18470   */\n      0xffffffffffffffffffffffffffffffffffffffffffffffffffffffffffffffff\n        /* \"#utility.yul\":18397:18402   */\n      dup3\n        /* \"#utility.yul\":18394:18471   */\n      sub\n        /* \"#utility.yul\":18391:18494   */\n      tag_495\n      jumpi\n        /* \"#utility.yul\":18474:18492   */\n      tag_496\n      tag_306\n      jump\t// in\n    tag_496:\n        /* \"#utility.yul\":18391:18494   */\n    tag_495:\n        /* \"#utility.yul\":18521:18522   */\n      0x01\n        /* \"#utility.yul\":18514:18519   */\n      dup3\n        /* \"#utility.yul\":18510:18523   */\n      add\n        /* \"#utility.yul\":18503:18523   */\n      swap1\n      pop\n        /* \"#utility.yul\":18296:18529   */\n      swap2\n      swap1\n      pop\n      jump\t// out\n        /* \"#utility.yul\":18535:18712   */\n    tag_310:\n        /* \"#utility.yul\":18675:18704   */\n      0x54686520766f7465722068617320616c726561647920766f7465640000000000\n        /* \"#utility.yul\":18671:18672   */\n      0x00\n        /* \"#utility.yul\":18663:18669   */\n      dup3\n        /* \"#utility.yul\":18659:18673   */\n      add\n        /* \"#utility.yul\":18652:18705   */\n      mstore\n        /* \"#utility.yul\":18535:18712   */\n      pop\n      jump\t// out\n        /* \"#utility.yul\":18718:19084   */\n    tag_311:\n        /* \"#utility.yul\":18860:18863   */\n      0x00\n        /* \"#utility.yul\":18881:18948   */\n      tag_499\n        /* \"#utility.yul\":18945:18947   */\n      0x1b\n        /* \"#utility.yul\":18940:18943   */\n      dup4\n        /* \"#utility.yul\":18881:18948   */\n      tag_281\n      jump\t// in\n    tag_499:\n        /* \"#utility.yul\":18874:18948   */\n      swap2\n      pop\n        /* \"#utility.yul\":18957:19050   */\n      tag_500\n        /* \"#utility.yul\":19046:19049   */\n      dup3\n        /* \"#utility.yul\":18957:19050   */\n      tag_310\n      jump\t// in\n    tag_500:\n        /* \"#utility.yul\":19075:19077   */\n      0x20\n        /* \"#utility.yul\":19070:19073   */\n      dup3\n        /* \"#utility.yul\":19066:19078   */\n      add\n        /* \"#utility.yul\":19059:19078   */\n      swap1\n      pop\n        /* \"#utility.yul\":18718:19084   */\n      swap2\n      swap1\n      pop\n      jump\t// out\n        /* \"#utility.yul\":19090:19509   */\n    tag_214:\n        /* \"#utility.yul\":19256:19260   */\n      0x00\n        /* \"#utility.yul\":19294:19296   */\n      0x20\n        /* \"#utility.yul\":19283:19292   */\n      dup3\n        /* \"#utility.yul\":19279:19297   */\n      add\n        /* \"#utility.yul\":19271:19297   */\n      swap1\n      pop\n        /* \"#utility.yul\":19343:19352   */\n      dup2\n        /* \"#utility.yul\":19337:19341   */\n      dup2\n        /* \"#utility.yul\":19333:19353   */\n      sub\n        /* \"#utility.yul\":19329:19330   */\n      0x00\n        /* \"#utility.yul\":19318:19327   */\n      dup4\n        /* \"#utility.yul\":19314:19331   */\n      add\n        /* \"#utility.yul\":19307:19354   */\n      mstore\n        /* \"#utility.yul\":19371:19502   */\n      tag_502\n        /* \"#utility.yul\":19497:19501   */\n      dup2\n        /* \"#utility.yul\":19371:19502   */\n      tag_311\n      jump\t// in\n    tag_502:\n        /* \"#utility.yul\":19363:19502   */\n      swap1\n      pop\n        /* \"#utility.yul\":19090:19509   */\n      swap2\n      swap1\n      pop\n      jump\t// out\n        /* \"#utility.yul\":19515:19684   */\n    tag_312:\n        /* \"#utility.yul\":19655:19676   */\n      0x496e76616c69642070726f706f73616c20696400000000000000000000000000\n        /* \"#utility.yul\":19651:19652   */\n      0x00\n        /* \"#utility.yul\":19643:19649   */\n      dup3\n        /* \"#utility.yul\":19639:19653   */\n      add\n        /* \"#utility.yul\":19632:19677   */\n      mstore\n        /* \"#utility.yul\":19515:19684   */\n      pop\n      jump\t// out\n        /* \"#utility.yul\":19690:20056   */\n    tag_313:\n        /* \"#utility.yul\":19832:19835   */\n      0x00\n        /* \"#utility.yul\":19853:19920   */\n      tag_505\n        /* \"#utility.yul\":19917:19919   */\n      0x13\n        /* \"#utility.yul\":19912:19915   */\n      dup4\n        /* \"#utility.yul\":19853:19920   */\n      tag_281\n      jump\t// in\n    tag_505:\n        /* \"#utility.yul\":19846:19920   */\n      swap2\n      pop\n        /* \"#utility.yul\":19929:20022   */\n      tag_506\n        /* \"#utility.yul\":20018:20021   */\n      dup3\n        /* \"#utility.yul\":19929:20022   */\n      tag_312\n      jump\t// in\n    tag_506:\n        /* \"#utility.yul\":20047:20049   */\n      0x20\n        /* \"#utility.yul\":20042:20045   */\n      dup3\n        /* \"#utility.yul\":20038:20050   */\n      add\n        /* \"#utility.yul\":20031:20050   */\n      swap1\n      pop\n        /* \"#utility.yul\":19690:20056   */\n      swap2\n      swap1\n      pop\n      jump\t// out\n        /* \"#utility.yul\":20062:20481   */\n    tag_218:\n        /* \"#utility.yul\":20228:20232   */\n      0x00\n        /* \"#utility.yul\":20266:20268   */\n      0x20\n        /* \"#utility.yul\":20255:20264   */\n      dup3\n        /* \"#utility.yul\":20251:20269   */\n      add\n        /* \"#utility.yul\":20243:20269   */\n      swap1\n      pop\n        /* \"#utility.yul\":20315:20324   */\n      dup2\n        /* \"#utility.yul\":20309:20313   */\n      dup2\n        /* \"#utility.yul\":20305:20325   */\n      sub\n        /* \"#utility.yul\":20301:20302   */\n      0x00\n        /* \"#utility.yul\":20290:20299   */\n      dup4\n        /* \"#utility.yul\":20286:20303   */\n      add\n        /* \"#utility.yul\":20279:20326   */\n      mstore\n        /* \"#utility.yul\":20343:20474   */\n      tag_508\n        /* \"#utility.yul\":20469:20473   */\n      dup2\n        /* \"#utility.yul\":20343:20474   */\n      tag_313\n      jump\t// in\n    tag_508:\n        /* \"#utility.yul\":20335:20474   */\n      swap1\n      pop\n        /* \"#utility.yul\":20062:20481   */\n      swap2\n      swap1\n      pop\n      jump\t// out\n        /* \"#utility.yul\":20487:20819   */\n    tag_224:\n        /* \"#utility.yul\":20608:20612   */\n      0x00\n        /* \"#utility.yul\":20646:20648   */\n      0x40\n        /* \"#utility.yul\":20635:20644   */\n      dup3\n        /* \"#utility.yul\":20631:20649   */\n      add\n        /* \"#utility.yul\":20623:20649   */\n      swap1\n      pop\n        /* \"#utility.yul\":20659:20730   */\n      tag_510\n        /* \"#utility.yul\":20727:20728   */\n      0x00\n        /* \"#utility.yul\":20716:20725   */\n      dup4\n        /* \"#utility.yul\":20712:20729   */\n      add\n        /* \"#utility.yul\":20703:20709   */\n      dup6\n        /* \"#utility.yul\":20659:20730   */\n      tag_264\n      jump\t// in\n    tag_510:\n        /* \"#utility.yul\":20740:20812   */\n      tag_511\n        /* \"#utility.yul\":20808:20810   */\n      0x20\n        /* \"#utility.yul\":20797:20806   */\n      dup4\n        /* \"#utility.yul\":20793:20811   */\n      add\n        /* \"#utility.yul\":20784:20790   */\n      dup5\n        /* \"#utility.yul\":20740:20812   */\n      tag_307\n      jump\t// in\n    tag_511:\n        /* \"#utility.yul\":20487:20819   */\n      swap4\n      swap3\n      pop\n      pop\n      pop\n      jump\t// out\n\n    auxdata: 0xa26469706673582212208574d8836451ca8c558fd1dfd2000e78661d4a31d4796759469d86539713753564736f6c634300081e0033\n}\n",
				"bytecode": {
					"linkReferences": {},
					"object": "60806040525f60025f6101000a81548160ff0219169083600581111561002857610027610180565b5b0217905550348015610038575f5ffd5b50335f73ffffffffffffffffffffffffffffffffffffffff168173ffffffffffffffffffffffffffffffffffffffff16036100aa575f6040517f1e4fbdf70000000000000000000000000000000000000000000000000000000081526004016100a191906101ec565b60405180910390fd5b6100b9816100bf60201b60201c565b50610205565b5f5f5f9054906101000a900473ffffffffffffffffffffffffffffffffffffffff169050815f5f6101000a81548173ffffffffffffffffffffffffffffffffffffffff021916908373ffffffffffffffffffffffffffffffffffffffff1602179055508173ffffffffffffffffffffffffffffffffffffffff168173ffffffffffffffffffffffffffffffffffffffff167f8be0079c531659141344cd1fd0a4f28419497f9722a3daafe3b4186f6b6457e060405160405180910390a35050565b7f4e487b71000000000000000000000000000000000000000000000000000000005f52602160045260245ffd5b5f73ffffffffffffffffffffffffffffffffffffffff82169050919050565b5f6101d6826101ad565b9050919050565b6101e6816101cc565b82525050565b5f6020820190506101ff5f8301846101dd565b92915050565b611c55806102125f395ff3fe608060405234801561000f575f5ffd5b50600436106100b2575f3560e01c80638da5cb5b1161006f5780638da5cb5b146101165780638e7ea5b214610134578063ada7415f14610152578063dcd6a5cd1461015c578063ee74c67814610178578063f2fde38b14610182576100b2565b80630f7e2838146100b657806317a0ad8e146100c05780632f95355b146100ca57806338db6dd3146100e65780634abfba2b14610102578063715018a61461010c575b5f5ffd5b6100be61019e565b005b6100c861028f565b005b6100e460048036038101906100df919061121b565b610382565b005b61010060048036038101906100fb91906112c0565b610575565b005b61010a61070f565b005b610114610801565b005b61011e610814565b60405161012b91906112fa565b60405180910390f35b61013c61083b565b6040516101499190611490565b60405180910390f35b61015a610b35565b005b610176600480360381019061017191906114da565b610c28565b005b610180610ed5565b005b61019c600480360381019061019791906112c0565b610fc6565b005b6101a661104a565b5f60025f9054906101000a900460ff1660058111156101c8576101c7611505565b5b8160058111156101db576101da611505565b5b1461021b576040517f08c379a00000000000000000000000000000000000000000000000000000000081526004016102129061158c565b60405180910390fd5b600160025f6101000a81548160ff021916908360058111156102405761023f611505565b5b02179055507f0a97a4ee45751e2abf3e4fc8946939630b11b371ea8ae39ccdc3056e98f5cc3f5f60025f9054906101000a900460ff166040516102849291906115f0565b60405180910390a150565b61029761104a565b600360025f9054906101000a900460ff1660058111156102ba576102b9611505565b5b8160058111156102cd576102cc611505565b5b1461030d576040517f08c379a00000000000000000000000000000000000000000000000000000000081526004016103049061158c565b60405180910390fd5b600460025f6101000a81548160ff0219169083600581111561033257610331611505565b5b02179055507f0a97a4ee45751e2abf3e4fc8946939630b11b371ea8ae39ccdc3056e98f5cc3f600360025f9054906101000a900460ff166040516103779291906115f0565b60405180910390a150565b600160025f9054906101000a900460ff1660058111156103a5576103a4611505565b5b8160058111156103b8576103b7611505565b5b146103f8576040517f08c379a00000000000000000000000000000000000000000000000000000000081526004016103ef9061158c565b60405180910390fd5b60015f3373ffffffffffffffffffffffffffffffffffffffff1673ffffffffffffffffffffffffffffffffffffffff1681526020019081526020015f205f015f9054906101000a900460ff16610483576040517f08c379a000000000000000000000000000000000000000000000000000000000815260040161047a90611687565b60405180910390fd5b5f604051806040016040528085858080601f0160208091040260200160405190810160405280939291908181526020018383808284375f81840152601f19601f8201169050808301925050505050505081526020015f8152509050600381908060018154018082558091505060019003905f5260205f2090600202015f909190919091505f820151815f01908161051a91906118cf565b506020820151816001015550507f92e393e9b54e2f801d3ea4beb0c5e71a21cc34a5d34b77d0fb8a3aa1650dc18f600160038054905061055a91906119cb565b6040516105679190611a0d565b60405180910390a150505050565b61057d61104a565b5f60025f9054906101000a900460ff16600581111561059f5761059e611505565b5b8160058111156105b2576105b1611505565b5b146105f2576040517f08c379a00000000000000000000000000000000000000000000000000000000081526004016105e99061158c565b60405180910390fd5b60015f8373ffffffffffffffffffffffffffffffffffffffff1673ffffffffffffffffffffffffffffffffffffffff1681526020019081526020015f205f015f9054906101000a900460ff161561067e576040517f08c379a000000000000000000000000000000000000000000000000000000000815260040161067590611a96565b60405180910390fd5b6001805f8473ffffffffffffffffffffffffffffffffffffffff1673ffffffffffffffffffffffffffffffffffffffff1681526020019081526020015f205f015f6101000a81548160ff0219169083151502179055507fb6be2187d059cc2a55fe29e0e503b566e1e0f8c8780096e185429350acffd3dd8260405161070391906112fa565b60405180910390a15050565b61071761104a565b600160025f9054906101000a900460ff16600581111561073a57610739611505565b5b81600581111561074d5761074c611505565b5b1461078d576040517f08c379a00000000000000000000000000000000000000000000000000000000081526004016107849061158c565b60405180910390fd5b6002805f6101000a81548160ff021916908360058111156107b1576107b0611505565b5b02179055507f0a97a4ee45751e2abf3e4fc8946939630b11b371ea8ae39ccdc3056e98f5cc3f600160025f9054906101000a900460ff166040516107f69291906115f0565b60405180910390a150565b61080961104a565b6108125f6110d1565b565b5f5f5f9054906101000a900473ffffffffffffffffffffffffffffffffffffffff16905090565b6060600560025f9054906101000a900460ff1660058111156108605761085f611505565b5b81600581111561087357610872611505565b5b146108b3576040517f08c379a00000000000000000000000000000000000000000000000000000000081526004016108aa9061158c565b60405180910390fd5b5f60035f815481106108c8576108c7611ab4565b5b905f5260205f2090600202016001015490505f600190505f600190505b60038054905081101561099357826003828154811061090757610906611ab4565b5b905f5260205f20906002020160010154111561094c576003818154811061093157610930611ab4565b5b905f5260205f20906002020160010154925060019150610986565b826003828154811061096157610960611ab4565b5b905f5260205f209060020201600101540361098557818061098190611ae1565b9250505b5b80806001019150506108e5565b505f8167ffffffffffffffff8111156109af576109ae6116a5565b5b6040519080825280602002602001820160405280156109e857816020015b6109d5611199565b8152602001906001900390816109cd5790505b5090505f5f90505f5f90505b600380549050811015610b29578460038281548110610a1657610a15611ab4565b5b905f5260205f2090600202016001015403610b1c5760038181548110610a3f57610a3e611ab4565b5b905f5260205f2090600202016040518060400160405290815f82018054610a65906116ff565b80601f0160208091040260200160405190810160405280929190818152602001828054610a91906116ff565b8015610adc5780601f10610ab357610100808354040283529160200191610adc565b820191905f5260205f20905b815481529060010190602001808311610abf57829003601f168201915b50505050508152602001600182015481525050838381518110610b0257610b01611ab4565b5b60200260200101819052508180610b1890611ae1565b9250505b80806001019150506109f4565b50819550505050505090565b610b3d61104a565b600460025f9054906101000a900460ff166005811115610b6057610b5f611505565b5b816005811115610b7357610b72611505565b5b14610bb3576040517f08c379a0000000000000000000000000000000000000000000000000000000008152600401610baa9061158c565b60405180910390fd5b600560025f6101000a81548160ff02191690836005811115610bd857610bd7611505565b5b02179055507f0a97a4ee45751e2abf3e4fc8946939630b11b371ea8ae39ccdc3056e98f5cc3f600460025f9054906101000a900460ff16604051610c1d9291906115f0565b60405180910390a150565b600360025f9054906101000a900460ff166005811115610c4b57610c4a611505565b5b816005811115610c5e57610c5d611505565b5b14610c9e576040517f08c379a0000000000000000000000000000000000000000000000000000000008152600401610c959061158c565b60405180910390fd5b60015f3373ffffffffffffffffffffffffffffffffffffffff1673ffffffffffffffffffffffffffffffffffffffff1681526020019081526020015f205f015f9054906101000a900460ff16610d29576040517f08c379a0000000000000000000000000000000000000000000000000000000008152600401610d2090611687565b60405180910390fd5b60015f3373ffffffffffffffffffffffffffffffffffffffff1673ffffffffffffffffffffffffffffffffffffffff1681526020019081526020015f205f0160019054906101000a900460ff1615610db6576040517f08c379a0000000000000000000000000000000000000000000000000000000008152600401610dad90611b72565b60405180910390fd5b60038054905082108015610dca57505f8210155b610e09576040517f08c379a0000000000000000000000000000000000000000000000000000000008152600401610e0090611bda565b60405180910390fd5b60038281548110610e1d57610e1c611ab4565b5b905f5260205f2090600202016001015f815480929190610e3c90611ae1565b91905055506001805f3373ffffffffffffffffffffffffffffffffffffffff1673ffffffffffffffffffffffffffffffffffffffff1681526020019081526020015f205f0160016101000a81548160ff0219169083151502179055507f4d99b957a2bc29a30ebd96a7be8e68fe50a3c701db28a91436490b7d53870ca43383604051610ec9929190611bf8565b60405180910390a15050565b610edd61104a565b6002805f9054906101000a900460ff166005811115610eff57610efe611505565b5b816005811115610f1257610f11611505565b5b14610f52576040517f08c379a0000000000000000000000000000000000000000000000000000000008152600401610f499061158c565b60405180910390fd5b600360025f6101000a81548160ff02191690836005811115610f7757610f76611505565b5b02179055507f0a97a4ee45751e2abf3e4fc8946939630b11b371ea8ae39ccdc3056e98f5cc3f6002805f9054906101000a900460ff16604051610fbb9291906115f0565b60405180910390a150565b610fce61104a565b5f73ffffffffffffffffffffffffffffffffffffffff168173ffffffffffffffffffffffffffffffffffffffff160361103e575f6040517f1e4fbdf700000000000000000000000000000000000000000000000000000000815260040161103591906112fa565b60405180910390fd5b611047816110d1565b50565b611052611192565b73ffffffffffffffffffffffffffffffffffffffff16611070610814565b73ffffffffffffffffffffffffffffffffffffffff16146110cf57611093611192565b6040517f118cdaa70000000000000000000000000000000000000000000000000000000081526004016110c691906112fa565b60405180910390fd5b565b5f5f5f9054906101000a900473ffffffffffffffffffffffffffffffffffffffff169050815f5f6101000a81548173ffffffffffffffffffffffffffffffffffffffff021916908373ffffffffffffffffffffffffffffffffffffffff1602179055508173ffffffffffffffffffffffffffffffffffffffff168173ffffffffffffffffffffffffffffffffffffffff167f8be0079c531659141344cd1fd0a4f28419497f9722a3daafe3b4186f6b6457e060405160405180910390a35050565b5f33905090565b6040518060400160405280606081526020015f81525090565b5f5ffd5b5f5ffd5b5f5ffd5b5f5ffd5b5f5ffd5b5f5f83601f8401126111db576111da6111ba565b5b8235905067ffffffffffffffff8111156111f8576111f76111be565b5b602083019150836001820283011115611214576112136111c2565b5b9250929050565b5f5f60208385031215611231576112306111b2565b5b5f83013567ffffffffffffffff81111561124e5761124d6111b6565b5b61125a858286016111c6565b92509250509250929050565b5f73ffffffffffffffffffffffffffffffffffffffff82169050919050565b5f61128f82611266565b9050919050565b61129f81611285565b81146112a9575f5ffd5b50565b5f813590506112ba81611296565b92915050565b5f602082840312156112d5576112d46111b2565b5b5f6112e2848285016112ac565b91505092915050565b6112f481611285565b82525050565b5f60208201905061130d5f8301846112eb565b92915050565b5f81519050919050565b5f82825260208201905092915050565b5f819050602082019050919050565b5f81519050919050565b5f82825260208201905092915050565b8281835e5f83830152505050565b5f601f19601f8301169050919050565b5f61137e8261133c565b6113888185611346565b9350611398818560208601611356565b6113a181611364565b840191505092915050565b5f819050919050565b6113be816113ac565b82525050565b5f604083015f8301518482035f8601526113de8282611374565b91505060208301516113f360208601826113b5565b508091505092915050565b5f61140983836113c4565b905092915050565b5f602082019050919050565b5f61142782611313565b611431818561131d565b9350836020820285016114438561132d565b805f5b8581101561147e578484038952815161145f85826113fe565b945061146a83611411565b925060208a01995050600181019050611446565b50829750879550505050505092915050565b5f6020820190508181035f8301526114a8818461141d565b905092915050565b6114b9816113ac565b81146114c3575f5ffd5b50565b5f813590506114d4816114b0565b92915050565b5f602082840312156114ef576114ee6111b2565b5b5f6114fc848285016114c6565b91505092915050565b7f4e487b71000000000000000000000000000000000000000000000000000000005f52602160045260245ffd5b5f82825260208201905092915050565b7f4e6f74207468652074696d6520666f72207468697321000000000000000000005f82015250565b5f611576601683611532565b915061158182611542565b602082019050919050565b5f6020820190508181035f8301526115a38161156a565b9050919050565b600681106115bb576115ba611505565b5b50565b5f8190506115cb826115aa565b919050565b5f6115da826115be565b9050919050565b6115ea816115d0565b82525050565b5f6040820190506116035f8301856115e1565b61161060208301846115e1565b9392505050565b7f54686520766f746572206973206e6f74207265676973746572656420696e20745f8201527f686520766f7465727357686974656c6973740000000000000000000000000000602082015250565b5f611671603283611532565b915061167c82611617565b604082019050919050565b5f6020820190508181035f83015261169e81611665565b9050919050565b7f4e487b71000000000000000000000000000000000000000000000000000000005f52604160045260245ffd5b7f4e487b71000000000000000000000000000000000000000000000000000000005f52602260045260245ffd5b5f600282049050600182168061171657607f821691505b602082108103611729576117286116d2565b5b50919050565b5f819050815f5260205f209050919050565b5f6020601f8301049050919050565b5f82821b905092915050565b5f6008830261178b7fffffffffffffffffffffffffffffffffffffffffffffffffffffffffffffffff82611750565b6117958683611750565b95508019841693508086168417925050509392505050565b5f819050919050565b5f6117d06117cb6117c6846113ac565b6117ad565b6113ac565b9050919050565b5f819050919050565b6117e9836117b6565b6117fd6117f5826117d7565b84845461175c565b825550505050565b5f5f905090565b611814611805565b61181f8184846117e0565b505050565b5b81811015611842576118375f8261180c565b600181019050611825565b5050565b601f821115611887576118588161172f565b61186184611741565b81016020851015611870578190505b61188461187c85611741565b830182611824565b50505b505050565b5f82821c905092915050565b5f6118a75f198460080261188c565b1980831691505092915050565b5f6118bf8383611898565b9150826002028217905092915050565b6118d88261133c565b67ffffffffffffffff8111156118f1576118f06116a5565b5b6118fb82546116ff565b611906828285611846565b5f60209050601f831160018114611937575f8415611925578287015190505b61192f85826118b4565b865550611996565b601f1984166119458661172f565b5f5b8281101561196c57848901518255600182019150602085019450602081019050611947565b868310156119895784890151611985601f891682611898565b8355505b6001600288020188555050505b505050505050565b7f4e487b71000000000000000000000000000000000000000000000000000000005f52601160045260245ffd5b5f6119d5826113ac565b91506119e0836113ac565b92508282039050818111156119f8576119f761199e565b5b92915050565b611a07816113ac565b82525050565b5f602082019050611a205f8301846119fe565b92915050565b7f54686520766f74657220697320616c7265616479206f6e2074686520766f74655f8201527f727357686974656c697374000000000000000000000000000000000000000000602082015250565b5f611a80602b83611532565b9150611a8b82611a26565b604082019050919050565b5f6020820190508181035f830152611aad81611a74565b9050919050565b7f4e487b71000000000000000000000000000000000000000000000000000000005f52603260045260245ffd5b5f611aeb826113ac565b91507fffffffffffffffffffffffffffffffffffffffffffffffffffffffffffffffff8203611b1d57611b1c61199e565b5b600182019050919050565b7f54686520766f7465722068617320616c726561647920766f74656400000000005f82015250565b5f611b5c601b83611532565b9150611b6782611b28565b602082019050919050565b5f6020820190508181035f830152611b8981611b50565b9050919050565b7f496e76616c69642070726f706f73616c206964000000000000000000000000005f82015250565b5f611bc4601383611532565b9150611bcf82611b90565b602082019050919050565b5f6020820190508181035f830152611bf181611bb8565b9050919050565b5f604082019050611c0b5f8301856112eb565b611c1860208301846119fe565b939250505056fea26469706673582212208574d8836451ca8c558fd1dfd2000e78661d4a31d4796759469d86539713753564736f6c634300081e0033",
					"opcodes": "PUSH1 0x80 PUSH1 0x40 MSTORE PUSH0 PUSH1 0x2 PUSH0 PUSH2 0x100 EXP DUP2 SLOAD DUP2 PUSH1 0xFF MUL NOT AND SWAP1 DUP4 PUSH1 0x5 DUP2 GT ISZERO PUSH2 0x28 JUMPI PUSH2 0x27 PUSH2 0x180 JUMP JUMPDEST JUMPDEST MUL OR SWAP1 SSTORE POP CALLVALUE DUP1 ISZERO PUSH2 0x38 JUMPI PUSH0 PUSH0 REVERT JUMPDEST POP CALLER PUSH0 PUSH20 0xFFFFFFFFFFFFFFFFFFFFFFFFFFFFFFFFFFFFFFFF AND DUP2 PUSH20 0xFFFFFFFFFFFFFFFFFFFFFFFFFFFFFFFFFFFFFFFF AND SUB PUSH2 0xAA JUMPI PUSH0 PUSH1 0x40 MLOAD PUSH32 0x1E4FBDF700000000000000000000000000000000000000000000000000000000 DUP2 MSTORE PUSH1 0x4 ADD PUSH2 0xA1 SWAP2 SWAP1 PUSH2 0x1EC JUMP JUMPDEST PUSH1 0x40 MLOAD DUP1 SWAP2 SUB SWAP1 REVERT JUMPDEST PUSH2 0xB9 DUP2 PUSH2 0xBF PUSH1 0x20 SHL PUSH1 0x20 SHR JUMP JUMPDEST POP PUSH2 0x205 JUMP JUMPDEST PUSH0 PUSH0 PUSH0 SWAP1 SLOAD SWAP1 PUSH2 0x100 EXP SWAP1 DIV PUSH20 0xFFFFFFFFFFFFFFFFFFFFFFFFFFFFFFFFFFFFFFFF AND SWAP1 POP DUP2 PUSH0 PUSH0 PUSH2 0x100 EXP DUP2 SLOAD DUP2 PUSH20 0xFFFFFFFFFFFFFFFFFFFFFFFFFFFFFFFFFFFFFFFF MUL NOT AND SWAP1 DUP4 PUSH20 0xFFFFFFFFFFFFFFFFFFFFFFFFFFFFFFFFFFFFFFFF AND MUL OR SWAP1 SSTORE POP DUP2 PUSH20 0xFFFFFFFFFFFFFFFFFFFFFFFFFFFFFFFFFFFFFFFF AND DUP2 PUSH20 0xFFFFFFFFFFFFFFFFFFFFFFFFFFFFFFFFFFFFFFFF AND PUSH32 0x8BE0079C531659141344CD1FD0A4F28419497F9722A3DAAFE3B4186F6B6457E0 PUSH1 0x40 MLOAD PUSH1 0x40 MLOAD DUP1 SWAP2 SUB SWAP1 LOG3 POP POP JUMP JUMPDEST PUSH32 0x4E487B7100000000000000000000000000000000000000000000000000000000 PUSH0 MSTORE PUSH1 0x21 PUSH1 0x4 MSTORE PUSH1 0x24 PUSH0 REVERT JUMPDEST PUSH0 PUSH20 0xFFFFFFFFFFFFFFFFFFFFFFFFFFFFFFFFFFFFFFFF DUP3 AND SWAP1 POP SWAP2 SWAP1 POP JUMP JUMPDEST PUSH0 PUSH2 0x1D6 DUP3 PUSH2 0x1AD JUMP JUMPDEST SWAP1 POP SWAP2 SWAP1 POP JUMP JUMPDEST PUSH2 0x1E6 DUP2 PUSH2 0x1CC JUMP JUMPDEST DUP3 MSTORE POP POP JUMP JUMPDEST PUSH0 PUSH1 0x20 DUP3 ADD SWAP1 POP PUSH2 0x1FF PUSH0 DUP4 ADD DUP5 PUSH2 0x1DD JUMP JUMPDEST SWAP3 SWAP2 POP POP JUMP JUMPDEST PUSH2 0x1C55 DUP1 PUSH2 0x212 PUSH0 CODECOPY PUSH0 RETURN INVALID PUSH1 0x80 PUSH1 0x40 MSTORE CALLVALUE DUP1 ISZERO PUSH2 0xF JUMPI PUSH0 PUSH0 REVERT JUMPDEST POP PUSH1 0x4 CALLDATASIZE LT PUSH2 0xB2 JUMPI PUSH0 CALLDATALOAD PUSH1 0xE0 SHR DUP1 PUSH4 0x8DA5CB5B GT PUSH2 0x6F JUMPI DUP1 PUSH4 0x8DA5CB5B EQ PUSH2 0x116 JUMPI DUP1 PUSH4 0x8E7EA5B2 EQ PUSH2 0x134 JUMPI DUP1 PUSH4 0xADA7415F EQ PUSH2 0x152 JUMPI DUP1 PUSH4 0xDCD6A5CD EQ PUSH2 0x15C JUMPI DUP1 PUSH4 0xEE74C678 EQ PUSH2 0x178 JUMPI DUP1 PUSH4 0xF2FDE38B EQ PUSH2 0x182 JUMPI PUSH2 0xB2 JUMP JUMPDEST DUP1 PUSH4 0xF7E2838 EQ PUSH2 0xB6 JUMPI DUP1 PUSH4 0x17A0AD8E EQ PUSH2 0xC0 JUMPI DUP1 PUSH4 0x2F95355B EQ PUSH2 0xCA JUMPI DUP1 PUSH4 0x38DB6DD3 EQ PUSH2 0xE6 JUMPI DUP1 PUSH4 0x4ABFBA2B EQ PUSH2 0x102 JUMPI DUP1 PUSH4 0x715018A6 EQ PUSH2 0x10C JUMPI JUMPDEST PUSH0 PUSH0 REVERT JUMPDEST PUSH2 0xBE PUSH2 0x19E JUMP JUMPDEST STOP JUMPDEST PUSH2 0xC8 PUSH2 0x28F JUMP JUMPDEST STOP JUMPDEST PUSH2 0xE4 PUSH1 0x4 DUP1 CALLDATASIZE SUB DUP2 ADD SWAP1 PUSH2 0xDF SWAP2 SWAP1 PUSH2 0x121B JUMP JUMPDEST PUSH2 0x382 JUMP JUMPDEST STOP JUMPDEST PUSH2 0x100 PUSH1 0x4 DUP1 CALLDATASIZE SUB DUP2 ADD SWAP1 PUSH2 0xFB SWAP2 SWAP1 PUSH2 0x12C0 JUMP JUMPDEST PUSH2 0x575 JUMP JUMPDEST STOP JUMPDEST PUSH2 0x10A PUSH2 0x70F JUMP JUMPDEST STOP JUMPDEST PUSH2 0x114 PUSH2 0x801 JUMP JUMPDEST STOP JUMPDEST PUSH2 0x11E PUSH2 0x814 JUMP JUMPDEST PUSH1 0x40 MLOAD PUSH2 0x12B SWAP2 SWAP1 PUSH2 0x12FA JUMP JUMPDEST PUSH1 0x40 MLOAD DUP1 SWAP2 SUB SWAP1 RETURN JUMPDEST PUSH2 0x13C PUSH2 0x83B JUMP JUMPDEST PUSH1 0x40 MLOAD PUSH2 0x149 SWAP2 SWAP1 PUSH2 0x1490 JUMP JUMPDEST PUSH1 0x40 MLOAD DUP1 SWAP2 SUB SWAP1 RETURN JUMPDEST PUSH2 0x15A PUSH2 0xB35 JUMP JUMPDEST STOP JUMPDEST PUSH2 0x176 PUSH1 0x4 DUP1 CALLDATASIZE SUB DUP2 ADD SWAP1 PUSH2 0x171 SWAP2 SWAP1 PUSH2 0x14DA JUMP JUMPDEST PUSH2 0xC28 JUMP JUMPDEST STOP JUMPDEST PUSH2 0x180 PUSH2 0xED5 JUMP JUMPDEST STOP JUMPDEST PUSH2 0x19C PUSH1 0x4 DUP1 CALLDATASIZE SUB DUP2 ADD SWAP1 PUSH2 0x197 SWAP2 SWAP1 PUSH2 0x12C0 JUMP JUMPDEST PUSH2 0xFC6 JUMP JUMPDEST STOP JUMPDEST PUSH2 0x1A6 PUSH2 0x104A JUMP JUMPDEST PUSH0 PUSH1 0x2 PUSH0 SWAP1 SLOAD SWAP1 PUSH2 0x100 EXP SWAP1 DIV PUSH1 0xFF AND PUSH1 0x5 DUP2 GT ISZERO PUSH2 0x1C8 JUMPI PUSH2 0x1C7 PUSH2 0x1505 JUMP JUMPDEST JUMPDEST DUP2 PUSH1 0x5 DUP2 GT ISZERO PUSH2 0x1DB JUMPI PUSH2 0x1DA PUSH2 0x1505 JUMP JUMPDEST JUMPDEST EQ PUSH2 0x21B JUMPI PUSH1 0x40 MLOAD PUSH32 0x8C379A000000000000000000000000000000000000000000000000000000000 DUP2 MSTORE PUSH1 0x4 ADD PUSH2 0x212 SWAP1 PUSH2 0x158C JUMP JUMPDEST PUSH1 0x40 MLOAD DUP1 SWAP2 SUB SWAP1 REVERT JUMPDEST PUSH1 0x1 PUSH1 0x2 PUSH0 PUSH2 0x100 EXP DUP2 SLOAD DUP2 PUSH1 0xFF MUL NOT AND SWAP1 DUP4 PUSH1 0x5 DUP2 GT ISZERO PUSH2 0x240 JUMPI PUSH2 0x23F PUSH2 0x1505 JUMP JUMPDEST JUMPDEST MUL OR SWAP1 SSTORE POP PUSH32 0xA97A4EE45751E2ABF3E4FC8946939630B11B371EA8AE39CCDC3056E98F5CC3F PUSH0 PUSH1 0x2 PUSH0 SWAP1 SLOAD SWAP1 PUSH2 0x100 EXP SWAP1 DIV PUSH1 0xFF AND PUSH1 0x40 MLOAD PUSH2 0x284 SWAP3 SWAP2 SWAP1 PUSH2 0x15F0 JUMP JUMPDEST PUSH1 0x40 MLOAD DUP1 SWAP2 SUB SWAP1 LOG1 POP JUMP JUMPDEST PUSH2 0x297 PUSH2 0x104A JUMP JUMPDEST PUSH1 0x3 PUSH1 0x2 PUSH0 SWAP1 SLOAD SWAP1 PUSH2 0x100 EXP SWAP1 DIV PUSH1 0xFF AND PUSH1 0x5 DUP2 GT ISZERO PUSH2 0x2BA JUMPI PUSH2 0x2B9 PUSH2 0x1505 JUMP JUMPDEST JUMPDEST DUP2 PUSH1 0x5 DUP2 GT ISZERO PUSH2 0x2CD JUMPI PUSH2 0x2CC PUSH2 0x1505 JUMP JUMPDEST JUMPDEST EQ PUSH2 0x30D JUMPI PUSH1 0x40 MLOAD PUSH32 0x8C379A000000000000000000000000000000000000000000000000000000000 DUP2 MSTORE PUSH1 0x4 ADD PUSH2 0x304 SWAP1 PUSH2 0x158C JUMP JUMPDEST PUSH1 0x40 MLOAD DUP1 SWAP2 SUB SWAP1 REVERT JUMPDEST PUSH1 0x4 PUSH1 0x2 PUSH0 PUSH2 0x100 EXP DUP2 SLOAD DUP2 PUSH1 0xFF MUL NOT AND SWAP1 DUP4 PUSH1 0x5 DUP2 GT ISZERO PUSH2 0x332 JUMPI PUSH2 0x331 PUSH2 0x1505 JUMP JUMPDEST JUMPDEST MUL OR SWAP1 SSTORE POP PUSH32 0xA97A4EE45751E2ABF3E4FC8946939630B11B371EA8AE39CCDC3056E98F5CC3F PUSH1 0x3 PUSH1 0x2 PUSH0 SWAP1 SLOAD SWAP1 PUSH2 0x100 EXP SWAP1 DIV PUSH1 0xFF AND PUSH1 0x40 MLOAD PUSH2 0x377 SWAP3 SWAP2 SWAP1 PUSH2 0x15F0 JUMP JUMPDEST PUSH1 0x40 MLOAD DUP1 SWAP2 SUB SWAP1 LOG1 POP JUMP JUMPDEST PUSH1 0x1 PUSH1 0x2 PUSH0 SWAP1 SLOAD SWAP1 PUSH2 0x100 EXP SWAP1 DIV PUSH1 0xFF AND PUSH1 0x5 DUP2 GT ISZERO PUSH2 0x3A5 JUMPI PUSH2 0x3A4 PUSH2 0x1505 JUMP JUMPDEST JUMPDEST DUP2 PUSH1 0x5 DUP2 GT ISZERO PUSH2 0x3B8 JUMPI PUSH2 0x3B7 PUSH2 0x1505 JUMP JUMPDEST JUMPDEST EQ PUSH2 0x3F8 JUMPI PUSH1 0x40 MLOAD PUSH32 0x8C379A000000000000000000000000000000000000000000000000000000000 DUP2 MSTORE PUSH1 0x4 ADD PUSH2 0x3EF SWAP1 PUSH2 0x158C JUMP JUMPDEST PUSH1 0x40 MLOAD DUP1 SWAP2 SUB SWAP1 REVERT JUMPDEST PUSH1 0x1 PUSH0 CALLER PUSH20 0xFFFFFFFFFFFFFFFFFFFFFFFFFFFFFFFFFFFFFFFF AND PUSH20 0xFFFFFFFFFFFFFFFFFFFFFFFFFFFFFFFFFFFFFFFF AND DUP2 MSTORE PUSH1 0x20 ADD SWAP1 DUP2 MSTORE PUSH1 0x20 ADD PUSH0 KECCAK256 PUSH0 ADD PUSH0 SWAP1 SLOAD SWAP1 PUSH2 0x100 EXP SWAP1 DIV PUSH1 0xFF AND PUSH2 0x483 JUMPI PUSH1 0x40 MLOAD PUSH32 0x8C379A000000000000000000000000000000000000000000000000000000000 DUP2 MSTORE PUSH1 0x4 ADD PUSH2 0x47A SWAP1 PUSH2 0x1687 JUMP JUMPDEST PUSH1 0x40 MLOAD DUP1 SWAP2 SUB SWAP1 REVERT JUMPDEST PUSH0 PUSH1 0x40 MLOAD DUP1 PUSH1 0x40 ADD PUSH1 0x40 MSTORE DUP1 DUP6 DUP6 DUP1 DUP1 PUSH1 0x1F ADD PUSH1 0x20 DUP1 SWAP2 DIV MUL PUSH1 0x20 ADD PUSH1 0x40 MLOAD SWAP1 DUP2 ADD PUSH1 0x40 MSTORE DUP1 SWAP4 SWAP3 SWAP2 SWAP1 DUP2 DUP2 MSTORE PUSH1 0x20 ADD DUP4 DUP4 DUP1 DUP3 DUP5 CALLDATACOPY PUSH0 DUP2 DUP5 ADD MSTORE PUSH1 0x1F NOT PUSH1 0x1F DUP3 ADD AND SWAP1 POP DUP1 DUP4 ADD SWAP3 POP POP POP POP POP POP POP DUP2 MSTORE PUSH1 0x20 ADD PUSH0 DUP2 MSTORE POP SWAP1 POP PUSH1 0x3 DUP2 SWAP1 DUP1 PUSH1 0x1 DUP2 SLOAD ADD DUP1 DUP3 SSTORE DUP1 SWAP2 POP POP PUSH1 0x1 SWAP1 SUB SWAP1 PUSH0 MSTORE PUSH1 0x20 PUSH0 KECCAK256 SWAP1 PUSH1 0x2 MUL ADD PUSH0 SWAP1 SWAP2 SWAP1 SWAP2 SWAP1 SWAP2 POP PUSH0 DUP3 ADD MLOAD DUP2 PUSH0 ADD SWAP1 DUP2 PUSH2 0x51A SWAP2 SWAP1 PUSH2 0x18CF JUMP JUMPDEST POP PUSH1 0x20 DUP3 ADD MLOAD DUP2 PUSH1 0x1 ADD SSTORE POP POP PUSH32 0x92E393E9B54E2F801D3EA4BEB0C5E71A21CC34A5D34B77D0FB8A3AA1650DC18F PUSH1 0x1 PUSH1 0x3 DUP1 SLOAD SWAP1 POP PUSH2 0x55A SWAP2 SWAP1 PUSH2 0x19CB JUMP JUMPDEST PUSH1 0x40 MLOAD PUSH2 0x567 SWAP2 SWAP1 PUSH2 0x1A0D JUMP JUMPDEST PUSH1 0x40 MLOAD DUP1 SWAP2 SUB SWAP1 LOG1 POP POP POP POP JUMP JUMPDEST PUSH2 0x57D PUSH2 0x104A JUMP JUMPDEST PUSH0 PUSH1 0x2 PUSH0 SWAP1 SLOAD SWAP1 PUSH2 0x100 EXP SWAP1 DIV PUSH1 0xFF AND PUSH1 0x5 DUP2 GT ISZERO PUSH2 0x59F JUMPI PUSH2 0x59E PUSH2 0x1505 JUMP JUMPDEST JUMPDEST DUP2 PUSH1 0x5 DUP2 GT ISZERO PUSH2 0x5B2 JUMPI PUSH2 0x5B1 PUSH2 0x1505 JUMP JUMPDEST JUMPDEST EQ PUSH2 0x5F2 JUMPI PUSH1 0x40 MLOAD PUSH32 0x8C379A000000000000000000000000000000000000000000000000000000000 DUP2 MSTORE PUSH1 0x4 ADD PUSH2 0x5E9 SWAP1 PUSH2 0x158C JUMP JUMPDEST PUSH1 0x40 MLOAD DUP1 SWAP2 SUB SWAP1 REVERT JUMPDEST PUSH1 0x1 PUSH0 DUP4 PUSH20 0xFFFFFFFFFFFFFFFFFFFFFFFFFFFFFFFFFFFFFFFF AND PUSH20 0xFFFFFFFFFFFFFFFFFFFFFFFFFFFFFFFFFFFFFFFF AND DUP2 MSTORE PUSH1 0x20 ADD SWAP1 DUP2 MSTORE PUSH1 0x20 ADD PUSH0 KECCAK256 PUSH0 ADD PUSH0 SWAP1 SLOAD SWAP1 PUSH2 0x100 EXP SWAP1 DIV PUSH1 0xFF AND ISZERO PUSH2 0x67E JUMPI PUSH1 0x40 MLOAD PUSH32 0x8C379A000000000000000000000000000000000000000000000000000000000 DUP2 MSTORE PUSH1 0x4 ADD PUSH2 0x675 SWAP1 PUSH2 0x1A96 JUMP JUMPDEST PUSH1 0x40 MLOAD DUP1 SWAP2 SUB SWAP1 REVERT JUMPDEST PUSH1 0x1 DUP1 PUSH0 DUP5 PUSH20 0xFFFFFFFFFFFFFFFFFFFFFFFFFFFFFFFFFFFFFFFF AND PUSH20 0xFFFFFFFFFFFFFFFFFFFFFFFFFFFFFFFFFFFFFFFF AND DUP2 MSTORE PUSH1 0x20 ADD SWAP1 DUP2 MSTORE PUSH1 0x20 ADD PUSH0 KECCAK256 PUSH0 ADD PUSH0 PUSH2 0x100 EXP DUP2 SLOAD DUP2 PUSH1 0xFF MUL NOT AND SWAP1 DUP4 ISZERO ISZERO MUL OR SWAP1 SSTORE POP PUSH32 0xB6BE2187D059CC2A55FE29E0E503B566E1E0F8C8780096E185429350ACFFD3DD DUP3 PUSH1 0x40 MLOAD PUSH2 0x703 SWAP2 SWAP1 PUSH2 0x12FA JUMP JUMPDEST PUSH1 0x40 MLOAD DUP1 SWAP2 SUB SWAP1 LOG1 POP POP JUMP JUMPDEST PUSH2 0x717 PUSH2 0x104A JUMP JUMPDEST PUSH1 0x1 PUSH1 0x2 PUSH0 SWAP1 SLOAD SWAP1 PUSH2 0x100 EXP SWAP1 DIV PUSH1 0xFF AND PUSH1 0x5 DUP2 GT ISZERO PUSH2 0x73A JUMPI PUSH2 0x739 PUSH2 0x1505 JUMP JUMPDEST JUMPDEST DUP2 PUSH1 0x5 DUP2 GT ISZERO PUSH2 0x74D JUMPI PUSH2 0x74C PUSH2 0x1505 JUMP JUMPDEST JUMPDEST EQ PUSH2 0x78D JUMPI PUSH1 0x40 MLOAD PUSH32 0x8C379A000000000000000000000000000000000000000000000000000000000 DUP2 MSTORE PUSH1 0x4 ADD PUSH2 0x784 SWAP1 PUSH2 0x158C JUMP JUMPDEST PUSH1 0x40 MLOAD DUP1 SWAP2 SUB SWAP1 REVERT JUMPDEST PUSH1 0x2 DUP1 PUSH0 PUSH2 0x100 EXP DUP2 SLOAD DUP2 PUSH1 0xFF MUL NOT AND SWAP1 DUP4 PUSH1 0x5 DUP2 GT ISZERO PUSH2 0x7B1 JUMPI PUSH2 0x7B0 PUSH2 0x1505 JUMP JUMPDEST JUMPDEST MUL OR SWAP1 SSTORE POP PUSH32 0xA97A4EE45751E2ABF3E4FC8946939630B11B371EA8AE39CCDC3056E98F5CC3F PUSH1 0x1 PUSH1 0x2 PUSH0 SWAP1 SLOAD SWAP1 PUSH2 0x100 EXP SWAP1 DIV PUSH1 0xFF AND PUSH1 0x40 MLOAD PUSH2 0x7F6 SWAP3 SWAP2 SWAP1 PUSH2 0x15F0 JUMP JUMPDEST PUSH1 0x40 MLOAD DUP1 SWAP2 SUB SWAP1 LOG1 POP JUMP JUMPDEST PUSH2 0x809 PUSH2 0x104A JUMP JUMPDEST PUSH2 0x812 PUSH0 PUSH2 0x10D1 JUMP JUMPDEST JUMP JUMPDEST PUSH0 PUSH0 PUSH0 SWAP1 SLOAD SWAP1 PUSH2 0x100 EXP SWAP1 DIV PUSH20 0xFFFFFFFFFFFFFFFFFFFFFFFFFFFFFFFFFFFFFFFF AND SWAP1 POP SWAP1 JUMP JUMPDEST PUSH1 0x60 PUSH1 0x5 PUSH1 0x2 PUSH0 SWAP1 SLOAD SWAP1 PUSH2 0x100 EXP SWAP1 DIV PUSH1 0xFF AND PUSH1 0x5 DUP2 GT ISZERO PUSH2 0x860 JUMPI PUSH2 0x85F PUSH2 0x1505 JUMP JUMPDEST JUMPDEST DUP2 PUSH1 0x5 DUP2 GT ISZERO PUSH2 0x873 JUMPI PUSH2 0x872 PUSH2 0x1505 JUMP JUMPDEST JUMPDEST EQ PUSH2 0x8B3 JUMPI PUSH1 0x40 MLOAD PUSH32 0x8C379A000000000000000000000000000000000000000000000000000000000 DUP2 MSTORE PUSH1 0x4 ADD PUSH2 0x8AA SWAP1 PUSH2 0x158C JUMP JUMPDEST PUSH1 0x40 MLOAD DUP1 SWAP2 SUB SWAP1 REVERT JUMPDEST PUSH0 PUSH1 0x3 PUSH0 DUP2 SLOAD DUP2 LT PUSH2 0x8C8 JUMPI PUSH2 0x8C7 PUSH2 0x1AB4 JUMP JUMPDEST JUMPDEST SWAP1 PUSH0 MSTORE PUSH1 0x20 PUSH0 KECCAK256 SWAP1 PUSH1 0x2 MUL ADD PUSH1 0x1 ADD SLOAD SWAP1 POP PUSH0 PUSH1 0x1 SWAP1 POP PUSH0 PUSH1 0x1 SWAP1 POP JUMPDEST PUSH1 0x3 DUP1 SLOAD SWAP1 POP DUP2 LT ISZERO PUSH2 0x993 JUMPI DUP3 PUSH1 0x3 DUP3 DUP2 SLOAD DUP2 LT PUSH2 0x907 JUMPI PUSH2 0x906 PUSH2 0x1AB4 JUMP JUMPDEST JUMPDEST SWAP1 PUSH0 MSTORE PUSH1 0x20 PUSH0 KECCAK256 SWAP1 PUSH1 0x2 MUL ADD PUSH1 0x1 ADD SLOAD GT ISZERO PUSH2 0x94C JUMPI PUSH1 0x3 DUP2 DUP2 SLOAD DUP2 LT PUSH2 0x931 JUMPI PUSH2 0x930 PUSH2 0x1AB4 JUMP JUMPDEST JUMPDEST SWAP1 PUSH0 MSTORE PUSH1 0x20 PUSH0 KECCAK256 SWAP1 PUSH1 0x2 MUL ADD PUSH1 0x1 ADD SLOAD SWAP3 POP PUSH1 0x1 SWAP2 POP PUSH2 0x986 JUMP JUMPDEST DUP3 PUSH1 0x3 DUP3 DUP2 SLOAD DUP2 LT PUSH2 0x961 JUMPI PUSH2 0x960 PUSH2 0x1AB4 JUMP JUMPDEST JUMPDEST SWAP1 PUSH0 MSTORE PUSH1 0x20 PUSH0 KECCAK256 SWAP1 PUSH1 0x2 MUL ADD PUSH1 0x1 ADD SLOAD SUB PUSH2 0x985 JUMPI DUP2 DUP1 PUSH2 0x981 SWAP1 PUSH2 0x1AE1 JUMP JUMPDEST SWAP3 POP POP JUMPDEST JUMPDEST DUP1 DUP1 PUSH1 0x1 ADD SWAP2 POP POP PUSH2 0x8E5 JUMP JUMPDEST POP PUSH0 DUP2 PUSH8 0xFFFFFFFFFFFFFFFF DUP2 GT ISZERO PUSH2 0x9AF JUMPI PUSH2 0x9AE PUSH2 0x16A5 JUMP JUMPDEST JUMPDEST PUSH1 0x40 MLOAD SWAP1 DUP1 DUP3 MSTORE DUP1 PUSH1 0x20 MUL PUSH1 0x20 ADD DUP3 ADD PUSH1 0x40 MSTORE DUP1 ISZERO PUSH2 0x9E8 JUMPI DUP2 PUSH1 0x20 ADD JUMPDEST PUSH2 0x9D5 PUSH2 0x1199 JUMP JUMPDEST DUP2 MSTORE PUSH1 0x20 ADD SWAP1 PUSH1 0x1 SWAP1 SUB SWAP1 DUP2 PUSH2 0x9CD JUMPI SWAP1 POP JUMPDEST POP SWAP1 POP PUSH0 PUSH0 SWAP1 POP PUSH0 PUSH0 SWAP1 POP JUMPDEST PUSH1 0x3 DUP1 SLOAD SWAP1 POP DUP2 LT ISZERO PUSH2 0xB29 JUMPI DUP5 PUSH1 0x3 DUP3 DUP2 SLOAD DUP2 LT PUSH2 0xA16 JUMPI PUSH2 0xA15 PUSH2 0x1AB4 JUMP JUMPDEST JUMPDEST SWAP1 PUSH0 MSTORE PUSH1 0x20 PUSH0 KECCAK256 SWAP1 PUSH1 0x2 MUL ADD PUSH1 0x1 ADD SLOAD SUB PUSH2 0xB1C JUMPI PUSH1 0x3 DUP2 DUP2 SLOAD DUP2 LT PUSH2 0xA3F JUMPI PUSH2 0xA3E PUSH2 0x1AB4 JUMP JUMPDEST JUMPDEST SWAP1 PUSH0 MSTORE PUSH1 0x20 PUSH0 KECCAK256 SWAP1 PUSH1 0x2 MUL ADD PUSH1 0x40 MLOAD DUP1 PUSH1 0x40 ADD PUSH1 0x40 MSTORE SWAP1 DUP2 PUSH0 DUP3 ADD DUP1 SLOAD PUSH2 0xA65 SWAP1 PUSH2 0x16FF JUMP JUMPDEST DUP1 PUSH1 0x1F ADD PUSH1 0x20 DUP1 SWAP2 DIV MUL PUSH1 0x20 ADD PUSH1 0x40 MLOAD SWAP1 DUP2 ADD PUSH1 0x40 MSTORE DUP1 SWAP3 SWAP2 SWAP1 DUP2 DUP2 MSTORE PUSH1 0x20 ADD DUP3 DUP1 SLOAD PUSH2 0xA91 SWAP1 PUSH2 0x16FF JUMP JUMPDEST DUP1 ISZERO PUSH2 0xADC JUMPI DUP1 PUSH1 0x1F LT PUSH2 0xAB3 JUMPI PUSH2 0x100 DUP1 DUP4 SLOAD DIV MUL DUP4 MSTORE SWAP2 PUSH1 0x20 ADD SWAP2 PUSH2 0xADC JUMP JUMPDEST DUP3 ADD SWAP2 SWAP1 PUSH0 MSTORE PUSH1 0x20 PUSH0 KECCAK256 SWAP1 JUMPDEST DUP2 SLOAD DUP2 MSTORE SWAP1 PUSH1 0x1 ADD SWAP1 PUSH1 0x20 ADD DUP1 DUP4 GT PUSH2 0xABF JUMPI DUP3 SWAP1 SUB PUSH1 0x1F AND DUP3 ADD SWAP2 JUMPDEST POP POP POP POP POP DUP2 MSTORE PUSH1 0x20 ADD PUSH1 0x1 DUP3 ADD SLOAD DUP2 MSTORE POP POP DUP4 DUP4 DUP2 MLOAD DUP2 LT PUSH2 0xB02 JUMPI PUSH2 0xB01 PUSH2 0x1AB4 JUMP JUMPDEST JUMPDEST PUSH1 0x20 MUL PUSH1 0x20 ADD ADD DUP2 SWAP1 MSTORE POP DUP2 DUP1 PUSH2 0xB18 SWAP1 PUSH2 0x1AE1 JUMP JUMPDEST SWAP3 POP POP JUMPDEST DUP1 DUP1 PUSH1 0x1 ADD SWAP2 POP POP PUSH2 0x9F4 JUMP JUMPDEST POP DUP2 SWAP6 POP POP POP POP POP POP SWAP1 JUMP JUMPDEST PUSH2 0xB3D PUSH2 0x104A JUMP JUMPDEST PUSH1 0x4 PUSH1 0x2 PUSH0 SWAP1 SLOAD SWAP1 PUSH2 0x100 EXP SWAP1 DIV PUSH1 0xFF AND PUSH1 0x5 DUP2 GT ISZERO PUSH2 0xB60 JUMPI PUSH2 0xB5F PUSH2 0x1505 JUMP JUMPDEST JUMPDEST DUP2 PUSH1 0x5 DUP2 GT ISZERO PUSH2 0xB73 JUMPI PUSH2 0xB72 PUSH2 0x1505 JUMP JUMPDEST JUMPDEST EQ PUSH2 0xBB3 JUMPI PUSH1 0x40 MLOAD PUSH32 0x8C379A000000000000000000000000000000000000000000000000000000000 DUP2 MSTORE PUSH1 0x4 ADD PUSH2 0xBAA SWAP1 PUSH2 0x158C JUMP JUMPDEST PUSH1 0x40 MLOAD DUP1 SWAP2 SUB SWAP1 REVERT JUMPDEST PUSH1 0x5 PUSH1 0x2 PUSH0 PUSH2 0x100 EXP DUP2 SLOAD DUP2 PUSH1 0xFF MUL NOT AND SWAP1 DUP4 PUSH1 0x5 DUP2 GT ISZERO PUSH2 0xBD8 JUMPI PUSH2 0xBD7 PUSH2 0x1505 JUMP JUMPDEST JUMPDEST MUL OR SWAP1 SSTORE POP PUSH32 0xA97A4EE45751E2ABF3E4FC8946939630B11B371EA8AE39CCDC3056E98F5CC3F PUSH1 0x4 PUSH1 0x2 PUSH0 SWAP1 SLOAD SWAP1 PUSH2 0x100 EXP SWAP1 DIV PUSH1 0xFF AND PUSH1 0x40 MLOAD PUSH2 0xC1D SWAP3 SWAP2 SWAP1 PUSH2 0x15F0 JUMP JUMPDEST PUSH1 0x40 MLOAD DUP1 SWAP2 SUB SWAP1 LOG1 POP JUMP JUMPDEST PUSH1 0x3 PUSH1 0x2 PUSH0 SWAP1 SLOAD SWAP1 PUSH2 0x100 EXP SWAP1 DIV PUSH1 0xFF AND PUSH1 0x5 DUP2 GT ISZERO PUSH2 0xC4B JUMPI PUSH2 0xC4A PUSH2 0x1505 JUMP JUMPDEST JUMPDEST DUP2 PUSH1 0x5 DUP2 GT ISZERO PUSH2 0xC5E JUMPI PUSH2 0xC5D PUSH2 0x1505 JUMP JUMPDEST JUMPDEST EQ PUSH2 0xC9E JUMPI PUSH1 0x40 MLOAD PUSH32 0x8C379A000000000000000000000000000000000000000000000000000000000 DUP2 MSTORE PUSH1 0x4 ADD PUSH2 0xC95 SWAP1 PUSH2 0x158C JUMP JUMPDEST PUSH1 0x40 MLOAD DUP1 SWAP2 SUB SWAP1 REVERT JUMPDEST PUSH1 0x1 PUSH0 CALLER PUSH20 0xFFFFFFFFFFFFFFFFFFFFFFFFFFFFFFFFFFFFFFFF AND PUSH20 0xFFFFFFFFFFFFFFFFFFFFFFFFFFFFFFFFFFFFFFFF AND DUP2 MSTORE PUSH1 0x20 ADD SWAP1 DUP2 MSTORE PUSH1 0x20 ADD PUSH0 KECCAK256 PUSH0 ADD PUSH0 SWAP1 SLOAD SWAP1 PUSH2 0x100 EXP SWAP1 DIV PUSH1 0xFF AND PUSH2 0xD29 JUMPI PUSH1 0x40 MLOAD PUSH32 0x8C379A000000000000000000000000000000000000000000000000000000000 DUP2 MSTORE PUSH1 0x4 ADD PUSH2 0xD20 SWAP1 PUSH2 0x1687 JUMP JUMPDEST PUSH1 0x40 MLOAD DUP1 SWAP2 SUB SWAP1 REVERT JUMPDEST PUSH1 0x1 PUSH0 CALLER PUSH20 0xFFFFFFFFFFFFFFFFFFFFFFFFFFFFFFFFFFFFFFFF AND PUSH20 0xFFFFFFFFFFFFFFFFFFFFFFFFFFFFFFFFFFFFFFFF AND DUP2 MSTORE PUSH1 0x20 ADD SWAP1 DUP2 MSTORE PUSH1 0x20 ADD PUSH0 KECCAK256 PUSH0 ADD PUSH1 0x1 SWAP1 SLOAD SWAP1 PUSH2 0x100 EXP SWAP1 DIV PUSH1 0xFF AND ISZERO PUSH2 0xDB6 JUMPI PUSH1 0x40 MLOAD PUSH32 0x8C379A000000000000000000000000000000000000000000000000000000000 DUP2 MSTORE PUSH1 0x4 ADD PUSH2 0xDAD SWAP1 PUSH2 0x1B72 JUMP JUMPDEST PUSH1 0x40 MLOAD DUP1 SWAP2 SUB SWAP1 REVERT JUMPDEST PUSH1 0x3 DUP1 SLOAD SWAP1 POP DUP3 LT DUP1 ISZERO PUSH2 0xDCA JUMPI POP PUSH0 DUP3 LT ISZERO JUMPDEST PUSH2 0xE09 JUMPI PUSH1 0x40 MLOAD PUSH32 0x8C379A000000000000000000000000000000000000000000000000000000000 DUP2 MSTORE PUSH1 0x4 ADD PUSH2 0xE00 SWAP1 PUSH2 0x1BDA JUMP JUMPDEST PUSH1 0x40 MLOAD DUP1 SWAP2 SUB SWAP1 REVERT JUMPDEST PUSH1 0x3 DUP3 DUP2 SLOAD DUP2 LT PUSH2 0xE1D JUMPI PUSH2 0xE1C PUSH2 0x1AB4 JUMP JUMPDEST JUMPDEST SWAP1 PUSH0 MSTORE PUSH1 0x20 PUSH0 KECCAK256 SWAP1 PUSH1 0x2 MUL ADD PUSH1 0x1 ADD PUSH0 DUP2 SLOAD DUP1 SWAP3 SWAP2 SWAP1 PUSH2 0xE3C SWAP1 PUSH2 0x1AE1 JUMP JUMPDEST SWAP2 SWAP1 POP SSTORE POP PUSH1 0x1 DUP1 PUSH0 CALLER PUSH20 0xFFFFFFFFFFFFFFFFFFFFFFFFFFFFFFFFFFFFFFFF AND PUSH20 0xFFFFFFFFFFFFFFFFFFFFFFFFFFFFFFFFFFFFFFFF AND DUP2 MSTORE PUSH1 0x20 ADD SWAP1 DUP2 MSTORE PUSH1 0x20 ADD PUSH0 KECCAK256 PUSH0 ADD PUSH1 0x1 PUSH2 0x100 EXP DUP2 SLOAD DUP2 PUSH1 0xFF MUL NOT AND SWAP1 DUP4 ISZERO ISZERO MUL OR SWAP1 SSTORE POP PUSH32 0x4D99B957A2BC29A30EBD96A7BE8E68FE50A3C701DB28A91436490B7D53870CA4 CALLER DUP4 PUSH1 0x40 MLOAD PUSH2 0xEC9 SWAP3 SWAP2 SWAP1 PUSH2 0x1BF8 JUMP JUMPDEST PUSH1 0x40 MLOAD DUP1 SWAP2 SUB SWAP1 LOG1 POP POP JUMP JUMPDEST PUSH2 0xEDD PUSH2 0x104A JUMP JUMPDEST PUSH1 0x2 DUP1 PUSH0 SWAP1 SLOAD SWAP1 PUSH2 0x100 EXP SWAP1 DIV PUSH1 0xFF AND PUSH1 0x5 DUP2 GT ISZERO PUSH2 0xEFF JUMPI PUSH2 0xEFE PUSH2 0x1505 JUMP JUMPDEST JUMPDEST DUP2 PUSH1 0x5 DUP2 GT ISZERO PUSH2 0xF12 JUMPI PUSH2 0xF11 PUSH2 0x1505 JUMP JUMPDEST JUMPDEST EQ PUSH2 0xF52 JUMPI PUSH1 0x40 MLOAD PUSH32 0x8C379A000000000000000000000000000000000000000000000000000000000 DUP2 MSTORE PUSH1 0x4 ADD PUSH2 0xF49 SWAP1 PUSH2 0x158C JUMP JUMPDEST PUSH1 0x40 MLOAD DUP1 SWAP2 SUB SWAP1 REVERT JUMPDEST PUSH1 0x3 PUSH1 0x2 PUSH0 PUSH2 0x100 EXP DUP2 SLOAD DUP2 PUSH1 0xFF MUL NOT AND SWAP1 DUP4 PUSH1 0x5 DUP2 GT ISZERO PUSH2 0xF77 JUMPI PUSH2 0xF76 PUSH2 0x1505 JUMP JUMPDEST JUMPDEST MUL OR SWAP1 SSTORE POP PUSH32 0xA97A4EE45751E2ABF3E4FC8946939630B11B371EA8AE39CCDC3056E98F5CC3F PUSH1 0x2 DUP1 PUSH0 SWAP1 SLOAD SWAP1 PUSH2 0x100 EXP SWAP1 DIV PUSH1 0xFF AND PUSH1 0x40 MLOAD PUSH2 0xFBB SWAP3 SWAP2 SWAP1 PUSH2 0x15F0 JUMP JUMPDEST PUSH1 0x40 MLOAD DUP1 SWAP2 SUB SWAP1 LOG1 POP JUMP JUMPDEST PUSH2 0xFCE PUSH2 0x104A JUMP JUMPDEST PUSH0 PUSH20 0xFFFFFFFFFFFFFFFFFFFFFFFFFFFFFFFFFFFFFFFF AND DUP2 PUSH20 0xFFFFFFFFFFFFFFFFFFFFFFFFFFFFFFFFFFFFFFFF AND SUB PUSH2 0x103E JUMPI PUSH0 PUSH1 0x40 MLOAD PUSH32 0x1E4FBDF700000000000000000000000000000000000000000000000000000000 DUP2 MSTORE PUSH1 0x4 ADD PUSH2 0x1035 SWAP2 SWAP1 PUSH2 0x12FA JUMP JUMPDEST PUSH1 0x40 MLOAD DUP1 SWAP2 SUB SWAP1 REVERT JUMPDEST PUSH2 0x1047 DUP2 PUSH2 0x10D1 JUMP JUMPDEST POP JUMP JUMPDEST PUSH2 0x1052 PUSH2 0x1192 JUMP JUMPDEST PUSH20 0xFFFFFFFFFFFFFFFFFFFFFFFFFFFFFFFFFFFFFFFF AND PUSH2 0x1070 PUSH2 0x814 JUMP JUMPDEST PUSH20 0xFFFFFFFFFFFFFFFFFFFFFFFFFFFFFFFFFFFFFFFF AND EQ PUSH2 0x10CF JUMPI PUSH2 0x1093 PUSH2 0x1192 JUMP JUMPDEST PUSH1 0x40 MLOAD PUSH32 0x118CDAA700000000000000000000000000000000000000000000000000000000 DUP2 MSTORE PUSH1 0x4 ADD PUSH2 0x10C6 SWAP2 SWAP1 PUSH2 0x12FA JUMP JUMPDEST PUSH1 0x40 MLOAD DUP1 SWAP2 SUB SWAP1 REVERT JUMPDEST JUMP JUMPDEST PUSH0 PUSH0 PUSH0 SWAP1 SLOAD SWAP1 PUSH2 0x100 EXP SWAP1 DIV PUSH20 0xFFFFFFFFFFFFFFFFFFFFFFFFFFFFFFFFFFFFFFFF AND SWAP1 POP DUP2 PUSH0 PUSH0 PUSH2 0x100 EXP DUP2 SLOAD DUP2 PUSH20 0xFFFFFFFFFFFFFFFFFFFFFFFFFFFFFFFFFFFFFFFF MUL NOT AND SWAP1 DUP4 PUSH20 0xFFFFFFFFFFFFFFFFFFFFFFFFFFFFFFFFFFFFFFFF AND MUL OR SWAP1 SSTORE POP DUP2 PUSH20 0xFFFFFFFFFFFFFFFFFFFFFFFFFFFFFFFFFFFFFFFF AND DUP2 PUSH20 0xFFFFFFFFFFFFFFFFFFFFFFFFFFFFFFFFFFFFFFFF AND PUSH32 0x8BE0079C531659141344CD1FD0A4F28419497F9722A3DAAFE3B4186F6B6457E0 PUSH1 0x40 MLOAD PUSH1 0x40 MLOAD DUP1 SWAP2 SUB SWAP1 LOG3 POP POP JUMP JUMPDEST PUSH0 CALLER SWAP1 POP SWAP1 JUMP JUMPDEST PUSH1 0x40 MLOAD DUP1 PUSH1 0x40 ADD PUSH1 0x40 MSTORE DUP1 PUSH1 0x60 DUP2 MSTORE PUSH1 0x20 ADD PUSH0 DUP2 MSTORE POP SWAP1 JUMP JUMPDEST PUSH0 PUSH0 REVERT JUMPDEST PUSH0 PUSH0 REVERT JUMPDEST PUSH0 PUSH0 REVERT JUMPDEST PUSH0 PUSH0 REVERT JUMPDEST PUSH0 PUSH0 REVERT JUMPDEST PUSH0 PUSH0 DUP4 PUSH1 0x1F DUP5 ADD SLT PUSH2 0x11DB JUMPI PUSH2 0x11DA PUSH2 0x11BA JUMP JUMPDEST JUMPDEST DUP3 CALLDATALOAD SWAP1 POP PUSH8 0xFFFFFFFFFFFFFFFF DUP2 GT ISZERO PUSH2 0x11F8 JUMPI PUSH2 0x11F7 PUSH2 0x11BE JUMP JUMPDEST JUMPDEST PUSH1 0x20 DUP4 ADD SWAP2 POP DUP4 PUSH1 0x1 DUP3 MUL DUP4 ADD GT ISZERO PUSH2 0x1214 JUMPI PUSH2 0x1213 PUSH2 0x11C2 JUMP JUMPDEST JUMPDEST SWAP3 POP SWAP3 SWAP1 POP JUMP JUMPDEST PUSH0 PUSH0 PUSH1 0x20 DUP4 DUP6 SUB SLT ISZERO PUSH2 0x1231 JUMPI PUSH2 0x1230 PUSH2 0x11B2 JUMP JUMPDEST JUMPDEST PUSH0 DUP4 ADD CALLDATALOAD PUSH8 0xFFFFFFFFFFFFFFFF DUP2 GT ISZERO PUSH2 0x124E JUMPI PUSH2 0x124D PUSH2 0x11B6 JUMP JUMPDEST JUMPDEST PUSH2 0x125A DUP6 DUP3 DUP7 ADD PUSH2 0x11C6 JUMP JUMPDEST SWAP3 POP SWAP3 POP POP SWAP3 POP SWAP3 SWAP1 POP JUMP JUMPDEST PUSH0 PUSH20 0xFFFFFFFFFFFFFFFFFFFFFFFFFFFFFFFFFFFFFFFF DUP3 AND SWAP1 POP SWAP2 SWAP1 POP JUMP JUMPDEST PUSH0 PUSH2 0x128F DUP3 PUSH2 0x1266 JUMP JUMPDEST SWAP1 POP SWAP2 SWAP1 POP JUMP JUMPDEST PUSH2 0x129F DUP2 PUSH2 0x1285 JUMP JUMPDEST DUP2 EQ PUSH2 0x12A9 JUMPI PUSH0 PUSH0 REVERT JUMPDEST POP JUMP JUMPDEST PUSH0 DUP2 CALLDATALOAD SWAP1 POP PUSH2 0x12BA DUP2 PUSH2 0x1296 JUMP JUMPDEST SWAP3 SWAP2 POP POP JUMP JUMPDEST PUSH0 PUSH1 0x20 DUP3 DUP5 SUB SLT ISZERO PUSH2 0x12D5 JUMPI PUSH2 0x12D4 PUSH2 0x11B2 JUMP JUMPDEST JUMPDEST PUSH0 PUSH2 0x12E2 DUP5 DUP3 DUP6 ADD PUSH2 0x12AC JUMP JUMPDEST SWAP2 POP POP SWAP3 SWAP2 POP POP JUMP JUMPDEST PUSH2 0x12F4 DUP2 PUSH2 0x1285 JUMP JUMPDEST DUP3 MSTORE POP POP JUMP JUMPDEST PUSH0 PUSH1 0x20 DUP3 ADD SWAP1 POP PUSH2 0x130D PUSH0 DUP4 ADD DUP5 PUSH2 0x12EB JUMP JUMPDEST SWAP3 SWAP2 POP POP JUMP JUMPDEST PUSH0 DUP2 MLOAD SWAP1 POP SWAP2 SWAP1 POP JUMP JUMPDEST PUSH0 DUP3 DUP3 MSTORE PUSH1 0x20 DUP3 ADD SWAP1 POP SWAP3 SWAP2 POP POP JUMP JUMPDEST PUSH0 DUP2 SWAP1 POP PUSH1 0x20 DUP3 ADD SWAP1 POP SWAP2 SWAP1 POP JUMP JUMPDEST PUSH0 DUP2 MLOAD SWAP1 POP SWAP2 SWAP1 POP JUMP JUMPDEST PUSH0 DUP3 DUP3 MSTORE PUSH1 0x20 DUP3 ADD SWAP1 POP SWAP3 SWAP2 POP POP JUMP JUMPDEST DUP3 DUP2 DUP4 MCOPY PUSH0 DUP4 DUP4 ADD MSTORE POP POP POP JUMP JUMPDEST PUSH0 PUSH1 0x1F NOT PUSH1 0x1F DUP4 ADD AND SWAP1 POP SWAP2 SWAP1 POP JUMP JUMPDEST PUSH0 PUSH2 0x137E DUP3 PUSH2 0x133C JUMP JUMPDEST PUSH2 0x1388 DUP2 DUP6 PUSH2 0x1346 JUMP JUMPDEST SWAP4 POP PUSH2 0x1398 DUP2 DUP6 PUSH1 0x20 DUP7 ADD PUSH2 0x1356 JUMP JUMPDEST PUSH2 0x13A1 DUP2 PUSH2 0x1364 JUMP JUMPDEST DUP5 ADD SWAP2 POP POP SWAP3 SWAP2 POP POP JUMP JUMPDEST PUSH0 DUP2 SWAP1 POP SWAP2 SWAP1 POP JUMP JUMPDEST PUSH2 0x13BE DUP2 PUSH2 0x13AC JUMP JUMPDEST DUP3 MSTORE POP POP JUMP JUMPDEST PUSH0 PUSH1 0x40 DUP4 ADD PUSH0 DUP4 ADD MLOAD DUP5 DUP3 SUB PUSH0 DUP7 ADD MSTORE PUSH2 0x13DE DUP3 DUP3 PUSH2 0x1374 JUMP JUMPDEST SWAP2 POP POP PUSH1 0x20 DUP4 ADD MLOAD PUSH2 0x13F3 PUSH1 0x20 DUP7 ADD DUP3 PUSH2 0x13B5 JUMP JUMPDEST POP DUP1 SWAP2 POP POP SWAP3 SWAP2 POP POP JUMP JUMPDEST PUSH0 PUSH2 0x1409 DUP4 DUP4 PUSH2 0x13C4 JUMP JUMPDEST SWAP1 POP SWAP3 SWAP2 POP POP JUMP JUMPDEST PUSH0 PUSH1 0x20 DUP3 ADD SWAP1 POP SWAP2 SWAP1 POP JUMP JUMPDEST PUSH0 PUSH2 0x1427 DUP3 PUSH2 0x1313 JUMP JUMPDEST PUSH2 0x1431 DUP2 DUP6 PUSH2 0x131D JUMP JUMPDEST SWAP4 POP DUP4 PUSH1 0x20 DUP3 MUL DUP6 ADD PUSH2 0x1443 DUP6 PUSH2 0x132D JUMP JUMPDEST DUP1 PUSH0 JUMPDEST DUP6 DUP2 LT ISZERO PUSH2 0x147E JUMPI DUP5 DUP5 SUB DUP10 MSTORE DUP2 MLOAD PUSH2 0x145F DUP6 DUP3 PUSH2 0x13FE JUMP JUMPDEST SWAP5 POP PUSH2 0x146A DUP4 PUSH2 0x1411 JUMP JUMPDEST SWAP3 POP PUSH1 0x20 DUP11 ADD SWAP10 POP POP PUSH1 0x1 DUP2 ADD SWAP1 POP PUSH2 0x1446 JUMP JUMPDEST POP DUP3 SWAP8 POP DUP8 SWAP6 POP POP POP POP POP POP SWAP3 SWAP2 POP POP JUMP JUMPDEST PUSH0 PUSH1 0x20 DUP3 ADD SWAP1 POP DUP2 DUP2 SUB PUSH0 DUP4 ADD MSTORE PUSH2 0x14A8 DUP2 DUP5 PUSH2 0x141D JUMP JUMPDEST SWAP1 POP SWAP3 SWAP2 POP POP JUMP JUMPDEST PUSH2 0x14B9 DUP2 PUSH2 0x13AC JUMP JUMPDEST DUP2 EQ PUSH2 0x14C3 JUMPI PUSH0 PUSH0 REVERT JUMPDEST POP JUMP JUMPDEST PUSH0 DUP2 CALLDATALOAD SWAP1 POP PUSH2 0x14D4 DUP2 PUSH2 0x14B0 JUMP JUMPDEST SWAP3 SWAP2 POP POP JUMP JUMPDEST PUSH0 PUSH1 0x20 DUP3 DUP5 SUB SLT ISZERO PUSH2 0x14EF JUMPI PUSH2 0x14EE PUSH2 0x11B2 JUMP JUMPDEST JUMPDEST PUSH0 PUSH2 0x14FC DUP5 DUP3 DUP6 ADD PUSH2 0x14C6 JUMP JUMPDEST SWAP2 POP POP SWAP3 SWAP2 POP POP JUMP JUMPDEST PUSH32 0x4E487B7100000000000000000000000000000000000000000000000000000000 PUSH0 MSTORE PUSH1 0x21 PUSH1 0x4 MSTORE PUSH1 0x24 PUSH0 REVERT JUMPDEST PUSH0 DUP3 DUP3 MSTORE PUSH1 0x20 DUP3 ADD SWAP1 POP SWAP3 SWAP2 POP POP JUMP JUMPDEST PUSH32 0x4E6F74207468652074696D6520666F7220746869732100000000000000000000 PUSH0 DUP3 ADD MSTORE POP JUMP JUMPDEST PUSH0 PUSH2 0x1576 PUSH1 0x16 DUP4 PUSH2 0x1532 JUMP JUMPDEST SWAP2 POP PUSH2 0x1581 DUP3 PUSH2 0x1542 JUMP JUMPDEST PUSH1 0x20 DUP3 ADD SWAP1 POP SWAP2 SWAP1 POP JUMP JUMPDEST PUSH0 PUSH1 0x20 DUP3 ADD SWAP1 POP DUP2 DUP2 SUB PUSH0 DUP4 ADD MSTORE PUSH2 0x15A3 DUP2 PUSH2 0x156A JUMP JUMPDEST SWAP1 POP SWAP2 SWAP1 POP JUMP JUMPDEST PUSH1 0x6 DUP2 LT PUSH2 0x15BB JUMPI PUSH2 0x15BA PUSH2 0x1505 JUMP JUMPDEST JUMPDEST POP JUMP JUMPDEST PUSH0 DUP2 SWAP1 POP PUSH2 0x15CB DUP3 PUSH2 0x15AA JUMP JUMPDEST SWAP2 SWAP1 POP JUMP JUMPDEST PUSH0 PUSH2 0x15DA DUP3 PUSH2 0x15BE JUMP JUMPDEST SWAP1 POP SWAP2 SWAP1 POP JUMP JUMPDEST PUSH2 0x15EA DUP2 PUSH2 0x15D0 JUMP JUMPDEST DUP3 MSTORE POP POP JUMP JUMPDEST PUSH0 PUSH1 0x40 DUP3 ADD SWAP1 POP PUSH2 0x1603 PUSH0 DUP4 ADD DUP6 PUSH2 0x15E1 JUMP JUMPDEST PUSH2 0x1610 PUSH1 0x20 DUP4 ADD DUP5 PUSH2 0x15E1 JUMP JUMPDEST SWAP4 SWAP3 POP POP POP JUMP JUMPDEST PUSH32 0x54686520766F746572206973206E6F74207265676973746572656420696E2074 PUSH0 DUP3 ADD MSTORE PUSH32 0x686520766F7465727357686974656C6973740000000000000000000000000000 PUSH1 0x20 DUP3 ADD MSTORE POP JUMP JUMPDEST PUSH0 PUSH2 0x1671 PUSH1 0x32 DUP4 PUSH2 0x1532 JUMP JUMPDEST SWAP2 POP PUSH2 0x167C DUP3 PUSH2 0x1617 JUMP JUMPDEST PUSH1 0x40 DUP3 ADD SWAP1 POP SWAP2 SWAP1 POP JUMP JUMPDEST PUSH0 PUSH1 0x20 DUP3 ADD SWAP1 POP DUP2 DUP2 SUB PUSH0 DUP4 ADD MSTORE PUSH2 0x169E DUP2 PUSH2 0x1665 JUMP JUMPDEST SWAP1 POP SWAP2 SWAP1 POP JUMP JUMPDEST PUSH32 0x4E487B7100000000000000000000000000000000000000000000000000000000 PUSH0 MSTORE PUSH1 0x41 PUSH1 0x4 MSTORE PUSH1 0x24 PUSH0 REVERT JUMPDEST PUSH32 0x4E487B7100000000000000000000000000000000000000000000000000000000 PUSH0 MSTORE PUSH1 0x22 PUSH1 0x4 MSTORE PUSH1 0x24 PUSH0 REVERT JUMPDEST PUSH0 PUSH1 0x2 DUP3 DIV SWAP1 POP PUSH1 0x1 DUP3 AND DUP1 PUSH2 0x1716 JUMPI PUSH1 0x7F DUP3 AND SWAP2 POP JUMPDEST PUSH1 0x20 DUP3 LT DUP2 SUB PUSH2 0x1729 JUMPI PUSH2 0x1728 PUSH2 0x16D2 JUMP JUMPDEST JUMPDEST POP SWAP2 SWAP1 POP JUMP JUMPDEST PUSH0 DUP2 SWAP1 POP DUP2 PUSH0 MSTORE PUSH1 0x20 PUSH0 KECCAK256 SWAP1 POP SWAP2 SWAP1 POP JUMP JUMPDEST PUSH0 PUSH1 0x20 PUSH1 0x1F DUP4 ADD DIV SWAP1 POP SWAP2 SWAP1 POP JUMP JUMPDEST PUSH0 DUP3 DUP3 SHL SWAP1 POP SWAP3 SWAP2 POP POP JUMP JUMPDEST PUSH0 PUSH1 0x8 DUP4 MUL PUSH2 0x178B PUSH32 0xFFFFFFFFFFFFFFFFFFFFFFFFFFFFFFFFFFFFFFFFFFFFFFFFFFFFFFFFFFFFFFFF DUP3 PUSH2 0x1750 JUMP JUMPDEST PUSH2 0x1795 DUP7 DUP4 PUSH2 0x1750 JUMP JUMPDEST SWAP6 POP DUP1 NOT DUP5 AND SWAP4 POP DUP1 DUP7 AND DUP5 OR SWAP3 POP POP POP SWAP4 SWAP3 POP POP POP JUMP JUMPDEST PUSH0 DUP2 SWAP1 POP SWAP2 SWAP1 POP JUMP JUMPDEST PUSH0 PUSH2 0x17D0 PUSH2 0x17CB PUSH2 0x17C6 DUP5 PUSH2 0x13AC JUMP JUMPDEST PUSH2 0x17AD JUMP JUMPDEST PUSH2 0x13AC JUMP JUMPDEST SWAP1 POP SWAP2 SWAP1 POP JUMP JUMPDEST PUSH0 DUP2 SWAP1 POP SWAP2 SWAP1 POP JUMP JUMPDEST PUSH2 0x17E9 DUP4 PUSH2 0x17B6 JUMP JUMPDEST PUSH2 0x17FD PUSH2 0x17F5 DUP3 PUSH2 0x17D7 JUMP JUMPDEST DUP5 DUP5 SLOAD PUSH2 0x175C JUMP JUMPDEST DUP3 SSTORE POP POP POP POP JUMP JUMPDEST PUSH0 PUSH0 SWAP1 POP SWAP1 JUMP JUMPDEST PUSH2 0x1814 PUSH2 0x1805 JUMP JUMPDEST PUSH2 0x181F DUP2 DUP5 DUP5 PUSH2 0x17E0 JUMP JUMPDEST POP POP POP JUMP JUMPDEST JUMPDEST DUP2 DUP2 LT ISZERO PUSH2 0x1842 JUMPI PUSH2 0x1837 PUSH0 DUP3 PUSH2 0x180C JUMP JUMPDEST PUSH1 0x1 DUP2 ADD SWAP1 POP PUSH2 0x1825 JUMP JUMPDEST POP POP JUMP JUMPDEST PUSH1 0x1F DUP3 GT ISZERO PUSH2 0x1887 JUMPI PUSH2 0x1858 DUP2 PUSH2 0x172F JUMP JUMPDEST PUSH2 0x1861 DUP5 PUSH2 0x1741 JUMP JUMPDEST DUP2 ADD PUSH1 0x20 DUP6 LT ISZERO PUSH2 0x1870 JUMPI DUP2 SWAP1 POP JUMPDEST PUSH2 0x1884 PUSH2 0x187C DUP6 PUSH2 0x1741 JUMP JUMPDEST DUP4 ADD DUP3 PUSH2 0x1824 JUMP JUMPDEST POP POP JUMPDEST POP POP POP JUMP JUMPDEST PUSH0 DUP3 DUP3 SHR SWAP1 POP SWAP3 SWAP2 POP POP JUMP JUMPDEST PUSH0 PUSH2 0x18A7 PUSH0 NOT DUP5 PUSH1 0x8 MUL PUSH2 0x188C JUMP JUMPDEST NOT DUP1 DUP4 AND SWAP2 POP POP SWAP3 SWAP2 POP POP JUMP JUMPDEST PUSH0 PUSH2 0x18BF DUP4 DUP4 PUSH2 0x1898 JUMP JUMPDEST SWAP2 POP DUP3 PUSH1 0x2 MUL DUP3 OR SWAP1 POP SWAP3 SWAP2 POP POP JUMP JUMPDEST PUSH2 0x18D8 DUP3 PUSH2 0x133C JUMP JUMPDEST PUSH8 0xFFFFFFFFFFFFFFFF DUP2 GT ISZERO PUSH2 0x18F1 JUMPI PUSH2 0x18F0 PUSH2 0x16A5 JUMP JUMPDEST JUMPDEST PUSH2 0x18FB DUP3 SLOAD PUSH2 0x16FF JUMP JUMPDEST PUSH2 0x1906 DUP3 DUP3 DUP6 PUSH2 0x1846 JUMP JUMPDEST PUSH0 PUSH1 0x20 SWAP1 POP PUSH1 0x1F DUP4 GT PUSH1 0x1 DUP2 EQ PUSH2 0x1937 JUMPI PUSH0 DUP5 ISZERO PUSH2 0x1925 JUMPI DUP3 DUP8 ADD MLOAD SWAP1 POP JUMPDEST PUSH2 0x192F DUP6 DUP3 PUSH2 0x18B4 JUMP JUMPDEST DUP7 SSTORE POP PUSH2 0x1996 JUMP JUMPDEST PUSH1 0x1F NOT DUP5 AND PUSH2 0x1945 DUP7 PUSH2 0x172F JUMP JUMPDEST PUSH0 JUMPDEST DUP3 DUP2 LT ISZERO PUSH2 0x196C JUMPI DUP5 DUP10 ADD MLOAD DUP3 SSTORE PUSH1 0x1 DUP3 ADD SWAP2 POP PUSH1 0x20 DUP6 ADD SWAP5 POP PUSH1 0x20 DUP2 ADD SWAP1 POP PUSH2 0x1947 JUMP JUMPDEST DUP7 DUP4 LT ISZERO PUSH2 0x1989 JUMPI DUP5 DUP10 ADD MLOAD PUSH2 0x1985 PUSH1 0x1F DUP10 AND DUP3 PUSH2 0x1898 JUMP JUMPDEST DUP4 SSTORE POP JUMPDEST PUSH1 0x1 PUSH1 0x2 DUP9 MUL ADD DUP9 SSTORE POP POP POP JUMPDEST POP POP POP POP POP POP JUMP JUMPDEST PUSH32 0x4E487B7100000000000000000000000000000000000000000000000000000000 PUSH0 MSTORE PUSH1 0x11 PUSH1 0x4 MSTORE PUSH1 0x24 PUSH0 REVERT JUMPDEST PUSH0 PUSH2 0x19D5 DUP3 PUSH2 0x13AC JUMP JUMPDEST SWAP2 POP PUSH2 0x19E0 DUP4 PUSH2 0x13AC JUMP JUMPDEST SWAP3 POP DUP3 DUP3 SUB SWAP1 POP DUP2 DUP2 GT ISZERO PUSH2 0x19F8 JUMPI PUSH2 0x19F7 PUSH2 0x199E JUMP JUMPDEST JUMPDEST SWAP3 SWAP2 POP POP JUMP JUMPDEST PUSH2 0x1A07 DUP2 PUSH2 0x13AC JUMP JUMPDEST DUP3 MSTORE POP POP JUMP JUMPDEST PUSH0 PUSH1 0x20 DUP3 ADD SWAP1 POP PUSH2 0x1A20 PUSH0 DUP4 ADD DUP5 PUSH2 0x19FE JUMP JUMPDEST SWAP3 SWAP2 POP POP JUMP JUMPDEST PUSH32 0x54686520766F74657220697320616C7265616479206F6E2074686520766F7465 PUSH0 DUP3 ADD MSTORE PUSH32 0x727357686974656C697374000000000000000000000000000000000000000000 PUSH1 0x20 DUP3 ADD MSTORE POP JUMP JUMPDEST PUSH0 PUSH2 0x1A80 PUSH1 0x2B DUP4 PUSH2 0x1532 JUMP JUMPDEST SWAP2 POP PUSH2 0x1A8B DUP3 PUSH2 0x1A26 JUMP JUMPDEST PUSH1 0x40 DUP3 ADD SWAP1 POP SWAP2 SWAP1 POP JUMP JUMPDEST PUSH0 PUSH1 0x20 DUP3 ADD SWAP1 POP DUP2 DUP2 SUB PUSH0 DUP4 ADD MSTORE PUSH2 0x1AAD DUP2 PUSH2 0x1A74 JUMP JUMPDEST SWAP1 POP SWAP2 SWAP1 POP JUMP JUMPDEST PUSH32 0x4E487B7100000000000000000000000000000000000000000000000000000000 PUSH0 MSTORE PUSH1 0x32 PUSH1 0x4 MSTORE PUSH1 0x24 PUSH0 REVERT JUMPDEST PUSH0 PUSH2 0x1AEB DUP3 PUSH2 0x13AC JUMP JUMPDEST SWAP2 POP PUSH32 0xFFFFFFFFFFFFFFFFFFFFFFFFFFFFFFFFFFFFFFFFFFFFFFFFFFFFFFFFFFFFFFFF DUP3 SUB PUSH2 0x1B1D JUMPI PUSH2 0x1B1C PUSH2 0x199E JUMP JUMPDEST JUMPDEST PUSH1 0x1 DUP3 ADD SWAP1 POP SWAP2 SWAP1 POP JUMP JUMPDEST PUSH32 0x54686520766F7465722068617320616C726561647920766F7465640000000000 PUSH0 DUP3 ADD MSTORE POP JUMP JUMPDEST PUSH0 PUSH2 0x1B5C PUSH1 0x1B DUP4 PUSH2 0x1532 JUMP JUMPDEST SWAP2 POP PUSH2 0x1B67 DUP3 PUSH2 0x1B28 JUMP JUMPDEST PUSH1 0x20 DUP3 ADD SWAP1 POP SWAP2 SWAP1 POP JUMP JUMPDEST PUSH0 PUSH1 0x20 DUP3 ADD SWAP1 POP DUP2 DUP2 SUB PUSH0 DUP4 ADD MSTORE PUSH2 0x1B89 DUP2 PUSH2 0x1B50 JUMP JUMPDEST SWAP1 POP SWAP2 SWAP1 POP JUMP JUMPDEST PUSH32 0x496E76616C69642070726F706F73616C20696400000000000000000000000000 PUSH0 DUP3 ADD MSTORE POP JUMP JUMPDEST PUSH0 PUSH2 0x1BC4 PUSH1 0x13 DUP4 PUSH2 0x1532 JUMP JUMPDEST SWAP2 POP PUSH2 0x1BCF DUP3 PUSH2 0x1B90 JUMP JUMPDEST PUSH1 0x20 DUP3 ADD SWAP1 POP SWAP2 SWAP1 POP JUMP JUMPDEST PUSH0 PUSH1 0x20 DUP3 ADD SWAP1 POP DUP2 DUP2 SUB PUSH0 DUP4 ADD MSTORE PUSH2 0x1BF1 DUP2 PUSH2 0x1BB8 JUMP JUMPDEST SWAP1 POP SWAP2 SWAP1 POP JUMP JUMPDEST PUSH0 PUSH1 0x40 DUP3 ADD SWAP1 POP PUSH2 0x1C0B PUSH0 DUP4 ADD DUP6 PUSH2 0x12EB JUMP JUMPDEST PUSH2 0x1C18 PUSH1 0x20 DUP4 ADD DUP5 PUSH2 0x19FE JUMP JUMPDEST SWAP4 SWAP3 POP POP POP JUMP INVALID LOG2 PUSH5 0x6970667358 0x22 SLT KECCAK256 DUP6 PUSH21 0xD8836451CA8C558FD1DFD2000E78661D4A31D47967 MSIZE CHAINID SWAP14 DUP7 MSTORE8 SWAP8 SGT PUSH22 0x3564736F6C634300081E003300000000000000000000 "
				},
				"gasEstimates": {
					"creation": {
						"codeDepositCost": "1450600",
						"executionCost": "infinite",
						"totalCost": "infinite"
					},
					"external": {
						"Vote(uint256)": "infinite",
						"getWinner()": "infinite",
						"owner()": "2514",
						"registerProposal(string)": "infinite",
						"registerVoter(address)": "infinite",
						"renounceOwnership()": "infinite",
						"startProposalRegistration()": "infinite",
						"startVotingSession()": "infinite",
						"stopProposalRegistration()": "infinite",
						"stopVotingSession()": "infinite",
						"transferOwnership(address)": "infinite",
						"votesTallied()": "infinite"
					}
				},
				"methodIdentifiers": {
					"Vote(uint256)": "dcd6a5cd",
					"getWinner()": "8e7ea5b2",
					"owner()": "8da5cb5b",
					"registerProposal(string)": "2f95355b",
					"registerVoter(address)": "38db6dd3",
					"renounceOwnership()": "715018a6",
					"startProposalRegistration()": "0f7e2838",
					"startVotingSession()": "ee74c678",
					"stopProposalRegistration()": "4abfba2b",
					"stopVotingSession()": "17a0ad8e",
					"transferOwnership(address)": "f2fde38b",
					"votesTallied()": "ada7415f"
				}
			},
			"storageLayout": {
				"storage": [
					{
						"astId": 447,
						"contract": "MyStuff/Projet 1/Voting.sol:Voting",
						"label": "_owner",
						"offset": 0,
						"slot": "0",
						"type": "t_address"
					},
					{
						"astId": 50,
						"contract": "MyStuff/Projet 1/Voting.sol:Voting",
						"label": "votersWhitelist",
						"offset": 0,
						"slot": "1",
						"type": "t_mapping(t_address,t_struct(Voter)11_storage)"
					},
					{
						"astId": 55,
						"contract": "MyStuff/Projet 1/Voting.sol:Voting",
						"label": "currentState",
						"offset": 0,
						"slot": "2",
						"type": "t_enum(WorkflowStatus)23"
					},
					{
						"astId": 59,
						"contract": "MyStuff/Projet 1/Voting.sol:Voting",
						"label": "proposals",
						"offset": 0,
						"slot": "3",
						"type": "t_array(t_struct(Proposal)16_storage)dyn_storage"
					}
				],
				"types": {
					"t_address": {
						"encoding": "inplace",
						"label": "address",
						"numberOfBytes": "20"
					},
					"t_array(t_struct(Proposal)16_storage)dyn_storage": {
						"base": "t_struct(Proposal)16_storage",
						"encoding": "dynamic_array",
						"label": "struct Voting.Proposal[]",
						"numberOfBytes": "32"
					},
					"t_bool": {
						"encoding": "inplace",
						"label": "bool",
						"numberOfBytes": "1"
					},
					"t_enum(WorkflowStatus)23": {
						"encoding": "inplace",
						"label": "enum Voting.WorkflowStatus",
						"numberOfBytes": "1"
					},
					"t_mapping(t_address,t_struct(Voter)11_storage)": {
						"encoding": "mapping",
						"key": "t_address",
						"label": "mapping(address => struct Voting.Voter)",
						"numberOfBytes": "32",
						"value": "t_struct(Voter)11_storage"
					},
					"t_string_storage": {
						"encoding": "bytes",
						"label": "string",
						"numberOfBytes": "32"
					},
					"t_struct(Proposal)16_storage": {
						"encoding": "inplace",
						"label": "struct Voting.Proposal",
						"members": [
							{
								"astId": 13,
								"contract": "MyStuff/Projet 1/Voting.sol:Voting",
								"label": "description",
								"offset": 0,
								"slot": "0",
								"type": "t_string_storage"
							},
							{
								"astId": 15,
								"contract": "MyStuff/Projet 1/Voting.sol:Voting",
								"label": "voteCount",
								"offset": 0,
								"slot": "1",
								"type": "t_uint256"
							}
						],
						"numberOfBytes": "64"
					},
					"t_struct(Voter)11_storage": {
						"encoding": "inplace",
						"label": "struct Voting.Voter",
						"members": [
							{
								"astId": 6,
								"contract": "MyStuff/Projet 1/Voting.sol:Voting",
								"label": "isRegistered",
								"offset": 0,
								"slot": "0",
								"type": "t_bool"
							},
							{
								"astId": 8,
								"contract": "MyStuff/Projet 1/Voting.sol:Voting",
								"label": "hasVoted",
								"offset": 1,
								"slot": "0",
								"type": "t_bool"
							},
							{
								"astId": 10,
								"contract": "MyStuff/Projet 1/Voting.sol:Voting",
								"label": "votedProposalId",
								"offset": 0,
								"slot": "1",
								"type": "t_uint256"
							}
						],
						"numberOfBytes": "64"
					},
					"t_uint256": {
						"encoding": "inplace",
						"label": "uint256",
						"numberOfBytes": "32"
					}
				}
			},
			"userdoc": {
				"kind": "user",
				"methods": {},
				"version": 1
			}
		}
	}
}