{
	"MyStuff/Projet 1/VotingPlus.sol": {
		"VotingPlus": {
			"abi": [
				{
					"inputs": [],
					"stateMutability": "nonpayable",
					"type": "constructor"
				},
				{
					"inputs": [
						{
							"internalType": "address",
							"name": "owner",
							"type": "address"
						}
					],
					"name": "OwnableInvalidOwner",
					"type": "error"
				},
				{
					"inputs": [
						{
							"internalType": "address",
							"name": "account",
							"type": "address"
						}
					],
					"name": "OwnableUnauthorizedAccount",
					"type": "error"
				},
				{
					"anonymous": false,
					"inputs": [
						{
							"indexed": true,
							"internalType": "address",
							"name": "previousOwner",
							"type": "address"
						},
						{
							"indexed": true,
							"internalType": "address",
							"name": "newOwner",
							"type": "address"
						}
					],
					"name": "OwnershipTransferred",
					"type": "event"
				},
				{
					"anonymous": false,
					"inputs": [
						{
							"indexed": false,
							"internalType": "uint256",
							"name": "proposalId",
							"type": "uint256"
						}
					],
					"name": "ProposalRegistered",
					"type": "event"
				},
				{
					"anonymous": false,
					"inputs": [
						{
							"indexed": false,
							"internalType": "address",
							"name": "voter",
							"type": "address"
						},
						{
							"indexed": false,
							"internalType": "uint256",
							"name": "proposalId",
							"type": "uint256"
						}
					],
					"name": "Voted",
					"type": "event"
				},
				{
					"anonymous": false,
					"inputs": [
						{
							"indexed": false,
							"internalType": "address",
							"name": "voterAddress",
							"type": "address"
						}
					],
					"name": "VoterRegistered",
					"type": "event"
				},
				{
					"anonymous": false,
					"inputs": [
						{
							"indexed": false,
							"internalType": "enum VotingPlus.WorkflowStatus",
							"name": "previousStatus",
							"type": "uint8"
						},
						{
							"indexed": false,
							"internalType": "enum VotingPlus.WorkflowStatus",
							"name": "newStatus",
							"type": "uint8"
						}
					],
					"name": "WorkflowStatusChange",
					"type": "event"
				},
				{
					"inputs": [
						{
							"internalType": "uint256",
							"name": "_proposalId",
							"type": "uint256"
						}
					],
					"name": "Vote",
					"outputs": [],
					"stateMutability": "nonpayable",
					"type": "function"
				},
				{
					"inputs": [],
					"name": "getWinner",
					"outputs": [
						{
							"components": [
								{
									"internalType": "string",
									"name": "description",
									"type": "string"
								},
								{
									"internalType": "uint256",
									"name": "voteCount",
									"type": "uint256"
								}
							],
							"internalType": "struct VotingPlus.Proposal[]",
							"name": "",
							"type": "tuple[]"
						}
					],
					"stateMutability": "view",
					"type": "function"
				},
				{
					"inputs": [],
					"name": "owner",
					"outputs": [
						{
							"internalType": "address",
							"name": "",
							"type": "address"
						}
					],
					"stateMutability": "view",
					"type": "function"
				},
				{
					"inputs": [
						{
							"internalType": "string",
							"name": "_description",
							"type": "string"
						}
					],
					"name": "registerProposal",
					"outputs": [],
					"stateMutability": "nonpayable",
					"type": "function"
				},
				{
					"inputs": [
						{
							"internalType": "address",
							"name": "_voterAddress",
							"type": "address"
						}
					],
					"name": "registerVoter",
					"outputs": [],
					"stateMutability": "nonpayable",
					"type": "function"
				},
				{
					"inputs": [],
					"name": "renounceOwnership",
					"outputs": [],
					"stateMutability": "nonpayable",
					"type": "function"
				},
				{
					"inputs": [],
					"name": "startProposalRegistration",
					"outputs": [],
					"stateMutability": "nonpayable",
					"type": "function"
				},
				{
					"inputs": [],
					"name": "startVotingSession",
					"outputs": [],
					"stateMutability": "nonpayable",
					"type": "function"
				},
				{
					"inputs": [],
					"name": "stopProposalRegistration",
					"outputs": [],
					"stateMutability": "nonpayable",
					"type": "function"
				},
				{
					"inputs": [],
					"name": "stopVotingSession",
					"outputs": [],
					"stateMutability": "nonpayable",
					"type": "function"
				},
				{
					"inputs": [
						{
							"internalType": "address",
							"name": "newOwner",
							"type": "address"
						}
					],
					"name": "transferOwnership",
					"outputs": [],
					"stateMutability": "nonpayable",
					"type": "function"
				},
				{
					"inputs": [],
					"name": "votesTallied",
					"outputs": [],
					"stateMutability": "nonpayable",
					"type": "function"
				}
			],
			"devdoc": {
				"errors": {
					"OwnableInvalidOwner(address)": [
						{
							"details": "The owner is not a valid owner account. (eg. `address(0)`)"
						}
					],
					"OwnableUnauthorizedAccount(address)": [
						{
							"details": "The caller account is not authorized to perform an operation."
						}
					]
				},
				"kind": "dev",
				"methods": {
					"owner()": {
						"details": "Returns the address of the current owner."
					},
					"renounceOwnership()": {
						"details": "Leaves the contract without owner. It will not be possible to call `onlyOwner` functions. Can only be called by the current owner. NOTE: Renouncing ownership will leave the contract without an owner, thereby disabling any functionality that is only available to the owner."
					},
					"transferOwnership(address)": {
						"details": "Transfers ownership of the contract to a new account (`newOwner`). Can only be called by the current owner."
					}
				},
				"version": 1
			},
			"evm": {
				"assembly": "    /* \"MyStuff/Projet 1/VotingPlus.sol\":173:7076  contract VotingPlus is Ownable {... */\n  mstore(0x40, 0x80)\n    /* \"MyStuff/Projet 1/VotingPlus.sol\":1213:1245  WorkflowStatus.RegisteringVoters */\n  0x00\n    /* \"MyStuff/Projet 1/VotingPlus.sol\":1183:1245  WorkflowStatus currentState = WorkflowStatus.RegisteringVoters */\n  0x02\n  exp(0x0100, 0x00)\n  dup2\n  sload\n  dup2\n  0xff\n  mul\n  not\n  and\n  swap1\n  dup4\n  0x05\n  dup2\n  gt\n  iszero\n  tag_1\n  jumpi\n  tag_2\n  tag_3\n  jump\t// in\ntag_2:\ntag_1:\n  mul\n  or\n  swap1\n  sstore\n  pop\n    /* \"MyStuff/Projet 1/VotingPlus.sol\":1625:1666  constructor() Ownable(msg.sender){... */\n  callvalue\n  dup1\n  iszero\n  tag_4\n  jumpi\n  revert(0x00, 0x00)\ntag_4:\n  pop\n    /* \"MyStuff/Projet 1/VotingPlus.sol\":1647:1657  msg.sender */\n  caller\n    /* \"https://github.com/OpenZeppelin/openzeppelin-contracts/blob/master/contracts/access/Ownable.sol\":1297:1298  0 */\n  0x00\n    /* \"https://github.com/OpenZeppelin/openzeppelin-contracts/blob/master/contracts/access/Ownable.sol\":1273:1299  initialOwner == address(0) */\n  0xffffffffffffffffffffffffffffffffffffffff\n  and\n    /* \"https://github.com/OpenZeppelin/openzeppelin-contracts/blob/master/contracts/access/Ownable.sol\":1273:1285  initialOwner */\n  dup2\n    /* \"https://github.com/OpenZeppelin/openzeppelin-contracts/blob/master/contracts/access/Ownable.sol\":1273:1299  initialOwner == address(0) */\n  0xffffffffffffffffffffffffffffffffffffffff\n  and\n  sub\n    /* \"https://github.com/OpenZeppelin/openzeppelin-contracts/blob/master/contracts/access/Ownable.sol\":1269:1364  if (initialOwner == address(0)) {... */\n  tag_8\n  jumpi\n    /* \"https://github.com/OpenZeppelin/openzeppelin-contracts/blob/master/contracts/access/Ownable.sol\":1350:1351  0 */\n  0x00\n    /* \"https://github.com/OpenZeppelin/openzeppelin-contracts/blob/master/contracts/access/Ownable.sol\":1322:1353  OwnableInvalidOwner(address(0)) */\n  mload(0x40)\n  0x1e4fbdf700000000000000000000000000000000000000000000000000000000\n  dup2\n  mstore\n  0x04\n  add\n  tag_9\n  swap2\n  swap1\n  tag_10\n  jump\t// in\ntag_9:\n  mload(0x40)\n  dup1\n  swap2\n  sub\n  swap1\n  revert\n    /* \"https://github.com/OpenZeppelin/openzeppelin-contracts/blob/master/contracts/access/Ownable.sol\":1269:1364  if (initialOwner == address(0)) {... */\ntag_8:\n    /* \"https://github.com/OpenZeppelin/openzeppelin-contracts/blob/master/contracts/access/Ownable.sol\":1373:1405  _transferOwnership(initialOwner) */\n  tag_11\n    /* \"https://github.com/OpenZeppelin/openzeppelin-contracts/blob/master/contracts/access/Ownable.sol\":1392:1404  initialOwner */\n  dup2\n    /* \"https://github.com/OpenZeppelin/openzeppelin-contracts/blob/master/contracts/access/Ownable.sol\":1373:1391  _transferOwnership */\n  shl(0x20, tag_12)\n    /* \"https://github.com/OpenZeppelin/openzeppelin-contracts/blob/master/contracts/access/Ownable.sol\":1373:1405  _transferOwnership(initialOwner) */\n  0x20\n  shr\n  jump\t// in\ntag_11:\n    /* \"https://github.com/OpenZeppelin/openzeppelin-contracts/blob/master/contracts/access/Ownable.sol\":1225:1412  constructor(address initialOwner) {... */\n  pop\n    /* \"MyStuff/Projet 1/VotingPlus.sol\":173:7076  contract VotingPlus is Ownable {... */\n  jump(tag_14)\n    /* \"https://github.com/OpenZeppelin/openzeppelin-contracts/blob/master/contracts/access/Ownable.sol\":2912:3099  function _transferOwnership(address newOwner) internal virtual {... */\ntag_12:\n    /* \"https://github.com/OpenZeppelin/openzeppelin-contracts/blob/master/contracts/access/Ownable.sol\":2985:3001  address oldOwner */\n  0x00\n    /* \"https://github.com/OpenZeppelin/openzeppelin-contracts/blob/master/contracts/access/Ownable.sol\":3004:3010  _owner */\n  0x00\n  0x00\n  swap1\n  sload\n  swap1\n  0x0100\n  exp\n  swap1\n  div\n  0xffffffffffffffffffffffffffffffffffffffff\n  and\n    /* \"https://github.com/OpenZeppelin/openzeppelin-contracts/blob/master/contracts/access/Ownable.sol\":2985:3010  address oldOwner = _owner */\n  swap1\n  pop\n    /* \"https://github.com/OpenZeppelin/openzeppelin-contracts/blob/master/contracts/access/Ownable.sol\":3029:3037  newOwner */\n  dup2\n    /* \"https://github.com/OpenZeppelin/openzeppelin-contracts/blob/master/contracts/access/Ownable.sol\":3020:3026  _owner */\n  0x00\n  0x00\n    /* \"https://github.com/OpenZeppelin/openzeppelin-contracts/blob/master/contracts/access/Ownable.sol\":3020:3037  _owner = newOwner */\n  0x0100\n  exp\n  dup2\n  sload\n  dup2\n  0xffffffffffffffffffffffffffffffffffffffff\n  mul\n  not\n  and\n  swap1\n  dup4\n  0xffffffffffffffffffffffffffffffffffffffff\n  and\n  mul\n  or\n  swap1\n  sstore\n  pop\n    /* \"https://github.com/OpenZeppelin/openzeppelin-contracts/blob/master/contracts/access/Ownable.sol\":3083:3091  newOwner */\n  dup2\n    /* \"https://github.com/OpenZeppelin/openzeppelin-contracts/blob/master/contracts/access/Ownable.sol\":3052:3092  OwnershipTransferred(oldOwner, newOwner) */\n  0xffffffffffffffffffffffffffffffffffffffff\n  and\n    /* \"https://github.com/OpenZeppelin/openzeppelin-contracts/blob/master/contracts/access/Ownable.sol\":3073:3081  oldOwner */\n  dup2\n    /* \"https://github.com/OpenZeppelin/openzeppelin-contracts/blob/master/contracts/access/Ownable.sol\":3052:3092  OwnershipTransferred(oldOwner, newOwner) */\n  0xffffffffffffffffffffffffffffffffffffffff\n  and\n  0x8be0079c531659141344cd1fd0a4f28419497f9722a3daafe3b4186f6b6457e0\n  mload(0x40)\n  mload(0x40)\n  dup1\n  swap2\n  sub\n  swap1\n  log3\n    /* \"https://github.com/OpenZeppelin/openzeppelin-contracts/blob/master/contracts/access/Ownable.sol\":2975:3099  {... */\n  pop\n    /* \"https://github.com/OpenZeppelin/openzeppelin-contracts/blob/master/contracts/access/Ownable.sol\":2912:3099  function _transferOwnership(address newOwner) internal virtual {... */\n  pop\n  jump\t// out\n    /* \"#utility.yul\":7:187   */\ntag_3:\n    /* \"#utility.yul\":55:132   */\n  0x4e487b7100000000000000000000000000000000000000000000000000000000\n    /* \"#utility.yul\":52:53   */\n  0x00\n    /* \"#utility.yul\":45:133   */\n  mstore\n    /* \"#utility.yul\":152:156   */\n  0x21\n    /* \"#utility.yul\":149:150   */\n  0x04\n    /* \"#utility.yul\":142:157   */\n  mstore\n    /* \"#utility.yul\":176:180   */\n  0x24\n    /* \"#utility.yul\":173:174   */\n  0x00\n    /* \"#utility.yul\":166:181   */\n  revert\n    /* \"#utility.yul\":193:319   */\ntag_16:\n    /* \"#utility.yul\":230:237   */\n  0x00\n    /* \"#utility.yul\":270:312   */\n  0xffffffffffffffffffffffffffffffffffffffff\n    /* \"#utility.yul\":263:268   */\n  dup3\n    /* \"#utility.yul\":259:313   */\n  and\n    /* \"#utility.yul\":248:313   */\n  swap1\n  pop\n    /* \"#utility.yul\":193:319   */\n  swap2\n  swap1\n  pop\n  jump\t// out\n    /* \"#utility.yul\":325:421   */\ntag_17:\n    /* \"#utility.yul\":362:369   */\n  0x00\n    /* \"#utility.yul\":391:415   */\n  tag_23\n    /* \"#utility.yul\":409:414   */\n  dup3\n    /* \"#utility.yul\":391:415   */\n  tag_16\n  jump\t// in\ntag_23:\n    /* \"#utility.yul\":380:415   */\n  swap1\n  pop\n    /* \"#utility.yul\":325:421   */\n  swap2\n  swap1\n  pop\n  jump\t// out\n    /* \"#utility.yul\":427:545   */\ntag_18:\n    /* \"#utility.yul\":514:538   */\n  tag_25\n    /* \"#utility.yul\":532:537   */\n  dup2\n    /* \"#utility.yul\":514:538   */\n  tag_17\n  jump\t// in\ntag_25:\n    /* \"#utility.yul\":509:512   */\n  dup3\n    /* \"#utility.yul\":502:539   */\n  mstore\n    /* \"#utility.yul\":427:545   */\n  pop\n  pop\n  jump\t// out\n    /* \"#utility.yul\":551:773   */\ntag_10:\n    /* \"#utility.yul\":644:648   */\n  0x00\n    /* \"#utility.yul\":682:684   */\n  0x20\n    /* \"#utility.yul\":671:680   */\n  dup3\n    /* \"#utility.yul\":667:685   */\n  add\n    /* \"#utility.yul\":659:685   */\n  swap1\n  pop\n    /* \"#utility.yul\":695:766   */\n  tag_27\n    /* \"#utility.yul\":763:764   */\n  0x00\n    /* \"#utility.yul\":752:761   */\n  dup4\n    /* \"#utility.yul\":748:765   */\n  add\n    /* \"#utility.yul\":739:745   */\n  dup5\n    /* \"#utility.yul\":695:766   */\n  tag_18\n  jump\t// in\ntag_27:\n    /* \"#utility.yul\":551:773   */\n  swap3\n  swap2\n  pop\n  pop\n  jump\t// out\n    /* \"MyStuff/Projet 1/VotingPlus.sol\":173:7076  contract VotingPlus is Ownable {... */\ntag_14:\n  dataSize(sub_0)\n  dup1\n  dataOffset(sub_0)\n  0x00\n  codecopy\n  0x00\n  return\nstop\n\nsub_0: assembly {\n        /* \"MyStuff/Projet 1/VotingPlus.sol\":173:7076  contract VotingPlus is Ownable {... */\n      mstore(0x40, 0x80)\n      callvalue\n      dup1\n      iszero\n      tag_1\n      jumpi\n      revert(0x00, 0x00)\n    tag_1:\n      pop\n      jumpi(tag_2, lt(calldatasize, 0x04))\n      shr(0xe0, calldataload(0x00))\n      dup1\n      0x8da5cb5b\n      gt\n      tag_15\n      jumpi\n      dup1\n      0x8da5cb5b\n      eq\n      tag_9\n      jumpi\n      dup1\n      0x8e7ea5b2\n      eq\n      tag_10\n      jumpi\n      dup1\n      0xada7415f\n      eq\n      tag_11\n      jumpi\n      dup1\n      0xdcd6a5cd\n      eq\n      tag_12\n      jumpi\n      dup1\n      0xee74c678\n      eq\n      tag_13\n      jumpi\n      dup1\n      0xf2fde38b\n      eq\n      tag_14\n      jumpi\n      jump(tag_2)\n    tag_15:\n      dup1\n      0x0f7e2838\n      eq\n      tag_3\n      jumpi\n      dup1\n      0x17a0ad8e\n      eq\n      tag_4\n      jumpi\n      dup1\n      0x2f95355b\n      eq\n      tag_5\n      jumpi\n      dup1\n      0x38db6dd3\n      eq\n      tag_6\n      jumpi\n      dup1\n      0x4abfba2b\n      eq\n      tag_7\n      jumpi\n      dup1\n      0x715018a6\n      eq\n      tag_8\n      jumpi\n    tag_2:\n      revert(0x00, 0x00)\n        /* \"MyStuff/Projet 1/VotingPlus.sol\":2923:3330  function startProposalRegistration() external onlyOwner authorizeAction(WorkflowStatus.RegisteringVoters){... */\n    tag_3:\n      tag_16\n      tag_17\n      jump\t// in\n    tag_16:\n      stop\n        /* \"MyStuff/Projet 1/VotingPlus.sol\":4133:4497  function stopVotingSession() external onlyOwner authorizeAction(WorkflowStatus.VotingSessionStarted) delayRespected{... */\n    tag_4:\n      tag_18\n      tag_19\n      jump\t// in\n    tag_18:\n      stop\n        /* \"MyStuff/Projet 1/VotingPlus.sol\":4897:5340  function registerProposal(string calldata _description) external authorizeAction(WorkflowStatus.ProposalsRegistrationStarted) isRegistered {... */\n    tag_5:\n      tag_20\n      0x04\n      dup1\n      calldatasize\n      sub\n      dup2\n      add\n      swap1\n      tag_21\n      swap2\n      swap1\n      tag_22\n      jump\t// in\n    tag_21:\n      tag_23\n      jump\t// in\n    tag_20:\n      stop\n        /* \"MyStuff/Projet 1/VotingPlus.sol\":2526:2866  function registerVoter(address _voterAddress) external onlyOwner authorizeAction(WorkflowStatus.RegisteringVoters){... */\n    tag_6:\n      tag_24\n      0x04\n      dup1\n      calldatasize\n      sub\n      dup2\n      add\n      swap1\n      tag_25\n      swap2\n      swap1\n      tag_26\n      jump\t// in\n    tag_25:\n      tag_27\n      jump\t// in\n    tag_24:\n      stop\n        /* \"MyStuff/Projet 1/VotingPlus.sol\":3336:3731  function stopProposalRegistration() external onlyOwner authorizeAction(WorkflowStatus.ProposalsRegistrationStarted) delayRespected{... */\n    tag_7:\n      tag_28\n      tag_29\n      jump\t// in\n    tag_28:\n      stop\n        /* \"https://github.com/OpenZeppelin/openzeppelin-contracts/blob/master/contracts/access/Ownable.sol\":2293:2394  function renounceOwnership() public virtual onlyOwner {... */\n    tag_8:\n      tag_30\n      tag_31\n      jump\t// in\n    tag_30:\n      stop\n        /* \"https://github.com/OpenZeppelin/openzeppelin-contracts/blob/master/contracts/access/Ownable.sol\":1638:1723  function owner() public view virtual returns (address) {... */\n    tag_9:\n      tag_32\n      tag_33\n      jump\t// in\n    tag_32:\n      mload(0x40)\n      tag_34\n      swap2\n      swap1\n      tag_35\n      jump\t// in\n    tag_34:\n      mload(0x40)\n      dup1\n      swap2\n      sub\n      swap1\n      return\n        /* \"MyStuff/Projet 1/VotingPlus.sol\":5930:7071  function getWinner() external view authorizeAction(WorkflowStatus.VotesTallied) returns(Proposal[] memory){... */\n    tag_10:\n      tag_36\n      tag_37\n      jump\t// in\n    tag_36:\n      mload(0x40)\n      tag_38\n      swap2\n      swap1\n      tag_39\n      jump\t// in\n    tag_38:\n      mload(0x40)\n      dup1\n      swap2\n      sub\n      swap1\n      return\n        /* \"MyStuff/Projet 1/VotingPlus.sol\":4503:4837  function votesTallied() external onlyOwner authorizeAction(WorkflowStatus.VotingSessionEnded){... */\n    tag_11:\n      tag_40\n      tag_41\n      jump\t// in\n    tag_40:\n      stop\n        /* \"MyStuff/Projet 1/VotingPlus.sol\":5372:5815  function Vote(uint _proposalId) external authorizeAction(WorkflowStatus.VotingSessionStarted) isRegistered {... */\n    tag_12:\n      tag_42\n      0x04\n      dup1\n      calldatasize\n      sub\n      dup2\n      add\n      swap1\n      tag_43\n      swap2\n      swap1\n      tag_44\n      jump\t// in\n    tag_43:\n      tag_45\n      jump\t// in\n    tag_42:\n      stop\n        /* \"MyStuff/Projet 1/VotingPlus.sol\":3737:4127  function startVotingSession() external onlyOwner authorizeAction(WorkflowStatus.ProposalsRegistrationEnded){... */\n    tag_13:\n      tag_46\n      tag_47\n      jump\t// in\n    tag_46:\n      stop\n        /* \"https://github.com/OpenZeppelin/openzeppelin-contracts/blob/master/contracts/access/Ownable.sol\":2543:2758  function transferOwnership(address newOwner) public virtual onlyOwner {... */\n    tag_14:\n      tag_48\n      0x04\n      dup1\n      calldatasize\n      sub\n      dup2\n      add\n      swap1\n      tag_49\n      swap2\n      swap1\n      tag_26\n      jump\t// in\n    tag_49:\n      tag_50\n      jump\t// in\n    tag_48:\n      stop\n        /* \"MyStuff/Projet 1/VotingPlus.sol\":2923:3330  function startProposalRegistration() external onlyOwner authorizeAction(WorkflowStatus.RegisteringVoters){... */\n    tag_17:\n        /* \"https://github.com/OpenZeppelin/openzeppelin-contracts/blob/master/contracts/access/Ownable.sol\":1531:1544  _checkOwner() */\n      tag_52\n        /* \"https://github.com/OpenZeppelin/openzeppelin-contracts/blob/master/contracts/access/Ownable.sol\":1531:1542  _checkOwner */\n      tag_53\n        /* \"https://github.com/OpenZeppelin/openzeppelin-contracts/blob/master/contracts/access/Ownable.sol\":1531:1544  _checkOwner() */\n      jump\t// in\n    tag_52:\n        /* \"MyStuff/Projet 1/VotingPlus.sol\":2995:3027  WorkflowStatus.RegisteringVoters */\n      0x00\n        /* \"MyStuff/Projet 1/VotingPlus.sol\":1899:1911  currentState */\n      0x02\n      0x00\n      swap1\n      sload\n      swap1\n      0x0100\n      exp\n      swap1\n      div\n      0xff\n      and\n        /* \"MyStuff/Projet 1/VotingPlus.sol\":1881:1911  _expectedState == currentState */\n      0x05\n      dup2\n      gt\n      iszero\n      tag_55\n      jumpi\n      tag_56\n      tag_57\n      jump\t// in\n    tag_56:\n    tag_55:\n        /* \"MyStuff/Projet 1/VotingPlus.sol\":1881:1895  _expectedState */\n      dup2\n        /* \"MyStuff/Projet 1/VotingPlus.sol\":1881:1911  _expectedState == currentState */\n      0x05\n      dup2\n      gt\n      iszero\n      tag_58\n      jumpi\n      tag_59\n      tag_57\n      jump\t// in\n    tag_59:\n    tag_58:\n      eq\n        /* \"MyStuff/Projet 1/VotingPlus.sol\":1873:1938  require(_expectedState == currentState, \"Not the time for this!\") */\n      tag_60\n      jumpi\n      mload(0x40)\n      0x08c379a000000000000000000000000000000000000000000000000000000000\n      dup2\n      mstore\n      0x04\n      add\n      tag_61\n      swap1\n      tag_62\n      jump\t// in\n    tag_61:\n      mload(0x40)\n      dup1\n      swap2\n      sub\n      swap1\n      revert\n    tag_60:\n        /* \"MyStuff/Projet 1/VotingPlus.sol\":3054:3097  WorkflowStatus.ProposalsRegistrationStarted */\n      0x01\n        /* \"MyStuff/Projet 1/VotingPlus.sol\":3039:3051  currentState */\n      0x02\n      0x00\n        /* \"MyStuff/Projet 1/VotingPlus.sol\":3039:3097  currentState = WorkflowStatus.ProposalsRegistrationStarted */\n      0x0100\n      exp\n      dup2\n      sload\n      dup2\n      0xff\n      mul\n      not\n      and\n      swap1\n      dup4\n      0x05\n      dup2\n      gt\n      iszero\n      tag_64\n      jumpi\n      tag_65\n      tag_57\n      jump\t// in\n    tag_65:\n    tag_64:\n      mul\n      or\n      swap1\n      sstore\n      pop\n        /* \"MyStuff/Projet 1/VotingPlus.sol\":3163:3169  1 days */\n      0x015180\n        /* \"MyStuff/Projet 1/VotingPlus.sol\":3145:3160  block.timestamp */\n      timestamp\n        /* \"MyStuff/Projet 1/VotingPlus.sol\":3145:3169  block.timestamp + 1 days */\n      tag_66\n      swap2\n      swap1\n      tag_67\n      jump\t// in\n    tag_66:\n        /* \"MyStuff/Projet 1/VotingPlus.sol\":3108:3142  nextStateChangeAuthorizedTimestamp */\n      0x03\n        /* \"MyStuff/Projet 1/VotingPlus.sol\":3108:3169  nextStateChangeAuthorizedTimestamp = block.timestamp + 1 days */\n      dup2\n      swap1\n      sstore\n      pop\n        /* \"MyStuff/Projet 1/VotingPlus.sol\":3254:3322  WorkflowStatusChange(WorkflowStatus.RegisteringVoters, currentState) */\n      0x0a97a4ee45751e2abf3e4fc8946939630b11b371ea8ae39ccdc3056e98f5cc3f\n        /* \"MyStuff/Projet 1/VotingPlus.sol\":3275:3307  WorkflowStatus.RegisteringVoters */\n      0x00\n        /* \"MyStuff/Projet 1/VotingPlus.sol\":3309:3321  currentState */\n      0x02\n      0x00\n      swap1\n      sload\n      swap1\n      0x0100\n      exp\n      swap1\n      div\n      0xff\n      and\n        /* \"MyStuff/Projet 1/VotingPlus.sol\":3254:3322  WorkflowStatusChange(WorkflowStatus.RegisteringVoters, currentState) */\n      mload(0x40)\n      tag_68\n      swap3\n      swap2\n      swap1\n      tag_69\n      jump\t// in\n    tag_68:\n      mload(0x40)\n      dup1\n      swap2\n      sub\n      swap1\n      log1\n        /* \"https://github.com/OpenZeppelin/openzeppelin-contracts/blob/master/contracts/access/Ownable.sol\":1554:1555  _ */\n      pop\n        /* \"MyStuff/Projet 1/VotingPlus.sol\":2923:3330  function startProposalRegistration() external onlyOwner authorizeAction(WorkflowStatus.RegisteringVoters){... */\n      jump\t// out\n        /* \"MyStuff/Projet 1/VotingPlus.sol\":4133:4497  function stopVotingSession() external onlyOwner authorizeAction(WorkflowStatus.VotingSessionStarted) delayRespected{... */\n    tag_19:\n        /* \"https://github.com/OpenZeppelin/openzeppelin-contracts/blob/master/contracts/access/Ownable.sol\":1531:1544  _checkOwner() */\n      tag_71\n        /* \"https://github.com/OpenZeppelin/openzeppelin-contracts/blob/master/contracts/access/Ownable.sol\":1531:1542  _checkOwner */\n      tag_53\n        /* \"https://github.com/OpenZeppelin/openzeppelin-contracts/blob/master/contracts/access/Ownable.sol\":1531:1544  _checkOwner() */\n      jump\t// in\n    tag_71:\n        /* \"MyStuff/Projet 1/VotingPlus.sol\":4197:4232  WorkflowStatus.VotingSessionStarted */\n      0x03\n        /* \"MyStuff/Projet 1/VotingPlus.sol\":1899:1911  currentState */\n      0x02\n      0x00\n      swap1\n      sload\n      swap1\n      0x0100\n      exp\n      swap1\n      div\n      0xff\n      and\n        /* \"MyStuff/Projet 1/VotingPlus.sol\":1881:1911  _expectedState == currentState */\n      0x05\n      dup2\n      gt\n      iszero\n      tag_73\n      jumpi\n      tag_74\n      tag_57\n      jump\t// in\n    tag_74:\n    tag_73:\n        /* \"MyStuff/Projet 1/VotingPlus.sol\":1881:1895  _expectedState */\n      dup2\n        /* \"MyStuff/Projet 1/VotingPlus.sol\":1881:1911  _expectedState == currentState */\n      0x05\n      dup2\n      gt\n      iszero\n      tag_75\n      jumpi\n      tag_76\n      tag_57\n      jump\t// in\n    tag_76:\n    tag_75:\n      eq\n        /* \"MyStuff/Projet 1/VotingPlus.sol\":1873:1938  require(_expectedState == currentState, \"Not the time for this!\") */\n      tag_77\n      jumpi\n      mload(0x40)\n      0x08c379a000000000000000000000000000000000000000000000000000000000\n      dup2\n      mstore\n      0x04\n      add\n      tag_78\n      swap1\n      tag_62\n      jump\t// in\n    tag_78:\n      mload(0x40)\n      dup1\n      swap2\n      sub\n      swap1\n      revert\n    tag_77:\n        /* \"MyStuff/Projet 1/VotingPlus.sol\":2342:2376  nextStateChangeAuthorizedTimestamp */\n      sload(0x03)\n        /* \"MyStuff/Projet 1/VotingPlus.sol\":2324:2339  block.timestamp */\n      timestamp\n        /* \"MyStuff/Projet 1/VotingPlus.sol\":2324:2376  block.timestamp > nextStateChangeAuthorizedTimestamp */\n      gt\n        /* \"MyStuff/Projet 1/VotingPlus.sol\":2316:2428  require(block.timestamp > nextStateChangeAuthorizedTimestamp, \"The delay for the state change is not respected\") */\n      tag_80\n      jumpi\n      mload(0x40)\n      0x08c379a000000000000000000000000000000000000000000000000000000000\n      dup2\n      mstore\n      0x04\n      add\n      tag_81\n      swap1\n      tag_82\n      jump\t// in\n    tag_81:\n      mload(0x40)\n      dup1\n      swap2\n      sub\n      swap1\n      revert\n    tag_80:\n        /* \"MyStuff/Projet 1/VotingPlus.sol\":4274:4307  WorkflowStatus.VotingSessionEnded */\n      0x04\n        /* \"MyStuff/Projet 1/VotingPlus.sol\":4259:4271  currentState */\n      0x02\n      0x00\n        /* \"MyStuff/Projet 1/VotingPlus.sol\":4259:4307  currentState = WorkflowStatus.VotingSessionEnded */\n      0x0100\n      exp\n      dup2\n      sload\n      dup2\n      0xff\n      mul\n      not\n      and\n      swap1\n      dup4\n      0x05\n      dup2\n      gt\n      iszero\n      tag_84\n      jumpi\n      tag_85\n      tag_57\n      jump\t// in\n    tag_85:\n    tag_84:\n      mul\n      or\n      swap1\n      sstore\n      pop\n        /* \"MyStuff/Projet 1/VotingPlus.sol\":4355:4356  0 */\n      0x00\n        /* \"MyStuff/Projet 1/VotingPlus.sol\":4318:4352  nextStateChangeAuthorizedTimestamp */\n      0x03\n        /* \"MyStuff/Projet 1/VotingPlus.sol\":4318:4356  nextStateChangeAuthorizedTimestamp = 0 */\n      dup2\n      swap1\n      sstore\n      pop\n        /* \"MyStuff/Projet 1/VotingPlus.sol\":4418:4489  WorkflowStatusChange(WorkflowStatus.VotingSessionStarted, currentState) */\n      0x0a97a4ee45751e2abf3e4fc8946939630b11b371ea8ae39ccdc3056e98f5cc3f\n        /* \"MyStuff/Projet 1/VotingPlus.sol\":4439:4474  WorkflowStatus.VotingSessionStarted */\n      0x03\n        /* \"MyStuff/Projet 1/VotingPlus.sol\":4476:4488  currentState */\n      0x02\n      0x00\n      swap1\n      sload\n      swap1\n      0x0100\n      exp\n      swap1\n      div\n      0xff\n      and\n        /* \"MyStuff/Projet 1/VotingPlus.sol\":4418:4489  WorkflowStatusChange(WorkflowStatus.VotingSessionStarted, currentState) */\n      mload(0x40)\n      tag_86\n      swap3\n      swap2\n      swap1\n      tag_69\n      jump\t// in\n    tag_86:\n      mload(0x40)\n      dup1\n      swap2\n      sub\n      swap1\n      log1\n        /* \"https://github.com/OpenZeppelin/openzeppelin-contracts/blob/master/contracts/access/Ownable.sol\":1554:1555  _ */\n      pop\n        /* \"MyStuff/Projet 1/VotingPlus.sol\":4133:4497  function stopVotingSession() external onlyOwner authorizeAction(WorkflowStatus.VotingSessionStarted) delayRespected{... */\n      jump\t// out\n        /* \"MyStuff/Projet 1/VotingPlus.sol\":4897:5340  function registerProposal(string calldata _description) external authorizeAction(WorkflowStatus.ProposalsRegistrationStarted) isRegistered {... */\n    tag_23:\n        /* \"MyStuff/Projet 1/VotingPlus.sol\":4978:5021  WorkflowStatus.ProposalsRegistrationStarted */\n      0x01\n        /* \"MyStuff/Projet 1/VotingPlus.sol\":1899:1911  currentState */\n      0x02\n      0x00\n      swap1\n      sload\n      swap1\n      0x0100\n      exp\n      swap1\n      div\n      0xff\n      and\n        /* \"MyStuff/Projet 1/VotingPlus.sol\":1881:1911  _expectedState == currentState */\n      0x05\n      dup2\n      gt\n      iszero\n      tag_88\n      jumpi\n      tag_89\n      tag_57\n      jump\t// in\n    tag_89:\n    tag_88:\n        /* \"MyStuff/Projet 1/VotingPlus.sol\":1881:1895  _expectedState */\n      dup2\n        /* \"MyStuff/Projet 1/VotingPlus.sol\":1881:1911  _expectedState == currentState */\n      0x05\n      dup2\n      gt\n      iszero\n      tag_90\n      jumpi\n      tag_91\n      tag_57\n      jump\t// in\n    tag_91:\n    tag_90:\n      eq\n        /* \"MyStuff/Projet 1/VotingPlus.sol\":1873:1938  require(_expectedState == currentState, \"Not the time for this!\") */\n      tag_92\n      jumpi\n      mload(0x40)\n      0x08c379a000000000000000000000000000000000000000000000000000000000\n      dup2\n      mstore\n      0x04\n      add\n      tag_93\n      swap1\n      tag_62\n      jump\t// in\n    tag_93:\n      mload(0x40)\n      dup1\n      swap2\n      sub\n      swap1\n      revert\n    tag_92:\n        /* \"MyStuff/Projet 1/VotingPlus.sol\":2083:2098  votersWhitelist */\n      0x01\n        /* \"MyStuff/Projet 1/VotingPlus.sol\":2083:2110  votersWhitelist[msg.sender] */\n      0x00\n        /* \"MyStuff/Projet 1/VotingPlus.sol\":2099:2109  msg.sender */\n      caller\n        /* \"MyStuff/Projet 1/VotingPlus.sol\":2083:2110  votersWhitelist[msg.sender] */\n      0xffffffffffffffffffffffffffffffffffffffff\n      and\n      0xffffffffffffffffffffffffffffffffffffffff\n      and\n      dup2\n      mstore\n      0x20\n      add\n      swap1\n      dup2\n      mstore\n      0x20\n      add\n      0x00\n      keccak256\n        /* \"MyStuff/Projet 1/VotingPlus.sol\":2083:2123  votersWhitelist[msg.sender].isRegistered */\n      0x00\n      add\n      0x00\n      swap1\n      sload\n      swap1\n      0x0100\n      exp\n      swap1\n      div\n      0xff\n      and\n        /* \"MyStuff/Projet 1/VotingPlus.sol\":2075:2178  require(votersWhitelist[msg.sender].isRegistered, \"The voter is not registered in the votersWhitelist\") */\n      tag_95\n      jumpi\n      mload(0x40)\n      0x08c379a000000000000000000000000000000000000000000000000000000000\n      dup2\n      mstore\n      0x04\n      add\n      tag_96\n      swap1\n      tag_97\n      jump\t// in\n    tag_96:\n      mload(0x40)\n      dup1\n      swap2\n      sub\n      swap1\n      revert\n    tag_95:\n        /* \"MyStuff/Projet 1/VotingPlus.sol\":5047:5074  Proposal memory newProposal */\n      0x00\n        /* \"MyStuff/Projet 1/VotingPlus.sol\":5077:5102  Proposal(_description, 0) */\n      mload(0x40)\n      dup1\n      0x40\n      add\n      0x40\n      mstore\n      dup1\n        /* \"MyStuff/Projet 1/VotingPlus.sol\":5086:5098  _description */\n      dup6\n      dup6\n        /* \"MyStuff/Projet 1/VotingPlus.sol\":5077:5102  Proposal(_description, 0) */\n      dup1\n      dup1\n      0x1f\n      add\n      0x20\n      dup1\n      swap2\n      div\n      mul\n      0x20\n      add\n      mload(0x40)\n      swap1\n      dup2\n      add\n      0x40\n      mstore\n      dup1\n      swap4\n      swap3\n      swap2\n      swap1\n      dup2\n      dup2\n      mstore\n      0x20\n      add\n      dup4\n      dup4\n      dup1\n      dup3\n      dup5\n      calldatacopy\n      0x00\n      dup2\n      dup5\n      add\n      mstore\n      not(0x1f)\n      0x1f\n      dup3\n      add\n      and\n      swap1\n      pop\n      dup1\n      dup4\n      add\n      swap3\n      pop\n      pop\n      pop\n      pop\n      pop\n      pop\n      pop\n      dup2\n      mstore\n      0x20\n      add\n        /* \"MyStuff/Projet 1/VotingPlus.sol\":5100:5101  0 */\n      0x00\n        /* \"MyStuff/Projet 1/VotingPlus.sol\":5077:5102  Proposal(_description, 0) */\n      dup2\n      mstore\n      pop\n        /* \"MyStuff/Projet 1/VotingPlus.sol\":5047:5102  Proposal memory newProposal = Proposal(_description, 0) */\n      swap1\n      pop\n        /* \"MyStuff/Projet 1/VotingPlus.sol\":5113:5122  proposals */\n      0x04\n        /* \"MyStuff/Projet 1/VotingPlus.sol\":5128:5139  newProposal */\n      dup2\n        /* \"MyStuff/Projet 1/VotingPlus.sol\":5113:5140  proposals.push(newProposal) */\n      swap1\n      dup1\n      0x01\n      dup2\n      sload\n      add\n      dup1\n      dup3\n      sstore\n      dup1\n      swap2\n      pop\n      pop\n      0x01\n      swap1\n      sub\n      swap1\n      0x00\n      mstore\n      keccak256(0x00, 0x20)\n      swap1\n      0x02\n      mul\n      add\n      0x00\n      swap1\n      swap2\n      swap1\n      swap2\n      swap1\n      swap2\n      pop\n      0x00\n      dup3\n      add\n      mload\n      dup2\n      0x00\n      add\n      swap1\n      dup2\n      tag_100\n      swap2\n      swap1\n      tag_101\n      jump\t// in\n    tag_100:\n      pop\n      0x20\n      dup3\n      add\n      mload\n      dup2\n      0x01\n      add\n      sstore\n      pop\n      pop\n        /* \"MyStuff/Projet 1/VotingPlus.sol\":5156:5201  ProposalRegistered(uint(proposals.length -1)) */\n      0x92e393e9b54e2f801d3ea4beb0c5e71a21cc34a5d34b77d0fb8a3aa1650dc18f\n        /* \"MyStuff/Projet 1/VotingPlus.sol\":5198:5199  1 */\n      0x01\n        /* \"MyStuff/Projet 1/VotingPlus.sol\":5180:5189  proposals */\n      0x04\n        /* \"MyStuff/Projet 1/VotingPlus.sol\":5180:5196  proposals.length */\n      dup1\n      sload\n      swap1\n      pop\n        /* \"MyStuff/Projet 1/VotingPlus.sol\":5180:5199  proposals.length -1 */\n      tag_102\n      swap2\n      swap1\n      tag_103\n      jump\t// in\n    tag_102:\n        /* \"MyStuff/Projet 1/VotingPlus.sol\":5156:5201  ProposalRegistered(uint(proposals.length -1)) */\n      mload(0x40)\n      tag_104\n      swap2\n      swap1\n      tag_105\n      jump\t// in\n    tag_104:\n      mload(0x40)\n      dup1\n      swap2\n      sub\n      swap1\n      log1\n        /* \"MyStuff/Projet 1/VotingPlus.sol\":5036:5340  {... */\n      pop\n        /* \"MyStuff/Projet 1/VotingPlus.sol\":4897:5340  function registerProposal(string calldata _description) external authorizeAction(WorkflowStatus.ProposalsRegistrationStarted) isRegistered {... */\n      pop\n      pop\n      pop\n      jump\t// out\n        /* \"MyStuff/Projet 1/VotingPlus.sol\":2526:2866  function registerVoter(address _voterAddress) external onlyOwner authorizeAction(WorkflowStatus.RegisteringVoters){... */\n    tag_27:\n        /* \"https://github.com/OpenZeppelin/openzeppelin-contracts/blob/master/contracts/access/Ownable.sol\":1531:1544  _checkOwner() */\n      tag_107\n        /* \"https://github.com/OpenZeppelin/openzeppelin-contracts/blob/master/contracts/access/Ownable.sol\":1531:1542  _checkOwner */\n      tag_53\n        /* \"https://github.com/OpenZeppelin/openzeppelin-contracts/blob/master/contracts/access/Ownable.sol\":1531:1544  _checkOwner() */\n      jump\t// in\n    tag_107:\n        /* \"MyStuff/Projet 1/VotingPlus.sol\":2607:2639  WorkflowStatus.RegisteringVoters */\n      0x00\n        /* \"MyStuff/Projet 1/VotingPlus.sol\":1899:1911  currentState */\n      0x02\n      0x00\n      swap1\n      sload\n      swap1\n      0x0100\n      exp\n      swap1\n      div\n      0xff\n      and\n        /* \"MyStuff/Projet 1/VotingPlus.sol\":1881:1911  _expectedState == currentState */\n      0x05\n      dup2\n      gt\n      iszero\n      tag_109\n      jumpi\n      tag_110\n      tag_57\n      jump\t// in\n    tag_110:\n    tag_109:\n        /* \"MyStuff/Projet 1/VotingPlus.sol\":1881:1895  _expectedState */\n      dup2\n        /* \"MyStuff/Projet 1/VotingPlus.sol\":1881:1911  _expectedState == currentState */\n      0x05\n      dup2\n      gt\n      iszero\n      tag_111\n      jumpi\n      tag_112\n      tag_57\n      jump\t// in\n    tag_112:\n    tag_111:\n      eq\n        /* \"MyStuff/Projet 1/VotingPlus.sol\":1873:1938  require(_expectedState == currentState, \"Not the time for this!\") */\n      tag_113\n      jumpi\n      mload(0x40)\n      0x08c379a000000000000000000000000000000000000000000000000000000000\n      dup2\n      mstore\n      0x04\n      add\n      tag_114\n      swap1\n      tag_62\n      jump\t// in\n    tag_114:\n      mload(0x40)\n      dup1\n      swap2\n      sub\n      swap1\n      revert\n    tag_113:\n        /* \"MyStuff/Projet 1/VotingPlus.sol\":2660:2675  votersWhitelist */\n      0x01\n        /* \"MyStuff/Projet 1/VotingPlus.sol\":2660:2690  votersWhitelist[_voterAddress] */\n      0x00\n        /* \"MyStuff/Projet 1/VotingPlus.sol\":2676:2689  _voterAddress */\n      dup4\n        /* \"MyStuff/Projet 1/VotingPlus.sol\":2660:2690  votersWhitelist[_voterAddress] */\n      0xffffffffffffffffffffffffffffffffffffffff\n      and\n      0xffffffffffffffffffffffffffffffffffffffff\n      and\n      dup2\n      mstore\n      0x20\n      add\n      swap1\n      dup2\n      mstore\n      0x20\n      add\n      0x00\n      keccak256\n        /* \"MyStuff/Projet 1/VotingPlus.sol\":2660:2703  votersWhitelist[_voterAddress].isRegistered */\n      0x00\n      add\n      0x00\n      swap1\n      sload\n      swap1\n      0x0100\n      exp\n      swap1\n      div\n      0xff\n      and\n        /* \"MyStuff/Projet 1/VotingPlus.sol\":2659:2703  !votersWhitelist[_voterAddress].isRegistered */\n      iszero\n        /* \"MyStuff/Projet 1/VotingPlus.sol\":2651:2751  require(!votersWhitelist[_voterAddress].isRegistered, \"The voter is already on the votersWhitelist\") */\n      tag_116\n      jumpi\n      mload(0x40)\n      0x08c379a000000000000000000000000000000000000000000000000000000000\n      dup2\n      mstore\n      0x04\n      add\n      tag_117\n      swap1\n      tag_118\n      jump\t// in\n    tag_117:\n      mload(0x40)\n      dup1\n      swap2\n      sub\n      swap1\n      revert\n    tag_116:\n        /* \"MyStuff/Projet 1/VotingPlus.sol\":2808:2812  true */\n      0x01\n        /* \"MyStuff/Projet 1/VotingPlus.sol\":2762:2777  votersWhitelist */\n      dup1\n        /* \"MyStuff/Projet 1/VotingPlus.sol\":2762:2792  votersWhitelist[_voterAddress] */\n      0x00\n        /* \"MyStuff/Projet 1/VotingPlus.sol\":2778:2791  _voterAddress */\n      dup5\n        /* \"MyStuff/Projet 1/VotingPlus.sol\":2762:2792  votersWhitelist[_voterAddress] */\n      0xffffffffffffffffffffffffffffffffffffffff\n      and\n      0xffffffffffffffffffffffffffffffffffffffff\n      and\n      dup2\n      mstore\n      0x20\n      add\n      swap1\n      dup2\n      mstore\n      0x20\n      add\n      0x00\n      keccak256\n        /* \"MyStuff/Projet 1/VotingPlus.sol\":2762:2805  votersWhitelist[_voterAddress].isRegistered */\n      0x00\n      add\n      0x00\n        /* \"MyStuff/Projet 1/VotingPlus.sol\":2762:2812  votersWhitelist[_voterAddress].isRegistered = true */\n      0x0100\n      exp\n      dup2\n      sload\n      dup2\n      0xff\n      mul\n      not\n      and\n      swap1\n      dup4\n      iszero\n      iszero\n      mul\n      or\n      swap1\n      sstore\n      pop\n        /* \"MyStuff/Projet 1/VotingPlus.sol\":2828:2858  VoterRegistered(_voterAddress) */\n      0xb6be2187d059cc2a55fe29e0e503b566e1e0f8c8780096e185429350acffd3dd\n        /* \"MyStuff/Projet 1/VotingPlus.sol\":2844:2857  _voterAddress */\n      dup3\n        /* \"MyStuff/Projet 1/VotingPlus.sol\":2828:2858  VoterRegistered(_voterAddress) */\n      mload(0x40)\n      tag_119\n      swap2\n      swap1\n      tag_35\n      jump\t// in\n    tag_119:\n      mload(0x40)\n      dup1\n      swap2\n      sub\n      swap1\n      log1\n        /* \"https://github.com/OpenZeppelin/openzeppelin-contracts/blob/master/contracts/access/Ownable.sol\":1554:1555  _ */\n      pop\n        /* \"MyStuff/Projet 1/VotingPlus.sol\":2526:2866  function registerVoter(address _voterAddress) external onlyOwner authorizeAction(WorkflowStatus.RegisteringVoters){... */\n      pop\n      jump\t// out\n        /* \"MyStuff/Projet 1/VotingPlus.sol\":3336:3731  function stopProposalRegistration() external onlyOwner authorizeAction(WorkflowStatus.ProposalsRegistrationStarted) delayRespected{... */\n    tag_29:\n        /* \"https://github.com/OpenZeppelin/openzeppelin-contracts/blob/master/contracts/access/Ownable.sol\":1531:1544  _checkOwner() */\n      tag_121\n        /* \"https://github.com/OpenZeppelin/openzeppelin-contracts/blob/master/contracts/access/Ownable.sol\":1531:1542  _checkOwner */\n      tag_53\n        /* \"https://github.com/OpenZeppelin/openzeppelin-contracts/blob/master/contracts/access/Ownable.sol\":1531:1544  _checkOwner() */\n      jump\t// in\n    tag_121:\n        /* \"MyStuff/Projet 1/VotingPlus.sol\":3407:3450  WorkflowStatus.ProposalsRegistrationStarted */\n      0x01\n        /* \"MyStuff/Projet 1/VotingPlus.sol\":1899:1911  currentState */\n      0x02\n      0x00\n      swap1\n      sload\n      swap1\n      0x0100\n      exp\n      swap1\n      div\n      0xff\n      and\n        /* \"MyStuff/Projet 1/VotingPlus.sol\":1881:1911  _expectedState == currentState */\n      0x05\n      dup2\n      gt\n      iszero\n      tag_123\n      jumpi\n      tag_124\n      tag_57\n      jump\t// in\n    tag_124:\n    tag_123:\n        /* \"MyStuff/Projet 1/VotingPlus.sol\":1881:1895  _expectedState */\n      dup2\n        /* \"MyStuff/Projet 1/VotingPlus.sol\":1881:1911  _expectedState == currentState */\n      0x05\n      dup2\n      gt\n      iszero\n      tag_125\n      jumpi\n      tag_126\n      tag_57\n      jump\t// in\n    tag_126:\n    tag_125:\n      eq\n        /* \"MyStuff/Projet 1/VotingPlus.sol\":1873:1938  require(_expectedState == currentState, \"Not the time for this!\") */\n      tag_127\n      jumpi\n      mload(0x40)\n      0x08c379a000000000000000000000000000000000000000000000000000000000\n      dup2\n      mstore\n      0x04\n      add\n      tag_128\n      swap1\n      tag_62\n      jump\t// in\n    tag_128:\n      mload(0x40)\n      dup1\n      swap2\n      sub\n      swap1\n      revert\n    tag_127:\n        /* \"MyStuff/Projet 1/VotingPlus.sol\":2342:2376  nextStateChangeAuthorizedTimestamp */\n      sload(0x03)\n        /* \"MyStuff/Projet 1/VotingPlus.sol\":2324:2339  block.timestamp */\n      timestamp\n        /* \"MyStuff/Projet 1/VotingPlus.sol\":2324:2376  block.timestamp > nextStateChangeAuthorizedTimestamp */\n      gt\n        /* \"MyStuff/Projet 1/VotingPlus.sol\":2316:2428  require(block.timestamp > nextStateChangeAuthorizedTimestamp, \"The delay for the state change is not respected\") */\n      tag_130\n      jumpi\n      mload(0x40)\n      0x08c379a000000000000000000000000000000000000000000000000000000000\n      dup2\n      mstore\n      0x04\n      add\n      tag_131\n      swap1\n      tag_82\n      jump\t// in\n    tag_131:\n      mload(0x40)\n      dup1\n      swap2\n      sub\n      swap1\n      revert\n    tag_130:\n        /* \"MyStuff/Projet 1/VotingPlus.sol\":3492:3533  WorkflowStatus.ProposalsRegistrationEnded */\n      0x02\n        /* \"MyStuff/Projet 1/VotingPlus.sol\":3477:3489  currentState */\n      dup1\n      0x00\n        /* \"MyStuff/Projet 1/VotingPlus.sol\":3477:3533  currentState = WorkflowStatus.ProposalsRegistrationEnded */\n      0x0100\n      exp\n      dup2\n      sload\n      dup2\n      0xff\n      mul\n      not\n      and\n      swap1\n      dup4\n      0x05\n      dup2\n      gt\n      iszero\n      tag_133\n      jumpi\n      tag_134\n      tag_57\n      jump\t// in\n    tag_134:\n    tag_133:\n      mul\n      or\n      swap1\n      sstore\n      pop\n        /* \"MyStuff/Projet 1/VotingPlus.sol\":3581:3582  0 */\n      0x00\n        /* \"MyStuff/Projet 1/VotingPlus.sol\":3544:3578  nextStateChangeAuthorizedTimestamp */\n      0x03\n        /* \"MyStuff/Projet 1/VotingPlus.sol\":3544:3582  nextStateChangeAuthorizedTimestamp = 0 */\n      dup2\n      swap1\n      sstore\n      pop\n        /* \"MyStuff/Projet 1/VotingPlus.sol\":3644:3723  WorkflowStatusChange(WorkflowStatus.ProposalsRegistrationStarted, currentState) */\n      0x0a97a4ee45751e2abf3e4fc8946939630b11b371ea8ae39ccdc3056e98f5cc3f\n        /* \"MyStuff/Projet 1/VotingPlus.sol\":3665:3708  WorkflowStatus.ProposalsRegistrationStarted */\n      0x01\n        /* \"MyStuff/Projet 1/VotingPlus.sol\":3710:3722  currentState */\n      0x02\n      0x00\n      swap1\n      sload\n      swap1\n      0x0100\n      exp\n      swap1\n      div\n      0xff\n      and\n        /* \"MyStuff/Projet 1/VotingPlus.sol\":3644:3723  WorkflowStatusChange(WorkflowStatus.ProposalsRegistrationStarted, currentState) */\n      mload(0x40)\n      tag_135\n      swap3\n      swap2\n      swap1\n      tag_69\n      jump\t// in\n    tag_135:\n      mload(0x40)\n      dup1\n      swap2\n      sub\n      swap1\n      log1\n        /* \"https://github.com/OpenZeppelin/openzeppelin-contracts/blob/master/contracts/access/Ownable.sol\":1554:1555  _ */\n      pop\n        /* \"MyStuff/Projet 1/VotingPlus.sol\":3336:3731  function stopProposalRegistration() external onlyOwner authorizeAction(WorkflowStatus.ProposalsRegistrationStarted) delayRespected{... */\n      jump\t// out\n        /* \"https://github.com/OpenZeppelin/openzeppelin-contracts/blob/master/contracts/access/Ownable.sol\":2293:2394  function renounceOwnership() public virtual onlyOwner {... */\n    tag_31:\n        /* \"https://github.com/OpenZeppelin/openzeppelin-contracts/blob/master/contracts/access/Ownable.sol\":1531:1544  _checkOwner() */\n      tag_137\n        /* \"https://github.com/OpenZeppelin/openzeppelin-contracts/blob/master/contracts/access/Ownable.sol\":1531:1542  _checkOwner */\n      tag_53\n        /* \"https://github.com/OpenZeppelin/openzeppelin-contracts/blob/master/contracts/access/Ownable.sol\":1531:1544  _checkOwner() */\n      jump\t// in\n    tag_137:\n        /* \"https://github.com/OpenZeppelin/openzeppelin-contracts/blob/master/contracts/access/Ownable.sol\":2357:2387  _transferOwnership(address(0)) */\n      tag_139\n        /* \"https://github.com/OpenZeppelin/openzeppelin-contracts/blob/master/contracts/access/Ownable.sol\":2384:2385  0 */\n      0x00\n        /* \"https://github.com/OpenZeppelin/openzeppelin-contracts/blob/master/contracts/access/Ownable.sol\":2357:2375  _transferOwnership */\n      tag_140\n        /* \"https://github.com/OpenZeppelin/openzeppelin-contracts/blob/master/contracts/access/Ownable.sol\":2357:2387  _transferOwnership(address(0)) */\n      jump\t// in\n    tag_139:\n        /* \"https://github.com/OpenZeppelin/openzeppelin-contracts/blob/master/contracts/access/Ownable.sol\":2293:2394  function renounceOwnership() public virtual onlyOwner {... */\n      jump\t// out\n        /* \"https://github.com/OpenZeppelin/openzeppelin-contracts/blob/master/contracts/access/Ownable.sol\":1638:1723  function owner() public view virtual returns (address) {... */\n    tag_33:\n        /* \"https://github.com/OpenZeppelin/openzeppelin-contracts/blob/master/contracts/access/Ownable.sol\":1684:1691  address */\n      0x00\n        /* \"https://github.com/OpenZeppelin/openzeppelin-contracts/blob/master/contracts/access/Ownable.sol\":1710:1716  _owner */\n      0x00\n      0x00\n      swap1\n      sload\n      swap1\n      0x0100\n      exp\n      swap1\n      div\n      0xffffffffffffffffffffffffffffffffffffffff\n      and\n        /* \"https://github.com/OpenZeppelin/openzeppelin-contracts/blob/master/contracts/access/Ownable.sol\":1703:1716  return _owner */\n      swap1\n      pop\n        /* \"https://github.com/OpenZeppelin/openzeppelin-contracts/blob/master/contracts/access/Ownable.sol\":1638:1723  function owner() public view virtual returns (address) {... */\n      swap1\n      jump\t// out\n        /* \"MyStuff/Projet 1/VotingPlus.sol\":5930:7071  function getWinner() external view authorizeAction(WorkflowStatus.VotesTallied) returns(Proposal[] memory){... */\n    tag_37:\n        /* \"MyStuff/Projet 1/VotingPlus.sol\":6018:6035  Proposal[] memory */\n      0x60\n        /* \"MyStuff/Projet 1/VotingPlus.sol\":5981:6008  WorkflowStatus.VotesTallied */\n      0x05\n        /* \"MyStuff/Projet 1/VotingPlus.sol\":1899:1911  currentState */\n      0x02\n      0x00\n      swap1\n      sload\n      swap1\n      0x0100\n      exp\n      swap1\n      div\n      0xff\n      and\n        /* \"MyStuff/Projet 1/VotingPlus.sol\":1881:1911  _expectedState == currentState */\n      0x05\n      dup2\n      gt\n      iszero\n      tag_143\n      jumpi\n      tag_144\n      tag_57\n      jump\t// in\n    tag_144:\n    tag_143:\n        /* \"MyStuff/Projet 1/VotingPlus.sol\":1881:1895  _expectedState */\n      dup2\n        /* \"MyStuff/Projet 1/VotingPlus.sol\":1881:1911  _expectedState == currentState */\n      0x05\n      dup2\n      gt\n      iszero\n      tag_145\n      jumpi\n      tag_146\n      tag_57\n      jump\t// in\n    tag_146:\n    tag_145:\n      eq\n        /* \"MyStuff/Projet 1/VotingPlus.sol\":1873:1938  require(_expectedState == currentState, \"Not the time for this!\") */\n      tag_147\n      jumpi\n      mload(0x40)\n      0x08c379a000000000000000000000000000000000000000000000000000000000\n      dup2\n      mstore\n      0x04\n      add\n      tag_148\n      swap1\n      tag_62\n      jump\t// in\n    tag_148:\n      mload(0x40)\n      dup1\n      swap2\n      sub\n      swap1\n      revert\n    tag_147:\n        /* \"MyStuff/Projet 1/VotingPlus.sol\":6124:6141  uint maxVoteCount */\n      0x00\n        /* \"MyStuff/Projet 1/VotingPlus.sol\":6144:6153  proposals */\n      0x04\n        /* \"MyStuff/Projet 1/VotingPlus.sol\":6154:6155  0 */\n      0x00\n        /* \"MyStuff/Projet 1/VotingPlus.sol\":6144:6156  proposals[0] */\n      dup2\n      sload\n      dup2\n      lt\n      tag_150\n      jumpi\n      tag_151\n      tag_152\n      jump\t// in\n    tag_151:\n    tag_150:\n      swap1\n      0x00\n      mstore\n      keccak256(0x00, 0x20)\n      swap1\n      0x02\n      mul\n      add\n        /* \"MyStuff/Projet 1/VotingPlus.sol\":6144:6166  proposals[0].voteCount */\n      0x01\n      add\n      sload\n        /* \"MyStuff/Projet 1/VotingPlus.sol\":6124:6166  uint maxVoteCount = proposals[0].voteCount */\n      swap1\n      pop\n        /* \"MyStuff/Projet 1/VotingPlus.sol\":6177:6190  uint topCount */\n      0x00\n        /* \"MyStuff/Projet 1/VotingPlus.sol\":6193:6194  1 */\n      0x01\n        /* \"MyStuff/Projet 1/VotingPlus.sol\":6177:6194  uint topCount = 1 */\n      swap1\n      pop\n        /* \"MyStuff/Projet 1/VotingPlus.sol\":6316:6322  uint i */\n      0x00\n        /* \"MyStuff/Projet 1/VotingPlus.sol\":6325:6326  1 */\n      0x01\n        /* \"MyStuff/Projet 1/VotingPlus.sol\":6316:6326  uint i = 1 */\n      swap1\n      pop\n        /* \"MyStuff/Projet 1/VotingPlus.sol\":6311:6622  for (uint i = 1; i < proposals.length; i++) {... */\n    tag_154:\n        /* \"MyStuff/Projet 1/VotingPlus.sol\":6332:6341  proposals */\n      0x04\n        /* \"MyStuff/Projet 1/VotingPlus.sol\":6332:6348  proposals.length */\n      dup1\n      sload\n      swap1\n      pop\n        /* \"MyStuff/Projet 1/VotingPlus.sol\":6328:6329  i */\n      dup2\n        /* \"MyStuff/Projet 1/VotingPlus.sol\":6328:6348  i < proposals.length */\n      lt\n        /* \"MyStuff/Projet 1/VotingPlus.sol\":6311:6622  for (uint i = 1; i < proposals.length; i++) {... */\n      iszero\n      tag_155\n      jumpi\n        /* \"MyStuff/Projet 1/VotingPlus.sol\":6399:6411  maxVoteCount */\n      dup3\n        /* \"MyStuff/Projet 1/VotingPlus.sol\":6374:6383  proposals */\n      0x04\n        /* \"MyStuff/Projet 1/VotingPlus.sol\":6384:6385  i */\n      dup3\n        /* \"MyStuff/Projet 1/VotingPlus.sol\":6374:6386  proposals[i] */\n      dup2\n      sload\n      dup2\n      lt\n      tag_157\n      jumpi\n      tag_158\n      tag_152\n      jump\t// in\n    tag_158:\n    tag_157:\n      swap1\n      0x00\n      mstore\n      keccak256(0x00, 0x20)\n      swap1\n      0x02\n      mul\n      add\n        /* \"MyStuff/Projet 1/VotingPlus.sol\":6374:6396  proposals[i].voteCount */\n      0x01\n      add\n      sload\n        /* \"MyStuff/Projet 1/VotingPlus.sol\":6374:6411  proposals[i].voteCount > maxVoteCount */\n      gt\n        /* \"MyStuff/Projet 1/VotingPlus.sol\":6370:6611  if (proposals[i].voteCount > maxVoteCount) {... */\n      iszero\n      tag_160\n      jumpi\n        /* \"MyStuff/Projet 1/VotingPlus.sol\":6447:6456  proposals */\n      0x04\n        /* \"MyStuff/Projet 1/VotingPlus.sol\":6457:6458  i */\n      dup2\n        /* \"MyStuff/Projet 1/VotingPlus.sol\":6447:6459  proposals[i] */\n      dup2\n      sload\n      dup2\n      lt\n      tag_161\n      jumpi\n      tag_162\n      tag_152\n      jump\t// in\n    tag_162:\n    tag_161:\n      swap1\n      0x00\n      mstore\n      keccak256(0x00, 0x20)\n      swap1\n      0x02\n      mul\n      add\n        /* \"MyStuff/Projet 1/VotingPlus.sol\":6447:6469  proposals[i].voteCount */\n      0x01\n      add\n      sload\n        /* \"MyStuff/Projet 1/VotingPlus.sol\":6432:6469  maxVoteCount = proposals[i].voteCount */\n      swap3\n      pop\n        /* \"MyStuff/Projet 1/VotingPlus.sol\":6499:6500  1 */\n      0x01\n        /* \"MyStuff/Projet 1/VotingPlus.sol\":6488:6500  topCount = 1 */\n      swap2\n      pop\n        /* \"MyStuff/Projet 1/VotingPlus.sol\":6370:6611  if (proposals[i].voteCount > maxVoteCount) {... */\n      jump(tag_164)\n    tag_160:\n        /* \"MyStuff/Projet 1/VotingPlus.sol\":6552:6564  maxVoteCount */\n      dup3\n        /* \"MyStuff/Projet 1/VotingPlus.sol\":6526:6535  proposals */\n      0x04\n        /* \"MyStuff/Projet 1/VotingPlus.sol\":6536:6537  i */\n      dup3\n        /* \"MyStuff/Projet 1/VotingPlus.sol\":6526:6538  proposals[i] */\n      dup2\n      sload\n      dup2\n      lt\n      tag_165\n      jumpi\n      tag_166\n      tag_152\n      jump\t// in\n    tag_166:\n    tag_165:\n      swap1\n      0x00\n      mstore\n      keccak256(0x00, 0x20)\n      swap1\n      0x02\n      mul\n      add\n        /* \"MyStuff/Projet 1/VotingPlus.sol\":6526:6548  proposals[i].voteCount */\n      0x01\n      add\n      sload\n        /* \"MyStuff/Projet 1/VotingPlus.sol\":6526:6564  proposals[i].voteCount == maxVoteCount */\n      sub\n        /* \"MyStuff/Projet 1/VotingPlus.sol\":6522:6611  if (proposals[i].voteCount == maxVoteCount) {... */\n      tag_168\n      jumpi\n        /* \"MyStuff/Projet 1/VotingPlus.sol\":6585:6595  topCount++ */\n      dup2\n      dup1\n      tag_169\n      swap1\n      tag_170\n      jump\t// in\n    tag_169:\n      swap3\n      pop\n      pop\n        /* \"MyStuff/Projet 1/VotingPlus.sol\":6522:6611  if (proposals[i].voteCount == maxVoteCount) {... */\n    tag_168:\n        /* \"MyStuff/Projet 1/VotingPlus.sol\":6370:6611  if (proposals[i].voteCount > maxVoteCount) {... */\n    tag_164:\n        /* \"MyStuff/Projet 1/VotingPlus.sol\":6350:6353  i++ */\n      dup1\n      dup1\n      0x01\n      add\n      swap2\n      pop\n      pop\n        /* \"MyStuff/Projet 1/VotingPlus.sol\":6311:6622  for (uint i = 1; i < proposals.length; i++) {... */\n      jump(tag_154)\n    tag_155:\n      pop\n        /* \"MyStuff/Projet 1/VotingPlus.sol\":6742:6772  Proposal[] memory topProposals */\n      0x00\n        /* \"MyStuff/Projet 1/VotingPlus.sol\":6790:6798  topCount */\n      dup2\n        /* \"MyStuff/Projet 1/VotingPlus.sol\":6775:6799  new Proposal[](topCount) */\n      0xffffffffffffffff\n      dup2\n      gt\n      iszero\n      tag_171\n      jumpi\n      tag_172\n      tag_173\n      jump\t// in\n    tag_172:\n    tag_171:\n      mload(0x40)\n      swap1\n      dup1\n      dup3\n      mstore\n      dup1\n      0x20\n      mul\n      0x20\n      add\n      dup3\n      add\n      0x40\n      mstore\n      dup1\n      iszero\n      tag_174\n      jumpi\n      dup2\n      0x20\n      add\n    tag_175:\n      tag_176\n      tag_177\n      jump\t// in\n    tag_176:\n      dup2\n      mstore\n      0x20\n      add\n      swap1\n      0x01\n      swap1\n      sub\n      swap1\n      dup2\n      tag_175\n      jumpi\n      swap1\n      pop\n    tag_174:\n      pop\n        /* \"MyStuff/Projet 1/VotingPlus.sol\":6742:6799  Proposal[] memory topProposals = new Proposal[](topCount) */\n      swap1\n      pop\n        /* \"MyStuff/Projet 1/VotingPlus.sol\":6810:6816  uint j */\n      0x00\n        /* \"MyStuff/Projet 1/VotingPlus.sol\":6819:6820  0 */\n      0x00\n        /* \"MyStuff/Projet 1/VotingPlus.sol\":6810:6820  uint j = 0 */\n      swap1\n      pop\n        /* \"MyStuff/Projet 1/VotingPlus.sol\":6836:6842  uint i */\n      0x00\n        /* \"MyStuff/Projet 1/VotingPlus.sol\":6845:6846  0 */\n      0x00\n        /* \"MyStuff/Projet 1/VotingPlus.sol\":6836:6846  uint i = 0 */\n      swap1\n      pop\n        /* \"MyStuff/Projet 1/VotingPlus.sol\":6831:7032  for (uint i = 0; i < proposals.length; i++) {... */\n    tag_178:\n        /* \"MyStuff/Projet 1/VotingPlus.sol\":6852:6861  proposals */\n      0x04\n        /* \"MyStuff/Projet 1/VotingPlus.sol\":6852:6868  proposals.length */\n      dup1\n      sload\n      swap1\n      pop\n        /* \"MyStuff/Projet 1/VotingPlus.sol\":6848:6849  i */\n      dup2\n        /* \"MyStuff/Projet 1/VotingPlus.sol\":6848:6868  i < proposals.length */\n      lt\n        /* \"MyStuff/Projet 1/VotingPlus.sol\":6831:7032  for (uint i = 0; i < proposals.length; i++) {... */\n      iszero\n      tag_179\n      jumpi\n        /* \"MyStuff/Projet 1/VotingPlus.sol\":6920:6932  maxVoteCount */\n      dup5\n        /* \"MyStuff/Projet 1/VotingPlus.sol\":6894:6903  proposals */\n      0x04\n        /* \"MyStuff/Projet 1/VotingPlus.sol\":6904:6905  i */\n      dup3\n        /* \"MyStuff/Projet 1/VotingPlus.sol\":6894:6906  proposals[i] */\n      dup2\n      sload\n      dup2\n      lt\n      tag_181\n      jumpi\n      tag_182\n      tag_152\n      jump\t// in\n    tag_182:\n    tag_181:\n      swap1\n      0x00\n      mstore\n      keccak256(0x00, 0x20)\n      swap1\n      0x02\n      mul\n      add\n        /* \"MyStuff/Projet 1/VotingPlus.sol\":6894:6916  proposals[i].voteCount */\n      0x01\n      add\n      sload\n        /* \"MyStuff/Projet 1/VotingPlus.sol\":6894:6932  proposals[i].voteCount == maxVoteCount */\n      sub\n        /* \"MyStuff/Projet 1/VotingPlus.sol\":6890:7021  if (proposals[i].voteCount == maxVoteCount) {... */\n      tag_184\n      jumpi\n        /* \"MyStuff/Projet 1/VotingPlus.sol\":6971:6980  proposals */\n      0x04\n        /* \"MyStuff/Projet 1/VotingPlus.sol\":6981:6982  i */\n      dup2\n        /* \"MyStuff/Projet 1/VotingPlus.sol\":6971:6983  proposals[i] */\n      dup2\n      sload\n      dup2\n      lt\n      tag_185\n      jumpi\n      tag_186\n      tag_152\n      jump\t// in\n    tag_186:\n    tag_185:\n      swap1\n      0x00\n      mstore\n      keccak256(0x00, 0x20)\n      swap1\n      0x02\n      mul\n      add\n        /* \"MyStuff/Projet 1/VotingPlus.sol\":6953:6983  topProposals[j] = proposals[i] */\n      mload(0x40)\n      dup1\n      0x40\n      add\n      0x40\n      mstore\n      swap1\n      dup2\n      0x00\n      dup3\n      add\n      dup1\n      sload\n      tag_188\n      swap1\n      tag_189\n      jump\t// in\n    tag_188:\n      dup1\n      0x1f\n      add\n      0x20\n      dup1\n      swap2\n      div\n      mul\n      0x20\n      add\n      mload(0x40)\n      swap1\n      dup2\n      add\n      0x40\n      mstore\n      dup1\n      swap3\n      swap2\n      swap1\n      dup2\n      dup2\n      mstore\n      0x20\n      add\n      dup3\n      dup1\n      sload\n      tag_190\n      swap1\n      tag_189\n      jump\t// in\n    tag_190:\n      dup1\n      iszero\n      tag_191\n      jumpi\n      dup1\n      0x1f\n      lt\n      tag_192\n      jumpi\n      0x0100\n      dup1\n      dup4\n      sload\n      div\n      mul\n      dup4\n      mstore\n      swap2\n      0x20\n      add\n      swap2\n      jump(tag_191)\n    tag_192:\n      dup3\n      add\n      swap2\n      swap1\n      0x00\n      mstore\n      keccak256(0x00, 0x20)\n      swap1\n    tag_193:\n      dup2\n      sload\n      dup2\n      mstore\n      swap1\n      0x01\n      add\n      swap1\n      0x20\n      add\n      dup1\n      dup4\n      gt\n      tag_193\n      jumpi\n      dup3\n      swap1\n      sub\n      0x1f\n      and\n      dup3\n      add\n      swap2\n    tag_191:\n      pop\n      pop\n      pop\n      pop\n      pop\n      dup2\n      mstore\n      0x20\n      add\n      0x01\n      dup3\n      add\n      sload\n      dup2\n      mstore\n      pop\n      pop\n        /* \"MyStuff/Projet 1/VotingPlus.sol\":6953:6965  topProposals */\n      dup4\n        /* \"MyStuff/Projet 1/VotingPlus.sol\":6966:6967  j */\n      dup4\n        /* \"MyStuff/Projet 1/VotingPlus.sol\":6953:6968  topProposals[j] */\n      dup2\n      mload\n      dup2\n      lt\n      tag_194\n      jumpi\n      tag_195\n      tag_152\n      jump\t// in\n    tag_195:\n    tag_194:\n      0x20\n      mul\n      0x20\n      add\n      add\n        /* \"MyStuff/Projet 1/VotingPlus.sol\":6953:6983  topProposals[j] = proposals[i] */\n      dup2\n      swap1\n      mstore\n      pop\n        /* \"MyStuff/Projet 1/VotingPlus.sol\":7002:7005  j++ */\n      dup2\n      dup1\n      tag_196\n      swap1\n      tag_170\n      jump\t// in\n    tag_196:\n      swap3\n      pop\n      pop\n        /* \"MyStuff/Projet 1/VotingPlus.sol\":6890:7021  if (proposals[i].voteCount == maxVoteCount) {... */\n    tag_184:\n        /* \"MyStuff/Projet 1/VotingPlus.sol\":6870:6873  i++ */\n      dup1\n      dup1\n      0x01\n      add\n      swap2\n      pop\n      pop\n        /* \"MyStuff/Projet 1/VotingPlus.sol\":6831:7032  for (uint i = 0; i < proposals.length; i++) {... */\n      jump(tag_178)\n    tag_179:\n      pop\n        /* \"MyStuff/Projet 1/VotingPlus.sol\":7051:7063  topProposals */\n      dup2\n        /* \"MyStuff/Projet 1/VotingPlus.sol\":7044:7063  return topProposals */\n      swap6\n      pop\n      pop\n      pop\n      pop\n      pop\n        /* \"MyStuff/Projet 1/VotingPlus.sol\":5930:7071  function getWinner() external view authorizeAction(WorkflowStatus.VotesTallied) returns(Proposal[] memory){... */\n      pop\n      swap1\n      jump\t// out\n        /* \"MyStuff/Projet 1/VotingPlus.sol\":4503:4837  function votesTallied() external onlyOwner authorizeAction(WorkflowStatus.VotingSessionEnded){... */\n    tag_41:\n        /* \"https://github.com/OpenZeppelin/openzeppelin-contracts/blob/master/contracts/access/Ownable.sol\":1531:1544  _checkOwner() */\n      tag_198\n        /* \"https://github.com/OpenZeppelin/openzeppelin-contracts/blob/master/contracts/access/Ownable.sol\":1531:1542  _checkOwner */\n      tag_53\n        /* \"https://github.com/OpenZeppelin/openzeppelin-contracts/blob/master/contracts/access/Ownable.sol\":1531:1544  _checkOwner() */\n      jump\t// in\n    tag_198:\n        /* \"MyStuff/Projet 1/VotingPlus.sol\":4562:4595  WorkflowStatus.VotingSessionEnded */\n      0x04\n        /* \"MyStuff/Projet 1/VotingPlus.sol\":1899:1911  currentState */\n      0x02\n      0x00\n      swap1\n      sload\n      swap1\n      0x0100\n      exp\n      swap1\n      div\n      0xff\n      and\n        /* \"MyStuff/Projet 1/VotingPlus.sol\":1881:1911  _expectedState == currentState */\n      0x05\n      dup2\n      gt\n      iszero\n      tag_200\n      jumpi\n      tag_201\n      tag_57\n      jump\t// in\n    tag_201:\n    tag_200:\n        /* \"MyStuff/Projet 1/VotingPlus.sol\":1881:1895  _expectedState */\n      dup2\n        /* \"MyStuff/Projet 1/VotingPlus.sol\":1881:1911  _expectedState == currentState */\n      0x05\n      dup2\n      gt\n      iszero\n      tag_202\n      jumpi\n      tag_203\n      tag_57\n      jump\t// in\n    tag_203:\n    tag_202:\n      eq\n        /* \"MyStuff/Projet 1/VotingPlus.sol\":1873:1938  require(_expectedState == currentState, \"Not the time for this!\") */\n      tag_204\n      jumpi\n      mload(0x40)\n      0x08c379a000000000000000000000000000000000000000000000000000000000\n      dup2\n      mstore\n      0x04\n      add\n      tag_205\n      swap1\n      tag_62\n      jump\t// in\n    tag_205:\n      mload(0x40)\n      dup1\n      swap2\n      sub\n      swap1\n      revert\n    tag_204:\n        /* \"MyStuff/Projet 1/VotingPlus.sol\":4622:4649  WorkflowStatus.VotesTallied */\n      0x05\n        /* \"MyStuff/Projet 1/VotingPlus.sol\":4607:4619  currentState */\n      0x02\n      0x00\n        /* \"MyStuff/Projet 1/VotingPlus.sol\":4607:4649  currentState = WorkflowStatus.VotesTallied */\n      0x0100\n      exp\n      dup2\n      sload\n      dup2\n      0xff\n      mul\n      not\n      and\n      swap1\n      dup4\n      0x05\n      dup2\n      gt\n      iszero\n      tag_207\n      jumpi\n      tag_208\n      tag_57\n      jump\t// in\n    tag_208:\n    tag_207:\n      mul\n      or\n      swap1\n      sstore\n      pop\n        /* \"MyStuff/Projet 1/VotingPlus.sol\":4697:4698  0 */\n      0x00\n        /* \"MyStuff/Projet 1/VotingPlus.sol\":4660:4694  nextStateChangeAuthorizedTimestamp */\n      0x03\n        /* \"MyStuff/Projet 1/VotingPlus.sol\":4660:4698  nextStateChangeAuthorizedTimestamp = 0 */\n      dup2\n      swap1\n      sstore\n      pop\n        /* \"MyStuff/Projet 1/VotingPlus.sol\":4760:4829  WorkflowStatusChange(WorkflowStatus.VotingSessionEnded, currentState) */\n      0x0a97a4ee45751e2abf3e4fc8946939630b11b371ea8ae39ccdc3056e98f5cc3f\n        /* \"MyStuff/Projet 1/VotingPlus.sol\":4781:4814  WorkflowStatus.VotingSessionEnded */\n      0x04\n        /* \"MyStuff/Projet 1/VotingPlus.sol\":4816:4828  currentState */\n      0x02\n      0x00\n      swap1\n      sload\n      swap1\n      0x0100\n      exp\n      swap1\n      div\n      0xff\n      and\n        /* \"MyStuff/Projet 1/VotingPlus.sol\":4760:4829  WorkflowStatusChange(WorkflowStatus.VotingSessionEnded, currentState) */\n      mload(0x40)\n      tag_209\n      swap3\n      swap2\n      swap1\n      tag_69\n      jump\t// in\n    tag_209:\n      mload(0x40)\n      dup1\n      swap2\n      sub\n      swap1\n      log1\n        /* \"https://github.com/OpenZeppelin/openzeppelin-contracts/blob/master/contracts/access/Ownable.sol\":1554:1555  _ */\n      pop\n        /* \"MyStuff/Projet 1/VotingPlus.sol\":4503:4837  function votesTallied() external onlyOwner authorizeAction(WorkflowStatus.VotingSessionEnded){... */\n      jump\t// out\n        /* \"MyStuff/Projet 1/VotingPlus.sol\":5372:5815  function Vote(uint _proposalId) external authorizeAction(WorkflowStatus.VotingSessionStarted) isRegistered {... */\n    tag_45:\n        /* \"MyStuff/Projet 1/VotingPlus.sol\":5429:5464  WorkflowStatus.VotingSessionStarted */\n      0x03\n        /* \"MyStuff/Projet 1/VotingPlus.sol\":1899:1911  currentState */\n      0x02\n      0x00\n      swap1\n      sload\n      swap1\n      0x0100\n      exp\n      swap1\n      div\n      0xff\n      and\n        /* \"MyStuff/Projet 1/VotingPlus.sol\":1881:1911  _expectedState == currentState */\n      0x05\n      dup2\n      gt\n      iszero\n      tag_211\n      jumpi\n      tag_212\n      tag_57\n      jump\t// in\n    tag_212:\n    tag_211:\n        /* \"MyStuff/Projet 1/VotingPlus.sol\":1881:1895  _expectedState */\n      dup2\n        /* \"MyStuff/Projet 1/VotingPlus.sol\":1881:1911  _expectedState == currentState */\n      0x05\n      dup2\n      gt\n      iszero\n      tag_213\n      jumpi\n      tag_214\n      tag_57\n      jump\t// in\n    tag_214:\n    tag_213:\n      eq\n        /* \"MyStuff/Projet 1/VotingPlus.sol\":1873:1938  require(_expectedState == currentState, \"Not the time for this!\") */\n      tag_215\n      jumpi\n      mload(0x40)\n      0x08c379a000000000000000000000000000000000000000000000000000000000\n      dup2\n      mstore\n      0x04\n      add\n      tag_216\n      swap1\n      tag_62\n      jump\t// in\n    tag_216:\n      mload(0x40)\n      dup1\n      swap2\n      sub\n      swap1\n      revert\n    tag_215:\n        /* \"MyStuff/Projet 1/VotingPlus.sol\":2083:2098  votersWhitelist */\n      0x01\n        /* \"MyStuff/Projet 1/VotingPlus.sol\":2083:2110  votersWhitelist[msg.sender] */\n      0x00\n        /* \"MyStuff/Projet 1/VotingPlus.sol\":2099:2109  msg.sender */\n      caller\n        /* \"MyStuff/Projet 1/VotingPlus.sol\":2083:2110  votersWhitelist[msg.sender] */\n      0xffffffffffffffffffffffffffffffffffffffff\n      and\n      0xffffffffffffffffffffffffffffffffffffffff\n      and\n      dup2\n      mstore\n      0x20\n      add\n      swap1\n      dup2\n      mstore\n      0x20\n      add\n      0x00\n      keccak256\n        /* \"MyStuff/Projet 1/VotingPlus.sol\":2083:2123  votersWhitelist[msg.sender].isRegistered */\n      0x00\n      add\n      0x00\n      swap1\n      sload\n      swap1\n      0x0100\n      exp\n      swap1\n      div\n      0xff\n      and\n        /* \"MyStuff/Projet 1/VotingPlus.sol\":2075:2178  require(votersWhitelist[msg.sender].isRegistered, \"The voter is not registered in the votersWhitelist\") */\n      tag_218\n      jumpi\n      mload(0x40)\n      0x08c379a000000000000000000000000000000000000000000000000000000000\n      dup2\n      mstore\n      0x04\n      add\n      tag_219\n      swap1\n      tag_97\n      jump\t// in\n    tag_219:\n      mload(0x40)\n      dup1\n      swap2\n      sub\n      swap1\n      revert\n    tag_218:\n        /* \"MyStuff/Projet 1/VotingPlus.sol\":5499:5514  votersWhitelist */\n      0x01\n        /* \"MyStuff/Projet 1/VotingPlus.sol\":5499:5526  votersWhitelist[msg.sender] */\n      0x00\n        /* \"MyStuff/Projet 1/VotingPlus.sol\":5515:5525  msg.sender */\n      caller\n        /* \"MyStuff/Projet 1/VotingPlus.sol\":5499:5526  votersWhitelist[msg.sender] */\n      0xffffffffffffffffffffffffffffffffffffffff\n      and\n      0xffffffffffffffffffffffffffffffffffffffff\n      and\n      dup2\n      mstore\n      0x20\n      add\n      swap1\n      dup2\n      mstore\n      0x20\n      add\n      0x00\n      keccak256\n        /* \"MyStuff/Projet 1/VotingPlus.sol\":5499:5535  votersWhitelist[msg.sender].hasVoted */\n      0x00\n      add\n      0x01\n      swap1\n      sload\n      swap1\n      0x0100\n      exp\n      swap1\n      div\n      0xff\n      and\n        /* \"MyStuff/Projet 1/VotingPlus.sol\":5498:5535  !votersWhitelist[msg.sender].hasVoted */\n      iszero\n        /* \"MyStuff/Projet 1/VotingPlus.sol\":5490:5567  require(!votersWhitelist[msg.sender].hasVoted, \"The voter has already voted\") */\n      tag_221\n      jumpi\n      mload(0x40)\n      0x08c379a000000000000000000000000000000000000000000000000000000000\n      dup2\n      mstore\n      0x04\n      add\n      tag_222\n      swap1\n      tag_223\n      jump\t// in\n    tag_222:\n      mload(0x40)\n      dup1\n      swap2\n      sub\n      swap1\n      revert\n    tag_221:\n        /* \"MyStuff/Projet 1/VotingPlus.sol\":5600:5609  proposals */\n      0x04\n        /* \"MyStuff/Projet 1/VotingPlus.sol\":5600:5616  proposals.length */\n      dup1\n      sload\n      swap1\n      pop\n        /* \"MyStuff/Projet 1/VotingPlus.sol\":5586:5597  _proposalId */\n      dup3\n        /* \"MyStuff/Projet 1/VotingPlus.sol\":5586:5616  _proposalId < proposals.length */\n      lt\n        /* \"MyStuff/Projet 1/VotingPlus.sol\":5586:5636  _proposalId < proposals.length && _proposalId >= 0 */\n      dup1\n      iszero\n      tag_224\n      jumpi\n      pop\n        /* \"MyStuff/Projet 1/VotingPlus.sol\":5635:5636  0 */\n      0x00\n        /* \"MyStuff/Projet 1/VotingPlus.sol\":5620:5631  _proposalId */\n      dup3\n        /* \"MyStuff/Projet 1/VotingPlus.sol\":5620:5636  _proposalId >= 0 */\n      lt\n      iszero\n        /* \"MyStuff/Projet 1/VotingPlus.sol\":5586:5636  _proposalId < proposals.length && _proposalId >= 0 */\n    tag_224:\n        /* \"MyStuff/Projet 1/VotingPlus.sol\":5578:5661  require(_proposalId < proposals.length && _proposalId >= 0 , \"Invalid proposal id\") */\n      tag_225\n      jumpi\n      mload(0x40)\n      0x08c379a000000000000000000000000000000000000000000000000000000000\n      dup2\n      mstore\n      0x04\n      add\n      tag_226\n      swap1\n      tag_227\n      jump\t// in\n    tag_226:\n      mload(0x40)\n      dup1\n      swap2\n      sub\n      swap1\n      revert\n    tag_225:\n        /* \"MyStuff/Projet 1/VotingPlus.sol\":5672:5681  proposals */\n      0x04\n        /* \"MyStuff/Projet 1/VotingPlus.sol\":5682:5693  _proposalId */\n      dup3\n        /* \"MyStuff/Projet 1/VotingPlus.sol\":5672:5694  proposals[_proposalId] */\n      dup2\n      sload\n      dup2\n      lt\n      tag_228\n      jumpi\n      tag_229\n      tag_152\n      jump\t// in\n    tag_229:\n    tag_228:\n      swap1\n      0x00\n      mstore\n      keccak256(0x00, 0x20)\n      swap1\n      0x02\n      mul\n      add\n        /* \"MyStuff/Projet 1/VotingPlus.sol\":5672:5704  proposals[_proposalId].voteCount */\n      0x01\n      add\n      0x00\n        /* \"MyStuff/Projet 1/VotingPlus.sol\":5672:5706  proposals[_proposalId].voteCount++ */\n      dup2\n      sload\n      dup1\n      swap3\n      swap2\n      swap1\n      tag_231\n      swap1\n      tag_170\n      jump\t// in\n    tag_231:\n      swap2\n      swap1\n      pop\n      sstore\n      pop\n        /* \"MyStuff/Projet 1/VotingPlus.sol\":5756:5760  true */\n      0x01\n        /* \"MyStuff/Projet 1/VotingPlus.sol\":5717:5732  votersWhitelist */\n      dup1\n        /* \"MyStuff/Projet 1/VotingPlus.sol\":5717:5744  votersWhitelist[msg.sender] */\n      0x00\n        /* \"MyStuff/Projet 1/VotingPlus.sol\":5733:5743  msg.sender */\n      caller\n        /* \"MyStuff/Projet 1/VotingPlus.sol\":5717:5744  votersWhitelist[msg.sender] */\n      0xffffffffffffffffffffffffffffffffffffffff\n      and\n      0xffffffffffffffffffffffffffffffffffffffff\n      and\n      dup2\n      mstore\n      0x20\n      add\n      swap1\n      dup2\n      mstore\n      0x20\n      add\n      0x00\n      keccak256\n        /* \"MyStuff/Projet 1/VotingPlus.sol\":5717:5753  votersWhitelist[msg.sender].hasVoted */\n      0x00\n      add\n      0x01\n        /* \"MyStuff/Projet 1/VotingPlus.sol\":5717:5760  votersWhitelist[msg.sender].hasVoted = true */\n      0x0100\n      exp\n      dup2\n      sload\n      dup2\n      0xff\n      mul\n      not\n      and\n      swap1\n      dup4\n      iszero\n      iszero\n      mul\n      or\n      swap1\n      sstore\n      pop\n        /* \"MyStuff/Projet 1/VotingPlus.sol\":5776:5807  Voted (msg.sender, _proposalId) */\n      0x4d99b957a2bc29a30ebd96a7be8e68fe50a3c701db28a91436490b7d53870ca4\n        /* \"MyStuff/Projet 1/VotingPlus.sol\":5783:5793  msg.sender */\n      caller\n        /* \"MyStuff/Projet 1/VotingPlus.sol\":5795:5806  _proposalId */\n      dup4\n        /* \"MyStuff/Projet 1/VotingPlus.sol\":5776:5807  Voted (msg.sender, _proposalId) */\n      mload(0x40)\n      tag_232\n      swap3\n      swap2\n      swap1\n      tag_233\n      jump\t// in\n    tag_232:\n      mload(0x40)\n      dup1\n      swap2\n      sub\n      swap1\n      log1\n        /* \"MyStuff/Projet 1/VotingPlus.sol\":5372:5815  function Vote(uint _proposalId) external authorizeAction(WorkflowStatus.VotingSessionStarted) isRegistered {... */\n      pop\n      pop\n      jump\t// out\n        /* \"MyStuff/Projet 1/VotingPlus.sol\":3737:4127  function startVotingSession() external onlyOwner authorizeAction(WorkflowStatus.ProposalsRegistrationEnded){... */\n    tag_47:\n        /* \"https://github.com/OpenZeppelin/openzeppelin-contracts/blob/master/contracts/access/Ownable.sol\":1531:1544  _checkOwner() */\n      tag_235\n        /* \"https://github.com/OpenZeppelin/openzeppelin-contracts/blob/master/contracts/access/Ownable.sol\":1531:1542  _checkOwner */\n      tag_53\n        /* \"https://github.com/OpenZeppelin/openzeppelin-contracts/blob/master/contracts/access/Ownable.sol\":1531:1544  _checkOwner() */\n      jump\t// in\n    tag_235:\n        /* \"MyStuff/Projet 1/VotingPlus.sol\":3802:3843  WorkflowStatus.ProposalsRegistrationEnded */\n      0x02\n        /* \"MyStuff/Projet 1/VotingPlus.sol\":1899:1911  currentState */\n      dup1\n      0x00\n      swap1\n      sload\n      swap1\n      0x0100\n      exp\n      swap1\n      div\n      0xff\n      and\n        /* \"MyStuff/Projet 1/VotingPlus.sol\":1881:1911  _expectedState == currentState */\n      0x05\n      dup2\n      gt\n      iszero\n      tag_237\n      jumpi\n      tag_238\n      tag_57\n      jump\t// in\n    tag_238:\n    tag_237:\n        /* \"MyStuff/Projet 1/VotingPlus.sol\":1881:1895  _expectedState */\n      dup2\n        /* \"MyStuff/Projet 1/VotingPlus.sol\":1881:1911  _expectedState == currentState */\n      0x05\n      dup2\n      gt\n      iszero\n      tag_239\n      jumpi\n      tag_240\n      tag_57\n      jump\t// in\n    tag_240:\n    tag_239:\n      eq\n        /* \"MyStuff/Projet 1/VotingPlus.sol\":1873:1938  require(_expectedState == currentState, \"Not the time for this!\") */\n      tag_241\n      jumpi\n      mload(0x40)\n      0x08c379a000000000000000000000000000000000000000000000000000000000\n      dup2\n      mstore\n      0x04\n      add\n      tag_242\n      swap1\n      tag_62\n      jump\t// in\n    tag_242:\n      mload(0x40)\n      dup1\n      swap2\n      sub\n      swap1\n      revert\n    tag_241:\n        /* \"MyStuff/Projet 1/VotingPlus.sol\":3870:3905  WorkflowStatus.VotingSessionStarted */\n      0x03\n        /* \"MyStuff/Projet 1/VotingPlus.sol\":3855:3867  currentState */\n      0x02\n      0x00\n        /* \"MyStuff/Projet 1/VotingPlus.sol\":3855:3905  currentState = WorkflowStatus.VotingSessionStarted */\n      0x0100\n      exp\n      dup2\n      sload\n      dup2\n      0xff\n      mul\n      not\n      and\n      swap1\n      dup4\n      0x05\n      dup2\n      gt\n      iszero\n      tag_244\n      jumpi\n      tag_245\n      tag_57\n      jump\t// in\n    tag_245:\n    tag_244:\n      mul\n      or\n      swap1\n      sstore\n      pop\n        /* \"MyStuff/Projet 1/VotingPlus.sol\":3971:3977  1 days */\n      0x015180\n        /* \"MyStuff/Projet 1/VotingPlus.sol\":3953:3968  block.timestamp */\n      timestamp\n        /* \"MyStuff/Projet 1/VotingPlus.sol\":3953:3977  block.timestamp + 1 days */\n      tag_246\n      swap2\n      swap1\n      tag_67\n      jump\t// in\n    tag_246:\n        /* \"MyStuff/Projet 1/VotingPlus.sol\":3916:3950  nextStateChangeAuthorizedTimestamp */\n      0x03\n        /* \"MyStuff/Projet 1/VotingPlus.sol\":3916:3977  nextStateChangeAuthorizedTimestamp = block.timestamp + 1 days */\n      dup2\n      swap1\n      sstore\n      pop\n        /* \"MyStuff/Projet 1/VotingPlus.sol\":4042:4119  WorkflowStatusChange(WorkflowStatus.ProposalsRegistrationEnded, currentState) */\n      0x0a97a4ee45751e2abf3e4fc8946939630b11b371ea8ae39ccdc3056e98f5cc3f\n        /* \"MyStuff/Projet 1/VotingPlus.sol\":4063:4104  WorkflowStatus.ProposalsRegistrationEnded */\n      0x02\n        /* \"MyStuff/Projet 1/VotingPlus.sol\":4106:4118  currentState */\n      dup1\n      0x00\n      swap1\n      sload\n      swap1\n      0x0100\n      exp\n      swap1\n      div\n      0xff\n      and\n        /* \"MyStuff/Projet 1/VotingPlus.sol\":4042:4119  WorkflowStatusChange(WorkflowStatus.ProposalsRegistrationEnded, currentState) */\n      mload(0x40)\n      tag_247\n      swap3\n      swap2\n      swap1\n      tag_69\n      jump\t// in\n    tag_247:\n      mload(0x40)\n      dup1\n      swap2\n      sub\n      swap1\n      log1\n        /* \"https://github.com/OpenZeppelin/openzeppelin-contracts/blob/master/contracts/access/Ownable.sol\":1554:1555  _ */\n      pop\n        /* \"MyStuff/Projet 1/VotingPlus.sol\":3737:4127  function startVotingSession() external onlyOwner authorizeAction(WorkflowStatus.ProposalsRegistrationEnded){... */\n      jump\t// out\n        /* \"https://github.com/OpenZeppelin/openzeppelin-contracts/blob/master/contracts/access/Ownable.sol\":2543:2758  function transferOwnership(address newOwner) public virtual onlyOwner {... */\n    tag_50:\n        /* \"https://github.com/OpenZeppelin/openzeppelin-contracts/blob/master/contracts/access/Ownable.sol\":1531:1544  _checkOwner() */\n      tag_249\n        /* \"https://github.com/OpenZeppelin/openzeppelin-contracts/blob/master/contracts/access/Ownable.sol\":1531:1542  _checkOwner */\n      tag_53\n        /* \"https://github.com/OpenZeppelin/openzeppelin-contracts/blob/master/contracts/access/Ownable.sol\":1531:1544  _checkOwner() */\n      jump\t// in\n    tag_249:\n        /* \"https://github.com/OpenZeppelin/openzeppelin-contracts/blob/master/contracts/access/Ownable.sol\":2647:2648  0 */\n      0x00\n        /* \"https://github.com/OpenZeppelin/openzeppelin-contracts/blob/master/contracts/access/Ownable.sol\":2627:2649  newOwner == address(0) */\n      0xffffffffffffffffffffffffffffffffffffffff\n      and\n        /* \"https://github.com/OpenZeppelin/openzeppelin-contracts/blob/master/contracts/access/Ownable.sol\":2627:2635  newOwner */\n      dup2\n        /* \"https://github.com/OpenZeppelin/openzeppelin-contracts/blob/master/contracts/access/Ownable.sol\":2627:2649  newOwner == address(0) */\n      0xffffffffffffffffffffffffffffffffffffffff\n      and\n      sub\n        /* \"https://github.com/OpenZeppelin/openzeppelin-contracts/blob/master/contracts/access/Ownable.sol\":2623:2714  if (newOwner == address(0)) {... */\n      tag_251\n      jumpi\n        /* \"https://github.com/OpenZeppelin/openzeppelin-contracts/blob/master/contracts/access/Ownable.sol\":2700:2701  0 */\n      0x00\n        /* \"https://github.com/OpenZeppelin/openzeppelin-contracts/blob/master/contracts/access/Ownable.sol\":2672:2703  OwnableInvalidOwner(address(0)) */\n      mload(0x40)\n      0x1e4fbdf700000000000000000000000000000000000000000000000000000000\n      dup2\n      mstore\n      0x04\n      add\n      tag_252\n      swap2\n      swap1\n      tag_35\n      jump\t// in\n    tag_252:\n      mload(0x40)\n      dup1\n      swap2\n      sub\n      swap1\n      revert\n        /* \"https://github.com/OpenZeppelin/openzeppelin-contracts/blob/master/contracts/access/Ownable.sol\":2623:2714  if (newOwner == address(0)) {... */\n    tag_251:\n        /* \"https://github.com/OpenZeppelin/openzeppelin-contracts/blob/master/contracts/access/Ownable.sol\":2723:2751  _transferOwnership(newOwner) */\n      tag_253\n        /* \"https://github.com/OpenZeppelin/openzeppelin-contracts/blob/master/contracts/access/Ownable.sol\":2742:2750  newOwner */\n      dup2\n        /* \"https://github.com/OpenZeppelin/openzeppelin-contracts/blob/master/contracts/access/Ownable.sol\":2723:2741  _transferOwnership */\n      tag_140\n        /* \"https://github.com/OpenZeppelin/openzeppelin-contracts/blob/master/contracts/access/Ownable.sol\":2723:2751  _transferOwnership(newOwner) */\n      jump\t// in\n    tag_253:\n        /* \"https://github.com/OpenZeppelin/openzeppelin-contracts/blob/master/contracts/access/Ownable.sol\":2543:2758  function transferOwnership(address newOwner) public virtual onlyOwner {... */\n      pop\n      jump\t// out\n        /* \"https://github.com/OpenZeppelin/openzeppelin-contracts/blob/master/contracts/access/Ownable.sol\":1796:1958  function _checkOwner() internal view virtual {... */\n    tag_53:\n        /* \"https://github.com/OpenZeppelin/openzeppelin-contracts/blob/master/contracts/access/Ownable.sol\":1866:1878  _msgSender() */\n      tag_255\n        /* \"https://github.com/OpenZeppelin/openzeppelin-contracts/blob/master/contracts/access/Ownable.sol\":1866:1876  _msgSender */\n      tag_256\n        /* \"https://github.com/OpenZeppelin/openzeppelin-contracts/blob/master/contracts/access/Ownable.sol\":1866:1878  _msgSender() */\n      jump\t// in\n    tag_255:\n        /* \"https://github.com/OpenZeppelin/openzeppelin-contracts/blob/master/contracts/access/Ownable.sol\":1855:1878  owner() != _msgSender() */\n      0xffffffffffffffffffffffffffffffffffffffff\n      and\n        /* \"https://github.com/OpenZeppelin/openzeppelin-contracts/blob/master/contracts/access/Ownable.sol\":1855:1862  owner() */\n      tag_257\n        /* \"https://github.com/OpenZeppelin/openzeppelin-contracts/blob/master/contracts/access/Ownable.sol\":1855:1860  owner */\n      tag_33\n        /* \"https://github.com/OpenZeppelin/openzeppelin-contracts/blob/master/contracts/access/Ownable.sol\":1855:1862  owner() */\n      jump\t// in\n    tag_257:\n        /* \"https://github.com/OpenZeppelin/openzeppelin-contracts/blob/master/contracts/access/Ownable.sol\":1855:1878  owner() != _msgSender() */\n      0xffffffffffffffffffffffffffffffffffffffff\n      and\n      eq\n        /* \"https://github.com/OpenZeppelin/openzeppelin-contracts/blob/master/contracts/access/Ownable.sol\":1851:1952  if (owner() != _msgSender()) {... */\n      tag_258\n      jumpi\n        /* \"https://github.com/OpenZeppelin/openzeppelin-contracts/blob/master/contracts/access/Ownable.sol\":1928:1940  _msgSender() */\n      tag_259\n        /* \"https://github.com/OpenZeppelin/openzeppelin-contracts/blob/master/contracts/access/Ownable.sol\":1928:1938  _msgSender */\n      tag_256\n        /* \"https://github.com/OpenZeppelin/openzeppelin-contracts/blob/master/contracts/access/Ownable.sol\":1928:1940  _msgSender() */\n      jump\t// in\n    tag_259:\n        /* \"https://github.com/OpenZeppelin/openzeppelin-contracts/blob/master/contracts/access/Ownable.sol\":1901:1941  OwnableUnauthorizedAccount(_msgSender()) */\n      mload(0x40)\n      0x118cdaa700000000000000000000000000000000000000000000000000000000\n      dup2\n      mstore\n      0x04\n      add\n      tag_260\n      swap2\n      swap1\n      tag_35\n      jump\t// in\n    tag_260:\n      mload(0x40)\n      dup1\n      swap2\n      sub\n      swap1\n      revert\n        /* \"https://github.com/OpenZeppelin/openzeppelin-contracts/blob/master/contracts/access/Ownable.sol\":1851:1952  if (owner() != _msgSender()) {... */\n    tag_258:\n        /* \"https://github.com/OpenZeppelin/openzeppelin-contracts/blob/master/contracts/access/Ownable.sol\":1796:1958  function _checkOwner() internal view virtual {... */\n      jump\t// out\n        /* \"https://github.com/OpenZeppelin/openzeppelin-contracts/blob/master/contracts/access/Ownable.sol\":2912:3099  function _transferOwnership(address newOwner) internal virtual {... */\n    tag_140:\n        /* \"https://github.com/OpenZeppelin/openzeppelin-contracts/blob/master/contracts/access/Ownable.sol\":2985:3001  address oldOwner */\n      0x00\n        /* \"https://github.com/OpenZeppelin/openzeppelin-contracts/blob/master/contracts/access/Ownable.sol\":3004:3010  _owner */\n      0x00\n      0x00\n      swap1\n      sload\n      swap1\n      0x0100\n      exp\n      swap1\n      div\n      0xffffffffffffffffffffffffffffffffffffffff\n      and\n        /* \"https://github.com/OpenZeppelin/openzeppelin-contracts/blob/master/contracts/access/Ownable.sol\":2985:3010  address oldOwner = _owner */\n      swap1\n      pop\n        /* \"https://github.com/OpenZeppelin/openzeppelin-contracts/blob/master/contracts/access/Ownable.sol\":3029:3037  newOwner */\n      dup2\n        /* \"https://github.com/OpenZeppelin/openzeppelin-contracts/blob/master/contracts/access/Ownable.sol\":3020:3026  _owner */\n      0x00\n      0x00\n        /* \"https://github.com/OpenZeppelin/openzeppelin-contracts/blob/master/contracts/access/Ownable.sol\":3020:3037  _owner = newOwner */\n      0x0100\n      exp\n      dup2\n      sload\n      dup2\n      0xffffffffffffffffffffffffffffffffffffffff\n      mul\n      not\n      and\n      swap1\n      dup4\n      0xffffffffffffffffffffffffffffffffffffffff\n      and\n      mul\n      or\n      swap1\n      sstore\n      pop\n        /* \"https://github.com/OpenZeppelin/openzeppelin-contracts/blob/master/contracts/access/Ownable.sol\":3083:3091  newOwner */\n      dup2\n        /* \"https://github.com/OpenZeppelin/openzeppelin-contracts/blob/master/contracts/access/Ownable.sol\":3052:3092  OwnershipTransferred(oldOwner, newOwner) */\n      0xffffffffffffffffffffffffffffffffffffffff\n      and\n        /* \"https://github.com/OpenZeppelin/openzeppelin-contracts/blob/master/contracts/access/Ownable.sol\":3073:3081  oldOwner */\n      dup2\n        /* \"https://github.com/OpenZeppelin/openzeppelin-contracts/blob/master/contracts/access/Ownable.sol\":3052:3092  OwnershipTransferred(oldOwner, newOwner) */\n      0xffffffffffffffffffffffffffffffffffffffff\n      and\n      0x8be0079c531659141344cd1fd0a4f28419497f9722a3daafe3b4186f6b6457e0\n      mload(0x40)\n      mload(0x40)\n      dup1\n      swap2\n      sub\n      swap1\n      log3\n        /* \"https://github.com/OpenZeppelin/openzeppelin-contracts/blob/master/contracts/access/Ownable.sol\":2975:3099  {... */\n      pop\n        /* \"https://github.com/OpenZeppelin/openzeppelin-contracts/blob/master/contracts/access/Ownable.sol\":2912:3099  function _transferOwnership(address newOwner) internal virtual {... */\n      pop\n      jump\t// out\n        /* \"https://github.com/OpenZeppelin/openzeppelin-contracts/blob/master/contracts/utils/Context.sol\":656:752  function _msgSender() internal view virtual returns (address) {... */\n    tag_256:\n        /* \"https://github.com/OpenZeppelin/openzeppelin-contracts/blob/master/contracts/utils/Context.sol\":709:716  address */\n      0x00\n        /* \"https://github.com/OpenZeppelin/openzeppelin-contracts/blob/master/contracts/utils/Context.sol\":735:745  msg.sender */\n      caller\n        /* \"https://github.com/OpenZeppelin/openzeppelin-contracts/blob/master/contracts/utils/Context.sol\":728:745  return msg.sender */\n      swap1\n      pop\n        /* \"https://github.com/OpenZeppelin/openzeppelin-contracts/blob/master/contracts/utils/Context.sol\":656:752  function _msgSender() internal view virtual returns (address) {... */\n      swap1\n      jump\t// out\n    tag_177:\n      mload(0x40)\n      dup1\n      0x40\n      add\n      0x40\n      mstore\n      dup1\n      0x60\n      dup2\n      mstore\n      0x20\n      add\n      0x00\n      dup2\n      mstore\n      pop\n      swap1\n      jump\t// out\n        /* \"#utility.yul\":88:205   */\n    tag_264:\n        /* \"#utility.yul\":197:198   */\n      0x00\n        /* \"#utility.yul\":194:195   */\n      0x00\n        /* \"#utility.yul\":187:199   */\n      revert\n        /* \"#utility.yul\":211:328   */\n    tag_265:\n        /* \"#utility.yul\":320:321   */\n      0x00\n        /* \"#utility.yul\":317:318   */\n      0x00\n        /* \"#utility.yul\":310:322   */\n      revert\n        /* \"#utility.yul\":334:451   */\n    tag_266:\n        /* \"#utility.yul\":443:444   */\n      0x00\n        /* \"#utility.yul\":440:441   */\n      0x00\n        /* \"#utility.yul\":433:445   */\n      revert\n        /* \"#utility.yul\":457:574   */\n    tag_267:\n        /* \"#utility.yul\":566:567   */\n      0x00\n        /* \"#utility.yul\":563:564   */\n      0x00\n        /* \"#utility.yul\":556:568   */\n      revert\n        /* \"#utility.yul\":580:697   */\n    tag_268:\n        /* \"#utility.yul\":689:690   */\n      0x00\n        /* \"#utility.yul\":686:687   */\n      0x00\n        /* \"#utility.yul\":679:691   */\n      revert\n        /* \"#utility.yul\":717:1270   */\n    tag_269:\n        /* \"#utility.yul\":775:783   */\n      0x00\n        /* \"#utility.yul\":785:791   */\n      0x00\n        /* \"#utility.yul\":835:838   */\n      dup4\n        /* \"#utility.yul\":828:832   */\n      0x1f\n        /* \"#utility.yul\":820:826   */\n      dup5\n        /* \"#utility.yul\":816:833   */\n      add\n        /* \"#utility.yul\":812:839   */\n      slt\n        /* \"#utility.yul\":802:924   */\n      tag_334\n      jumpi\n        /* \"#utility.yul\":843:922   */\n      tag_335\n      tag_266\n      jump\t// in\n    tag_335:\n        /* \"#utility.yul\":802:924   */\n    tag_334:\n        /* \"#utility.yul\":956:962   */\n      dup3\n        /* \"#utility.yul\":943:963   */\n      calldataload\n        /* \"#utility.yul\":933:963   */\n      swap1\n      pop\n        /* \"#utility.yul\":986:1004   */\n      0xffffffffffffffff\n        /* \"#utility.yul\":978:984   */\n      dup2\n        /* \"#utility.yul\":975:1005   */\n      gt\n        /* \"#utility.yul\":972:1089   */\n      iszero\n      tag_336\n      jumpi\n        /* \"#utility.yul\":1008:1087   */\n      tag_337\n      tag_267\n      jump\t// in\n    tag_337:\n        /* \"#utility.yul\":972:1089   */\n    tag_336:\n        /* \"#utility.yul\":1122:1126   */\n      0x20\n        /* \"#utility.yul\":1114:1120   */\n      dup4\n        /* \"#utility.yul\":1110:1127   */\n      add\n        /* \"#utility.yul\":1098:1127   */\n      swap2\n      pop\n        /* \"#utility.yul\":1176:1179   */\n      dup4\n        /* \"#utility.yul\":1168:1172   */\n      0x01\n        /* \"#utility.yul\":1160:1166   */\n      dup3\n        /* \"#utility.yul\":1156:1173   */\n      mul\n        /* \"#utility.yul\":1146:1154   */\n      dup4\n        /* \"#utility.yul\":1142:1174   */\n      add\n        /* \"#utility.yul\":1139:1180   */\n      gt\n        /* \"#utility.yul\":1136:1264   */\n      iszero\n      tag_338\n      jumpi\n        /* \"#utility.yul\":1183:1262   */\n      tag_339\n      tag_268\n      jump\t// in\n    tag_339:\n        /* \"#utility.yul\":1136:1264   */\n    tag_338:\n        /* \"#utility.yul\":717:1270   */\n      swap3\n      pop\n      swap3\n      swap1\n      pop\n      jump\t// out\n        /* \"#utility.yul\":1276:1805   */\n    tag_22:\n        /* \"#utility.yul\":1347:1353   */\n      0x00\n        /* \"#utility.yul\":1355:1361   */\n      0x00\n        /* \"#utility.yul\":1404:1406   */\n      0x20\n        /* \"#utility.yul\":1392:1401   */\n      dup4\n        /* \"#utility.yul\":1383:1390   */\n      dup6\n        /* \"#utility.yul\":1379:1402   */\n      sub\n        /* \"#utility.yul\":1375:1407   */\n      slt\n        /* \"#utility.yul\":1372:1491   */\n      iszero\n      tag_341\n      jumpi\n        /* \"#utility.yul\":1410:1489   */\n      tag_342\n      tag_264\n      jump\t// in\n    tag_342:\n        /* \"#utility.yul\":1372:1491   */\n    tag_341:\n        /* \"#utility.yul\":1558:1559   */\n      0x00\n        /* \"#utility.yul\":1547:1556   */\n      dup4\n        /* \"#utility.yul\":1543:1560   */\n      add\n        /* \"#utility.yul\":1530:1561   */\n      calldataload\n        /* \"#utility.yul\":1588:1606   */\n      0xffffffffffffffff\n        /* \"#utility.yul\":1580:1586   */\n      dup2\n        /* \"#utility.yul\":1577:1607   */\n      gt\n        /* \"#utility.yul\":1574:1691   */\n      iszero\n      tag_343\n      jumpi\n        /* \"#utility.yul\":1610:1689   */\n      tag_344\n      tag_265\n      jump\t// in\n    tag_344:\n        /* \"#utility.yul\":1574:1691   */\n    tag_343:\n        /* \"#utility.yul\":1723:1788   */\n      tag_345\n        /* \"#utility.yul\":1780:1787   */\n      dup6\n        /* \"#utility.yul\":1771:1777   */\n      dup3\n        /* \"#utility.yul\":1760:1769   */\n      dup7\n        /* \"#utility.yul\":1756:1778   */\n      add\n        /* \"#utility.yul\":1723:1788   */\n      tag_269\n      jump\t// in\n    tag_345:\n        /* \"#utility.yul\":1705:1788   */\n      swap3\n      pop\n      swap3\n      pop\n        /* \"#utility.yul\":1501:1798   */\n      pop\n        /* \"#utility.yul\":1276:1805   */\n      swap3\n      pop\n      swap3\n      swap1\n      pop\n      jump\t// out\n        /* \"#utility.yul\":1811:1937   */\n    tag_270:\n        /* \"#utility.yul\":1848:1855   */\n      0x00\n        /* \"#utility.yul\":1888:1930   */\n      0xffffffffffffffffffffffffffffffffffffffff\n        /* \"#utility.yul\":1881:1886   */\n      dup3\n        /* \"#utility.yul\":1877:1931   */\n      and\n        /* \"#utility.yul\":1866:1931   */\n      swap1\n      pop\n        /* \"#utility.yul\":1811:1937   */\n      swap2\n      swap1\n      pop\n      jump\t// out\n        /* \"#utility.yul\":1943:2039   */\n    tag_271:\n        /* \"#utility.yul\":1980:1987   */\n      0x00\n        /* \"#utility.yul\":2009:2033   */\n      tag_348\n        /* \"#utility.yul\":2027:2032   */\n      dup3\n        /* \"#utility.yul\":2009:2033   */\n      tag_270\n      jump\t// in\n    tag_348:\n        /* \"#utility.yul\":1998:2033   */\n      swap1\n      pop\n        /* \"#utility.yul\":1943:2039   */\n      swap2\n      swap1\n      pop\n      jump\t// out\n        /* \"#utility.yul\":2045:2167   */\n    tag_272:\n        /* \"#utility.yul\":2118:2142   */\n      tag_350\n        /* \"#utility.yul\":2136:2141   */\n      dup2\n        /* \"#utility.yul\":2118:2142   */\n      tag_271\n      jump\t// in\n    tag_350:\n        /* \"#utility.yul\":2111:2116   */\n      dup2\n        /* \"#utility.yul\":2108:2143   */\n      eq\n        /* \"#utility.yul\":2098:2161   */\n      tag_351\n      jumpi\n        /* \"#utility.yul\":2157:2158   */\n      0x00\n        /* \"#utility.yul\":2154:2155   */\n      0x00\n        /* \"#utility.yul\":2147:2159   */\n      revert\n        /* \"#utility.yul\":2098:2161   */\n    tag_351:\n        /* \"#utility.yul\":2045:2167   */\n      pop\n      jump\t// out\n        /* \"#utility.yul\":2173:2312   */\n    tag_273:\n        /* \"#utility.yul\":2219:2224   */\n      0x00\n        /* \"#utility.yul\":2257:2263   */\n      dup2\n        /* \"#utility.yul\":2244:2264   */\n      calldataload\n        /* \"#utility.yul\":2235:2264   */\n      swap1\n      pop\n        /* \"#utility.yul\":2273:2306   */\n      tag_353\n        /* \"#utility.yul\":2300:2305   */\n      dup2\n        /* \"#utility.yul\":2273:2306   */\n      tag_272\n      jump\t// in\n    tag_353:\n        /* \"#utility.yul\":2173:2312   */\n      swap3\n      swap2\n      pop\n      pop\n      jump\t// out\n        /* \"#utility.yul\":2318:2647   */\n    tag_26:\n        /* \"#utility.yul\":2377:2383   */\n      0x00\n        /* \"#utility.yul\":2426:2428   */\n      0x20\n        /* \"#utility.yul\":2414:2423   */\n      dup3\n        /* \"#utility.yul\":2405:2412   */\n      dup5\n        /* \"#utility.yul\":2401:2424   */\n      sub\n        /* \"#utility.yul\":2397:2429   */\n      slt\n        /* \"#utility.yul\":2394:2513   */\n      iszero\n      tag_355\n      jumpi\n        /* \"#utility.yul\":2432:2511   */\n      tag_356\n      tag_264\n      jump\t// in\n    tag_356:\n        /* \"#utility.yul\":2394:2513   */\n    tag_355:\n        /* \"#utility.yul\":2552:2553   */\n      0x00\n        /* \"#utility.yul\":2577:2630   */\n      tag_357\n        /* \"#utility.yul\":2622:2629   */\n      dup5\n        /* \"#utility.yul\":2613:2619   */\n      dup3\n        /* \"#utility.yul\":2602:2611   */\n      dup6\n        /* \"#utility.yul\":2598:2620   */\n      add\n        /* \"#utility.yul\":2577:2630   */\n      tag_273\n      jump\t// in\n    tag_357:\n        /* \"#utility.yul\":2567:2630   */\n      swap2\n      pop\n        /* \"#utility.yul\":2523:2640   */\n      pop\n        /* \"#utility.yul\":2318:2647   */\n      swap3\n      swap2\n      pop\n      pop\n      jump\t// out\n        /* \"#utility.yul\":2653:2771   */\n    tag_274:\n        /* \"#utility.yul\":2740:2764   */\n      tag_359\n        /* \"#utility.yul\":2758:2763   */\n      dup2\n        /* \"#utility.yul\":2740:2764   */\n      tag_271\n      jump\t// in\n    tag_359:\n        /* \"#utility.yul\":2735:2738   */\n      dup3\n        /* \"#utility.yul\":2728:2765   */\n      mstore\n        /* \"#utility.yul\":2653:2771   */\n      pop\n      pop\n      jump\t// out\n        /* \"#utility.yul\":2777:2999   */\n    tag_35:\n        /* \"#utility.yul\":2870:2874   */\n      0x00\n        /* \"#utility.yul\":2908:2910   */\n      0x20\n        /* \"#utility.yul\":2897:2906   */\n      dup3\n        /* \"#utility.yul\":2893:2911   */\n      add\n        /* \"#utility.yul\":2885:2911   */\n      swap1\n      pop\n        /* \"#utility.yul\":2921:2992   */\n      tag_361\n        /* \"#utility.yul\":2989:2990   */\n      0x00\n        /* \"#utility.yul\":2978:2987   */\n      dup4\n        /* \"#utility.yul\":2974:2991   */\n      add\n        /* \"#utility.yul\":2965:2971   */\n      dup5\n        /* \"#utility.yul\":2921:2992   */\n      tag_274\n      jump\t// in\n    tag_361:\n        /* \"#utility.yul\":2777:2999   */\n      swap3\n      swap2\n      pop\n      pop\n      jump\t// out\n        /* \"#utility.yul\":3005:3143   */\n    tag_275:\n        /* \"#utility.yul\":3096:3102   */\n      0x00\n        /* \"#utility.yul\":3130:3135   */\n      dup2\n        /* \"#utility.yul\":3124:3136   */\n      mload\n        /* \"#utility.yul\":3114:3136   */\n      swap1\n      pop\n        /* \"#utility.yul\":3005:3143   */\n      swap2\n      swap1\n      pop\n      jump\t// out\n        /* \"#utility.yul\":3149:3357   */\n    tag_276:\n        /* \"#utility.yul\":3272:3283   */\n      0x00\n        /* \"#utility.yul\":3306:3312   */\n      dup3\n        /* \"#utility.yul\":3301:3304   */\n      dup3\n        /* \"#utility.yul\":3294:3313   */\n      mstore\n        /* \"#utility.yul\":3346:3350   */\n      0x20\n        /* \"#utility.yul\":3341:3344   */\n      dup3\n        /* \"#utility.yul\":3337:3351   */\n      add\n        /* \"#utility.yul\":3322:3351   */\n      swap1\n      pop\n        /* \"#utility.yul\":3149:3357   */\n      swap3\n      swap2\n      pop\n      pop\n      jump\t// out\n        /* \"#utility.yul\":3363:3519   */\n    tag_277:\n        /* \"#utility.yul\":3454:3458   */\n      0x00\n        /* \"#utility.yul\":3477:3480   */\n      dup2\n        /* \"#utility.yul\":3469:3480   */\n      swap1\n      pop\n        /* \"#utility.yul\":3507:3511   */\n      0x20\n        /* \"#utility.yul\":3502:3505   */\n      dup3\n        /* \"#utility.yul\":3498:3512   */\n      add\n        /* \"#utility.yul\":3490:3512   */\n      swap1\n      pop\n        /* \"#utility.yul\":3363:3519   */\n      swap2\n      swap1\n      pop\n      jump\t// out\n        /* \"#utility.yul\":3525:3624   */\n    tag_278:\n        /* \"#utility.yul\":3577:3583   */\n      0x00\n        /* \"#utility.yul\":3611:3616   */\n      dup2\n        /* \"#utility.yul\":3605:3617   */\n      mload\n        /* \"#utility.yul\":3595:3617   */\n      swap1\n      pop\n        /* \"#utility.yul\":3525:3624   */\n      swap2\n      swap1\n      pop\n      jump\t// out\n        /* \"#utility.yul\":3630:3789   */\n    tag_279:\n        /* \"#utility.yul\":3704:3715   */\n      0x00\n        /* \"#utility.yul\":3738:3744   */\n      dup3\n        /* \"#utility.yul\":3733:3736   */\n      dup3\n        /* \"#utility.yul\":3726:3745   */\n      mstore\n        /* \"#utility.yul\":3778:3782   */\n      0x20\n        /* \"#utility.yul\":3773:3776   */\n      dup3\n        /* \"#utility.yul\":3769:3783   */\n      add\n        /* \"#utility.yul\":3754:3783   */\n      swap1\n      pop\n        /* \"#utility.yul\":3630:3789   */\n      swap3\n      swap2\n      pop\n      pop\n      jump\t// out\n        /* \"#utility.yul\":3795:3934   */\n    tag_280:\n        /* \"#utility.yul\":3884:3890   */\n      dup3\n        /* \"#utility.yul\":3879:3882   */\n      dup2\n        /* \"#utility.yul\":3874:3877   */\n      dup4\n        /* \"#utility.yul\":3868:3891   */\n      mcopy\n        /* \"#utility.yul\":3925:3926   */\n      0x00\n        /* \"#utility.yul\":3916:3922   */\n      dup4\n        /* \"#utility.yul\":3911:3914   */\n      dup4\n        /* \"#utility.yul\":3907:3923   */\n      add\n        /* \"#utility.yul\":3900:3927   */\n      mstore\n        /* \"#utility.yul\":3795:3934   */\n      pop\n      pop\n      pop\n      jump\t// out\n        /* \"#utility.yul\":3940:4042   */\n    tag_281:\n        /* \"#utility.yul\":3981:3987   */\n      0x00\n        /* \"#utility.yul\":4032:4034   */\n      0x1f\n        /* \"#utility.yul\":4028:4035   */\n      not\n        /* \"#utility.yul\":4023:4025   */\n      0x1f\n        /* \"#utility.yul\":4016:4021   */\n      dup4\n        /* \"#utility.yul\":4012:4026   */\n      add\n        /* \"#utility.yul\":4008:4036   */\n      and\n        /* \"#utility.yul\":3998:4036   */\n      swap1\n      pop\n        /* \"#utility.yul\":3940:4042   */\n      swap2\n      swap1\n      pop\n      jump\t// out\n        /* \"#utility.yul\":4048:4405   */\n    tag_282:\n        /* \"#utility.yul\":4126:4129   */\n      0x00\n        /* \"#utility.yul\":4154:4193   */\n      tag_370\n        /* \"#utility.yul\":4187:4192   */\n      dup3\n        /* \"#utility.yul\":4154:4193   */\n      tag_278\n      jump\t// in\n    tag_370:\n        /* \"#utility.yul\":4209:4270   */\n      tag_371\n        /* \"#utility.yul\":4263:4269   */\n      dup2\n        /* \"#utility.yul\":4258:4261   */\n      dup6\n        /* \"#utility.yul\":4209:4270   */\n      tag_279\n      jump\t// in\n    tag_371:\n        /* \"#utility.yul\":4202:4270   */\n      swap4\n      pop\n        /* \"#utility.yul\":4279:4344   */\n      tag_372\n        /* \"#utility.yul\":4337:4343   */\n      dup2\n        /* \"#utility.yul\":4332:4335   */\n      dup6\n        /* \"#utility.yul\":4325:4329   */\n      0x20\n        /* \"#utility.yul\":4318:4323   */\n      dup7\n        /* \"#utility.yul\":4314:4330   */\n      add\n        /* \"#utility.yul\":4279:4344   */\n      tag_280\n      jump\t// in\n    tag_372:\n        /* \"#utility.yul\":4369:4398   */\n      tag_373\n        /* \"#utility.yul\":4391:4397   */\n      dup2\n        /* \"#utility.yul\":4369:4398   */\n      tag_281\n      jump\t// in\n    tag_373:\n        /* \"#utility.yul\":4364:4367   */\n      dup5\n        /* \"#utility.yul\":4360:4399   */\n      add\n        /* \"#utility.yul\":4353:4399   */\n      swap2\n      pop\n        /* \"#utility.yul\":4130:4405   */\n      pop\n        /* \"#utility.yul\":4048:4405   */\n      swap3\n      swap2\n      pop\n      pop\n      jump\t// out\n        /* \"#utility.yul\":4411:4488   */\n    tag_283:\n        /* \"#utility.yul\":4448:4455   */\n      0x00\n        /* \"#utility.yul\":4477:4482   */\n      dup2\n        /* \"#utility.yul\":4466:4482   */\n      swap1\n      pop\n        /* \"#utility.yul\":4411:4488   */\n      swap2\n      swap1\n      pop\n      jump\t// out\n        /* \"#utility.yul\":4494:4602   */\n    tag_284:\n        /* \"#utility.yul\":4571:4595   */\n      tag_376\n        /* \"#utility.yul\":4589:4594   */\n      dup2\n        /* \"#utility.yul\":4571:4595   */\n      tag_283\n      jump\t// in\n    tag_376:\n        /* \"#utility.yul\":4566:4569   */\n      dup3\n        /* \"#utility.yul\":4559:4596   */\n      mstore\n        /* \"#utility.yul\":4494:4602   */\n      pop\n      pop\n      jump\t// out\n        /* \"#utility.yul\":4672:5278   */\n    tag_285:\n        /* \"#utility.yul\":4779:4782   */\n      0x00\n        /* \"#utility.yul\":4815:4819   */\n      0x40\n        /* \"#utility.yul\":4810:4813   */\n      dup4\n        /* \"#utility.yul\":4806:4820   */\n      add\n        /* \"#utility.yul\":4909:4913   */\n      0x00\n        /* \"#utility.yul\":4902:4907   */\n      dup4\n        /* \"#utility.yul\":4898:4914   */\n      add\n        /* \"#utility.yul\":4892:4915   */\n      mload\n        /* \"#utility.yul\":4962:4965   */\n      dup5\n        /* \"#utility.yul\":4956:4960   */\n      dup3\n        /* \"#utility.yul\":4952:4966   */\n      sub\n        /* \"#utility.yul\":4945:4949   */\n      0x00\n        /* \"#utility.yul\":4940:4943   */\n      dup7\n        /* \"#utility.yul\":4936:4950   */\n      add\n        /* \"#utility.yul\":4929:4967   */\n      mstore\n        /* \"#utility.yul\":4988:5061   */\n      tag_378\n        /* \"#utility.yul\":5056:5060   */\n      dup3\n        /* \"#utility.yul\":5042:5054   */\n      dup3\n        /* \"#utility.yul\":4988:5061   */\n      tag_282\n      jump\t// in\n    tag_378:\n        /* \"#utility.yul\":4980:5061   */\n      swap2\n      pop\n        /* \"#utility.yul\":4830:5072   */\n      pop\n        /* \"#utility.yul\":5159:5163   */\n      0x20\n        /* \"#utility.yul\":5152:5157   */\n      dup4\n        /* \"#utility.yul\":5148:5164   */\n      add\n        /* \"#utility.yul\":5142:5165   */\n      mload\n        /* \"#utility.yul\":5178:5241   */\n      tag_379\n        /* \"#utility.yul\":5235:5239   */\n      0x20\n        /* \"#utility.yul\":5230:5233   */\n      dup7\n        /* \"#utility.yul\":5226:5240   */\n      add\n        /* \"#utility.yul\":5212:5224   */\n      dup3\n        /* \"#utility.yul\":5178:5241   */\n      tag_284\n      jump\t// in\n    tag_379:\n        /* \"#utility.yul\":5082:5251   */\n      pop\n        /* \"#utility.yul\":5268:5272   */\n      dup1\n        /* \"#utility.yul\":5261:5272   */\n      swap2\n      pop\n        /* \"#utility.yul\":4784:5278   */\n      pop\n        /* \"#utility.yul\":4672:5278   */\n      swap3\n      swap2\n      pop\n      pop\n      jump\t// out\n        /* \"#utility.yul\":5284:5536   */\n    tag_286:\n        /* \"#utility.yul\":5401:5411   */\n      0x00\n        /* \"#utility.yul\":5436:5530   */\n      tag_381\n        /* \"#utility.yul\":5526:5529   */\n      dup4\n        /* \"#utility.yul\":5518:5524   */\n      dup4\n        /* \"#utility.yul\":5436:5530   */\n      tag_285\n      jump\t// in\n    tag_381:\n        /* \"#utility.yul\":5422:5530   */\n      swap1\n      pop\n        /* \"#utility.yul\":5284:5536   */\n      swap3\n      swap2\n      pop\n      pop\n      jump\t// out\n        /* \"#utility.yul\":5542:5679   */\n    tag_287:\n        /* \"#utility.yul\":5636:5640   */\n      0x00\n        /* \"#utility.yul\":5668:5672   */\n      0x20\n        /* \"#utility.yul\":5663:5666   */\n      dup3\n        /* \"#utility.yul\":5659:5673   */\n      add\n        /* \"#utility.yul\":5651:5673   */\n      swap1\n      pop\n        /* \"#utility.yul\":5542:5679   */\n      swap2\n      swap1\n      pop\n      jump\t// out\n        /* \"#utility.yul\":5753:6856   */\n    tag_288:\n        /* \"#utility.yul\":5920:5923   */\n      0x00\n        /* \"#utility.yul\":5949:6027   */\n      tag_384\n        /* \"#utility.yul\":6021:6026   */\n      dup3\n        /* \"#utility.yul\":5949:6027   */\n      tag_275\n      jump\t// in\n    tag_384:\n        /* \"#utility.yul\":6043:6153   */\n      tag_385\n        /* \"#utility.yul\":6146:6152   */\n      dup2\n        /* \"#utility.yul\":6141:6144   */\n      dup6\n        /* \"#utility.yul\":6043:6153   */\n      tag_276\n      jump\t// in\n    tag_385:\n        /* \"#utility.yul\":6036:6153   */\n      swap4\n      pop\n        /* \"#utility.yul\":6179:6182   */\n      dup4\n        /* \"#utility.yul\":6224:6228   */\n      0x20\n        /* \"#utility.yul\":6216:6222   */\n      dup3\n        /* \"#utility.yul\":6212:6229   */\n      mul\n        /* \"#utility.yul\":6207:6210   */\n      dup6\n        /* \"#utility.yul\":6203:6230   */\n      add\n        /* \"#utility.yul\":6254:6334   */\n      tag_386\n        /* \"#utility.yul\":6328:6333   */\n      dup6\n        /* \"#utility.yul\":6254:6334   */\n      tag_277\n      jump\t// in\n    tag_386:\n        /* \"#utility.yul\":6357:6364   */\n      dup1\n        /* \"#utility.yul\":6388:6389   */\n      0x00\n        /* \"#utility.yul\":6373:6811   */\n    tag_387:\n        /* \"#utility.yul\":6398:6404   */\n      dup6\n        /* \"#utility.yul\":6395:6396   */\n      dup2\n        /* \"#utility.yul\":6392:6405   */\n      lt\n        /* \"#utility.yul\":6373:6811   */\n      iszero\n      tag_389\n      jumpi\n        /* \"#utility.yul\":6469:6478   */\n      dup5\n        /* \"#utility.yul\":6463:6467   */\n      dup5\n        /* \"#utility.yul\":6459:6479   */\n      sub\n        /* \"#utility.yul\":6454:6457   */\n      dup10\n        /* \"#utility.yul\":6447:6480   */\n      mstore\n        /* \"#utility.yul\":6520:6526   */\n      dup2\n        /* \"#utility.yul\":6514:6527   */\n      mload\n        /* \"#utility.yul\":6548:6660   */\n      tag_390\n        /* \"#utility.yul\":6655:6659   */\n      dup6\n        /* \"#utility.yul\":6640:6653   */\n      dup3\n        /* \"#utility.yul\":6548:6660   */\n      tag_286\n      jump\t// in\n    tag_390:\n        /* \"#utility.yul\":6540:6660   */\n      swap5\n      pop\n        /* \"#utility.yul\":6683:6767   */\n      tag_391\n        /* \"#utility.yul\":6760:6766   */\n      dup4\n        /* \"#utility.yul\":6683:6767   */\n      tag_287\n      jump\t// in\n    tag_391:\n        /* \"#utility.yul\":6673:6767   */\n      swap3\n      pop\n        /* \"#utility.yul\":6796:6800   */\n      0x20\n        /* \"#utility.yul\":6791:6794   */\n      dup11\n        /* \"#utility.yul\":6787:6801   */\n      add\n        /* \"#utility.yul\":6780:6801   */\n      swap10\n      pop\n        /* \"#utility.yul\":6433:6811   */\n      pop\n        /* \"#utility.yul\":6420:6421   */\n      0x01\n        /* \"#utility.yul\":6417:6418   */\n      dup2\n        /* \"#utility.yul\":6413:6422   */\n      add\n        /* \"#utility.yul\":6408:6422   */\n      swap1\n      pop\n        /* \"#utility.yul\":6373:6811   */\n      jump(tag_387)\n    tag_389:\n        /* \"#utility.yul\":6377:6391   */\n      pop\n        /* \"#utility.yul\":6827:6831   */\n      dup3\n        /* \"#utility.yul\":6820:6831   */\n      swap8\n      pop\n        /* \"#utility.yul\":6847:6850   */\n      dup8\n        /* \"#utility.yul\":6840:6850   */\n      swap6\n      pop\n        /* \"#utility.yul\":5925:6856   */\n      pop\n      pop\n      pop\n      pop\n      pop\n        /* \"#utility.yul\":5753:6856   */\n      swap3\n      swap2\n      pop\n      pop\n      jump\t// out\n        /* \"#utility.yul\":6862:7331   */\n    tag_39:\n        /* \"#utility.yul\":7053:7057   */\n      0x00\n        /* \"#utility.yul\":7091:7093   */\n      0x20\n        /* \"#utility.yul\":7080:7089   */\n      dup3\n        /* \"#utility.yul\":7076:7094   */\n      add\n        /* \"#utility.yul\":7068:7094   */\n      swap1\n      pop\n        /* \"#utility.yul\":7140:7149   */\n      dup2\n        /* \"#utility.yul\":7134:7138   */\n      dup2\n        /* \"#utility.yul\":7130:7150   */\n      sub\n        /* \"#utility.yul\":7126:7127   */\n      0x00\n        /* \"#utility.yul\":7115:7124   */\n      dup4\n        /* \"#utility.yul\":7111:7128   */\n      add\n        /* \"#utility.yul\":7104:7151   */\n      mstore\n        /* \"#utility.yul\":7168:7324   */\n      tag_393\n        /* \"#utility.yul\":7319:7323   */\n      dup2\n        /* \"#utility.yul\":7310:7316   */\n      dup5\n        /* \"#utility.yul\":7168:7324   */\n      tag_288\n      jump\t// in\n    tag_393:\n        /* \"#utility.yul\":7160:7324   */\n      swap1\n      pop\n        /* \"#utility.yul\":6862:7331   */\n      swap3\n      swap2\n      pop\n      pop\n      jump\t// out\n        /* \"#utility.yul\":7337:7459   */\n    tag_289:\n        /* \"#utility.yul\":7410:7434   */\n      tag_395\n        /* \"#utility.yul\":7428:7433   */\n      dup2\n        /* \"#utility.yul\":7410:7434   */\n      tag_283\n      jump\t// in\n    tag_395:\n        /* \"#utility.yul\":7403:7408   */\n      dup2\n        /* \"#utility.yul\":7400:7435   */\n      eq\n        /* \"#utility.yul\":7390:7453   */\n      tag_396\n      jumpi\n        /* \"#utility.yul\":7449:7450   */\n      0x00\n        /* \"#utility.yul\":7446:7447   */\n      0x00\n        /* \"#utility.yul\":7439:7451   */\n      revert\n        /* \"#utility.yul\":7390:7453   */\n    tag_396:\n        /* \"#utility.yul\":7337:7459   */\n      pop\n      jump\t// out\n        /* \"#utility.yul\":7465:7604   */\n    tag_290:\n        /* \"#utility.yul\":7511:7516   */\n      0x00\n        /* \"#utility.yul\":7549:7555   */\n      dup2\n        /* \"#utility.yul\":7536:7556   */\n      calldataload\n        /* \"#utility.yul\":7527:7556   */\n      swap1\n      pop\n        /* \"#utility.yul\":7565:7598   */\n      tag_398\n        /* \"#utility.yul\":7592:7597   */\n      dup2\n        /* \"#utility.yul\":7565:7598   */\n      tag_289\n      jump\t// in\n    tag_398:\n        /* \"#utility.yul\":7465:7604   */\n      swap3\n      swap2\n      pop\n      pop\n      jump\t// out\n        /* \"#utility.yul\":7610:7939   */\n    tag_44:\n        /* \"#utility.yul\":7669:7675   */\n      0x00\n        /* \"#utility.yul\":7718:7720   */\n      0x20\n        /* \"#utility.yul\":7706:7715   */\n      dup3\n        /* \"#utility.yul\":7697:7704   */\n      dup5\n        /* \"#utility.yul\":7693:7716   */\n      sub\n        /* \"#utility.yul\":7689:7721   */\n      slt\n        /* \"#utility.yul\":7686:7805   */\n      iszero\n      tag_400\n      jumpi\n        /* \"#utility.yul\":7724:7803   */\n      tag_401\n      tag_264\n      jump\t// in\n    tag_401:\n        /* \"#utility.yul\":7686:7805   */\n    tag_400:\n        /* \"#utility.yul\":7844:7845   */\n      0x00\n        /* \"#utility.yul\":7869:7922   */\n      tag_402\n        /* \"#utility.yul\":7914:7921   */\n      dup5\n        /* \"#utility.yul\":7905:7911   */\n      dup3\n        /* \"#utility.yul\":7894:7903   */\n      dup6\n        /* \"#utility.yul\":7890:7912   */\n      add\n        /* \"#utility.yul\":7869:7922   */\n      tag_290\n      jump\t// in\n    tag_402:\n        /* \"#utility.yul\":7859:7922   */\n      swap2\n      pop\n        /* \"#utility.yul\":7815:7932   */\n      pop\n        /* \"#utility.yul\":7610:7939   */\n      swap3\n      swap2\n      pop\n      pop\n      jump\t// out\n        /* \"#utility.yul\":7945:8125   */\n    tag_57:\n        /* \"#utility.yul\":7993:8070   */\n      0x4e487b7100000000000000000000000000000000000000000000000000000000\n        /* \"#utility.yul\":7990:7991   */\n      0x00\n        /* \"#utility.yul\":7983:8071   */\n      mstore\n        /* \"#utility.yul\":8090:8094   */\n      0x21\n        /* \"#utility.yul\":8087:8088   */\n      0x04\n        /* \"#utility.yul\":8080:8095   */\n      mstore\n        /* \"#utility.yul\":8114:8118   */\n      0x24\n        /* \"#utility.yul\":8111:8112   */\n      0x00\n        /* \"#utility.yul\":8104:8119   */\n      revert\n        /* \"#utility.yul\":8131:8300   */\n    tag_291:\n        /* \"#utility.yul\":8215:8226   */\n      0x00\n        /* \"#utility.yul\":8249:8255   */\n      dup3\n        /* \"#utility.yul\":8244:8247   */\n      dup3\n        /* \"#utility.yul\":8237:8256   */\n      mstore\n        /* \"#utility.yul\":8289:8293   */\n      0x20\n        /* \"#utility.yul\":8284:8287   */\n      dup3\n        /* \"#utility.yul\":8280:8294   */\n      add\n        /* \"#utility.yul\":8265:8294   */\n      swap1\n      pop\n        /* \"#utility.yul\":8131:8300   */\n      swap3\n      swap2\n      pop\n      pop\n      jump\t// out\n        /* \"#utility.yul\":8306:8478   */\n    tag_292:\n        /* \"#utility.yul\":8446:8470   */\n      0x4e6f74207468652074696d6520666f7220746869732100000000000000000000\n        /* \"#utility.yul\":8442:8443   */\n      0x00\n        /* \"#utility.yul\":8434:8440   */\n      dup3\n        /* \"#utility.yul\":8430:8444   */\n      add\n        /* \"#utility.yul\":8423:8471   */\n      mstore\n        /* \"#utility.yul\":8306:8478   */\n      pop\n      jump\t// out\n        /* \"#utility.yul\":8484:8850   */\n    tag_293:\n        /* \"#utility.yul\":8626:8629   */\n      0x00\n        /* \"#utility.yul\":8647:8714   */\n      tag_407\n        /* \"#utility.yul\":8711:8713   */\n      0x16\n        /* \"#utility.yul\":8706:8709   */\n      dup4\n        /* \"#utility.yul\":8647:8714   */\n      tag_291\n      jump\t// in\n    tag_407:\n        /* \"#utility.yul\":8640:8714   */\n      swap2\n      pop\n        /* \"#utility.yul\":8723:8816   */\n      tag_408\n        /* \"#utility.yul\":8812:8815   */\n      dup3\n        /* \"#utility.yul\":8723:8816   */\n      tag_292\n      jump\t// in\n    tag_408:\n        /* \"#utility.yul\":8841:8843   */\n      0x20\n        /* \"#utility.yul\":8836:8839   */\n      dup3\n        /* \"#utility.yul\":8832:8844   */\n      add\n        /* \"#utility.yul\":8825:8844   */\n      swap1\n      pop\n        /* \"#utility.yul\":8484:8850   */\n      swap2\n      swap1\n      pop\n      jump\t// out\n        /* \"#utility.yul\":8856:9275   */\n    tag_62:\n        /* \"#utility.yul\":9022:9026   */\n      0x00\n        /* \"#utility.yul\":9060:9062   */\n      0x20\n        /* \"#utility.yul\":9049:9058   */\n      dup3\n        /* \"#utility.yul\":9045:9063   */\n      add\n        /* \"#utility.yul\":9037:9063   */\n      swap1\n      pop\n        /* \"#utility.yul\":9109:9118   */\n      dup2\n        /* \"#utility.yul\":9103:9107   */\n      dup2\n        /* \"#utility.yul\":9099:9119   */\n      sub\n        /* \"#utility.yul\":9095:9096   */\n      0x00\n        /* \"#utility.yul\":9084:9093   */\n      dup4\n        /* \"#utility.yul\":9080:9097   */\n      add\n        /* \"#utility.yul\":9073:9120   */\n      mstore\n        /* \"#utility.yul\":9137:9268   */\n      tag_410\n        /* \"#utility.yul\":9263:9267   */\n      dup2\n        /* \"#utility.yul\":9137:9268   */\n      tag_293\n      jump\t// in\n    tag_410:\n        /* \"#utility.yul\":9129:9268   */\n      swap1\n      pop\n        /* \"#utility.yul\":8856:9275   */\n      swap2\n      swap1\n      pop\n      jump\t// out\n        /* \"#utility.yul\":9281:9461   */\n    tag_294:\n        /* \"#utility.yul\":9329:9406   */\n      0x4e487b7100000000000000000000000000000000000000000000000000000000\n        /* \"#utility.yul\":9326:9327   */\n      0x00\n        /* \"#utility.yul\":9319:9407   */\n      mstore\n        /* \"#utility.yul\":9426:9430   */\n      0x11\n        /* \"#utility.yul\":9423:9424   */\n      0x04\n        /* \"#utility.yul\":9416:9431   */\n      mstore\n        /* \"#utility.yul\":9450:9454   */\n      0x24\n        /* \"#utility.yul\":9447:9448   */\n      0x00\n        /* \"#utility.yul\":9440:9455   */\n      revert\n        /* \"#utility.yul\":9467:9658   */\n    tag_67:\n        /* \"#utility.yul\":9507:9510   */\n      0x00\n        /* \"#utility.yul\":9526:9546   */\n      tag_413\n        /* \"#utility.yul\":9544:9545   */\n      dup3\n        /* \"#utility.yul\":9526:9546   */\n      tag_283\n      jump\t// in\n    tag_413:\n        /* \"#utility.yul\":9521:9546   */\n      swap2\n      pop\n        /* \"#utility.yul\":9560:9580   */\n      tag_414\n        /* \"#utility.yul\":9578:9579   */\n      dup4\n        /* \"#utility.yul\":9560:9580   */\n      tag_283\n      jump\t// in\n    tag_414:\n        /* \"#utility.yul\":9555:9580   */\n      swap3\n      pop\n        /* \"#utility.yul\":9603:9604   */\n      dup3\n        /* \"#utility.yul\":9600:9601   */\n      dup3\n        /* \"#utility.yul\":9596:9605   */\n      add\n        /* \"#utility.yul\":9589:9605   */\n      swap1\n      pop\n        /* \"#utility.yul\":9624:9627   */\n      dup1\n        /* \"#utility.yul\":9621:9622   */\n      dup3\n        /* \"#utility.yul\":9618:9628   */\n      gt\n        /* \"#utility.yul\":9615:9651   */\n      iszero\n      tag_415\n      jumpi\n        /* \"#utility.yul\":9631:9649   */\n      tag_416\n      tag_294\n      jump\t// in\n    tag_416:\n        /* \"#utility.yul\":9615:9651   */\n    tag_415:\n        /* \"#utility.yul\":9467:9658   */\n      swap3\n      swap2\n      pop\n      pop\n      jump\t// out\n        /* \"#utility.yul\":9664:9786   */\n    tag_295:\n        /* \"#utility.yul\":9754:9755   */\n      0x06\n        /* \"#utility.yul\":9747:9752   */\n      dup2\n        /* \"#utility.yul\":9744:9756   */\n      lt\n        /* \"#utility.yul\":9734:9780   */\n      tag_418\n      jumpi\n        /* \"#utility.yul\":9760:9778   */\n      tag_419\n      tag_57\n      jump\t// in\n    tag_419:\n        /* \"#utility.yul\":9734:9780   */\n    tag_418:\n        /* \"#utility.yul\":9664:9786   */\n      pop\n      jump\t// out\n        /* \"#utility.yul\":9792:9937   */\n    tag_296:\n        /* \"#utility.yul\":9846:9853   */\n      0x00\n        /* \"#utility.yul\":9875:9880   */\n      dup2\n        /* \"#utility.yul\":9864:9880   */\n      swap1\n      pop\n        /* \"#utility.yul\":9881:9931   */\n      tag_421\n        /* \"#utility.yul\":9925:9930   */\n      dup3\n        /* \"#utility.yul\":9881:9931   */\n      tag_295\n      jump\t// in\n    tag_421:\n        /* \"#utility.yul\":9792:9937   */\n      swap2\n      swap1\n      pop\n      jump\t// out\n        /* \"#utility.yul\":9943:10088   */\n    tag_297:\n        /* \"#utility.yul\":10008:10017   */\n      0x00\n        /* \"#utility.yul\":10041:10082   */\n      tag_423\n        /* \"#utility.yul\":10076:10081   */\n      dup3\n        /* \"#utility.yul\":10041:10082   */\n      tag_296\n      jump\t// in\n    tag_423:\n        /* \"#utility.yul\":10028:10082   */\n      swap1\n      pop\n        /* \"#utility.yul\":9943:10088   */\n      swap2\n      swap1\n      pop\n      jump\t// out\n        /* \"#utility.yul\":10094:10255   */\n    tag_298:\n        /* \"#utility.yul\":10196:10248   */\n      tag_425\n        /* \"#utility.yul\":10242:10247   */\n      dup2\n        /* \"#utility.yul\":10196:10248   */\n      tag_297\n      jump\t// in\n    tag_425:\n        /* \"#utility.yul\":10191:10194   */\n      dup3\n        /* \"#utility.yul\":10184:10249   */\n      mstore\n        /* \"#utility.yul\":10094:10255   */\n      pop\n      pop\n      jump\t// out\n        /* \"#utility.yul\":10261:10653   */\n    tag_69:\n        /* \"#utility.yul\":10412:10416   */\n      0x00\n        /* \"#utility.yul\":10450:10452   */\n      0x40\n        /* \"#utility.yul\":10439:10448   */\n      dup3\n        /* \"#utility.yul\":10435:10453   */\n      add\n        /* \"#utility.yul\":10427:10453   */\n      swap1\n      pop\n        /* \"#utility.yul\":10463:10549   */\n      tag_427\n        /* \"#utility.yul\":10546:10547   */\n      0x00\n        /* \"#utility.yul\":10535:10544   */\n      dup4\n        /* \"#utility.yul\":10531:10548   */\n      add\n        /* \"#utility.yul\":10522:10528   */\n      dup6\n        /* \"#utility.yul\":10463:10549   */\n      tag_298\n      jump\t// in\n    tag_427:\n        /* \"#utility.yul\":10559:10646   */\n      tag_428\n        /* \"#utility.yul\":10642:10644   */\n      0x20\n        /* \"#utility.yul\":10631:10640   */\n      dup4\n        /* \"#utility.yul\":10627:10645   */\n      add\n        /* \"#utility.yul\":10618:10624   */\n      dup5\n        /* \"#utility.yul\":10559:10646   */\n      tag_298\n      jump\t// in\n    tag_428:\n        /* \"#utility.yul\":10261:10653   */\n      swap4\n      swap3\n      pop\n      pop\n      pop\n      jump\t// out\n        /* \"#utility.yul\":10659:10893   */\n    tag_299:\n        /* \"#utility.yul\":10799:10833   */\n      0x5468652064656c617920666f7220746865207374617465206368616e67652069\n        /* \"#utility.yul\":10795:10796   */\n      0x00\n        /* \"#utility.yul\":10787:10793   */\n      dup3\n        /* \"#utility.yul\":10783:10797   */\n      add\n        /* \"#utility.yul\":10776:10834   */\n      mstore\n        /* \"#utility.yul\":10868:10885   */\n      0x73206e6f74207265737065637465640000000000000000000000000000000000\n        /* \"#utility.yul\":10863:10865   */\n      0x20\n        /* \"#utility.yul\":10855:10861   */\n      dup3\n        /* \"#utility.yul\":10851:10866   */\n      add\n        /* \"#utility.yul\":10844:10886   */\n      mstore\n        /* \"#utility.yul\":10659:10893   */\n      pop\n      jump\t// out\n        /* \"#utility.yul\":10899:11265   */\n    tag_300:\n        /* \"#utility.yul\":11041:11044   */\n      0x00\n        /* \"#utility.yul\":11062:11129   */\n      tag_431\n        /* \"#utility.yul\":11126:11128   */\n      0x2f\n        /* \"#utility.yul\":11121:11124   */\n      dup4\n        /* \"#utility.yul\":11062:11129   */\n      tag_291\n      jump\t// in\n    tag_431:\n        /* \"#utility.yul\":11055:11129   */\n      swap2\n      pop\n        /* \"#utility.yul\":11138:11231   */\n      tag_432\n        /* \"#utility.yul\":11227:11230   */\n      dup3\n        /* \"#utility.yul\":11138:11231   */\n      tag_299\n      jump\t// in\n    tag_432:\n        /* \"#utility.yul\":11256:11258   */\n      0x40\n        /* \"#utility.yul\":11251:11254   */\n      dup3\n        /* \"#utility.yul\":11247:11259   */\n      add\n        /* \"#utility.yul\":11240:11259   */\n      swap1\n      pop\n        /* \"#utility.yul\":10899:11265   */\n      swap2\n      swap1\n      pop\n      jump\t// out\n        /* \"#utility.yul\":11271:11690   */\n    tag_82:\n        /* \"#utility.yul\":11437:11441   */\n      0x00\n        /* \"#utility.yul\":11475:11477   */\n      0x20\n        /* \"#utility.yul\":11464:11473   */\n      dup3\n        /* \"#utility.yul\":11460:11478   */\n      add\n        /* \"#utility.yul\":11452:11478   */\n      swap1\n      pop\n        /* \"#utility.yul\":11524:11533   */\n      dup2\n        /* \"#utility.yul\":11518:11522   */\n      dup2\n        /* \"#utility.yul\":11514:11534   */\n      sub\n        /* \"#utility.yul\":11510:11511   */\n      0x00\n        /* \"#utility.yul\":11499:11508   */\n      dup4\n        /* \"#utility.yul\":11495:11512   */\n      add\n        /* \"#utility.yul\":11488:11535   */\n      mstore\n        /* \"#utility.yul\":11552:11683   */\n      tag_434\n        /* \"#utility.yul\":11678:11682   */\n      dup2\n        /* \"#utility.yul\":11552:11683   */\n      tag_300\n      jump\t// in\n    tag_434:\n        /* \"#utility.yul\":11544:11683   */\n      swap1\n      pop\n        /* \"#utility.yul\":11271:11690   */\n      swap2\n      swap1\n      pop\n      jump\t// out\n        /* \"#utility.yul\":11696:11933   */\n    tag_301:\n        /* \"#utility.yul\":11836:11870   */\n      0x54686520766f746572206973206e6f74207265676973746572656420696e2074\n        /* \"#utility.yul\":11832:11833   */\n      0x00\n        /* \"#utility.yul\":11824:11830   */\n      dup3\n        /* \"#utility.yul\":11820:11834   */\n      add\n        /* \"#utility.yul\":11813:11871   */\n      mstore\n        /* \"#utility.yul\":11905:11925   */\n      0x686520766f7465727357686974656c6973740000000000000000000000000000\n        /* \"#utility.yul\":11900:11902   */\n      0x20\n        /* \"#utility.yul\":11892:11898   */\n      dup3\n        /* \"#utility.yul\":11888:11903   */\n      add\n        /* \"#utility.yul\":11881:11926   */\n      mstore\n        /* \"#utility.yul\":11696:11933   */\n      pop\n      jump\t// out\n        /* \"#utility.yul\":11939:12305   */\n    tag_302:\n        /* \"#utility.yul\":12081:12084   */\n      0x00\n        /* \"#utility.yul\":12102:12169   */\n      tag_437\n        /* \"#utility.yul\":12166:12168   */\n      0x32\n        /* \"#utility.yul\":12161:12164   */\n      dup4\n        /* \"#utility.yul\":12102:12169   */\n      tag_291\n      jump\t// in\n    tag_437:\n        /* \"#utility.yul\":12095:12169   */\n      swap2\n      pop\n        /* \"#utility.yul\":12178:12271   */\n      tag_438\n        /* \"#utility.yul\":12267:12270   */\n      dup3\n        /* \"#utility.yul\":12178:12271   */\n      tag_301\n      jump\t// in\n    tag_438:\n        /* \"#utility.yul\":12296:12298   */\n      0x40\n        /* \"#utility.yul\":12291:12294   */\n      dup3\n        /* \"#utility.yul\":12287:12299   */\n      add\n        /* \"#utility.yul\":12280:12299   */\n      swap1\n      pop\n        /* \"#utility.yul\":11939:12305   */\n      swap2\n      swap1\n      pop\n      jump\t// out\n        /* \"#utility.yul\":12311:12730   */\n    tag_97:\n        /* \"#utility.yul\":12477:12481   */\n      0x00\n        /* \"#utility.yul\":12515:12517   */\n      0x20\n        /* \"#utility.yul\":12504:12513   */\n      dup3\n        /* \"#utility.yul\":12500:12518   */\n      add\n        /* \"#utility.yul\":12492:12518   */\n      swap1\n      pop\n        /* \"#utility.yul\":12564:12573   */\n      dup2\n        /* \"#utility.yul\":12558:12562   */\n      dup2\n        /* \"#utility.yul\":12554:12574   */\n      sub\n        /* \"#utility.yul\":12550:12551   */\n      0x00\n        /* \"#utility.yul\":12539:12548   */\n      dup4\n        /* \"#utility.yul\":12535:12552   */\n      add\n        /* \"#utility.yul\":12528:12575   */\n      mstore\n        /* \"#utility.yul\":12592:12723   */\n      tag_440\n        /* \"#utility.yul\":12718:12722   */\n      dup2\n        /* \"#utility.yul\":12592:12723   */\n      tag_302\n      jump\t// in\n    tag_440:\n        /* \"#utility.yul\":12584:12723   */\n      swap1\n      pop\n        /* \"#utility.yul\":12311:12730   */\n      swap2\n      swap1\n      pop\n      jump\t// out\n        /* \"#utility.yul\":12736:12916   */\n    tag_173:\n        /* \"#utility.yul\":12784:12861   */\n      0x4e487b7100000000000000000000000000000000000000000000000000000000\n        /* \"#utility.yul\":12781:12782   */\n      0x00\n        /* \"#utility.yul\":12774:12862   */\n      mstore\n        /* \"#utility.yul\":12881:12885   */\n      0x41\n        /* \"#utility.yul\":12878:12879   */\n      0x04\n        /* \"#utility.yul\":12871:12886   */\n      mstore\n        /* \"#utility.yul\":12905:12909   */\n      0x24\n        /* \"#utility.yul\":12902:12903   */\n      0x00\n        /* \"#utility.yul\":12895:12910   */\n      revert\n        /* \"#utility.yul\":12922:13102   */\n    tag_303:\n        /* \"#utility.yul\":12970:13047   */\n      0x4e487b7100000000000000000000000000000000000000000000000000000000\n        /* \"#utility.yul\":12967:12968   */\n      0x00\n        /* \"#utility.yul\":12960:13048   */\n      mstore\n        /* \"#utility.yul\":13067:13071   */\n      0x22\n        /* \"#utility.yul\":13064:13065   */\n      0x04\n        /* \"#utility.yul\":13057:13072   */\n      mstore\n        /* \"#utility.yul\":13091:13095   */\n      0x24\n        /* \"#utility.yul\":13088:13089   */\n      0x00\n        /* \"#utility.yul\":13081:13096   */\n      revert\n        /* \"#utility.yul\":13108:13428   */\n    tag_189:\n        /* \"#utility.yul\":13152:13158   */\n      0x00\n        /* \"#utility.yul\":13189:13190   */\n      0x02\n        /* \"#utility.yul\":13183:13187   */\n      dup3\n        /* \"#utility.yul\":13179:13191   */\n      div\n        /* \"#utility.yul\":13169:13191   */\n      swap1\n      pop\n        /* \"#utility.yul\":13236:13237   */\n      0x01\n        /* \"#utility.yul\":13230:13234   */\n      dup3\n        /* \"#utility.yul\":13226:13238   */\n      and\n        /* \"#utility.yul\":13257:13275   */\n      dup1\n        /* \"#utility.yul\":13247:13328   */\n      tag_444\n      jumpi\n        /* \"#utility.yul\":13313:13317   */\n      0x7f\n        /* \"#utility.yul\":13305:13311   */\n      dup3\n        /* \"#utility.yul\":13301:13318   */\n      and\n        /* \"#utility.yul\":13291:13318   */\n      swap2\n      pop\n        /* \"#utility.yul\":13247:13328   */\n    tag_444:\n        /* \"#utility.yul\":13375:13377   */\n      0x20\n        /* \"#utility.yul\":13367:13373   */\n      dup3\n        /* \"#utility.yul\":13364:13378   */\n      lt\n        /* \"#utility.yul\":13344:13362   */\n      dup2\n        /* \"#utility.yul\":13341:13379   */\n      sub\n        /* \"#utility.yul\":13338:13422   */\n      tag_445\n      jumpi\n        /* \"#utility.yul\":13394:13412   */\n      tag_446\n      tag_303\n      jump\t// in\n    tag_446:\n        /* \"#utility.yul\":13338:13422   */\n    tag_445:\n        /* \"#utility.yul\":13159:13428   */\n      pop\n        /* \"#utility.yul\":13108:13428   */\n      swap2\n      swap1\n      pop\n      jump\t// out\n        /* \"#utility.yul\":13434:13575   */\n    tag_304:\n        /* \"#utility.yul\":13483:13487   */\n      0x00\n        /* \"#utility.yul\":13506:13509   */\n      dup2\n        /* \"#utility.yul\":13498:13509   */\n      swap1\n      pop\n        /* \"#utility.yul\":13529:13532   */\n      dup2\n        /* \"#utility.yul\":13526:13527   */\n      0x00\n        /* \"#utility.yul\":13519:13533   */\n      mstore\n        /* \"#utility.yul\":13563:13567   */\n      0x20\n        /* \"#utility.yul\":13560:13561   */\n      0x00\n        /* \"#utility.yul\":13550:13568   */\n      keccak256\n        /* \"#utility.yul\":13542:13568   */\n      swap1\n      pop\n        /* \"#utility.yul\":13434:13575   */\n      swap2\n      swap1\n      pop\n      jump\t// out\n        /* \"#utility.yul\":13581:13674   */\n    tag_305:\n        /* \"#utility.yul\":13618:13624   */\n      0x00\n        /* \"#utility.yul\":13665:13667   */\n      0x20\n        /* \"#utility.yul\":13660:13662   */\n      0x1f\n        /* \"#utility.yul\":13653:13658   */\n      dup4\n        /* \"#utility.yul\":13649:13663   */\n      add\n        /* \"#utility.yul\":13645:13668   */\n      div\n        /* \"#utility.yul\":13635:13668   */\n      swap1\n      pop\n        /* \"#utility.yul\":13581:13674   */\n      swap2\n      swap1\n      pop\n      jump\t// out\n        /* \"#utility.yul\":13680:13787   */\n    tag_306:\n        /* \"#utility.yul\":13724:13732   */\n      0x00\n        /* \"#utility.yul\":13774:13779   */\n      dup3\n        /* \"#utility.yul\":13768:13772   */\n      dup3\n        /* \"#utility.yul\":13764:13780   */\n      shl\n        /* \"#utility.yul\":13743:13780   */\n      swap1\n      pop\n        /* \"#utility.yul\":13680:13787   */\n      swap3\n      swap2\n      pop\n      pop\n      jump\t// out\n        /* \"#utility.yul\":13793:14186   */\n    tag_307:\n        /* \"#utility.yul\":13862:13868   */\n      0x00\n        /* \"#utility.yul\":13912:13913   */\n      0x08\n        /* \"#utility.yul\":13900:13910   */\n      dup4\n        /* \"#utility.yul\":13896:13914   */\n      mul\n        /* \"#utility.yul\":13935:14032   */\n      tag_451\n        /* \"#utility.yul\":13965:14031   */\n      0xffffffffffffffffffffffffffffffffffffffffffffffffffffffffffffffff\n        /* \"#utility.yul\":13954:13963   */\n      dup3\n        /* \"#utility.yul\":13935:14032   */\n      tag_306\n      jump\t// in\n    tag_451:\n        /* \"#utility.yul\":14053:14092   */\n      tag_452\n        /* \"#utility.yul\":14083:14091   */\n      dup7\n        /* \"#utility.yul\":14072:14081   */\n      dup4\n        /* \"#utility.yul\":14053:14092   */\n      tag_306\n      jump\t// in\n    tag_452:\n        /* \"#utility.yul\":14041:14092   */\n      swap6\n      pop\n        /* \"#utility.yul\":14125:14129   */\n      dup1\n        /* \"#utility.yul\":14121:14130   */\n      not\n        /* \"#utility.yul\":14114:14119   */\n      dup5\n        /* \"#utility.yul\":14110:14131   */\n      and\n        /* \"#utility.yul\":14101:14131   */\n      swap4\n      pop\n        /* \"#utility.yul\":14174:14178   */\n      dup1\n        /* \"#utility.yul\":14164:14172   */\n      dup7\n        /* \"#utility.yul\":14160:14179   */\n      and\n        /* \"#utility.yul\":14153:14158   */\n      dup5\n        /* \"#utility.yul\":14150:14180   */\n      or\n        /* \"#utility.yul\":14140:14180   */\n      swap3\n      pop\n        /* \"#utility.yul\":13869:14186   */\n      pop\n      pop\n        /* \"#utility.yul\":13793:14186   */\n      swap4\n      swap3\n      pop\n      pop\n      pop\n      jump\t// out\n        /* \"#utility.yul\":14192:14252   */\n    tag_308:\n        /* \"#utility.yul\":14220:14223   */\n      0x00\n        /* \"#utility.yul\":14241:14246   */\n      dup2\n        /* \"#utility.yul\":14234:14246   */\n      swap1\n      pop\n        /* \"#utility.yul\":14192:14252   */\n      swap2\n      swap1\n      pop\n      jump\t// out\n        /* \"#utility.yul\":14258:14400   */\n    tag_309:\n        /* \"#utility.yul\":14308:14317   */\n      0x00\n        /* \"#utility.yul\":14341:14394   */\n      tag_455\n        /* \"#utility.yul\":14359:14393   */\n      tag_456\n        /* \"#utility.yul\":14368:14392   */\n      tag_457\n        /* \"#utility.yul\":14386:14391   */\n      dup5\n        /* \"#utility.yul\":14368:14392   */\n      tag_283\n      jump\t// in\n    tag_457:\n        /* \"#utility.yul\":14359:14393   */\n      tag_308\n      jump\t// in\n    tag_456:\n        /* \"#utility.yul\":14341:14394   */\n      tag_283\n      jump\t// in\n    tag_455:\n        /* \"#utility.yul\":14328:14394   */\n      swap1\n      pop\n        /* \"#utility.yul\":14258:14400   */\n      swap2\n      swap1\n      pop\n      jump\t// out\n        /* \"#utility.yul\":14406:14481   */\n    tag_310:\n        /* \"#utility.yul\":14449:14452   */\n      0x00\n        /* \"#utility.yul\":14470:14475   */\n      dup2\n        /* \"#utility.yul\":14463:14475   */\n      swap1\n      pop\n        /* \"#utility.yul\":14406:14481   */\n      swap2\n      swap1\n      pop\n      jump\t// out\n        /* \"#utility.yul\":14487:14756   */\n    tag_311:\n        /* \"#utility.yul\":14597:14636   */\n      tag_460\n        /* \"#utility.yul\":14628:14635   */\n      dup4\n        /* \"#utility.yul\":14597:14636   */\n      tag_309\n      jump\t// in\n    tag_460:\n        /* \"#utility.yul\":14658:14749   */\n      tag_461\n        /* \"#utility.yul\":14707:14748   */\n      tag_462\n        /* \"#utility.yul\":14731:14747   */\n      dup3\n        /* \"#utility.yul\":14707:14748   */\n      tag_310\n      jump\t// in\n    tag_462:\n        /* \"#utility.yul\":14699:14705   */\n      dup5\n        /* \"#utility.yul\":14692:14696   */\n      dup5\n        /* \"#utility.yul\":14686:14697   */\n      sload\n        /* \"#utility.yul\":14658:14749   */\n      tag_307\n      jump\t// in\n    tag_461:\n        /* \"#utility.yul\":14652:14656   */\n      dup3\n        /* \"#utility.yul\":14645:14750   */\n      sstore\n        /* \"#utility.yul\":14563:14756   */\n      pop\n        /* \"#utility.yul\":14487:14756   */\n      pop\n      pop\n      pop\n      jump\t// out\n        /* \"#utility.yul\":14762:14835   */\n    tag_312:\n        /* \"#utility.yul\":14807:14810   */\n      0x00\n        /* \"#utility.yul\":14828:14829   */\n      0x00\n        /* \"#utility.yul\":14821:14829   */\n      swap1\n      pop\n        /* \"#utility.yul\":14762:14835   */\n      swap1\n      jump\t// out\n        /* \"#utility.yul\":14841:15030   */\n    tag_313:\n        /* \"#utility.yul\":14918:14950   */\n      tag_465\n      tag_312\n      jump\t// in\n    tag_465:\n        /* \"#utility.yul\":14959:15024   */\n      tag_466\n        /* \"#utility.yul\":15017:15023   */\n      dup2\n        /* \"#utility.yul\":15009:15015   */\n      dup5\n        /* \"#utility.yul\":15003:15007   */\n      dup5\n        /* \"#utility.yul\":14959:15024   */\n      tag_311\n      jump\t// in\n    tag_466:\n        /* \"#utility.yul\":14894:15030   */\n      pop\n        /* \"#utility.yul\":14841:15030   */\n      pop\n      pop\n      jump\t// out\n        /* \"#utility.yul\":15036:15222   */\n    tag_314:\n        /* \"#utility.yul\":15096:15216   */\n    tag_468:\n        /* \"#utility.yul\":15113:15116   */\n      dup2\n        /* \"#utility.yul\":15106:15111   */\n      dup2\n        /* \"#utility.yul\":15103:15117   */\n      lt\n        /* \"#utility.yul\":15096:15216   */\n      iszero\n      tag_470\n      jumpi\n        /* \"#utility.yul\":15167:15206   */\n      tag_471\n        /* \"#utility.yul\":15204:15205   */\n      0x00\n        /* \"#utility.yul\":15197:15202   */\n      dup3\n        /* \"#utility.yul\":15167:15206   */\n      tag_313\n      jump\t// in\n    tag_471:\n        /* \"#utility.yul\":15140:15141   */\n      0x01\n        /* \"#utility.yul\":15133:15138   */\n      dup2\n        /* \"#utility.yul\":15129:15142   */\n      add\n        /* \"#utility.yul\":15120:15142   */\n      swap1\n      pop\n        /* \"#utility.yul\":15096:15216   */\n      jump(tag_468)\n    tag_470:\n        /* \"#utility.yul\":15036:15222   */\n      pop\n      pop\n      jump\t// out\n        /* \"#utility.yul\":15228:15771   */\n    tag_315:\n        /* \"#utility.yul\":15329:15331   */\n      0x1f\n        /* \"#utility.yul\":15324:15327   */\n      dup3\n        /* \"#utility.yul\":15321:15332   */\n      gt\n        /* \"#utility.yul\":15318:15764   */\n      iszero\n      tag_473\n      jumpi\n        /* \"#utility.yul\":15363:15401   */\n      tag_474\n        /* \"#utility.yul\":15395:15400   */\n      dup2\n        /* \"#utility.yul\":15363:15401   */\n      tag_304\n      jump\t// in\n    tag_474:\n        /* \"#utility.yul\":15447:15476   */\n      tag_475\n        /* \"#utility.yul\":15465:15475   */\n      dup5\n        /* \"#utility.yul\":15447:15476   */\n      tag_305\n      jump\t// in\n    tag_475:\n        /* \"#utility.yul\":15437:15445   */\n      dup2\n        /* \"#utility.yul\":15433:15477   */\n      add\n        /* \"#utility.yul\":15630:15632   */\n      0x20\n        /* \"#utility.yul\":15618:15628   */\n      dup6\n        /* \"#utility.yul\":15615:15633   */\n      lt\n        /* \"#utility.yul\":15612:15661   */\n      iszero\n      tag_476\n      jumpi\n        /* \"#utility.yul\":15651:15659   */\n      dup2\n        /* \"#utility.yul\":15636:15659   */\n      swap1\n      pop\n        /* \"#utility.yul\":15612:15661   */\n    tag_476:\n        /* \"#utility.yul\":15674:15754   */\n      tag_477\n        /* \"#utility.yul\":15730:15752   */\n      tag_478\n        /* \"#utility.yul\":15748:15751   */\n      dup6\n        /* \"#utility.yul\":15730:15752   */\n      tag_305\n      jump\t// in\n    tag_478:\n        /* \"#utility.yul\":15720:15728   */\n      dup4\n        /* \"#utility.yul\":15716:15753   */\n      add\n        /* \"#utility.yul\":15703:15714   */\n      dup3\n        /* \"#utility.yul\":15674:15754   */\n      tag_314\n      jump\t// in\n    tag_477:\n        /* \"#utility.yul\":15333:15764   */\n      pop\n      pop\n        /* \"#utility.yul\":15318:15764   */\n    tag_473:\n        /* \"#utility.yul\":15228:15771   */\n      pop\n      pop\n      pop\n      jump\t// out\n        /* \"#utility.yul\":15777:15894   */\n    tag_316:\n        /* \"#utility.yul\":15831:15839   */\n      0x00\n        /* \"#utility.yul\":15881:15886   */\n      dup3\n        /* \"#utility.yul\":15875:15879   */\n      dup3\n        /* \"#utility.yul\":15871:15887   */\n      shr\n        /* \"#utility.yul\":15850:15887   */\n      swap1\n      pop\n        /* \"#utility.yul\":15777:15894   */\n      swap3\n      swap2\n      pop\n      pop\n      jump\t// out\n        /* \"#utility.yul\":15900:16069   */\n    tag_317:\n        /* \"#utility.yul\":15944:15950   */\n      0x00\n        /* \"#utility.yul\":15977:16028   */\n      tag_481\n        /* \"#utility.yul\":16025:16026   */\n      0x00\n        /* \"#utility.yul\":16021:16027   */\n      not\n        /* \"#utility.yul\":16013:16018   */\n      dup5\n        /* \"#utility.yul\":16010:16011   */\n      0x08\n        /* \"#utility.yul\":16006:16019   */\n      mul\n        /* \"#utility.yul\":15977:16028   */\n      tag_316\n      jump\t// in\n    tag_481:\n        /* \"#utility.yul\":15973:16029   */\n      not\n        /* \"#utility.yul\":16058:16062   */\n      dup1\n        /* \"#utility.yul\":16052:16056   */\n      dup4\n        /* \"#utility.yul\":16048:16063   */\n      and\n        /* \"#utility.yul\":16038:16063   */\n      swap2\n      pop\n        /* \"#utility.yul\":15951:16069   */\n      pop\n        /* \"#utility.yul\":15900:16069   */\n      swap3\n      swap2\n      pop\n      pop\n      jump\t// out\n        /* \"#utility.yul\":16074:16369   */\n    tag_318:\n        /* \"#utility.yul\":16150:16154   */\n      0x00\n        /* \"#utility.yul\":16296:16325   */\n      tag_483\n        /* \"#utility.yul\":16321:16324   */\n      dup4\n        /* \"#utility.yul\":16315:16319   */\n      dup4\n        /* \"#utility.yul\":16296:16325   */\n      tag_317\n      jump\t// in\n    tag_483:\n        /* \"#utility.yul\":16288:16325   */\n      swap2\n      pop\n        /* \"#utility.yul\":16358:16361   */\n      dup3\n        /* \"#utility.yul\":16355:16356   */\n      0x02\n        /* \"#utility.yul\":16351:16362   */\n      mul\n        /* \"#utility.yul\":16345:16349   */\n      dup3\n        /* \"#utility.yul\":16342:16363   */\n      or\n        /* \"#utility.yul\":16334:16363   */\n      swap1\n      pop\n        /* \"#utility.yul\":16074:16369   */\n      swap3\n      swap2\n      pop\n      pop\n      jump\t// out\n        /* \"#utility.yul\":16374:17769   */\n    tag_101:\n        /* \"#utility.yul\":16491:16528   */\n      tag_485\n        /* \"#utility.yul\":16524:16527   */\n      dup3\n        /* \"#utility.yul\":16491:16528   */\n      tag_278\n      jump\t// in\n    tag_485:\n        /* \"#utility.yul\":16593:16611   */\n      0xffffffffffffffff\n        /* \"#utility.yul\":16585:16591   */\n      dup2\n        /* \"#utility.yul\":16582:16612   */\n      gt\n        /* \"#utility.yul\":16579:16635   */\n      iszero\n      tag_486\n      jumpi\n        /* \"#utility.yul\":16615:16633   */\n      tag_487\n      tag_173\n      jump\t// in\n    tag_487:\n        /* \"#utility.yul\":16579:16635   */\n    tag_486:\n        /* \"#utility.yul\":16659:16697   */\n      tag_488\n        /* \"#utility.yul\":16691:16695   */\n      dup3\n        /* \"#utility.yul\":16685:16696   */\n      sload\n        /* \"#utility.yul\":16659:16697   */\n      tag_189\n      jump\t// in\n    tag_488:\n        /* \"#utility.yul\":16744:16811   */\n      tag_489\n        /* \"#utility.yul\":16804:16810   */\n      dup3\n        /* \"#utility.yul\":16796:16802   */\n      dup3\n        /* \"#utility.yul\":16790:16794   */\n      dup6\n        /* \"#utility.yul\":16744:16811   */\n      tag_315\n      jump\t// in\n    tag_489:\n        /* \"#utility.yul\":16838:16839   */\n      0x00\n        /* \"#utility.yul\":16862:16866   */\n      0x20\n        /* \"#utility.yul\":16849:16866   */\n      swap1\n      pop\n        /* \"#utility.yul\":16894:16896   */\n      0x1f\n        /* \"#utility.yul\":16886:16892   */\n      dup4\n        /* \"#utility.yul\":16883:16897   */\n      gt\n        /* \"#utility.yul\":16911:16912   */\n      0x01\n        /* \"#utility.yul\":16906:17524   */\n      dup2\n      eq\n      tag_491\n      jumpi\n        /* \"#utility.yul\":17568:17569   */\n      0x00\n        /* \"#utility.yul\":17585:17591   */\n      dup5\n        /* \"#utility.yul\":17582:17659   */\n      iszero\n      tag_492\n      jumpi\n        /* \"#utility.yul\":17634:17643   */\n      dup3\n        /* \"#utility.yul\":17629:17632   */\n      dup8\n        /* \"#utility.yul\":17625:17644   */\n      add\n        /* \"#utility.yul\":17619:17645   */\n      mload\n        /* \"#utility.yul\":17610:17645   */\n      swap1\n      pop\n        /* \"#utility.yul\":17582:17659   */\n    tag_492:\n        /* \"#utility.yul\":17685:17752   */\n      tag_493\n        /* \"#utility.yul\":17745:17751   */\n      dup6\n        /* \"#utility.yul\":17738:17743   */\n      dup3\n        /* \"#utility.yul\":17685:17752   */\n      tag_318\n      jump\t// in\n    tag_493:\n        /* \"#utility.yul\":17679:17683   */\n      dup7\n        /* \"#utility.yul\":17672:17753   */\n      sstore\n        /* \"#utility.yul\":17541:17763   */\n      pop\n        /* \"#utility.yul\":16876:17763   */\n      jump(tag_490)\n        /* \"#utility.yul\":16906:17524   */\n    tag_491:\n        /* \"#utility.yul\":16958:16962   */\n      0x1f\n        /* \"#utility.yul\":16954:16963   */\n      not\n        /* \"#utility.yul\":16946:16952   */\n      dup5\n        /* \"#utility.yul\":16942:16964   */\n      and\n        /* \"#utility.yul\":16992:17029   */\n      tag_494\n        /* \"#utility.yul\":17024:17028   */\n      dup7\n        /* \"#utility.yul\":16992:17029   */\n      tag_304\n      jump\t// in\n    tag_494:\n        /* \"#utility.yul\":17051:17052   */\n      0x00\n        /* \"#utility.yul\":17065:17273   */\n    tag_495:\n        /* \"#utility.yul\":17079:17086   */\n      dup3\n        /* \"#utility.yul\":17076:17077   */\n      dup2\n        /* \"#utility.yul\":17073:17087   */\n      lt\n        /* \"#utility.yul\":17065:17273   */\n      iszero\n      tag_497\n      jumpi\n        /* \"#utility.yul\":17158:17167   */\n      dup5\n        /* \"#utility.yul\":17153:17156   */\n      dup10\n        /* \"#utility.yul\":17149:17168   */\n      add\n        /* \"#utility.yul\":17143:17169   */\n      mload\n        /* \"#utility.yul\":17135:17141   */\n      dup3\n        /* \"#utility.yul\":17128:17170   */\n      sstore\n        /* \"#utility.yul\":17209:17210   */\n      0x01\n        /* \"#utility.yul\":17201:17207   */\n      dup3\n        /* \"#utility.yul\":17197:17211   */\n      add\n        /* \"#utility.yul\":17187:17211   */\n      swap2\n      pop\n        /* \"#utility.yul\":17256:17258   */\n      0x20\n        /* \"#utility.yul\":17245:17254   */\n      dup6\n        /* \"#utility.yul\":17241:17259   */\n      add\n        /* \"#utility.yul\":17228:17259   */\n      swap5\n      pop\n        /* \"#utility.yul\":17102:17106   */\n      0x20\n        /* \"#utility.yul\":17099:17100   */\n      dup2\n        /* \"#utility.yul\":17095:17107   */\n      add\n        /* \"#utility.yul\":17090:17107   */\n      swap1\n      pop\n        /* \"#utility.yul\":17065:17273   */\n      jump(tag_495)\n    tag_497:\n        /* \"#utility.yul\":17301:17307   */\n      dup7\n        /* \"#utility.yul\":17292:17299   */\n      dup4\n        /* \"#utility.yul\":17289:17308   */\n      lt\n        /* \"#utility.yul\":17286:17465   */\n      iszero\n      tag_498\n      jumpi\n        /* \"#utility.yul\":17359:17368   */\n      dup5\n        /* \"#utility.yul\":17354:17357   */\n      dup10\n        /* \"#utility.yul\":17350:17369   */\n      add\n        /* \"#utility.yul\":17344:17370   */\n      mload\n        /* \"#utility.yul\":17402:17450   */\n      tag_499\n        /* \"#utility.yul\":17444:17448   */\n      0x1f\n        /* \"#utility.yul\":17436:17442   */\n      dup10\n        /* \"#utility.yul\":17432:17449   */\n      and\n        /* \"#utility.yul\":17421:17430   */\n      dup3\n        /* \"#utility.yul\":17402:17450   */\n      tag_317\n      jump\t// in\n    tag_499:\n        /* \"#utility.yul\":17394:17400   */\n      dup4\n        /* \"#utility.yul\":17387:17451   */\n      sstore\n        /* \"#utility.yul\":17309:17465   */\n      pop\n        /* \"#utility.yul\":17286:17465   */\n    tag_498:\n        /* \"#utility.yul\":17511:17512   */\n      0x01\n        /* \"#utility.yul\":17507:17508   */\n      0x02\n        /* \"#utility.yul\":17499:17505   */\n      dup9\n        /* \"#utility.yul\":17495:17509   */\n      mul\n        /* \"#utility.yul\":17491:17513   */\n      add\n        /* \"#utility.yul\":17485:17489   */\n      dup9\n        /* \"#utility.yul\":17478:17514   */\n      sstore\n        /* \"#utility.yul\":16913:17524   */\n      pop\n      pop\n      pop\n        /* \"#utility.yul\":16876:17763   */\n    tag_490:\n      pop\n        /* \"#utility.yul\":16466:17769   */\n      pop\n      pop\n      pop\n        /* \"#utility.yul\":16374:17769   */\n      pop\n      pop\n      jump\t// out\n        /* \"#utility.yul\":17775:17969   */\n    tag_103:\n        /* \"#utility.yul\":17815:17819   */\n      0x00\n        /* \"#utility.yul\":17835:17855   */\n      tag_501\n        /* \"#utility.yul\":17853:17854   */\n      dup3\n        /* \"#utility.yul\":17835:17855   */\n      tag_283\n      jump\t// in\n    tag_501:\n        /* \"#utility.yul\":17830:17855   */\n      swap2\n      pop\n        /* \"#utility.yul\":17869:17889   */\n      tag_502\n        /* \"#utility.yul\":17887:17888   */\n      dup4\n        /* \"#utility.yul\":17869:17889   */\n      tag_283\n      jump\t// in\n    tag_502:\n        /* \"#utility.yul\":17864:17889   */\n      swap3\n      pop\n        /* \"#utility.yul\":17913:17914   */\n      dup3\n        /* \"#utility.yul\":17910:17911   */\n      dup3\n        /* \"#utility.yul\":17906:17915   */\n      sub\n        /* \"#utility.yul\":17898:17915   */\n      swap1\n      pop\n        /* \"#utility.yul\":17937:17938   */\n      dup2\n        /* \"#utility.yul\":17931:17935   */\n      dup2\n        /* \"#utility.yul\":17928:17939   */\n      gt\n        /* \"#utility.yul\":17925:17962   */\n      iszero\n      tag_503\n      jumpi\n        /* \"#utility.yul\":17942:17960   */\n      tag_504\n      tag_294\n      jump\t// in\n    tag_504:\n        /* \"#utility.yul\":17925:17962   */\n    tag_503:\n        /* \"#utility.yul\":17775:17969   */\n      swap3\n      swap2\n      pop\n      pop\n      jump\t// out\n        /* \"#utility.yul\":17975:18093   */\n    tag_319:\n        /* \"#utility.yul\":18062:18086   */\n      tag_506\n        /* \"#utility.yul\":18080:18085   */\n      dup2\n        /* \"#utility.yul\":18062:18086   */\n      tag_283\n      jump\t// in\n    tag_506:\n        /* \"#utility.yul\":18057:18060   */\n      dup3\n        /* \"#utility.yul\":18050:18087   */\n      mstore\n        /* \"#utility.yul\":17975:18093   */\n      pop\n      pop\n      jump\t// out\n        /* \"#utility.yul\":18099:18321   */\n    tag_105:\n        /* \"#utility.yul\":18192:18196   */\n      0x00\n        /* \"#utility.yul\":18230:18232   */\n      0x20\n        /* \"#utility.yul\":18219:18228   */\n      dup3\n        /* \"#utility.yul\":18215:18233   */\n      add\n        /* \"#utility.yul\":18207:18233   */\n      swap1\n      pop\n        /* \"#utility.yul\":18243:18314   */\n      tag_508\n        /* \"#utility.yul\":18311:18312   */\n      0x00\n        /* \"#utility.yul\":18300:18309   */\n      dup4\n        /* \"#utility.yul\":18296:18313   */\n      add\n        /* \"#utility.yul\":18287:18293   */\n      dup5\n        /* \"#utility.yul\":18243:18314   */\n      tag_319\n      jump\t// in\n    tag_508:\n        /* \"#utility.yul\":18099:18321   */\n      swap3\n      swap2\n      pop\n      pop\n      jump\t// out\n        /* \"#utility.yul\":18327:18557   */\n    tag_320:\n        /* \"#utility.yul\":18467:18501   */\n      0x54686520766f74657220697320616c7265616479206f6e2074686520766f7465\n        /* \"#utility.yul\":18463:18464   */\n      0x00\n        /* \"#utility.yul\":18455:18461   */\n      dup3\n        /* \"#utility.yul\":18451:18465   */\n      add\n        /* \"#utility.yul\":18444:18502   */\n      mstore\n        /* \"#utility.yul\":18536:18549   */\n      0x727357686974656c697374000000000000000000000000000000000000000000\n        /* \"#utility.yul\":18531:18533   */\n      0x20\n        /* \"#utility.yul\":18523:18529   */\n      dup3\n        /* \"#utility.yul\":18519:18534   */\n      add\n        /* \"#utility.yul\":18512:18550   */\n      mstore\n        /* \"#utility.yul\":18327:18557   */\n      pop\n      jump\t// out\n        /* \"#utility.yul\":18563:18929   */\n    tag_321:\n        /* \"#utility.yul\":18705:18708   */\n      0x00\n        /* \"#utility.yul\":18726:18793   */\n      tag_511\n        /* \"#utility.yul\":18790:18792   */\n      0x2b\n        /* \"#utility.yul\":18785:18788   */\n      dup4\n        /* \"#utility.yul\":18726:18793   */\n      tag_291\n      jump\t// in\n    tag_511:\n        /* \"#utility.yul\":18719:18793   */\n      swap2\n      pop\n        /* \"#utility.yul\":18802:18895   */\n      tag_512\n        /* \"#utility.yul\":18891:18894   */\n      dup3\n        /* \"#utility.yul\":18802:18895   */\n      tag_320\n      jump\t// in\n    tag_512:\n        /* \"#utility.yul\":18920:18922   */\n      0x40\n        /* \"#utility.yul\":18915:18918   */\n      dup3\n        /* \"#utility.yul\":18911:18923   */\n      add\n        /* \"#utility.yul\":18904:18923   */\n      swap1\n      pop\n        /* \"#utility.yul\":18563:18929   */\n      swap2\n      swap1\n      pop\n      jump\t// out\n        /* \"#utility.yul\":18935:19354   */\n    tag_118:\n        /* \"#utility.yul\":19101:19105   */\n      0x00\n        /* \"#utility.yul\":19139:19141   */\n      0x20\n        /* \"#utility.yul\":19128:19137   */\n      dup3\n        /* \"#utility.yul\":19124:19142   */\n      add\n        /* \"#utility.yul\":19116:19142   */\n      swap1\n      pop\n        /* \"#utility.yul\":19188:19197   */\n      dup2\n        /* \"#utility.yul\":19182:19186   */\n      dup2\n        /* \"#utility.yul\":19178:19198   */\n      sub\n        /* \"#utility.yul\":19174:19175   */\n      0x00\n        /* \"#utility.yul\":19163:19172   */\n      dup4\n        /* \"#utility.yul\":19159:19176   */\n      add\n        /* \"#utility.yul\":19152:19199   */\n      mstore\n        /* \"#utility.yul\":19216:19347   */\n      tag_514\n        /* \"#utility.yul\":19342:19346   */\n      dup2\n        /* \"#utility.yul\":19216:19347   */\n      tag_321\n      jump\t// in\n    tag_514:\n        /* \"#utility.yul\":19208:19347   */\n      swap1\n      pop\n        /* \"#utility.yul\":18935:19354   */\n      swap2\n      swap1\n      pop\n      jump\t// out\n        /* \"#utility.yul\":19360:19540   */\n    tag_152:\n        /* \"#utility.yul\":19408:19485   */\n      0x4e487b7100000000000000000000000000000000000000000000000000000000\n        /* \"#utility.yul\":19405:19406   */\n      0x00\n        /* \"#utility.yul\":19398:19486   */\n      mstore\n        /* \"#utility.yul\":19505:19509   */\n      0x32\n        /* \"#utility.yul\":19502:19503   */\n      0x04\n        /* \"#utility.yul\":19495:19510   */\n      mstore\n        /* \"#utility.yul\":19529:19533   */\n      0x24\n        /* \"#utility.yul\":19526:19527   */\n      0x00\n        /* \"#utility.yul\":19519:19534   */\n      revert\n        /* \"#utility.yul\":19546:19779   */\n    tag_170:\n        /* \"#utility.yul\":19585:19588   */\n      0x00\n        /* \"#utility.yul\":19608:19632   */\n      tag_517\n        /* \"#utility.yul\":19626:19631   */\n      dup3\n        /* \"#utility.yul\":19608:19632   */\n      tag_283\n      jump\t// in\n    tag_517:\n        /* \"#utility.yul\":19599:19632   */\n      swap2\n      pop\n        /* \"#utility.yul\":19654:19720   */\n      0xffffffffffffffffffffffffffffffffffffffffffffffffffffffffffffffff\n        /* \"#utility.yul\":19647:19652   */\n      dup3\n        /* \"#utility.yul\":19644:19721   */\n      sub\n        /* \"#utility.yul\":19641:19744   */\n      tag_518\n      jumpi\n        /* \"#utility.yul\":19724:19742   */\n      tag_519\n      tag_294\n      jump\t// in\n    tag_519:\n        /* \"#utility.yul\":19641:19744   */\n    tag_518:\n        /* \"#utility.yul\":19771:19772   */\n      0x01\n        /* \"#utility.yul\":19764:19769   */\n      dup3\n        /* \"#utility.yul\":19760:19773   */\n      add\n        /* \"#utility.yul\":19753:19773   */\n      swap1\n      pop\n        /* \"#utility.yul\":19546:19779   */\n      swap2\n      swap1\n      pop\n      jump\t// out\n        /* \"#utility.yul\":19785:19962   */\n    tag_322:\n        /* \"#utility.yul\":19925:19954   */\n      0x54686520766f7465722068617320616c726561647920766f7465640000000000\n        /* \"#utility.yul\":19921:19922   */\n      0x00\n        /* \"#utility.yul\":19913:19919   */\n      dup3\n        /* \"#utility.yul\":19909:19923   */\n      add\n        /* \"#utility.yul\":19902:19955   */\n      mstore\n        /* \"#utility.yul\":19785:19962   */\n      pop\n      jump\t// out\n        /* \"#utility.yul\":19968:20334   */\n    tag_323:\n        /* \"#utility.yul\":20110:20113   */\n      0x00\n        /* \"#utility.yul\":20131:20198   */\n      tag_522\n        /* \"#utility.yul\":20195:20197   */\n      0x1b\n        /* \"#utility.yul\":20190:20193   */\n      dup4\n        /* \"#utility.yul\":20131:20198   */\n      tag_291\n      jump\t// in\n    tag_522:\n        /* \"#utility.yul\":20124:20198   */\n      swap2\n      pop\n        /* \"#utility.yul\":20207:20300   */\n      tag_523\n        /* \"#utility.yul\":20296:20299   */\n      dup3\n        /* \"#utility.yul\":20207:20300   */\n      tag_322\n      jump\t// in\n    tag_523:\n        /* \"#utility.yul\":20325:20327   */\n      0x20\n        /* \"#utility.yul\":20320:20323   */\n      dup3\n        /* \"#utility.yul\":20316:20328   */\n      add\n        /* \"#utility.yul\":20309:20328   */\n      swap1\n      pop\n        /* \"#utility.yul\":19968:20334   */\n      swap2\n      swap1\n      pop\n      jump\t// out\n        /* \"#utility.yul\":20340:20759   */\n    tag_223:\n        /* \"#utility.yul\":20506:20510   */\n      0x00\n        /* \"#utility.yul\":20544:20546   */\n      0x20\n        /* \"#utility.yul\":20533:20542   */\n      dup3\n        /* \"#utility.yul\":20529:20547   */\n      add\n        /* \"#utility.yul\":20521:20547   */\n      swap1\n      pop\n        /* \"#utility.yul\":20593:20602   */\n      dup2\n        /* \"#utility.yul\":20587:20591   */\n      dup2\n        /* \"#utility.yul\":20583:20603   */\n      sub\n        /* \"#utility.yul\":20579:20580   */\n      0x00\n        /* \"#utility.yul\":20568:20577   */\n      dup4\n        /* \"#utility.yul\":20564:20581   */\n      add\n        /* \"#utility.yul\":20557:20604   */\n      mstore\n        /* \"#utility.yul\":20621:20752   */\n      tag_525\n        /* \"#utility.yul\":20747:20751   */\n      dup2\n        /* \"#utility.yul\":20621:20752   */\n      tag_323\n      jump\t// in\n    tag_525:\n        /* \"#utility.yul\":20613:20752   */\n      swap1\n      pop\n        /* \"#utility.yul\":20340:20759   */\n      swap2\n      swap1\n      pop\n      jump\t// out\n        /* \"#utility.yul\":20765:20934   */\n    tag_324:\n        /* \"#utility.yul\":20905:20926   */\n      0x496e76616c69642070726f706f73616c20696400000000000000000000000000\n        /* \"#utility.yul\":20901:20902   */\n      0x00\n        /* \"#utility.yul\":20893:20899   */\n      dup3\n        /* \"#utility.yul\":20889:20903   */\n      add\n        /* \"#utility.yul\":20882:20927   */\n      mstore\n        /* \"#utility.yul\":20765:20934   */\n      pop\n      jump\t// out\n        /* \"#utility.yul\":20940:21306   */\n    tag_325:\n        /* \"#utility.yul\":21082:21085   */\n      0x00\n        /* \"#utility.yul\":21103:21170   */\n      tag_528\n        /* \"#utility.yul\":21167:21169   */\n      0x13\n        /* \"#utility.yul\":21162:21165   */\n      dup4\n        /* \"#utility.yul\":21103:21170   */\n      tag_291\n      jump\t// in\n    tag_528:\n        /* \"#utility.yul\":21096:21170   */\n      swap2\n      pop\n        /* \"#utility.yul\":21179:21272   */\n      tag_529\n        /* \"#utility.yul\":21268:21271   */\n      dup3\n        /* \"#utility.yul\":21179:21272   */\n      tag_324\n      jump\t// in\n    tag_529:\n        /* \"#utility.yul\":21297:21299   */\n      0x20\n        /* \"#utility.yul\":21292:21295   */\n      dup3\n        /* \"#utility.yul\":21288:21300   */\n      add\n        /* \"#utility.yul\":21281:21300   */\n      swap1\n      pop\n        /* \"#utility.yul\":20940:21306   */\n      swap2\n      swap1\n      pop\n      jump\t// out\n        /* \"#utility.yul\":21312:21731   */\n    tag_227:\n        /* \"#utility.yul\":21478:21482   */\n      0x00\n        /* \"#utility.yul\":21516:21518   */\n      0x20\n        /* \"#utility.yul\":21505:21514   */\n      dup3\n        /* \"#utility.yul\":21501:21519   */\n      add\n        /* \"#utility.yul\":21493:21519   */\n      swap1\n      pop\n        /* \"#utility.yul\":21565:21574   */\n      dup2\n        /* \"#utility.yul\":21559:21563   */\n      dup2\n        /* \"#utility.yul\":21555:21575   */\n      sub\n        /* \"#utility.yul\":21551:21552   */\n      0x00\n        /* \"#utility.yul\":21540:21549   */\n      dup4\n        /* \"#utility.yul\":21536:21553   */\n      add\n        /* \"#utility.yul\":21529:21576   */\n      mstore\n        /* \"#utility.yul\":21593:21724   */\n      tag_531\n        /* \"#utility.yul\":21719:21723   */\n      dup2\n        /* \"#utility.yul\":21593:21724   */\n      tag_325\n      jump\t// in\n    tag_531:\n        /* \"#utility.yul\":21585:21724   */\n      swap1\n      pop\n        /* \"#utility.yul\":21312:21731   */\n      swap2\n      swap1\n      pop\n      jump\t// out\n        /* \"#utility.yul\":21737:22069   */\n    tag_233:\n        /* \"#utility.yul\":21858:21862   */\n      0x00\n        /* \"#utility.yul\":21896:21898   */\n      0x40\n        /* \"#utility.yul\":21885:21894   */\n      dup3\n        /* \"#utility.yul\":21881:21899   */\n      add\n        /* \"#utility.yul\":21873:21899   */\n      swap1\n      pop\n        /* \"#utility.yul\":21909:21980   */\n      tag_533\n        /* \"#utility.yul\":21977:21978   */\n      0x00\n        /* \"#utility.yul\":21966:21975   */\n      dup4\n        /* \"#utility.yul\":21962:21979   */\n      add\n        /* \"#utility.yul\":21953:21959   */\n      dup6\n        /* \"#utility.yul\":21909:21980   */\n      tag_274\n      jump\t// in\n    tag_533:\n        /* \"#utility.yul\":21990:22062   */\n      tag_534\n        /* \"#utility.yul\":22058:22060   */\n      0x20\n        /* \"#utility.yul\":22047:22056   */\n      dup4\n        /* \"#utility.yul\":22043:22061   */\n      add\n        /* \"#utility.yul\":22034:22040   */\n      dup5\n        /* \"#utility.yul\":21990:22062   */\n      tag_319\n      jump\t// in\n    tag_534:\n        /* \"#utility.yul\":21737:22069   */\n      swap4\n      swap3\n      pop\n      pop\n      pop\n      jump\t// out\n\n    auxdata: 0xa26469706673582212206cf0a45434dd6cc7dc0a920f4c4ff5a8a0a81882daf397c0904d975080dbee1364736f6c634300081e0033\n}\n",
				"bytecode": {
					"linkReferences": {},
					"object": "60806040525f60025f6101000a81548160ff0219169083600581111561002857610027610180565b5b0217905550348015610038575f5ffd5b50335f73ffffffffffffffffffffffffffffffffffffffff168173ffffffffffffffffffffffffffffffffffffffff16036100aa575f6040517f1e4fbdf70000000000000000000000000000000000000000000000000000000081526004016100a191906101ec565b60405180910390fd5b6100b9816100bf60201b60201c565b50610205565b5f5f5f9054906101000a900473ffffffffffffffffffffffffffffffffffffffff169050815f5f6101000a81548173ffffffffffffffffffffffffffffffffffffffff021916908373ffffffffffffffffffffffffffffffffffffffff1602179055508173ffffffffffffffffffffffffffffffffffffffff168173ffffffffffffffffffffffffffffffffffffffff167f8be0079c531659141344cd1fd0a4f28419497f9722a3daafe3b4186f6b6457e060405160405180910390a35050565b7f4e487b71000000000000000000000000000000000000000000000000000000005f52602160045260245ffd5b5f73ffffffffffffffffffffffffffffffffffffffff82169050919050565b5f6101d6826101ad565b9050919050565b6101e6816101cc565b82525050565b5f6020820190506101ff5f8301846101dd565b92915050565b611ddd806102125f395ff3fe608060405234801561000f575f5ffd5b50600436106100b2575f3560e01c80638da5cb5b1161006f5780638da5cb5b146101165780638e7ea5b214610134578063ada7415f14610152578063dcd6a5cd1461015c578063ee74c67814610178578063f2fde38b14610182576100b2565b80630f7e2838146100b657806317a0ad8e146100c05780632f95355b146100ca57806338db6dd3146100e65780634abfba2b14610102578063715018a61461010c575b5f5ffd5b6100be61019e565b005b6100c86102a4565b005b6100e460048036038101906100df91906112e2565b6103e2565b005b61010060048036038101906100fb9190611387565b6105d5565b005b61010a61076f565b005b6101146108ac565b005b61011e6108bf565b60405161012b91906113c1565b60405180910390f35b61013c6108e6565b6040516101499190611557565b60405180910390f35b61015a610be0565b005b610176600480360381019061017191906115a1565b610cda565b005b610180610f87565b005b61019c60048036038101906101979190611387565b61108d565b005b6101a6611111565b5f60025f9054906101000a900460ff1660058111156101c8576101c76115cc565b5b8160058111156101db576101da6115cc565b5b1461021b576040517f08c379a000000000000000000000000000000000000000000000000000000000815260040161021290611653565b60405180910390fd5b600160025f6101000a81548160ff021916908360058111156102405761023f6115cc565b5b02179055506201518042610254919061169e565b6003819055507f0a97a4ee45751e2abf3e4fc8946939630b11b371ea8ae39ccdc3056e98f5cc3f5f60025f9054906101000a900460ff16604051610299929190611717565b60405180910390a150565b6102ac611111565b600360025f9054906101000a900460ff1660058111156102cf576102ce6115cc565b5b8160058111156102e2576102e16115cc565b5b14610322576040517f08c379a000000000000000000000000000000000000000000000000000000000815260040161031990611653565b60405180910390fd5b6003544211610366576040517f08c379a000000000000000000000000000000000000000000000000000000000815260040161035d906117ae565b60405180910390fd5b600460025f6101000a81548160ff0219169083600581111561038b5761038a6115cc565b5b02179055505f6003819055507f0a97a4ee45751e2abf3e4fc8946939630b11b371ea8ae39ccdc3056e98f5cc3f600360025f9054906101000a900460ff166040516103d7929190611717565b60405180910390a150565b600160025f9054906101000a900460ff166005811115610405576104046115cc565b5b816005811115610418576104176115cc565b5b14610458576040517f08c379a000000000000000000000000000000000000000000000000000000000815260040161044f90611653565b60405180910390fd5b60015f3373ffffffffffffffffffffffffffffffffffffffff1673ffffffffffffffffffffffffffffffffffffffff1681526020019081526020015f205f015f9054906101000a900460ff166104e3576040517f08c379a00000000000000000000000000000000000000000000000000000000081526004016104da9061183c565b60405180910390fd5b5f604051806040016040528085858080601f0160208091040260200160405190810160405280939291908181526020018383808284375f81840152601f19601f8201169050808301925050505050505081526020015f8152509050600481908060018154018082558091505060019003905f5260205f2090600202015f909190919091505f820151815f01908161057a9190611a84565b506020820151816001015550507f92e393e9b54e2f801d3ea4beb0c5e71a21cc34a5d34b77d0fb8a3aa1650dc18f60016004805490506105ba9190611b53565b6040516105c79190611b95565b60405180910390a150505050565b6105dd611111565b5f60025f9054906101000a900460ff1660058111156105ff576105fe6115cc565b5b816005811115610612576106116115cc565b5b14610652576040517f08c379a000000000000000000000000000000000000000000000000000000000815260040161064990611653565b60405180910390fd5b60015f8373ffffffffffffffffffffffffffffffffffffffff1673ffffffffffffffffffffffffffffffffffffffff1681526020019081526020015f205f015f9054906101000a900460ff16156106de576040517f08c379a00000000000000000000000000000000000000000000000000000000081526004016106d590611c1e565b60405180910390fd5b6001805f8473ffffffffffffffffffffffffffffffffffffffff1673ffffffffffffffffffffffffffffffffffffffff1681526020019081526020015f205f015f6101000a81548160ff0219169083151502179055507fb6be2187d059cc2a55fe29e0e503b566e1e0f8c8780096e185429350acffd3dd8260405161076391906113c1565b60405180910390a15050565b610777611111565b600160025f9054906101000a900460ff16600581111561079a576107996115cc565b5b8160058111156107ad576107ac6115cc565b5b146107ed576040517f08c379a00000000000000000000000000000000000000000000000000000000081526004016107e490611653565b60405180910390fd5b6003544211610831576040517f08c379a0000000000000000000000000000000000000000000000000000000008152600401610828906117ae565b60405180910390fd5b6002805f6101000a81548160ff02191690836005811115610855576108546115cc565b5b02179055505f6003819055507f0a97a4ee45751e2abf3e4fc8946939630b11b371ea8ae39ccdc3056e98f5cc3f600160025f9054906101000a900460ff166040516108a1929190611717565b60405180910390a150565b6108b4611111565b6108bd5f611198565b565b5f5f5f9054906101000a900473ffffffffffffffffffffffffffffffffffffffff16905090565b6060600560025f9054906101000a900460ff16600581111561090b5761090a6115cc565b5b81600581111561091e5761091d6115cc565b5b1461095e576040517f08c379a000000000000000000000000000000000000000000000000000000000815260040161095590611653565b60405180910390fd5b5f60045f8154811061097357610972611c3c565b5b905f5260205f2090600202016001015490505f600190505f600190505b600480549050811015610a3e5782600482815481106109b2576109b1611c3c565b5b905f5260205f2090600202016001015411156109f757600481815481106109dc576109db611c3c565b5b905f5260205f20906002020160010154925060019150610a31565b8260048281548110610a0c57610a0b611c3c565b5b905f5260205f2090600202016001015403610a30578180610a2c90611c69565b9250505b5b8080600101915050610990565b505f8167ffffffffffffffff811115610a5a57610a5961185a565b5b604051908082528060200260200182016040528015610a9357816020015b610a80611260565b815260200190600190039081610a785790505b5090505f5f90505f5f90505b600480549050811015610bd4578460048281548110610ac157610ac0611c3c565b5b905f5260205f2090600202016001015403610bc75760048181548110610aea57610ae9611c3c565b5b905f5260205f2090600202016040518060400160405290815f82018054610b10906118b4565b80601f0160208091040260200160405190810160405280929190818152602001828054610b3c906118b4565b8015610b875780601f10610b5e57610100808354040283529160200191610b87565b820191905f5260205f20905b815481529060010190602001808311610b6a57829003601f168201915b50505050508152602001600182015481525050838381518110610bad57610bac611c3c565b5b60200260200101819052508180610bc390611c69565b9250505b8080600101915050610a9f565b50819550505050505090565b610be8611111565b600460025f9054906101000a900460ff166005811115610c0b57610c0a6115cc565b5b816005811115610c1e57610c1d6115cc565b5b14610c5e576040517f08c379a0000000000000000000000000000000000000000000000000000000008152600401610c5590611653565b60405180910390fd5b600560025f6101000a81548160ff02191690836005811115610c8357610c826115cc565b5b02179055505f6003819055507f0a97a4ee45751e2abf3e4fc8946939630b11b371ea8ae39ccdc3056e98f5cc3f600460025f9054906101000a900460ff16604051610ccf929190611717565b60405180910390a150565b600360025f9054906101000a900460ff166005811115610cfd57610cfc6115cc565b5b816005811115610d1057610d0f6115cc565b5b14610d50576040517f08c379a0000000000000000000000000000000000000000000000000000000008152600401610d4790611653565b60405180910390fd5b60015f3373ffffffffffffffffffffffffffffffffffffffff1673ffffffffffffffffffffffffffffffffffffffff1681526020019081526020015f205f015f9054906101000a900460ff16610ddb576040517f08c379a0000000000000000000000000000000000000000000000000000000008152600401610dd29061183c565b60405180910390fd5b60015f3373ffffffffffffffffffffffffffffffffffffffff1673ffffffffffffffffffffffffffffffffffffffff1681526020019081526020015f205f0160019054906101000a900460ff1615610e68576040517f08c379a0000000000000000000000000000000000000000000000000000000008152600401610e5f90611cfa565b60405180910390fd5b60048054905082108015610e7c57505f8210155b610ebb576040517f08c379a0000000000000000000000000000000000000000000000000000000008152600401610eb290611d62565b60405180910390fd5b60048281548110610ecf57610ece611c3c565b5b905f5260205f2090600202016001015f815480929190610eee90611c69565b91905055506001805f3373ffffffffffffffffffffffffffffffffffffffff1673ffffffffffffffffffffffffffffffffffffffff1681526020019081526020015f205f0160016101000a81548160ff0219169083151502179055507f4d99b957a2bc29a30ebd96a7be8e68fe50a3c701db28a91436490b7d53870ca43383604051610f7b929190611d80565b60405180910390a15050565b610f8f611111565b6002805f9054906101000a900460ff166005811115610fb157610fb06115cc565b5b816005811115610fc457610fc36115cc565b5b14611004576040517f08c379a0000000000000000000000000000000000000000000000000000000008152600401610ffb90611653565b60405180910390fd5b600360025f6101000a81548160ff02191690836005811115611029576110286115cc565b5b0217905550620151804261103d919061169e565b6003819055507f0a97a4ee45751e2abf3e4fc8946939630b11b371ea8ae39ccdc3056e98f5cc3f6002805f9054906101000a900460ff16604051611082929190611717565b60405180910390a150565b611095611111565b5f73ffffffffffffffffffffffffffffffffffffffff168173ffffffffffffffffffffffffffffffffffffffff1603611105575f6040517f1e4fbdf70000000000000000000000000000000000000000000000000000000081526004016110fc91906113c1565b60405180910390fd5b61110e81611198565b50565b611119611259565b73ffffffffffffffffffffffffffffffffffffffff166111376108bf565b73ffffffffffffffffffffffffffffffffffffffff16146111965761115a611259565b6040517f118cdaa700000000000000000000000000000000000000000000000000000000815260040161118d91906113c1565b60405180910390fd5b565b5f5f5f9054906101000a900473ffffffffffffffffffffffffffffffffffffffff169050815f5f6101000a81548173ffffffffffffffffffffffffffffffffffffffff021916908373ffffffffffffffffffffffffffffffffffffffff1602179055508173ffffffffffffffffffffffffffffffffffffffff168173ffffffffffffffffffffffffffffffffffffffff167f8be0079c531659141344cd1fd0a4f28419497f9722a3daafe3b4186f6b6457e060405160405180910390a35050565b5f33905090565b6040518060400160405280606081526020015f81525090565b5f5ffd5b5f5ffd5b5f5ffd5b5f5ffd5b5f5ffd5b5f5f83601f8401126112a2576112a1611281565b5b8235905067ffffffffffffffff8111156112bf576112be611285565b5b6020830191508360018202830111156112db576112da611289565b5b9250929050565b5f5f602083850312156112f8576112f7611279565b5b5f83013567ffffffffffffffff8111156113155761131461127d565b5b6113218582860161128d565b92509250509250929050565b5f73ffffffffffffffffffffffffffffffffffffffff82169050919050565b5f6113568261132d565b9050919050565b6113668161134c565b8114611370575f5ffd5b50565b5f813590506113818161135d565b92915050565b5f6020828403121561139c5761139b611279565b5b5f6113a984828501611373565b91505092915050565b6113bb8161134c565b82525050565b5f6020820190506113d45f8301846113b2565b92915050565b5f81519050919050565b5f82825260208201905092915050565b5f819050602082019050919050565b5f81519050919050565b5f82825260208201905092915050565b8281835e5f83830152505050565b5f601f19601f8301169050919050565b5f61144582611403565b61144f818561140d565b935061145f81856020860161141d565b6114688161142b565b840191505092915050565b5f819050919050565b61148581611473565b82525050565b5f604083015f8301518482035f8601526114a5828261143b565b91505060208301516114ba602086018261147c565b508091505092915050565b5f6114d0838361148b565b905092915050565b5f602082019050919050565b5f6114ee826113da565b6114f881856113e4565b93508360208202850161150a856113f4565b805f5b85811015611545578484038952815161152685826114c5565b9450611531836114d8565b925060208a0199505060018101905061150d565b50829750879550505050505092915050565b5f6020820190508181035f83015261156f81846114e4565b905092915050565b61158081611473565b811461158a575f5ffd5b50565b5f8135905061159b81611577565b92915050565b5f602082840312156115b6576115b5611279565b5b5f6115c38482850161158d565b91505092915050565b7f4e487b71000000000000000000000000000000000000000000000000000000005f52602160045260245ffd5b5f82825260208201905092915050565b7f4e6f74207468652074696d6520666f72207468697321000000000000000000005f82015250565b5f61163d6016836115f9565b915061164882611609565b602082019050919050565b5f6020820190508181035f83015261166a81611631565b9050919050565b7f4e487b71000000000000000000000000000000000000000000000000000000005f52601160045260245ffd5b5f6116a882611473565b91506116b383611473565b92508282019050808211156116cb576116ca611671565b5b92915050565b600681106116e2576116e16115cc565b5b50565b5f8190506116f2826116d1565b919050565b5f611701826116e5565b9050919050565b611711816116f7565b82525050565b5f60408201905061172a5f830185611708565b6117376020830184611708565b9392505050565b7f5468652064656c617920666f7220746865207374617465206368616e676520695f8201527f73206e6f74207265737065637465640000000000000000000000000000000000602082015250565b5f611798602f836115f9565b91506117a38261173e565b604082019050919050565b5f6020820190508181035f8301526117c58161178c565b9050919050565b7f54686520766f746572206973206e6f74207265676973746572656420696e20745f8201527f686520766f7465727357686974656c6973740000000000000000000000000000602082015250565b5f6118266032836115f9565b9150611831826117cc565b604082019050919050565b5f6020820190508181035f8301526118538161181a565b9050919050565b7f4e487b71000000000000000000000000000000000000000000000000000000005f52604160045260245ffd5b7f4e487b71000000000000000000000000000000000000000000000000000000005f52602260045260245ffd5b5f60028204905060018216806118cb57607f821691505b6020821081036118de576118dd611887565b5b50919050565b5f819050815f5260205f209050919050565b5f6020601f8301049050919050565b5f82821b905092915050565b5f600883026119407fffffffffffffffffffffffffffffffffffffffffffffffffffffffffffffffff82611905565b61194a8683611905565b95508019841693508086168417925050509392505050565b5f819050919050565b5f61198561198061197b84611473565b611962565b611473565b9050919050565b5f819050919050565b61199e8361196b565b6119b26119aa8261198c565b848454611911565b825550505050565b5f5f905090565b6119c96119ba565b6119d4818484611995565b505050565b5b818110156119f7576119ec5f826119c1565b6001810190506119da565b5050565b601f821115611a3c57611a0d816118e4565b611a16846118f6565b81016020851015611a25578190505b611a39611a31856118f6565b8301826119d9565b50505b505050565b5f82821c905092915050565b5f611a5c5f1984600802611a41565b1980831691505092915050565b5f611a748383611a4d565b9150826002028217905092915050565b611a8d82611403565b67ffffffffffffffff811115611aa657611aa561185a565b5b611ab082546118b4565b611abb8282856119fb565b5f60209050601f831160018114611aec575f8415611ada578287015190505b611ae48582611a69565b865550611b4b565b601f198416611afa866118e4565b5f5b82811015611b2157848901518255600182019150602085019450602081019050611afc565b86831015611b3e5784890151611b3a601f891682611a4d565b8355505b6001600288020188555050505b505050505050565b5f611b5d82611473565b9150611b6883611473565b9250828203905081811115611b8057611b7f611671565b5b92915050565b611b8f81611473565b82525050565b5f602082019050611ba85f830184611b86565b92915050565b7f54686520766f74657220697320616c7265616479206f6e2074686520766f74655f8201527f727357686974656c697374000000000000000000000000000000000000000000602082015250565b5f611c08602b836115f9565b9150611c1382611bae565b604082019050919050565b5f6020820190508181035f830152611c3581611bfc565b9050919050565b7f4e487b71000000000000000000000000000000000000000000000000000000005f52603260045260245ffd5b5f611c7382611473565b91507fffffffffffffffffffffffffffffffffffffffffffffffffffffffffffffffff8203611ca557611ca4611671565b5b600182019050919050565b7f54686520766f7465722068617320616c726561647920766f74656400000000005f82015250565b5f611ce4601b836115f9565b9150611cef82611cb0565b602082019050919050565b5f6020820190508181035f830152611d1181611cd8565b9050919050565b7f496e76616c69642070726f706f73616c206964000000000000000000000000005f82015250565b5f611d4c6013836115f9565b9150611d5782611d18565b602082019050919050565b5f6020820190508181035f830152611d7981611d40565b9050919050565b5f604082019050611d935f8301856113b2565b611da06020830184611b86565b939250505056fea26469706673582212206cf0a45434dd6cc7dc0a920f4c4ff5a8a0a81882daf397c0904d975080dbee1364736f6c634300081e0033",
					"opcodes": "PUSH1 0x80 PUSH1 0x40 MSTORE PUSH0 PUSH1 0x2 PUSH0 PUSH2 0x100 EXP DUP2 SLOAD DUP2 PUSH1 0xFF MUL NOT AND SWAP1 DUP4 PUSH1 0x5 DUP2 GT ISZERO PUSH2 0x28 JUMPI PUSH2 0x27 PUSH2 0x180 JUMP JUMPDEST JUMPDEST MUL OR SWAP1 SSTORE POP CALLVALUE DUP1 ISZERO PUSH2 0x38 JUMPI PUSH0 PUSH0 REVERT JUMPDEST POP CALLER PUSH0 PUSH20 0xFFFFFFFFFFFFFFFFFFFFFFFFFFFFFFFFFFFFFFFF AND DUP2 PUSH20 0xFFFFFFFFFFFFFFFFFFFFFFFFFFFFFFFFFFFFFFFF AND SUB PUSH2 0xAA JUMPI PUSH0 PUSH1 0x40 MLOAD PUSH32 0x1E4FBDF700000000000000000000000000000000000000000000000000000000 DUP2 MSTORE PUSH1 0x4 ADD PUSH2 0xA1 SWAP2 SWAP1 PUSH2 0x1EC JUMP JUMPDEST PUSH1 0x40 MLOAD DUP1 SWAP2 SUB SWAP1 REVERT JUMPDEST PUSH2 0xB9 DUP2 PUSH2 0xBF PUSH1 0x20 SHL PUSH1 0x20 SHR JUMP JUMPDEST POP PUSH2 0x205 JUMP JUMPDEST PUSH0 PUSH0 PUSH0 SWAP1 SLOAD SWAP1 PUSH2 0x100 EXP SWAP1 DIV PUSH20 0xFFFFFFFFFFFFFFFFFFFFFFFFFFFFFFFFFFFFFFFF AND SWAP1 POP DUP2 PUSH0 PUSH0 PUSH2 0x100 EXP DUP2 SLOAD DUP2 PUSH20 0xFFFFFFFFFFFFFFFFFFFFFFFFFFFFFFFFFFFFFFFF MUL NOT AND SWAP1 DUP4 PUSH20 0xFFFFFFFFFFFFFFFFFFFFFFFFFFFFFFFFFFFFFFFF AND MUL OR SWAP1 SSTORE POP DUP2 PUSH20 0xFFFFFFFFFFFFFFFFFFFFFFFFFFFFFFFFFFFFFFFF AND DUP2 PUSH20 0xFFFFFFFFFFFFFFFFFFFFFFFFFFFFFFFFFFFFFFFF AND PUSH32 0x8BE0079C531659141344CD1FD0A4F28419497F9722A3DAAFE3B4186F6B6457E0 PUSH1 0x40 MLOAD PUSH1 0x40 MLOAD DUP1 SWAP2 SUB SWAP1 LOG3 POP POP JUMP JUMPDEST PUSH32 0x4E487B7100000000000000000000000000000000000000000000000000000000 PUSH0 MSTORE PUSH1 0x21 PUSH1 0x4 MSTORE PUSH1 0x24 PUSH0 REVERT JUMPDEST PUSH0 PUSH20 0xFFFFFFFFFFFFFFFFFFFFFFFFFFFFFFFFFFFFFFFF DUP3 AND SWAP1 POP SWAP2 SWAP1 POP JUMP JUMPDEST PUSH0 PUSH2 0x1D6 DUP3 PUSH2 0x1AD JUMP JUMPDEST SWAP1 POP SWAP2 SWAP1 POP JUMP JUMPDEST PUSH2 0x1E6 DUP2 PUSH2 0x1CC JUMP JUMPDEST DUP3 MSTORE POP POP JUMP JUMPDEST PUSH0 PUSH1 0x20 DUP3 ADD SWAP1 POP PUSH2 0x1FF PUSH0 DUP4 ADD DUP5 PUSH2 0x1DD JUMP JUMPDEST SWAP3 SWAP2 POP POP JUMP JUMPDEST PUSH2 0x1DDD DUP1 PUSH2 0x212 PUSH0 CODECOPY PUSH0 RETURN INVALID PUSH1 0x80 PUSH1 0x40 MSTORE CALLVALUE DUP1 ISZERO PUSH2 0xF JUMPI PUSH0 PUSH0 REVERT JUMPDEST POP PUSH1 0x4 CALLDATASIZE LT PUSH2 0xB2 JUMPI PUSH0 CALLDATALOAD PUSH1 0xE0 SHR DUP1 PUSH4 0x8DA5CB5B GT PUSH2 0x6F JUMPI DUP1 PUSH4 0x8DA5CB5B EQ PUSH2 0x116 JUMPI DUP1 PUSH4 0x8E7EA5B2 EQ PUSH2 0x134 JUMPI DUP1 PUSH4 0xADA7415F EQ PUSH2 0x152 JUMPI DUP1 PUSH4 0xDCD6A5CD EQ PUSH2 0x15C JUMPI DUP1 PUSH4 0xEE74C678 EQ PUSH2 0x178 JUMPI DUP1 PUSH4 0xF2FDE38B EQ PUSH2 0x182 JUMPI PUSH2 0xB2 JUMP JUMPDEST DUP1 PUSH4 0xF7E2838 EQ PUSH2 0xB6 JUMPI DUP1 PUSH4 0x17A0AD8E EQ PUSH2 0xC0 JUMPI DUP1 PUSH4 0x2F95355B EQ PUSH2 0xCA JUMPI DUP1 PUSH4 0x38DB6DD3 EQ PUSH2 0xE6 JUMPI DUP1 PUSH4 0x4ABFBA2B EQ PUSH2 0x102 JUMPI DUP1 PUSH4 0x715018A6 EQ PUSH2 0x10C JUMPI JUMPDEST PUSH0 PUSH0 REVERT JUMPDEST PUSH2 0xBE PUSH2 0x19E JUMP JUMPDEST STOP JUMPDEST PUSH2 0xC8 PUSH2 0x2A4 JUMP JUMPDEST STOP JUMPDEST PUSH2 0xE4 PUSH1 0x4 DUP1 CALLDATASIZE SUB DUP2 ADD SWAP1 PUSH2 0xDF SWAP2 SWAP1 PUSH2 0x12E2 JUMP JUMPDEST PUSH2 0x3E2 JUMP JUMPDEST STOP JUMPDEST PUSH2 0x100 PUSH1 0x4 DUP1 CALLDATASIZE SUB DUP2 ADD SWAP1 PUSH2 0xFB SWAP2 SWAP1 PUSH2 0x1387 JUMP JUMPDEST PUSH2 0x5D5 JUMP JUMPDEST STOP JUMPDEST PUSH2 0x10A PUSH2 0x76F JUMP JUMPDEST STOP JUMPDEST PUSH2 0x114 PUSH2 0x8AC JUMP JUMPDEST STOP JUMPDEST PUSH2 0x11E PUSH2 0x8BF JUMP JUMPDEST PUSH1 0x40 MLOAD PUSH2 0x12B SWAP2 SWAP1 PUSH2 0x13C1 JUMP JUMPDEST PUSH1 0x40 MLOAD DUP1 SWAP2 SUB SWAP1 RETURN JUMPDEST PUSH2 0x13C PUSH2 0x8E6 JUMP JUMPDEST PUSH1 0x40 MLOAD PUSH2 0x149 SWAP2 SWAP1 PUSH2 0x1557 JUMP JUMPDEST PUSH1 0x40 MLOAD DUP1 SWAP2 SUB SWAP1 RETURN JUMPDEST PUSH2 0x15A PUSH2 0xBE0 JUMP JUMPDEST STOP JUMPDEST PUSH2 0x176 PUSH1 0x4 DUP1 CALLDATASIZE SUB DUP2 ADD SWAP1 PUSH2 0x171 SWAP2 SWAP1 PUSH2 0x15A1 JUMP JUMPDEST PUSH2 0xCDA JUMP JUMPDEST STOP JUMPDEST PUSH2 0x180 PUSH2 0xF87 JUMP JUMPDEST STOP JUMPDEST PUSH2 0x19C PUSH1 0x4 DUP1 CALLDATASIZE SUB DUP2 ADD SWAP1 PUSH2 0x197 SWAP2 SWAP1 PUSH2 0x1387 JUMP JUMPDEST PUSH2 0x108D JUMP JUMPDEST STOP JUMPDEST PUSH2 0x1A6 PUSH2 0x1111 JUMP JUMPDEST PUSH0 PUSH1 0x2 PUSH0 SWAP1 SLOAD SWAP1 PUSH2 0x100 EXP SWAP1 DIV PUSH1 0xFF AND PUSH1 0x5 DUP2 GT ISZERO PUSH2 0x1C8 JUMPI PUSH2 0x1C7 PUSH2 0x15CC JUMP JUMPDEST JUMPDEST DUP2 PUSH1 0x5 DUP2 GT ISZERO PUSH2 0x1DB JUMPI PUSH2 0x1DA PUSH2 0x15CC JUMP JUMPDEST JUMPDEST EQ PUSH2 0x21B JUMPI PUSH1 0x40 MLOAD PUSH32 0x8C379A000000000000000000000000000000000000000000000000000000000 DUP2 MSTORE PUSH1 0x4 ADD PUSH2 0x212 SWAP1 PUSH2 0x1653 JUMP JUMPDEST PUSH1 0x40 MLOAD DUP1 SWAP2 SUB SWAP1 REVERT JUMPDEST PUSH1 0x1 PUSH1 0x2 PUSH0 PUSH2 0x100 EXP DUP2 SLOAD DUP2 PUSH1 0xFF MUL NOT AND SWAP1 DUP4 PUSH1 0x5 DUP2 GT ISZERO PUSH2 0x240 JUMPI PUSH2 0x23F PUSH2 0x15CC JUMP JUMPDEST JUMPDEST MUL OR SWAP1 SSTORE POP PUSH3 0x15180 TIMESTAMP PUSH2 0x254 SWAP2 SWAP1 PUSH2 0x169E JUMP JUMPDEST PUSH1 0x3 DUP2 SWAP1 SSTORE POP PUSH32 0xA97A4EE45751E2ABF3E4FC8946939630B11B371EA8AE39CCDC3056E98F5CC3F PUSH0 PUSH1 0x2 PUSH0 SWAP1 SLOAD SWAP1 PUSH2 0x100 EXP SWAP1 DIV PUSH1 0xFF AND PUSH1 0x40 MLOAD PUSH2 0x299 SWAP3 SWAP2 SWAP1 PUSH2 0x1717 JUMP JUMPDEST PUSH1 0x40 MLOAD DUP1 SWAP2 SUB SWAP1 LOG1 POP JUMP JUMPDEST PUSH2 0x2AC PUSH2 0x1111 JUMP JUMPDEST PUSH1 0x3 PUSH1 0x2 PUSH0 SWAP1 SLOAD SWAP1 PUSH2 0x100 EXP SWAP1 DIV PUSH1 0xFF AND PUSH1 0x5 DUP2 GT ISZERO PUSH2 0x2CF JUMPI PUSH2 0x2CE PUSH2 0x15CC JUMP JUMPDEST JUMPDEST DUP2 PUSH1 0x5 DUP2 GT ISZERO PUSH2 0x2E2 JUMPI PUSH2 0x2E1 PUSH2 0x15CC JUMP JUMPDEST JUMPDEST EQ PUSH2 0x322 JUMPI PUSH1 0x40 MLOAD PUSH32 0x8C379A000000000000000000000000000000000000000000000000000000000 DUP2 MSTORE PUSH1 0x4 ADD PUSH2 0x319 SWAP1 PUSH2 0x1653 JUMP JUMPDEST PUSH1 0x40 MLOAD DUP1 SWAP2 SUB SWAP1 REVERT JUMPDEST PUSH1 0x3 SLOAD TIMESTAMP GT PUSH2 0x366 JUMPI PUSH1 0x40 MLOAD PUSH32 0x8C379A000000000000000000000000000000000000000000000000000000000 DUP2 MSTORE PUSH1 0x4 ADD PUSH2 0x35D SWAP1 PUSH2 0x17AE JUMP JUMPDEST PUSH1 0x40 MLOAD DUP1 SWAP2 SUB SWAP1 REVERT JUMPDEST PUSH1 0x4 PUSH1 0x2 PUSH0 PUSH2 0x100 EXP DUP2 SLOAD DUP2 PUSH1 0xFF MUL NOT AND SWAP1 DUP4 PUSH1 0x5 DUP2 GT ISZERO PUSH2 0x38B JUMPI PUSH2 0x38A PUSH2 0x15CC JUMP JUMPDEST JUMPDEST MUL OR SWAP1 SSTORE POP PUSH0 PUSH1 0x3 DUP2 SWAP1 SSTORE POP PUSH32 0xA97A4EE45751E2ABF3E4FC8946939630B11B371EA8AE39CCDC3056E98F5CC3F PUSH1 0x3 PUSH1 0x2 PUSH0 SWAP1 SLOAD SWAP1 PUSH2 0x100 EXP SWAP1 DIV PUSH1 0xFF AND PUSH1 0x40 MLOAD PUSH2 0x3D7 SWAP3 SWAP2 SWAP1 PUSH2 0x1717 JUMP JUMPDEST PUSH1 0x40 MLOAD DUP1 SWAP2 SUB SWAP1 LOG1 POP JUMP JUMPDEST PUSH1 0x1 PUSH1 0x2 PUSH0 SWAP1 SLOAD SWAP1 PUSH2 0x100 EXP SWAP1 DIV PUSH1 0xFF AND PUSH1 0x5 DUP2 GT ISZERO PUSH2 0x405 JUMPI PUSH2 0x404 PUSH2 0x15CC JUMP JUMPDEST JUMPDEST DUP2 PUSH1 0x5 DUP2 GT ISZERO PUSH2 0x418 JUMPI PUSH2 0x417 PUSH2 0x15CC JUMP JUMPDEST JUMPDEST EQ PUSH2 0x458 JUMPI PUSH1 0x40 MLOAD PUSH32 0x8C379A000000000000000000000000000000000000000000000000000000000 DUP2 MSTORE PUSH1 0x4 ADD PUSH2 0x44F SWAP1 PUSH2 0x1653 JUMP JUMPDEST PUSH1 0x40 MLOAD DUP1 SWAP2 SUB SWAP1 REVERT JUMPDEST PUSH1 0x1 PUSH0 CALLER PUSH20 0xFFFFFFFFFFFFFFFFFFFFFFFFFFFFFFFFFFFFFFFF AND PUSH20 0xFFFFFFFFFFFFFFFFFFFFFFFFFFFFFFFFFFFFFFFF AND DUP2 MSTORE PUSH1 0x20 ADD SWAP1 DUP2 MSTORE PUSH1 0x20 ADD PUSH0 KECCAK256 PUSH0 ADD PUSH0 SWAP1 SLOAD SWAP1 PUSH2 0x100 EXP SWAP1 DIV PUSH1 0xFF AND PUSH2 0x4E3 JUMPI PUSH1 0x40 MLOAD PUSH32 0x8C379A000000000000000000000000000000000000000000000000000000000 DUP2 MSTORE PUSH1 0x4 ADD PUSH2 0x4DA SWAP1 PUSH2 0x183C JUMP JUMPDEST PUSH1 0x40 MLOAD DUP1 SWAP2 SUB SWAP1 REVERT JUMPDEST PUSH0 PUSH1 0x40 MLOAD DUP1 PUSH1 0x40 ADD PUSH1 0x40 MSTORE DUP1 DUP6 DUP6 DUP1 DUP1 PUSH1 0x1F ADD PUSH1 0x20 DUP1 SWAP2 DIV MUL PUSH1 0x20 ADD PUSH1 0x40 MLOAD SWAP1 DUP2 ADD PUSH1 0x40 MSTORE DUP1 SWAP4 SWAP3 SWAP2 SWAP1 DUP2 DUP2 MSTORE PUSH1 0x20 ADD DUP4 DUP4 DUP1 DUP3 DUP5 CALLDATACOPY PUSH0 DUP2 DUP5 ADD MSTORE PUSH1 0x1F NOT PUSH1 0x1F DUP3 ADD AND SWAP1 POP DUP1 DUP4 ADD SWAP3 POP POP POP POP POP POP POP DUP2 MSTORE PUSH1 0x20 ADD PUSH0 DUP2 MSTORE POP SWAP1 POP PUSH1 0x4 DUP2 SWAP1 DUP1 PUSH1 0x1 DUP2 SLOAD ADD DUP1 DUP3 SSTORE DUP1 SWAP2 POP POP PUSH1 0x1 SWAP1 SUB SWAP1 PUSH0 MSTORE PUSH1 0x20 PUSH0 KECCAK256 SWAP1 PUSH1 0x2 MUL ADD PUSH0 SWAP1 SWAP2 SWAP1 SWAP2 SWAP1 SWAP2 POP PUSH0 DUP3 ADD MLOAD DUP2 PUSH0 ADD SWAP1 DUP2 PUSH2 0x57A SWAP2 SWAP1 PUSH2 0x1A84 JUMP JUMPDEST POP PUSH1 0x20 DUP3 ADD MLOAD DUP2 PUSH1 0x1 ADD SSTORE POP POP PUSH32 0x92E393E9B54E2F801D3EA4BEB0C5E71A21CC34A5D34B77D0FB8A3AA1650DC18F PUSH1 0x1 PUSH1 0x4 DUP1 SLOAD SWAP1 POP PUSH2 0x5BA SWAP2 SWAP1 PUSH2 0x1B53 JUMP JUMPDEST PUSH1 0x40 MLOAD PUSH2 0x5C7 SWAP2 SWAP1 PUSH2 0x1B95 JUMP JUMPDEST PUSH1 0x40 MLOAD DUP1 SWAP2 SUB SWAP1 LOG1 POP POP POP POP JUMP JUMPDEST PUSH2 0x5DD PUSH2 0x1111 JUMP JUMPDEST PUSH0 PUSH1 0x2 PUSH0 SWAP1 SLOAD SWAP1 PUSH2 0x100 EXP SWAP1 DIV PUSH1 0xFF AND PUSH1 0x5 DUP2 GT ISZERO PUSH2 0x5FF JUMPI PUSH2 0x5FE PUSH2 0x15CC JUMP JUMPDEST JUMPDEST DUP2 PUSH1 0x5 DUP2 GT ISZERO PUSH2 0x612 JUMPI PUSH2 0x611 PUSH2 0x15CC JUMP JUMPDEST JUMPDEST EQ PUSH2 0x652 JUMPI PUSH1 0x40 MLOAD PUSH32 0x8C379A000000000000000000000000000000000000000000000000000000000 DUP2 MSTORE PUSH1 0x4 ADD PUSH2 0x649 SWAP1 PUSH2 0x1653 JUMP JUMPDEST PUSH1 0x40 MLOAD DUP1 SWAP2 SUB SWAP1 REVERT JUMPDEST PUSH1 0x1 PUSH0 DUP4 PUSH20 0xFFFFFFFFFFFFFFFFFFFFFFFFFFFFFFFFFFFFFFFF AND PUSH20 0xFFFFFFFFFFFFFFFFFFFFFFFFFFFFFFFFFFFFFFFF AND DUP2 MSTORE PUSH1 0x20 ADD SWAP1 DUP2 MSTORE PUSH1 0x20 ADD PUSH0 KECCAK256 PUSH0 ADD PUSH0 SWAP1 SLOAD SWAP1 PUSH2 0x100 EXP SWAP1 DIV PUSH1 0xFF AND ISZERO PUSH2 0x6DE JUMPI PUSH1 0x40 MLOAD PUSH32 0x8C379A000000000000000000000000000000000000000000000000000000000 DUP2 MSTORE PUSH1 0x4 ADD PUSH2 0x6D5 SWAP1 PUSH2 0x1C1E JUMP JUMPDEST PUSH1 0x40 MLOAD DUP1 SWAP2 SUB SWAP1 REVERT JUMPDEST PUSH1 0x1 DUP1 PUSH0 DUP5 PUSH20 0xFFFFFFFFFFFFFFFFFFFFFFFFFFFFFFFFFFFFFFFF AND PUSH20 0xFFFFFFFFFFFFFFFFFFFFFFFFFFFFFFFFFFFFFFFF AND DUP2 MSTORE PUSH1 0x20 ADD SWAP1 DUP2 MSTORE PUSH1 0x20 ADD PUSH0 KECCAK256 PUSH0 ADD PUSH0 PUSH2 0x100 EXP DUP2 SLOAD DUP2 PUSH1 0xFF MUL NOT AND SWAP1 DUP4 ISZERO ISZERO MUL OR SWAP1 SSTORE POP PUSH32 0xB6BE2187D059CC2A55FE29E0E503B566E1E0F8C8780096E185429350ACFFD3DD DUP3 PUSH1 0x40 MLOAD PUSH2 0x763 SWAP2 SWAP1 PUSH2 0x13C1 JUMP JUMPDEST PUSH1 0x40 MLOAD DUP1 SWAP2 SUB SWAP1 LOG1 POP POP JUMP JUMPDEST PUSH2 0x777 PUSH2 0x1111 JUMP JUMPDEST PUSH1 0x1 PUSH1 0x2 PUSH0 SWAP1 SLOAD SWAP1 PUSH2 0x100 EXP SWAP1 DIV PUSH1 0xFF AND PUSH1 0x5 DUP2 GT ISZERO PUSH2 0x79A JUMPI PUSH2 0x799 PUSH2 0x15CC JUMP JUMPDEST JUMPDEST DUP2 PUSH1 0x5 DUP2 GT ISZERO PUSH2 0x7AD JUMPI PUSH2 0x7AC PUSH2 0x15CC JUMP JUMPDEST JUMPDEST EQ PUSH2 0x7ED JUMPI PUSH1 0x40 MLOAD PUSH32 0x8C379A000000000000000000000000000000000000000000000000000000000 DUP2 MSTORE PUSH1 0x4 ADD PUSH2 0x7E4 SWAP1 PUSH2 0x1653 JUMP JUMPDEST PUSH1 0x40 MLOAD DUP1 SWAP2 SUB SWAP1 REVERT JUMPDEST PUSH1 0x3 SLOAD TIMESTAMP GT PUSH2 0x831 JUMPI PUSH1 0x40 MLOAD PUSH32 0x8C379A000000000000000000000000000000000000000000000000000000000 DUP2 MSTORE PUSH1 0x4 ADD PUSH2 0x828 SWAP1 PUSH2 0x17AE JUMP JUMPDEST PUSH1 0x40 MLOAD DUP1 SWAP2 SUB SWAP1 REVERT JUMPDEST PUSH1 0x2 DUP1 PUSH0 PUSH2 0x100 EXP DUP2 SLOAD DUP2 PUSH1 0xFF MUL NOT AND SWAP1 DUP4 PUSH1 0x5 DUP2 GT ISZERO PUSH2 0x855 JUMPI PUSH2 0x854 PUSH2 0x15CC JUMP JUMPDEST JUMPDEST MUL OR SWAP1 SSTORE POP PUSH0 PUSH1 0x3 DUP2 SWAP1 SSTORE POP PUSH32 0xA97A4EE45751E2ABF3E4FC8946939630B11B371EA8AE39CCDC3056E98F5CC3F PUSH1 0x1 PUSH1 0x2 PUSH0 SWAP1 SLOAD SWAP1 PUSH2 0x100 EXP SWAP1 DIV PUSH1 0xFF AND PUSH1 0x40 MLOAD PUSH2 0x8A1 SWAP3 SWAP2 SWAP1 PUSH2 0x1717 JUMP JUMPDEST PUSH1 0x40 MLOAD DUP1 SWAP2 SUB SWAP1 LOG1 POP JUMP JUMPDEST PUSH2 0x8B4 PUSH2 0x1111 JUMP JUMPDEST PUSH2 0x8BD PUSH0 PUSH2 0x1198 JUMP JUMPDEST JUMP JUMPDEST PUSH0 PUSH0 PUSH0 SWAP1 SLOAD SWAP1 PUSH2 0x100 EXP SWAP1 DIV PUSH20 0xFFFFFFFFFFFFFFFFFFFFFFFFFFFFFFFFFFFFFFFF AND SWAP1 POP SWAP1 JUMP JUMPDEST PUSH1 0x60 PUSH1 0x5 PUSH1 0x2 PUSH0 SWAP1 SLOAD SWAP1 PUSH2 0x100 EXP SWAP1 DIV PUSH1 0xFF AND PUSH1 0x5 DUP2 GT ISZERO PUSH2 0x90B JUMPI PUSH2 0x90A PUSH2 0x15CC JUMP JUMPDEST JUMPDEST DUP2 PUSH1 0x5 DUP2 GT ISZERO PUSH2 0x91E JUMPI PUSH2 0x91D PUSH2 0x15CC JUMP JUMPDEST JUMPDEST EQ PUSH2 0x95E JUMPI PUSH1 0x40 MLOAD PUSH32 0x8C379A000000000000000000000000000000000000000000000000000000000 DUP2 MSTORE PUSH1 0x4 ADD PUSH2 0x955 SWAP1 PUSH2 0x1653 JUMP JUMPDEST PUSH1 0x40 MLOAD DUP1 SWAP2 SUB SWAP1 REVERT JUMPDEST PUSH0 PUSH1 0x4 PUSH0 DUP2 SLOAD DUP2 LT PUSH2 0x973 JUMPI PUSH2 0x972 PUSH2 0x1C3C JUMP JUMPDEST JUMPDEST SWAP1 PUSH0 MSTORE PUSH1 0x20 PUSH0 KECCAK256 SWAP1 PUSH1 0x2 MUL ADD PUSH1 0x1 ADD SLOAD SWAP1 POP PUSH0 PUSH1 0x1 SWAP1 POP PUSH0 PUSH1 0x1 SWAP1 POP JUMPDEST PUSH1 0x4 DUP1 SLOAD SWAP1 POP DUP2 LT ISZERO PUSH2 0xA3E JUMPI DUP3 PUSH1 0x4 DUP3 DUP2 SLOAD DUP2 LT PUSH2 0x9B2 JUMPI PUSH2 0x9B1 PUSH2 0x1C3C JUMP JUMPDEST JUMPDEST SWAP1 PUSH0 MSTORE PUSH1 0x20 PUSH0 KECCAK256 SWAP1 PUSH1 0x2 MUL ADD PUSH1 0x1 ADD SLOAD GT ISZERO PUSH2 0x9F7 JUMPI PUSH1 0x4 DUP2 DUP2 SLOAD DUP2 LT PUSH2 0x9DC JUMPI PUSH2 0x9DB PUSH2 0x1C3C JUMP JUMPDEST JUMPDEST SWAP1 PUSH0 MSTORE PUSH1 0x20 PUSH0 KECCAK256 SWAP1 PUSH1 0x2 MUL ADD PUSH1 0x1 ADD SLOAD SWAP3 POP PUSH1 0x1 SWAP2 POP PUSH2 0xA31 JUMP JUMPDEST DUP3 PUSH1 0x4 DUP3 DUP2 SLOAD DUP2 LT PUSH2 0xA0C JUMPI PUSH2 0xA0B PUSH2 0x1C3C JUMP JUMPDEST JUMPDEST SWAP1 PUSH0 MSTORE PUSH1 0x20 PUSH0 KECCAK256 SWAP1 PUSH1 0x2 MUL ADD PUSH1 0x1 ADD SLOAD SUB PUSH2 0xA30 JUMPI DUP2 DUP1 PUSH2 0xA2C SWAP1 PUSH2 0x1C69 JUMP JUMPDEST SWAP3 POP POP JUMPDEST JUMPDEST DUP1 DUP1 PUSH1 0x1 ADD SWAP2 POP POP PUSH2 0x990 JUMP JUMPDEST POP PUSH0 DUP2 PUSH8 0xFFFFFFFFFFFFFFFF DUP2 GT ISZERO PUSH2 0xA5A JUMPI PUSH2 0xA59 PUSH2 0x185A JUMP JUMPDEST JUMPDEST PUSH1 0x40 MLOAD SWAP1 DUP1 DUP3 MSTORE DUP1 PUSH1 0x20 MUL PUSH1 0x20 ADD DUP3 ADD PUSH1 0x40 MSTORE DUP1 ISZERO PUSH2 0xA93 JUMPI DUP2 PUSH1 0x20 ADD JUMPDEST PUSH2 0xA80 PUSH2 0x1260 JUMP JUMPDEST DUP2 MSTORE PUSH1 0x20 ADD SWAP1 PUSH1 0x1 SWAP1 SUB SWAP1 DUP2 PUSH2 0xA78 JUMPI SWAP1 POP JUMPDEST POP SWAP1 POP PUSH0 PUSH0 SWAP1 POP PUSH0 PUSH0 SWAP1 POP JUMPDEST PUSH1 0x4 DUP1 SLOAD SWAP1 POP DUP2 LT ISZERO PUSH2 0xBD4 JUMPI DUP5 PUSH1 0x4 DUP3 DUP2 SLOAD DUP2 LT PUSH2 0xAC1 JUMPI PUSH2 0xAC0 PUSH2 0x1C3C JUMP JUMPDEST JUMPDEST SWAP1 PUSH0 MSTORE PUSH1 0x20 PUSH0 KECCAK256 SWAP1 PUSH1 0x2 MUL ADD PUSH1 0x1 ADD SLOAD SUB PUSH2 0xBC7 JUMPI PUSH1 0x4 DUP2 DUP2 SLOAD DUP2 LT PUSH2 0xAEA JUMPI PUSH2 0xAE9 PUSH2 0x1C3C JUMP JUMPDEST JUMPDEST SWAP1 PUSH0 MSTORE PUSH1 0x20 PUSH0 KECCAK256 SWAP1 PUSH1 0x2 MUL ADD PUSH1 0x40 MLOAD DUP1 PUSH1 0x40 ADD PUSH1 0x40 MSTORE SWAP1 DUP2 PUSH0 DUP3 ADD DUP1 SLOAD PUSH2 0xB10 SWAP1 PUSH2 0x18B4 JUMP JUMPDEST DUP1 PUSH1 0x1F ADD PUSH1 0x20 DUP1 SWAP2 DIV MUL PUSH1 0x20 ADD PUSH1 0x40 MLOAD SWAP1 DUP2 ADD PUSH1 0x40 MSTORE DUP1 SWAP3 SWAP2 SWAP1 DUP2 DUP2 MSTORE PUSH1 0x20 ADD DUP3 DUP1 SLOAD PUSH2 0xB3C SWAP1 PUSH2 0x18B4 JUMP JUMPDEST DUP1 ISZERO PUSH2 0xB87 JUMPI DUP1 PUSH1 0x1F LT PUSH2 0xB5E JUMPI PUSH2 0x100 DUP1 DUP4 SLOAD DIV MUL DUP4 MSTORE SWAP2 PUSH1 0x20 ADD SWAP2 PUSH2 0xB87 JUMP JUMPDEST DUP3 ADD SWAP2 SWAP1 PUSH0 MSTORE PUSH1 0x20 PUSH0 KECCAK256 SWAP1 JUMPDEST DUP2 SLOAD DUP2 MSTORE SWAP1 PUSH1 0x1 ADD SWAP1 PUSH1 0x20 ADD DUP1 DUP4 GT PUSH2 0xB6A JUMPI DUP3 SWAP1 SUB PUSH1 0x1F AND DUP3 ADD SWAP2 JUMPDEST POP POP POP POP POP DUP2 MSTORE PUSH1 0x20 ADD PUSH1 0x1 DUP3 ADD SLOAD DUP2 MSTORE POP POP DUP4 DUP4 DUP2 MLOAD DUP2 LT PUSH2 0xBAD JUMPI PUSH2 0xBAC PUSH2 0x1C3C JUMP JUMPDEST JUMPDEST PUSH1 0x20 MUL PUSH1 0x20 ADD ADD DUP2 SWAP1 MSTORE POP DUP2 DUP1 PUSH2 0xBC3 SWAP1 PUSH2 0x1C69 JUMP JUMPDEST SWAP3 POP POP JUMPDEST DUP1 DUP1 PUSH1 0x1 ADD SWAP2 POP POP PUSH2 0xA9F JUMP JUMPDEST POP DUP2 SWAP6 POP POP POP POP POP POP SWAP1 JUMP JUMPDEST PUSH2 0xBE8 PUSH2 0x1111 JUMP JUMPDEST PUSH1 0x4 PUSH1 0x2 PUSH0 SWAP1 SLOAD SWAP1 PUSH2 0x100 EXP SWAP1 DIV PUSH1 0xFF AND PUSH1 0x5 DUP2 GT ISZERO PUSH2 0xC0B JUMPI PUSH2 0xC0A PUSH2 0x15CC JUMP JUMPDEST JUMPDEST DUP2 PUSH1 0x5 DUP2 GT ISZERO PUSH2 0xC1E JUMPI PUSH2 0xC1D PUSH2 0x15CC JUMP JUMPDEST JUMPDEST EQ PUSH2 0xC5E JUMPI PUSH1 0x40 MLOAD PUSH32 0x8C379A000000000000000000000000000000000000000000000000000000000 DUP2 MSTORE PUSH1 0x4 ADD PUSH2 0xC55 SWAP1 PUSH2 0x1653 JUMP JUMPDEST PUSH1 0x40 MLOAD DUP1 SWAP2 SUB SWAP1 REVERT JUMPDEST PUSH1 0x5 PUSH1 0x2 PUSH0 PUSH2 0x100 EXP DUP2 SLOAD DUP2 PUSH1 0xFF MUL NOT AND SWAP1 DUP4 PUSH1 0x5 DUP2 GT ISZERO PUSH2 0xC83 JUMPI PUSH2 0xC82 PUSH2 0x15CC JUMP JUMPDEST JUMPDEST MUL OR SWAP1 SSTORE POP PUSH0 PUSH1 0x3 DUP2 SWAP1 SSTORE POP PUSH32 0xA97A4EE45751E2ABF3E4FC8946939630B11B371EA8AE39CCDC3056E98F5CC3F PUSH1 0x4 PUSH1 0x2 PUSH0 SWAP1 SLOAD SWAP1 PUSH2 0x100 EXP SWAP1 DIV PUSH1 0xFF AND PUSH1 0x40 MLOAD PUSH2 0xCCF SWAP3 SWAP2 SWAP1 PUSH2 0x1717 JUMP JUMPDEST PUSH1 0x40 MLOAD DUP1 SWAP2 SUB SWAP1 LOG1 POP JUMP JUMPDEST PUSH1 0x3 PUSH1 0x2 PUSH0 SWAP1 SLOAD SWAP1 PUSH2 0x100 EXP SWAP1 DIV PUSH1 0xFF AND PUSH1 0x5 DUP2 GT ISZERO PUSH2 0xCFD JUMPI PUSH2 0xCFC PUSH2 0x15CC JUMP JUMPDEST JUMPDEST DUP2 PUSH1 0x5 DUP2 GT ISZERO PUSH2 0xD10 JUMPI PUSH2 0xD0F PUSH2 0x15CC JUMP JUMPDEST JUMPDEST EQ PUSH2 0xD50 JUMPI PUSH1 0x40 MLOAD PUSH32 0x8C379A000000000000000000000000000000000000000000000000000000000 DUP2 MSTORE PUSH1 0x4 ADD PUSH2 0xD47 SWAP1 PUSH2 0x1653 JUMP JUMPDEST PUSH1 0x40 MLOAD DUP1 SWAP2 SUB SWAP1 REVERT JUMPDEST PUSH1 0x1 PUSH0 CALLER PUSH20 0xFFFFFFFFFFFFFFFFFFFFFFFFFFFFFFFFFFFFFFFF AND PUSH20 0xFFFFFFFFFFFFFFFFFFFFFFFFFFFFFFFFFFFFFFFF AND DUP2 MSTORE PUSH1 0x20 ADD SWAP1 DUP2 MSTORE PUSH1 0x20 ADD PUSH0 KECCAK256 PUSH0 ADD PUSH0 SWAP1 SLOAD SWAP1 PUSH2 0x100 EXP SWAP1 DIV PUSH1 0xFF AND PUSH2 0xDDB JUMPI PUSH1 0x40 MLOAD PUSH32 0x8C379A000000000000000000000000000000000000000000000000000000000 DUP2 MSTORE PUSH1 0x4 ADD PUSH2 0xDD2 SWAP1 PUSH2 0x183C JUMP JUMPDEST PUSH1 0x40 MLOAD DUP1 SWAP2 SUB SWAP1 REVERT JUMPDEST PUSH1 0x1 PUSH0 CALLER PUSH20 0xFFFFFFFFFFFFFFFFFFFFFFFFFFFFFFFFFFFFFFFF AND PUSH20 0xFFFFFFFFFFFFFFFFFFFFFFFFFFFFFFFFFFFFFFFF AND DUP2 MSTORE PUSH1 0x20 ADD SWAP1 DUP2 MSTORE PUSH1 0x20 ADD PUSH0 KECCAK256 PUSH0 ADD PUSH1 0x1 SWAP1 SLOAD SWAP1 PUSH2 0x100 EXP SWAP1 DIV PUSH1 0xFF AND ISZERO PUSH2 0xE68 JUMPI PUSH1 0x40 MLOAD PUSH32 0x8C379A000000000000000000000000000000000000000000000000000000000 DUP2 MSTORE PUSH1 0x4 ADD PUSH2 0xE5F SWAP1 PUSH2 0x1CFA JUMP JUMPDEST PUSH1 0x40 MLOAD DUP1 SWAP2 SUB SWAP1 REVERT JUMPDEST PUSH1 0x4 DUP1 SLOAD SWAP1 POP DUP3 LT DUP1 ISZERO PUSH2 0xE7C JUMPI POP PUSH0 DUP3 LT ISZERO JUMPDEST PUSH2 0xEBB JUMPI PUSH1 0x40 MLOAD PUSH32 0x8C379A000000000000000000000000000000000000000000000000000000000 DUP2 MSTORE PUSH1 0x4 ADD PUSH2 0xEB2 SWAP1 PUSH2 0x1D62 JUMP JUMPDEST PUSH1 0x40 MLOAD DUP1 SWAP2 SUB SWAP1 REVERT JUMPDEST PUSH1 0x4 DUP3 DUP2 SLOAD DUP2 LT PUSH2 0xECF JUMPI PUSH2 0xECE PUSH2 0x1C3C JUMP JUMPDEST JUMPDEST SWAP1 PUSH0 MSTORE PUSH1 0x20 PUSH0 KECCAK256 SWAP1 PUSH1 0x2 MUL ADD PUSH1 0x1 ADD PUSH0 DUP2 SLOAD DUP1 SWAP3 SWAP2 SWAP1 PUSH2 0xEEE SWAP1 PUSH2 0x1C69 JUMP JUMPDEST SWAP2 SWAP1 POP SSTORE POP PUSH1 0x1 DUP1 PUSH0 CALLER PUSH20 0xFFFFFFFFFFFFFFFFFFFFFFFFFFFFFFFFFFFFFFFF AND PUSH20 0xFFFFFFFFFFFFFFFFFFFFFFFFFFFFFFFFFFFFFFFF AND DUP2 MSTORE PUSH1 0x20 ADD SWAP1 DUP2 MSTORE PUSH1 0x20 ADD PUSH0 KECCAK256 PUSH0 ADD PUSH1 0x1 PUSH2 0x100 EXP DUP2 SLOAD DUP2 PUSH1 0xFF MUL NOT AND SWAP1 DUP4 ISZERO ISZERO MUL OR SWAP1 SSTORE POP PUSH32 0x4D99B957A2BC29A30EBD96A7BE8E68FE50A3C701DB28A91436490B7D53870CA4 CALLER DUP4 PUSH1 0x40 MLOAD PUSH2 0xF7B SWAP3 SWAP2 SWAP1 PUSH2 0x1D80 JUMP JUMPDEST PUSH1 0x40 MLOAD DUP1 SWAP2 SUB SWAP1 LOG1 POP POP JUMP JUMPDEST PUSH2 0xF8F PUSH2 0x1111 JUMP JUMPDEST PUSH1 0x2 DUP1 PUSH0 SWAP1 SLOAD SWAP1 PUSH2 0x100 EXP SWAP1 DIV PUSH1 0xFF AND PUSH1 0x5 DUP2 GT ISZERO PUSH2 0xFB1 JUMPI PUSH2 0xFB0 PUSH2 0x15CC JUMP JUMPDEST JUMPDEST DUP2 PUSH1 0x5 DUP2 GT ISZERO PUSH2 0xFC4 JUMPI PUSH2 0xFC3 PUSH2 0x15CC JUMP JUMPDEST JUMPDEST EQ PUSH2 0x1004 JUMPI PUSH1 0x40 MLOAD PUSH32 0x8C379A000000000000000000000000000000000000000000000000000000000 DUP2 MSTORE PUSH1 0x4 ADD PUSH2 0xFFB SWAP1 PUSH2 0x1653 JUMP JUMPDEST PUSH1 0x40 MLOAD DUP1 SWAP2 SUB SWAP1 REVERT JUMPDEST PUSH1 0x3 PUSH1 0x2 PUSH0 PUSH2 0x100 EXP DUP2 SLOAD DUP2 PUSH1 0xFF MUL NOT AND SWAP1 DUP4 PUSH1 0x5 DUP2 GT ISZERO PUSH2 0x1029 JUMPI PUSH2 0x1028 PUSH2 0x15CC JUMP JUMPDEST JUMPDEST MUL OR SWAP1 SSTORE POP PUSH3 0x15180 TIMESTAMP PUSH2 0x103D SWAP2 SWAP1 PUSH2 0x169E JUMP JUMPDEST PUSH1 0x3 DUP2 SWAP1 SSTORE POP PUSH32 0xA97A4EE45751E2ABF3E4FC8946939630B11B371EA8AE39CCDC3056E98F5CC3F PUSH1 0x2 DUP1 PUSH0 SWAP1 SLOAD SWAP1 PUSH2 0x100 EXP SWAP1 DIV PUSH1 0xFF AND PUSH1 0x40 MLOAD PUSH2 0x1082 SWAP3 SWAP2 SWAP1 PUSH2 0x1717 JUMP JUMPDEST PUSH1 0x40 MLOAD DUP1 SWAP2 SUB SWAP1 LOG1 POP JUMP JUMPDEST PUSH2 0x1095 PUSH2 0x1111 JUMP JUMPDEST PUSH0 PUSH20 0xFFFFFFFFFFFFFFFFFFFFFFFFFFFFFFFFFFFFFFFF AND DUP2 PUSH20 0xFFFFFFFFFFFFFFFFFFFFFFFFFFFFFFFFFFFFFFFF AND SUB PUSH2 0x1105 JUMPI PUSH0 PUSH1 0x40 MLOAD PUSH32 0x1E4FBDF700000000000000000000000000000000000000000000000000000000 DUP2 MSTORE PUSH1 0x4 ADD PUSH2 0x10FC SWAP2 SWAP1 PUSH2 0x13C1 JUMP JUMPDEST PUSH1 0x40 MLOAD DUP1 SWAP2 SUB SWAP1 REVERT JUMPDEST PUSH2 0x110E DUP2 PUSH2 0x1198 JUMP JUMPDEST POP JUMP JUMPDEST PUSH2 0x1119 PUSH2 0x1259 JUMP JUMPDEST PUSH20 0xFFFFFFFFFFFFFFFFFFFFFFFFFFFFFFFFFFFFFFFF AND PUSH2 0x1137 PUSH2 0x8BF JUMP JUMPDEST PUSH20 0xFFFFFFFFFFFFFFFFFFFFFFFFFFFFFFFFFFFFFFFF AND EQ PUSH2 0x1196 JUMPI PUSH2 0x115A PUSH2 0x1259 JUMP JUMPDEST PUSH1 0x40 MLOAD PUSH32 0x118CDAA700000000000000000000000000000000000000000000000000000000 DUP2 MSTORE PUSH1 0x4 ADD PUSH2 0x118D SWAP2 SWAP1 PUSH2 0x13C1 JUMP JUMPDEST PUSH1 0x40 MLOAD DUP1 SWAP2 SUB SWAP1 REVERT JUMPDEST JUMP JUMPDEST PUSH0 PUSH0 PUSH0 SWAP1 SLOAD SWAP1 PUSH2 0x100 EXP SWAP1 DIV PUSH20 0xFFFFFFFFFFFFFFFFFFFFFFFFFFFFFFFFFFFFFFFF AND SWAP1 POP DUP2 PUSH0 PUSH0 PUSH2 0x100 EXP DUP2 SLOAD DUP2 PUSH20 0xFFFFFFFFFFFFFFFFFFFFFFFFFFFFFFFFFFFFFFFF MUL NOT AND SWAP1 DUP4 PUSH20 0xFFFFFFFFFFFFFFFFFFFFFFFFFFFFFFFFFFFFFFFF AND MUL OR SWAP1 SSTORE POP DUP2 PUSH20 0xFFFFFFFFFFFFFFFFFFFFFFFFFFFFFFFFFFFFFFFF AND DUP2 PUSH20 0xFFFFFFFFFFFFFFFFFFFFFFFFFFFFFFFFFFFFFFFF AND PUSH32 0x8BE0079C531659141344CD1FD0A4F28419497F9722A3DAAFE3B4186F6B6457E0 PUSH1 0x40 MLOAD PUSH1 0x40 MLOAD DUP1 SWAP2 SUB SWAP1 LOG3 POP POP JUMP JUMPDEST PUSH0 CALLER SWAP1 POP SWAP1 JUMP JUMPDEST PUSH1 0x40 MLOAD DUP1 PUSH1 0x40 ADD PUSH1 0x40 MSTORE DUP1 PUSH1 0x60 DUP2 MSTORE PUSH1 0x20 ADD PUSH0 DUP2 MSTORE POP SWAP1 JUMP JUMPDEST PUSH0 PUSH0 REVERT JUMPDEST PUSH0 PUSH0 REVERT JUMPDEST PUSH0 PUSH0 REVERT JUMPDEST PUSH0 PUSH0 REVERT JUMPDEST PUSH0 PUSH0 REVERT JUMPDEST PUSH0 PUSH0 DUP4 PUSH1 0x1F DUP5 ADD SLT PUSH2 0x12A2 JUMPI PUSH2 0x12A1 PUSH2 0x1281 JUMP JUMPDEST JUMPDEST DUP3 CALLDATALOAD SWAP1 POP PUSH8 0xFFFFFFFFFFFFFFFF DUP2 GT ISZERO PUSH2 0x12BF JUMPI PUSH2 0x12BE PUSH2 0x1285 JUMP JUMPDEST JUMPDEST PUSH1 0x20 DUP4 ADD SWAP2 POP DUP4 PUSH1 0x1 DUP3 MUL DUP4 ADD GT ISZERO PUSH2 0x12DB JUMPI PUSH2 0x12DA PUSH2 0x1289 JUMP JUMPDEST JUMPDEST SWAP3 POP SWAP3 SWAP1 POP JUMP JUMPDEST PUSH0 PUSH0 PUSH1 0x20 DUP4 DUP6 SUB SLT ISZERO PUSH2 0x12F8 JUMPI PUSH2 0x12F7 PUSH2 0x1279 JUMP JUMPDEST JUMPDEST PUSH0 DUP4 ADD CALLDATALOAD PUSH8 0xFFFFFFFFFFFFFFFF DUP2 GT ISZERO PUSH2 0x1315 JUMPI PUSH2 0x1314 PUSH2 0x127D JUMP JUMPDEST JUMPDEST PUSH2 0x1321 DUP6 DUP3 DUP7 ADD PUSH2 0x128D JUMP JUMPDEST SWAP3 POP SWAP3 POP POP SWAP3 POP SWAP3 SWAP1 POP JUMP JUMPDEST PUSH0 PUSH20 0xFFFFFFFFFFFFFFFFFFFFFFFFFFFFFFFFFFFFFFFF DUP3 AND SWAP1 POP SWAP2 SWAP1 POP JUMP JUMPDEST PUSH0 PUSH2 0x1356 DUP3 PUSH2 0x132D JUMP JUMPDEST SWAP1 POP SWAP2 SWAP1 POP JUMP JUMPDEST PUSH2 0x1366 DUP2 PUSH2 0x134C JUMP JUMPDEST DUP2 EQ PUSH2 0x1370 JUMPI PUSH0 PUSH0 REVERT JUMPDEST POP JUMP JUMPDEST PUSH0 DUP2 CALLDATALOAD SWAP1 POP PUSH2 0x1381 DUP2 PUSH2 0x135D JUMP JUMPDEST SWAP3 SWAP2 POP POP JUMP JUMPDEST PUSH0 PUSH1 0x20 DUP3 DUP5 SUB SLT ISZERO PUSH2 0x139C JUMPI PUSH2 0x139B PUSH2 0x1279 JUMP JUMPDEST JUMPDEST PUSH0 PUSH2 0x13A9 DUP5 DUP3 DUP6 ADD PUSH2 0x1373 JUMP JUMPDEST SWAP2 POP POP SWAP3 SWAP2 POP POP JUMP JUMPDEST PUSH2 0x13BB DUP2 PUSH2 0x134C JUMP JUMPDEST DUP3 MSTORE POP POP JUMP JUMPDEST PUSH0 PUSH1 0x20 DUP3 ADD SWAP1 POP PUSH2 0x13D4 PUSH0 DUP4 ADD DUP5 PUSH2 0x13B2 JUMP JUMPDEST SWAP3 SWAP2 POP POP JUMP JUMPDEST PUSH0 DUP2 MLOAD SWAP1 POP SWAP2 SWAP1 POP JUMP JUMPDEST PUSH0 DUP3 DUP3 MSTORE PUSH1 0x20 DUP3 ADD SWAP1 POP SWAP3 SWAP2 POP POP JUMP JUMPDEST PUSH0 DUP2 SWAP1 POP PUSH1 0x20 DUP3 ADD SWAP1 POP SWAP2 SWAP1 POP JUMP JUMPDEST PUSH0 DUP2 MLOAD SWAP1 POP SWAP2 SWAP1 POP JUMP JUMPDEST PUSH0 DUP3 DUP3 MSTORE PUSH1 0x20 DUP3 ADD SWAP1 POP SWAP3 SWAP2 POP POP JUMP JUMPDEST DUP3 DUP2 DUP4 MCOPY PUSH0 DUP4 DUP4 ADD MSTORE POP POP POP JUMP JUMPDEST PUSH0 PUSH1 0x1F NOT PUSH1 0x1F DUP4 ADD AND SWAP1 POP SWAP2 SWAP1 POP JUMP JUMPDEST PUSH0 PUSH2 0x1445 DUP3 PUSH2 0x1403 JUMP JUMPDEST PUSH2 0x144F DUP2 DUP6 PUSH2 0x140D JUMP JUMPDEST SWAP4 POP PUSH2 0x145F DUP2 DUP6 PUSH1 0x20 DUP7 ADD PUSH2 0x141D JUMP JUMPDEST PUSH2 0x1468 DUP2 PUSH2 0x142B JUMP JUMPDEST DUP5 ADD SWAP2 POP POP SWAP3 SWAP2 POP POP JUMP JUMPDEST PUSH0 DUP2 SWAP1 POP SWAP2 SWAP1 POP JUMP JUMPDEST PUSH2 0x1485 DUP2 PUSH2 0x1473 JUMP JUMPDEST DUP3 MSTORE POP POP JUMP JUMPDEST PUSH0 PUSH1 0x40 DUP4 ADD PUSH0 DUP4 ADD MLOAD DUP5 DUP3 SUB PUSH0 DUP7 ADD MSTORE PUSH2 0x14A5 DUP3 DUP3 PUSH2 0x143B JUMP JUMPDEST SWAP2 POP POP PUSH1 0x20 DUP4 ADD MLOAD PUSH2 0x14BA PUSH1 0x20 DUP7 ADD DUP3 PUSH2 0x147C JUMP JUMPDEST POP DUP1 SWAP2 POP POP SWAP3 SWAP2 POP POP JUMP JUMPDEST PUSH0 PUSH2 0x14D0 DUP4 DUP4 PUSH2 0x148B JUMP JUMPDEST SWAP1 POP SWAP3 SWAP2 POP POP JUMP JUMPDEST PUSH0 PUSH1 0x20 DUP3 ADD SWAP1 POP SWAP2 SWAP1 POP JUMP JUMPDEST PUSH0 PUSH2 0x14EE DUP3 PUSH2 0x13DA JUMP JUMPDEST PUSH2 0x14F8 DUP2 DUP6 PUSH2 0x13E4 JUMP JUMPDEST SWAP4 POP DUP4 PUSH1 0x20 DUP3 MUL DUP6 ADD PUSH2 0x150A DUP6 PUSH2 0x13F4 JUMP JUMPDEST DUP1 PUSH0 JUMPDEST DUP6 DUP2 LT ISZERO PUSH2 0x1545 JUMPI DUP5 DUP5 SUB DUP10 MSTORE DUP2 MLOAD PUSH2 0x1526 DUP6 DUP3 PUSH2 0x14C5 JUMP JUMPDEST SWAP5 POP PUSH2 0x1531 DUP4 PUSH2 0x14D8 JUMP JUMPDEST SWAP3 POP PUSH1 0x20 DUP11 ADD SWAP10 POP POP PUSH1 0x1 DUP2 ADD SWAP1 POP PUSH2 0x150D JUMP JUMPDEST POP DUP3 SWAP8 POP DUP8 SWAP6 POP POP POP POP POP POP SWAP3 SWAP2 POP POP JUMP JUMPDEST PUSH0 PUSH1 0x20 DUP3 ADD SWAP1 POP DUP2 DUP2 SUB PUSH0 DUP4 ADD MSTORE PUSH2 0x156F DUP2 DUP5 PUSH2 0x14E4 JUMP JUMPDEST SWAP1 POP SWAP3 SWAP2 POP POP JUMP JUMPDEST PUSH2 0x1580 DUP2 PUSH2 0x1473 JUMP JUMPDEST DUP2 EQ PUSH2 0x158A JUMPI PUSH0 PUSH0 REVERT JUMPDEST POP JUMP JUMPDEST PUSH0 DUP2 CALLDATALOAD SWAP1 POP PUSH2 0x159B DUP2 PUSH2 0x1577 JUMP JUMPDEST SWAP3 SWAP2 POP POP JUMP JUMPDEST PUSH0 PUSH1 0x20 DUP3 DUP5 SUB SLT ISZERO PUSH2 0x15B6 JUMPI PUSH2 0x15B5 PUSH2 0x1279 JUMP JUMPDEST JUMPDEST PUSH0 PUSH2 0x15C3 DUP5 DUP3 DUP6 ADD PUSH2 0x158D JUMP JUMPDEST SWAP2 POP POP SWAP3 SWAP2 POP POP JUMP JUMPDEST PUSH32 0x4E487B7100000000000000000000000000000000000000000000000000000000 PUSH0 MSTORE PUSH1 0x21 PUSH1 0x4 MSTORE PUSH1 0x24 PUSH0 REVERT JUMPDEST PUSH0 DUP3 DUP3 MSTORE PUSH1 0x20 DUP3 ADD SWAP1 POP SWAP3 SWAP2 POP POP JUMP JUMPDEST PUSH32 0x4E6F74207468652074696D6520666F7220746869732100000000000000000000 PUSH0 DUP3 ADD MSTORE POP JUMP JUMPDEST PUSH0 PUSH2 0x163D PUSH1 0x16 DUP4 PUSH2 0x15F9 JUMP JUMPDEST SWAP2 POP PUSH2 0x1648 DUP3 PUSH2 0x1609 JUMP JUMPDEST PUSH1 0x20 DUP3 ADD SWAP1 POP SWAP2 SWAP1 POP JUMP JUMPDEST PUSH0 PUSH1 0x20 DUP3 ADD SWAP1 POP DUP2 DUP2 SUB PUSH0 DUP4 ADD MSTORE PUSH2 0x166A DUP2 PUSH2 0x1631 JUMP JUMPDEST SWAP1 POP SWAP2 SWAP1 POP JUMP JUMPDEST PUSH32 0x4E487B7100000000000000000000000000000000000000000000000000000000 PUSH0 MSTORE PUSH1 0x11 PUSH1 0x4 MSTORE PUSH1 0x24 PUSH0 REVERT JUMPDEST PUSH0 PUSH2 0x16A8 DUP3 PUSH2 0x1473 JUMP JUMPDEST SWAP2 POP PUSH2 0x16B3 DUP4 PUSH2 0x1473 JUMP JUMPDEST SWAP3 POP DUP3 DUP3 ADD SWAP1 POP DUP1 DUP3 GT ISZERO PUSH2 0x16CB JUMPI PUSH2 0x16CA PUSH2 0x1671 JUMP JUMPDEST JUMPDEST SWAP3 SWAP2 POP POP JUMP JUMPDEST PUSH1 0x6 DUP2 LT PUSH2 0x16E2 JUMPI PUSH2 0x16E1 PUSH2 0x15CC JUMP JUMPDEST JUMPDEST POP JUMP JUMPDEST PUSH0 DUP2 SWAP1 POP PUSH2 0x16F2 DUP3 PUSH2 0x16D1 JUMP JUMPDEST SWAP2 SWAP1 POP JUMP JUMPDEST PUSH0 PUSH2 0x1701 DUP3 PUSH2 0x16E5 JUMP JUMPDEST SWAP1 POP SWAP2 SWAP1 POP JUMP JUMPDEST PUSH2 0x1711 DUP2 PUSH2 0x16F7 JUMP JUMPDEST DUP3 MSTORE POP POP JUMP JUMPDEST PUSH0 PUSH1 0x40 DUP3 ADD SWAP1 POP PUSH2 0x172A PUSH0 DUP4 ADD DUP6 PUSH2 0x1708 JUMP JUMPDEST PUSH2 0x1737 PUSH1 0x20 DUP4 ADD DUP5 PUSH2 0x1708 JUMP JUMPDEST SWAP4 SWAP3 POP POP POP JUMP JUMPDEST PUSH32 0x5468652064656C617920666F7220746865207374617465206368616E67652069 PUSH0 DUP3 ADD MSTORE PUSH32 0x73206E6F74207265737065637465640000000000000000000000000000000000 PUSH1 0x20 DUP3 ADD MSTORE POP JUMP JUMPDEST PUSH0 PUSH2 0x1798 PUSH1 0x2F DUP4 PUSH2 0x15F9 JUMP JUMPDEST SWAP2 POP PUSH2 0x17A3 DUP3 PUSH2 0x173E JUMP JUMPDEST PUSH1 0x40 DUP3 ADD SWAP1 POP SWAP2 SWAP1 POP JUMP JUMPDEST PUSH0 PUSH1 0x20 DUP3 ADD SWAP1 POP DUP2 DUP2 SUB PUSH0 DUP4 ADD MSTORE PUSH2 0x17C5 DUP2 PUSH2 0x178C JUMP JUMPDEST SWAP1 POP SWAP2 SWAP1 POP JUMP JUMPDEST PUSH32 0x54686520766F746572206973206E6F74207265676973746572656420696E2074 PUSH0 DUP3 ADD MSTORE PUSH32 0x686520766F7465727357686974656C6973740000000000000000000000000000 PUSH1 0x20 DUP3 ADD MSTORE POP JUMP JUMPDEST PUSH0 PUSH2 0x1826 PUSH1 0x32 DUP4 PUSH2 0x15F9 JUMP JUMPDEST SWAP2 POP PUSH2 0x1831 DUP3 PUSH2 0x17CC JUMP JUMPDEST PUSH1 0x40 DUP3 ADD SWAP1 POP SWAP2 SWAP1 POP JUMP JUMPDEST PUSH0 PUSH1 0x20 DUP3 ADD SWAP1 POP DUP2 DUP2 SUB PUSH0 DUP4 ADD MSTORE PUSH2 0x1853 DUP2 PUSH2 0x181A JUMP JUMPDEST SWAP1 POP SWAP2 SWAP1 POP JUMP JUMPDEST PUSH32 0x4E487B7100000000000000000000000000000000000000000000000000000000 PUSH0 MSTORE PUSH1 0x41 PUSH1 0x4 MSTORE PUSH1 0x24 PUSH0 REVERT JUMPDEST PUSH32 0x4E487B7100000000000000000000000000000000000000000000000000000000 PUSH0 MSTORE PUSH1 0x22 PUSH1 0x4 MSTORE PUSH1 0x24 PUSH0 REVERT JUMPDEST PUSH0 PUSH1 0x2 DUP3 DIV SWAP1 POP PUSH1 0x1 DUP3 AND DUP1 PUSH2 0x18CB JUMPI PUSH1 0x7F DUP3 AND SWAP2 POP JUMPDEST PUSH1 0x20 DUP3 LT DUP2 SUB PUSH2 0x18DE JUMPI PUSH2 0x18DD PUSH2 0x1887 JUMP JUMPDEST JUMPDEST POP SWAP2 SWAP1 POP JUMP JUMPDEST PUSH0 DUP2 SWAP1 POP DUP2 PUSH0 MSTORE PUSH1 0x20 PUSH0 KECCAK256 SWAP1 POP SWAP2 SWAP1 POP JUMP JUMPDEST PUSH0 PUSH1 0x20 PUSH1 0x1F DUP4 ADD DIV SWAP1 POP SWAP2 SWAP1 POP JUMP JUMPDEST PUSH0 DUP3 DUP3 SHL SWAP1 POP SWAP3 SWAP2 POP POP JUMP JUMPDEST PUSH0 PUSH1 0x8 DUP4 MUL PUSH2 0x1940 PUSH32 0xFFFFFFFFFFFFFFFFFFFFFFFFFFFFFFFFFFFFFFFFFFFFFFFFFFFFFFFFFFFFFFFF DUP3 PUSH2 0x1905 JUMP JUMPDEST PUSH2 0x194A DUP7 DUP4 PUSH2 0x1905 JUMP JUMPDEST SWAP6 POP DUP1 NOT DUP5 AND SWAP4 POP DUP1 DUP7 AND DUP5 OR SWAP3 POP POP POP SWAP4 SWAP3 POP POP POP JUMP JUMPDEST PUSH0 DUP2 SWAP1 POP SWAP2 SWAP1 POP JUMP JUMPDEST PUSH0 PUSH2 0x1985 PUSH2 0x1980 PUSH2 0x197B DUP5 PUSH2 0x1473 JUMP JUMPDEST PUSH2 0x1962 JUMP JUMPDEST PUSH2 0x1473 JUMP JUMPDEST SWAP1 POP SWAP2 SWAP1 POP JUMP JUMPDEST PUSH0 DUP2 SWAP1 POP SWAP2 SWAP1 POP JUMP JUMPDEST PUSH2 0x199E DUP4 PUSH2 0x196B JUMP JUMPDEST PUSH2 0x19B2 PUSH2 0x19AA DUP3 PUSH2 0x198C JUMP JUMPDEST DUP5 DUP5 SLOAD PUSH2 0x1911 JUMP JUMPDEST DUP3 SSTORE POP POP POP POP JUMP JUMPDEST PUSH0 PUSH0 SWAP1 POP SWAP1 JUMP JUMPDEST PUSH2 0x19C9 PUSH2 0x19BA JUMP JUMPDEST PUSH2 0x19D4 DUP2 DUP5 DUP5 PUSH2 0x1995 JUMP JUMPDEST POP POP POP JUMP JUMPDEST JUMPDEST DUP2 DUP2 LT ISZERO PUSH2 0x19F7 JUMPI PUSH2 0x19EC PUSH0 DUP3 PUSH2 0x19C1 JUMP JUMPDEST PUSH1 0x1 DUP2 ADD SWAP1 POP PUSH2 0x19DA JUMP JUMPDEST POP POP JUMP JUMPDEST PUSH1 0x1F DUP3 GT ISZERO PUSH2 0x1A3C JUMPI PUSH2 0x1A0D DUP2 PUSH2 0x18E4 JUMP JUMPDEST PUSH2 0x1A16 DUP5 PUSH2 0x18F6 JUMP JUMPDEST DUP2 ADD PUSH1 0x20 DUP6 LT ISZERO PUSH2 0x1A25 JUMPI DUP2 SWAP1 POP JUMPDEST PUSH2 0x1A39 PUSH2 0x1A31 DUP6 PUSH2 0x18F6 JUMP JUMPDEST DUP4 ADD DUP3 PUSH2 0x19D9 JUMP JUMPDEST POP POP JUMPDEST POP POP POP JUMP JUMPDEST PUSH0 DUP3 DUP3 SHR SWAP1 POP SWAP3 SWAP2 POP POP JUMP JUMPDEST PUSH0 PUSH2 0x1A5C PUSH0 NOT DUP5 PUSH1 0x8 MUL PUSH2 0x1A41 JUMP JUMPDEST NOT DUP1 DUP4 AND SWAP2 POP POP SWAP3 SWAP2 POP POP JUMP JUMPDEST PUSH0 PUSH2 0x1A74 DUP4 DUP4 PUSH2 0x1A4D JUMP JUMPDEST SWAP2 POP DUP3 PUSH1 0x2 MUL DUP3 OR SWAP1 POP SWAP3 SWAP2 POP POP JUMP JUMPDEST PUSH2 0x1A8D DUP3 PUSH2 0x1403 JUMP JUMPDEST PUSH8 0xFFFFFFFFFFFFFFFF DUP2 GT ISZERO PUSH2 0x1AA6 JUMPI PUSH2 0x1AA5 PUSH2 0x185A JUMP JUMPDEST JUMPDEST PUSH2 0x1AB0 DUP3 SLOAD PUSH2 0x18B4 JUMP JUMPDEST PUSH2 0x1ABB DUP3 DUP3 DUP6 PUSH2 0x19FB JUMP JUMPDEST PUSH0 PUSH1 0x20 SWAP1 POP PUSH1 0x1F DUP4 GT PUSH1 0x1 DUP2 EQ PUSH2 0x1AEC JUMPI PUSH0 DUP5 ISZERO PUSH2 0x1ADA JUMPI DUP3 DUP8 ADD MLOAD SWAP1 POP JUMPDEST PUSH2 0x1AE4 DUP6 DUP3 PUSH2 0x1A69 JUMP JUMPDEST DUP7 SSTORE POP PUSH2 0x1B4B JUMP JUMPDEST PUSH1 0x1F NOT DUP5 AND PUSH2 0x1AFA DUP7 PUSH2 0x18E4 JUMP JUMPDEST PUSH0 JUMPDEST DUP3 DUP2 LT ISZERO PUSH2 0x1B21 JUMPI DUP5 DUP10 ADD MLOAD DUP3 SSTORE PUSH1 0x1 DUP3 ADD SWAP2 POP PUSH1 0x20 DUP6 ADD SWAP5 POP PUSH1 0x20 DUP2 ADD SWAP1 POP PUSH2 0x1AFC JUMP JUMPDEST DUP7 DUP4 LT ISZERO PUSH2 0x1B3E JUMPI DUP5 DUP10 ADD MLOAD PUSH2 0x1B3A PUSH1 0x1F DUP10 AND DUP3 PUSH2 0x1A4D JUMP JUMPDEST DUP4 SSTORE POP JUMPDEST PUSH1 0x1 PUSH1 0x2 DUP9 MUL ADD DUP9 SSTORE POP POP POP JUMPDEST POP POP POP POP POP POP JUMP JUMPDEST PUSH0 PUSH2 0x1B5D DUP3 PUSH2 0x1473 JUMP JUMPDEST SWAP2 POP PUSH2 0x1B68 DUP4 PUSH2 0x1473 JUMP JUMPDEST SWAP3 POP DUP3 DUP3 SUB SWAP1 POP DUP2 DUP2 GT ISZERO PUSH2 0x1B80 JUMPI PUSH2 0x1B7F PUSH2 0x1671 JUMP JUMPDEST JUMPDEST SWAP3 SWAP2 POP POP JUMP JUMPDEST PUSH2 0x1B8F DUP2 PUSH2 0x1473 JUMP JUMPDEST DUP3 MSTORE POP POP JUMP JUMPDEST PUSH0 PUSH1 0x20 DUP3 ADD SWAP1 POP PUSH2 0x1BA8 PUSH0 DUP4 ADD DUP5 PUSH2 0x1B86 JUMP JUMPDEST SWAP3 SWAP2 POP POP JUMP JUMPDEST PUSH32 0x54686520766F74657220697320616C7265616479206F6E2074686520766F7465 PUSH0 DUP3 ADD MSTORE PUSH32 0x727357686974656C697374000000000000000000000000000000000000000000 PUSH1 0x20 DUP3 ADD MSTORE POP JUMP JUMPDEST PUSH0 PUSH2 0x1C08 PUSH1 0x2B DUP4 PUSH2 0x15F9 JUMP JUMPDEST SWAP2 POP PUSH2 0x1C13 DUP3 PUSH2 0x1BAE JUMP JUMPDEST PUSH1 0x40 DUP3 ADD SWAP1 POP SWAP2 SWAP1 POP JUMP JUMPDEST PUSH0 PUSH1 0x20 DUP3 ADD SWAP1 POP DUP2 DUP2 SUB PUSH0 DUP4 ADD MSTORE PUSH2 0x1C35 DUP2 PUSH2 0x1BFC JUMP JUMPDEST SWAP1 POP SWAP2 SWAP1 POP JUMP JUMPDEST PUSH32 0x4E487B7100000000000000000000000000000000000000000000000000000000 PUSH0 MSTORE PUSH1 0x32 PUSH1 0x4 MSTORE PUSH1 0x24 PUSH0 REVERT JUMPDEST PUSH0 PUSH2 0x1C73 DUP3 PUSH2 0x1473 JUMP JUMPDEST SWAP2 POP PUSH32 0xFFFFFFFFFFFFFFFFFFFFFFFFFFFFFFFFFFFFFFFFFFFFFFFFFFFFFFFFFFFFFFFF DUP3 SUB PUSH2 0x1CA5 JUMPI PUSH2 0x1CA4 PUSH2 0x1671 JUMP JUMPDEST JUMPDEST PUSH1 0x1 DUP3 ADD SWAP1 POP SWAP2 SWAP1 POP JUMP JUMPDEST PUSH32 0x54686520766F7465722068617320616C726561647920766F7465640000000000 PUSH0 DUP3 ADD MSTORE POP JUMP JUMPDEST PUSH0 PUSH2 0x1CE4 PUSH1 0x1B DUP4 PUSH2 0x15F9 JUMP JUMPDEST SWAP2 POP PUSH2 0x1CEF DUP3 PUSH2 0x1CB0 JUMP JUMPDEST PUSH1 0x20 DUP3 ADD SWAP1 POP SWAP2 SWAP1 POP JUMP JUMPDEST PUSH0 PUSH1 0x20 DUP3 ADD SWAP1 POP DUP2 DUP2 SUB PUSH0 DUP4 ADD MSTORE PUSH2 0x1D11 DUP2 PUSH2 0x1CD8 JUMP JUMPDEST SWAP1 POP SWAP2 SWAP1 POP JUMP JUMPDEST PUSH32 0x496E76616C69642070726F706F73616C20696400000000000000000000000000 PUSH0 DUP3 ADD MSTORE POP JUMP JUMPDEST PUSH0 PUSH2 0x1D4C PUSH1 0x13 DUP4 PUSH2 0x15F9 JUMP JUMPDEST SWAP2 POP PUSH2 0x1D57 DUP3 PUSH2 0x1D18 JUMP JUMPDEST PUSH1 0x20 DUP3 ADD SWAP1 POP SWAP2 SWAP1 POP JUMP JUMPDEST PUSH0 PUSH1 0x20 DUP3 ADD SWAP1 POP DUP2 DUP2 SUB PUSH0 DUP4 ADD MSTORE PUSH2 0x1D79 DUP2 PUSH2 0x1D40 JUMP JUMPDEST SWAP1 POP SWAP2 SWAP1 POP JUMP JUMPDEST PUSH0 PUSH1 0x40 DUP3 ADD SWAP1 POP PUSH2 0x1D93 PUSH0 DUP4 ADD DUP6 PUSH2 0x13B2 JUMP JUMPDEST PUSH2 0x1DA0 PUSH1 0x20 DUP4 ADD DUP5 PUSH2 0x1B86 JUMP JUMPDEST SWAP4 SWAP3 POP POP POP JUMP INVALID LOG2 PUSH5 0x6970667358 0x22 SLT KECCAK256 PUSH13 0xF0A45434DD6CC7DC0A920F4C4F CREATE2 0xA8 LOG0 0xA8 XOR DUP3 0xDA RETURN SWAP8 0xC0 SWAP1 0x4D SWAP8 POP DUP1 0xDB RETURNCONTRACT 0x13 PUSH5 0x736F6C6343 STOP ADDMOD 0x1E STOP CALLER "
				},
				"gasEstimates": {
					"creation": {
						"codeDepositCost": "1529000",
						"executionCost": "infinite",
						"totalCost": "infinite"
					},
					"external": {
						"Vote(uint256)": "infinite",
						"getWinner()": "infinite",
						"owner()": "2514",
						"registerProposal(string)": "infinite",
						"registerVoter(address)": "infinite",
						"renounceOwnership()": "infinite",
						"startProposalRegistration()": "infinite",
						"startVotingSession()": "infinite",
						"stopProposalRegistration()": "infinite",
						"stopVotingSession()": "infinite",
						"transferOwnership(address)": "infinite",
						"votesTallied()": "infinite"
					}
				},
				"methodIdentifiers": {
					"Vote(uint256)": "dcd6a5cd",
					"getWinner()": "8e7ea5b2",
					"owner()": "8da5cb5b",
					"registerProposal(string)": "2f95355b",
					"registerVoter(address)": "38db6dd3",
					"renounceOwnership()": "715018a6",
					"startProposalRegistration()": "0f7e2838",
					"startVotingSession()": "ee74c678",
					"stopProposalRegistration()": "4abfba2b",
					"stopVotingSession()": "17a0ad8e",
					"transferOwnership(address)": "f2fde38b",
					"votesTallied()": "ada7415f"
				}
			},
			"storageLayout": {
				"storage": [
					{
						"astId": 491,
						"contract": "MyStuff/Projet 1/VotingPlus.sol:VotingPlus",
						"label": "_owner",
						"offset": 0,
						"slot": "0",
						"type": "t_address"
					},
					{
						"astId": 50,
						"contract": "MyStuff/Projet 1/VotingPlus.sol:VotingPlus",
						"label": "votersWhitelist",
						"offset": 0,
						"slot": "1",
						"type": "t_mapping(t_address,t_struct(Voter)11_storage)"
					},
					{
						"astId": 55,
						"contract": "MyStuff/Projet 1/VotingPlus.sol:VotingPlus",
						"label": "currentState",
						"offset": 0,
						"slot": "2",
						"type": "t_enum(WorkflowStatus)23"
					},
					{
						"astId": 57,
						"contract": "MyStuff/Projet 1/VotingPlus.sol:VotingPlus",
						"label": "nextStateChangeAuthorizedTimestamp",
						"offset": 0,
						"slot": "3",
						"type": "t_uint256"
					},
					{
						"astId": 61,
						"contract": "MyStuff/Projet 1/VotingPlus.sol:VotingPlus",
						"label": "proposals",
						"offset": 0,
						"slot": "4",
						"type": "t_array(t_struct(Proposal)16_storage)dyn_storage"
					}
				],
				"types": {
					"t_address": {
						"encoding": "inplace",
						"label": "address",
						"numberOfBytes": "20"
					},
					"t_array(t_struct(Proposal)16_storage)dyn_storage": {
						"base": "t_struct(Proposal)16_storage",
						"encoding": "dynamic_array",
						"label": "struct VotingPlus.Proposal[]",
						"numberOfBytes": "32"
					},
					"t_bool": {
						"encoding": "inplace",
						"label": "bool",
						"numberOfBytes": "1"
					},
					"t_enum(WorkflowStatus)23": {
						"encoding": "inplace",
						"label": "enum VotingPlus.WorkflowStatus",
						"numberOfBytes": "1"
					},
					"t_mapping(t_address,t_struct(Voter)11_storage)": {
						"encoding": "mapping",
						"key": "t_address",
						"label": "mapping(address => struct VotingPlus.Voter)",
						"numberOfBytes": "32",
						"value": "t_struct(Voter)11_storage"
					},
					"t_string_storage": {
						"encoding": "bytes",
						"label": "string",
						"numberOfBytes": "32"
					},
					"t_struct(Proposal)16_storage": {
						"encoding": "inplace",
						"label": "struct VotingPlus.Proposal",
						"members": [
							{
								"astId": 13,
								"contract": "MyStuff/Projet 1/VotingPlus.sol:VotingPlus",
								"label": "description",
								"offset": 0,
								"slot": "0",
								"type": "t_string_storage"
							},
							{
								"astId": 15,
								"contract": "MyStuff/Projet 1/VotingPlus.sol:VotingPlus",
								"label": "voteCount",
								"offset": 0,
								"slot": "1",
								"type": "t_uint256"
							}
						],
						"numberOfBytes": "64"
					},
					"t_struct(Voter)11_storage": {
						"encoding": "inplace",
						"label": "struct VotingPlus.Voter",
						"members": [
							{
								"astId": 6,
								"contract": "MyStuff/Projet 1/VotingPlus.sol:VotingPlus",
								"label": "isRegistered",
								"offset": 0,
								"slot": "0",
								"type": "t_bool"
							},
							{
								"astId": 8,
								"contract": "MyStuff/Projet 1/VotingPlus.sol:VotingPlus",
								"label": "hasVoted",
								"offset": 1,
								"slot": "0",
								"type": "t_bool"
							},
							{
								"astId": 10,
								"contract": "MyStuff/Projet 1/VotingPlus.sol:VotingPlus",
								"label": "votedProposalId",
								"offset": 0,
								"slot": "1",
								"type": "t_uint256"
							}
						],
						"numberOfBytes": "64"
					},
					"t_uint256": {
						"encoding": "inplace",
						"label": "uint256",
						"numberOfBytes": "32"
					}
				}
			},
			"userdoc": {
				"kind": "user",
				"methods": {},
				"version": 1
			}
		}
	}
}